:020000040800F2
:1000000028190020453C0008B5010008B701000888
:1000100000000000000000000000000000000000E0
:10002000000000000000000000000000B90100080E
:100030000000000000000000BB010008BD01000836
:10004000573C0008573C0008573C0008573C000844
:10005000573C0008A71E0008573C0008EB1E00088C
:10006000573C0008573C0008573C0008573C000824
:10007000573C0008573C0008573C0008573C000814
:10008000573C0008573C000800000000573C00089F
:10009000573C0008BF010008573C0008573C0008C7
:1000A000573C0008573C0008573C0008573C0008E4
:1000B000573C000800000000573C0008000000000A
:1000C00000F002F800F030F80CA030C8083824180E
:1000D0002D18A246671EAB4654465D46AC4201D180
:1000E00000F022F87E460F3E0FCCB6460126334282
:1000F00000D0FB1AA246AB463343184740660000C7
:10010000606600000023002400250026103A01D379
:1001100078C1FBD8520700D330C100D50B607047BF
:100120001FB51FBD10B510BD06F0B0F91146FFF7A1
:10013000F7FF00F025F806F0C8F903B4FFF7F2FF67
:1001400003BC06F0CFF9000070B505460C46164614
:1001500002E00FCC0FC5103E102EFAD2082E02D3AB
:1001600003CC03C5083E042E07D301CC01C5361FBE
:1001700003E021782970641C6D1C761EF9D270BDD5
:1001800010B50A49042000F0C9F802F07DFE03F022
:100190004FFD02F021F901F07CFF0022012104480B
:1001A00003F00FFD03F0F2FC002010BDE20400009C
:1001B0004D0300087047FEE770477047704710B561
:1001C000064C0121204604F049FE002805D003F02A
:1001D0002AFD0121204604F04DFE10BD00440140DF
:1001E00010B5474801680122114301604168454A42
:1001F000114041600168444A1140016001680122D8
:1002000092049143016041683F221204914341608E
:10021000C16A09090901C162016BFF22543291438D
:100220000163416B4908490041630021816000F08E
:100230002EF810BD70B5324D69680C20014033486E
:10024000334C03D0042901D0082901D0206014E0E8
:100250006A686968012392021B04160F1940B61CD4
:10026000002907D0E96A0907090F491C06F05EF862
:100270007043EBE727484643266068682449000638
:10028000000F091D085C2168C140216070BD38B5B0
:1002900000201B4C00902068012109048843206045
:1002A0001D480168102211430160016801221143B9
:1002B0000160606860606068606060683F21090498
:1002C0008843606060680521C904084360600520B8
:1002D00003F056FE206801210906084320602068CB
:1002E0008001FCD560688008800060606068022141
:1002F0000843606060680007800F0228FAD138BDAB
:10030000001002400CB8FFF8FFFFF6FE00127A0062
:100310000000002000093D000020024070B50446A6
:100320000D46094805F04CFB204605F04CFB2846DD
:1003300005F04CFB05F04DFB05F052FB70BD10B510
:1003400005F047FB10BD00005555000010B503F047
:10035000E4F903F0C9FAFF2205323149314802F0CD
:10036000DBFD4821304802F073FE2F48583802F078
:1003700026FE092201212D4803F023FC0A22012137
:100380002B4803F01EFC032201212A4803F019FC2C
:1003900005220121284803F014FC072201212748E7
:1003A00003F00FFC0C220121254803F00AFC062271
:1003B0000121244803F005FC02220121224803F018
:1003C00000FC08220121214803F0FBFB042201214B
:1003D0001F4803F0F6FB0B2201211E4803F0F1FB3E
:1003E000002003F004FC10BD1B4910B5081F03F0EA
:1003F0004BFB194CA41F207800280CD060780028F3
:1004000009D002F019F801F0F9FF00206070012115
:10041000022003F01AF83221012003F0F1FB10BD95
:10042000330700209804002050040020950700089E
:10043000AD1C000817250008E10E0008E91A0008A5
:1004400007100008A919000873180008E91500082A
:1004500043100008491200081A00002070B501215D
:100460008902F74C4D00002809D0012806D120460A
:1004700003F08BFC2946204603F087FC70BD204624
:1004800003F085FC2946204603F081FC70BDED4950
:10049000012008707047EB49002008707047E94858
:1004A000012141718171C17101724172817200211A
:1004B00041758175C1758187017641768176C176F6
:1004C000017741777047DF4800214175817570479A
:1004D000DC4900238031CB620B63012280394A71F1
:1004E0008A714A758A750B764B76032807D00628E1
:1004F00008D0092802D10320C87608777047CA7649
:100500000A7770470220F7E770B506460020FFF72C
:10051000A5FF0021084602F098FF0021012002F00B
:1005200094FFC848007D012804D0022805D0032884
:1005300006D009E00021022004E00021032001E0B0
:100540000021042002F081FFFF25F535284602F046
:1005500094FC002421E00121022002F076FF012119
:10056000032002F072FF0121042002F06EFF2846F2
:1005700002F083FC0021022002F067FF002103202B
:1005800002F063FF0021042002F05FFF284602F022
:1005900074FCFFF7D4FE641CE4B2B442DBD370BD3C
:1005A00070B500226421012003F0A4F90022642127
:1005B000022003F09FF900226421032003F09AF93E
:1005C00000226421042003F095F97D2676010022A3
:1005D0003146052003F08EF90021084602F035FF70
:1005E0000024F5100121022002F02FFF0121032039
:1005F00002F02BFF0121042002F027FF32223146B6
:10060000052003F077F9284602F067FC002102205C
:1006100002F01BFF0021032002F017FF002104203D
:1006200002F013FF00223146052003F063F928464B
:1006300002F053FC641CE4B2032CD3D370BD70B53C
:1006400006460020FFF70AFF0021084602F0FDFEE3
:100650007C48007D012804D0022805D0032806D05C
:1006600009E00021022004E00021032001E0002134
:10067000042002F0EAFEFF25F535284602F0FDFBD6
:10068000002411E00121084602F0DFFE284602F0B6
:10069000F4FB0021012002F0D8FE284602F0EDFB19
:1006A000FFF74DFE641CE4B2B442EBD370BD10B54D
:1006B00000224378012104E0445CA218491C92B254
:1006C00089B29942F8D3110AC154C018427010BDC2
:1006D000F8B55D4D5D4802F08DFC5A4C002786B29E
:1006E000203453E0594802F07BFCA17A002942D023
:1006F000E17A00292FD0217B6854207B401C207395
:10070000607B401E0006000E60733DD100226978B8
:10071000012003E02B5C9A1892B2401C8842F9DB5E
:10072000685C030268184078181890420BD1FF22C9
:1007300045495F32881805F08FFD454802F023FBDC
:10074000022002F0CAFBA772FF21E7725F313E4828
:1007500005F0EAFD18E0FF22411E5D32914208D209
:10076000394A217B505460730120E072491C217387
:100770000AE0A77208E0FF2806D13349087001217A
:10078000A172E77221736773761EB6B2002EA9D1EB
:100790000120F8BD10B5FF24CCB02D3421466846A9
:1007A00005F0C2FD2B48007800280AD127482246D0
:1007B0006946A03002F0E6FB010002D0684602F074
:1007C000C0FC1C21092003F01BFA4CB010BD1D49D0
:1007D0000120887300208031C861704719490120C9
:1007E00000230A4648718032D36288711363C8714E
:1007F0005363087293634872D36388729362087478
:100800001361C8725361087353624873136288732B
:10081000D361C8739361704770B50A4A0B00803288
:1008200005F092FE0F1E091A2C31363B1E401E4564
:100830004A4F54591E000349491DD160A7310EE0AB
:1008400000040048200000203C010020F8030020A4
:100850009A020020FD000020FE49D160AA311164F7
:10086000D368FD491D7800240968012D38D00E1881
:1008700001258E4238D200283BD03FE0F549491C83
:10088000D160AD31EBE7F349891CD160B031E6E7C7
:10089000F049C91CD160B331E1E7EE49091DD160CF
:1008A0009E31DCE7EB490A31D1608031D7E7E94975
:1008B000491DD1608931D2E7E649891DD16098315F
:1008C0001164E449C91DD16093311164E1490831D3
:1008D000D1608E311164DF490931D1608931BEE7C1
:1008E000106C01601C7009E0166C3668891B81422F
:1008F00004D31D70106C0460012070BD002070BD19
:10090000F3B58FB0002009900320069004200490D6
:1009100000200A90052008900620039007200790E9
:100920000F46CC480F99082602247A30012904D0BA
:10093000022909D003290ED115E0C6490F314164BF
:10094000C91C8164C91C05E0C24910314164C91C3D
:100950008164C91CC164BF4800257A30406C0078AE
:10096000012817D045E002210991042106910521B3
:10097000049106210A910721089108210391092178
:100980000791B4490A2611314164C91C03248164CA
:10099000C91CDFE7AF493878891F497F401E88426C
:1009A00018DA00226421012002F0A4FF0022642151
:1009B000022002F09FFF00226421032002F09AFF30
:1009C000A4480721801F41758175C175C5760577DB
:1009D00045770EE09F48801F0078002810D0002245
:1009E0006421032002F086FF9A48801F8577FFF775
:1009F00056FD98487A30406C0078022813D088E081
:100A0000944806997A30C06C491C00787043C0192C
:100A1000425C611C415C0F9802F06CFF8D49022022
:100A20007A31496C08700F98032806D089487A30CB
:100A3000C06C00787043C1194DE0902002F0A4FC16
:100A400084497A31C96C0D9109787143CA190999A1
:100A50000192491C535C7F49804A7A3189688C46EF
:100A60004B430021515E5A18824233D86246B42368
:100A70005A435118814215D9764903207A31496C7D
:100A800008700D9909787143CA19611C515C0022E4
:100A900002F030FF6F490120891FC871084680307D
:100AA000456336E06B4904207A31496C00220870B6
:100AB0006421012002F01EFF00226421022002F0C6
:100AC00019FF00226421032002F014FF0020FFF729
:100AD000C5FC1EE001990498401C085C7D21C900FA
:100AE00048430F99FFF798FE002812D059487A30F2
:100AF000816C0A78521C0A70426C05211170C06C1E
:100B0000002200787043C119601C095C0F9802F044
:100B1000F1FE50487A30406C007804280ED14D48E0
:100B2000801F8577FFF7BBFC162001F0A2FC052093
:100B3000FFF7EAFC01F050FC01F0ABFA45487A30CF
:100B4000406C0078032874D142487A30C06C007839
:100B50007043C1190A98401C085C7D21C9004843B4
:100B60000F99FFF759FE002809D03A487A30816C76
:100B70000A78521C0A70406C0521017021E0902017
:100B800002F002FC3349B4227A31896800235143D0
:100B9000324AD35EC918884217D32E4904207A31CD
:100BA000496C002208706421012002F0A3FE00229B
:100BB0006421022002F09EFE00226421032002F044
:100BC00099FE0020FFF74AFC33E0902002F0DCFBA6
:100BD00020497A31CA6C896812787243D319099A0C
:100BE000521C9A5C00234A431C49CB5ED1188142B7
:100BF00016D389B2081A82B216480191801F436F3A
:100C000059184167002A02D0642A00D36422642163
:100C1000032002F06FFE0F490198891FC88708E082
:100C200000226421032002F065FE0A48801F456708
:100C3000C58708487A30406C8446007805287FD103
:100C4000044808997A30836CC06C1A780078704335
:100C5000C01905E026000020240100201801002012
:100C6000491C415C8A4229D10F98032804D00620F0
:100C7000614608701D7063E00020FFF7EFFBFF493D
:100C80000620496C00220870FC486421806C0570C5
:100C9000012002F02FFE00226421022002F02AFE31
:100CA000F6480121803841758175C17E491CC176A5
:100CB000017F491C0177057645763AE00F990329B3
:100CC000039918D0491C405C7D21C90048430F9905
:100CD000FFF7A2FD002833D0E84D0699E86C491CC7
:100CE00000787043C019425C641C015D0F9802F0EB
:100CF00001FE022052E0491C405C7D21C9004843AE
:100D00000F99FFF789FD002810D0DC488038057066
:100D10000120FFF7A3FBD94DE86C00787043C1199F
:100D20000698401C0A5C641C095DDFE70020FFF7A1
:100D300095FBD248416C0978062932D011B0F0BD3C
:100D4000CE48416C09780629F8D10F99032928D09B
:100D5000C06C00787043C1190798401C085C7D2165
:100D6000C90048430F99FFF757FD0028E6D0C34953
:100D70000820803988772846C04D641CA96C002261
:100D80000870E86C00787043C019015D0F9802F09C
:100D9000B1FDE96C0878401C08700120696C08708E
:100DA000CCE7B648C06C00787043C1190798401C66
:100DB000085C7D21C90048430F99FFF72DFD0028ED
:100DC000BCD0AE4D0020803D28700120FFF746FBCF
:100DD0000820A8770020CFE710B50022A84BFF21FC
:100DE000D9319C5C8454521C8A42FADB014676223B
:100DF000A44801F06EFC10BD02780021521EFF2AAB
:100E000037D20022491C89B243189B78491C89B209
:100E1000012B2ED80B46603B3C2B05D99C3B3C2B31
:100E200002D99C3B3C2B01D8491C89B243189B78C2
:100E3000491C89B2002B1CD043189B78642B18D80E
:100E4000491C89B243189B78491C89B2002B10D0E9
:100E50000B46603B3C2B05D99C3B3C2B02D99C3B71
:100E60003C2B01D8491C89B243189B785B1EFA2B96
:100E700000D3B1E7C91C521C89B2362AC2DB7047C5
:100E8000F7B5002001990124491C844603468E468B
:100E9000012A04D0022A02D0032A02D002E008204C
:100EA00000E00A2005465D437146695C012910D1C6
:100EB000002108E0019E7618AF5D009E3755641C46
:100EC000491CE4B2C9B28142F4D36146491CC9B29B
:100ED0008C465B1C062BDBDB009960460870FEBD70
:100EE000F8B5664C0121603C22782546C903664866
:100EF00000260127203D002A43D002F034FF0028BD
:100F00004AD1A07B052872D0401CA0730AE0E07B88
:100F1000052805D1E97F002902D1E178002969D0AF
:100F2000401CE0731421052002F06AFEF8BD022087
:100F30002875002102F089FA0121032013E002281C
:100F400002D0032811D107E003202875002102F008
:100F50007CFA0121042006E02F750021042002F014
:100F600074FA0121022002F070FAFFF798FAAE77C6
:100F700000226421012002F0BDFC00226421022035
:100F80001DE0424BA2781B781A43EB7F1A43C9D16C
:100F900002F0E9FE002804D0A673687C0128B6D0D0
:100FA000C0E70E213A48FFF737FC0028A9D0EF77B9
:100FB0002771FFF774FAAE7700226421012002F056
:100FC00099FC00226421022002F094FC002264219A
:100FD000032002F08FFC00226421042002F08AFC2E
:100FE00000226421052002F085FC9BE7FFE76F7477
:100FF000A67397E72148EF738661E6736E74287DC8
:1010000001289CD193E710B522480078002817D01A
:101010001A4C803C207801280ED10020FFF71EFAE0
:101020007D2008214001FFF7F7FB002804D00120B4
:10103000FFF714FA0020207032210C2002F0E0FDAE
:1010400010BDF8B5144E0D4C307804270125603CD6
:10105000002846D100226421012002F04BFC00222E
:101060006421022002F046FC00226421032002F0E9
:1010700041FC00226421042010E00000A0000020B8
:10108000626500080078000800040048FD000020A8
:1010900088130000FE000020FC00002002F02AFC63
:1010A0007D2100224901052002F024FC322001F0BC
:1010B00014FF09200121C00602F055FE012801D0CD
:1010C000357011E037706570FE48A5700178002911
:1010D00025D10570FC4900200870FC498877FFF78E
:1010E000DEF93078012803D101F076F900F0D1FF64
:1010F000307802280DD10F2001F0EFFE09200121E8
:10110000C00602F030FE002803D101F065F900F0BE
:10111000C0FF6078012802D004282DD030E00926D5
:10112000F6062021304602F01EFE002805D11021CF
:10113000304602F018FE012806D02021304602F089
:1011400012FE012803D008E0022060701BE010218D
:10115000304602F008FE002806D02021304602F07A
:1011600002FE012803D006E00320607047E0102152
:10117000304602F0F8FD677001F02EF900F089FFAB
:101180006078022838D10021012002F05EF90021A8
:10119000022002F05AF90021032002F056F9002142
:1011A000042002F052F9217C7D20C000002919D0D2
:1011B0000C21FFF731FB00281ED00121002002F096
:1011C00044F9002009252074ED062021284602F06C
:1011D000CAFD012810D11021284602F0C4FD0028C4
:1011E000C2D009E00C21FFF717FB002804D0002132
:1011F000084602F02AF925746078032803D10121FA
:10120000002002F022F91421042002F0F9FCF8BDBC
:10121000884201D9401A00E0081A80B2704770B5C0
:10122000AA4D00248035AA4E01E00A2C09D0304690
:1012300001F076FB641CA8601238E4B20428F4D2F2
:1012400070BD1420A86070BDF8B5A04C02272034F2
:1012500020790125002601282ED19C48C1780079EB
:10126000014350D1022002F0F0F80021032002F0E7
:10127000ECF80021042002F0E8F8002264210120AB
:1012800002F038FB00226421022002F033FB00222E
:101290006421032002F02EFB00226421042002F0CE
:1012A00029FB7D2100224901052002F023FB207D3E
:1012B0000A2807D0401C20752079022809D003286D
:1012C00015D020E02675277165710020FFF7C6F85C
:1012D000F2E7E570A07D14217D2241435201914245
:1012E00015D1A6750120FFF7B9F803202071FFF78B
:1012F00096FF784802F077F9042020714622642195
:10130000032002F0F7FAE078012802D030E0401C18
:10131000A0756079012808D1607D282809D0401C7B
:1013200060750121022002F090F86079022804D053
:101330000CE0667567710021F4E7607D282809D00C
:10134000401C60750121032002F07FF860790328BA
:1013500005D00DE00320667560710021F3E7607D24
:1013600028280CD0401C60750121042002F06DF883
:10137000564D207907274035042804D03BE0667598
:1013800065710021F1E7902001F0FEFF4F49C8226E
:1013900080318968002351434E4AD35EC918814287
:1013A00018D86E8300226421032002F0A3FA902053
:1013B00001F0EAFF2884E98BFFF72AFF43490A225C
:1013C000803189685143884201D2277179E0052034
:1013D000207113E0688B14213F4A4143914201D1AF
:1013E0006E83F2E7401C80B26883052803D1902009
:1013F00001F0CAFFE8832079052830D1A88B142199
:10140000354A4143914206D1AE830020FFF726F8CA
:101410000620207126E0401C80B2A8831421484396
:101420002E49884203D1902001F0AEFF6884A88B3A
:101430002B49884213D1902001F0A6FFA8840146D1
:10144000688CFFF7E5FE2149062280318968514307
:10145000884204D92771AE830020FEF7FFFF207970
:10146000062816D1A07D14211C4A4143914204D183
:101470000120FEF7F3FFA6750BE0401CC0B2A0757B
:10148000012803D1902001F07FFFE884A07DC828C7
:1014900003D02079072814D064E0902001F074FF75
:1014A00028850146E88CFFF7B3FE08490A228031FF
:1014B00089685143884233D2182000F0DAFF27713F
:1014C000A6750FE0FE000020FD0000202000002097
:1014D000008000081801002030750000881300000B
:1014E000D20500000021E670084601F0AEFF0021A1
:1014F000012001F0AAFF217E052917D0607E142269
:1015000003465343FF222D3293422FD1A07E142352
:101510004343934212D1491C21766676A67621E098
:10152000172000F0A6FF082020712FE0FE48267645
:10153000C67700F051FF00F0ACFD13E0401CA07630
:101540000121022001F081FF0121032001F07DFF34
:101550000121042001F079FF50227D21490105205D
:1015600002F0C8F92079082810D038E0401C6076D5
:101570000021022001F069FF0021032001F065FF36
:101580000021042001F061FF0022E6E7E670E07E22
:101590001421E64A4143914213D1E3480021C67722
:1015A000E676022001F051FF0021032001F04DFFFB
:1015B0000021042001F049FF00F00EFF00F069FD5A
:1015C0000DE0401CE0760121022001F03EFF0121E8
:1015D000032001F03AFF0121042001F036FF14211D
:1015E0000B2002F00DFBF8BDF8B5CF4CCE4E2034E9
:1015F000A0792746354660374035002838D1F07845
:101600003179084375D0288B042835D0401C2883B5
:1016100000226421012002F06DF9002264210220E1
:1016200002F068F900226421032002F063F900222D
:101630006421042002F05EF97D2100224901052089
:1016400002F058F97D2100224901052002F052F9EB
:101650000021084601F0F9FE0021022001F0F5FE0C
:101660000021032001F0F1FE0021042001F0EDFE35
:10167000A07901281FD066E000202883207A022864
:1016800016D00121022001F0E0FE0121032001F02B
:10169000DCFE0121042001F0D8FE0120A0717D2193
:1016A00032224901052002F025F90120E071DFE72F
:1016B00001210020EFE7207A012802D0022818D16A
:1016C00018E099484430011F3860B16700880A214A
:1016D000FFF7A2F8002836D00021022001F0B5FE65
:1016E0000021032001F0B1FE0021042001F0ADFE35
:1016F00019E053E08C484A30811E3860B167008899
:101700000A21FFF789F8002813D00021084601F0CC
:101710009CFE00226421012002F0ECF800226421EA
:10172000022002F0E7F80220A071A88A401CA882DB
:101730000CE032226421012002F0DCF83222642124
:10174000022002F0D7F8A079022842D1B06FA98A0E
:101750000088884203D10020A88203201DE0207A5F
:10176000012802D0022834D119E06F484430011F0B
:101770003860B16700880A21FFF74EF8002828D0AA
:101780000121022001F061FE0121032001F05DFE34
:101790000121042001F059FE0120A07119E06248E6
:1017A0004C30011F3860B16700880A21FFF734F818
:1017B00000280ED00121002001F047FE0120A07179
:1017C0003222642102F096F832226421022002F0D3
:1017D00091F8E079012822D1207A012802D002284C
:1017E0000AD104E0504846307860001F03E04E48BC
:1017F00050307860801EF06778680B210088FFF712
:101800000BF800280BD07D2100224901052002F0B1
:1018100071F80220E071E88A401CE88202E0E07979
:10182000022817D1F06FE98A0088884203D100208E
:10183000E88203200DE078680B210088FEF7ECFFBA
:10184000002807D07D2132224901052002F052F8FC
:101850000120E071A079032806D1E079032803D1A3
:1018600000F0BAFD00F015FC3221082002F0C8F9A2
:10187000F8BDF8B52E482C4C0188408820340090E3
:10188000A07800282CD12B4800250078264E01276F
:1018900000282AD0E07D2246603214285AD0401C0D
:1018A000E075106D4018106523490098884217D2E2
:1018B000607C012860D000226421012002F01AF827
:1018C00000226421022002F015F800226421032086
:1018D00002F010F87575B575F575607C401C607484
:1018E0003221022002F08CF9F8BD144881423DD229
:1018F000B57000226421012001F0FCFF0022642168
:10190000022001F0F7FF00226421032001F0F2FF22
:1019100000226421042001F0EDFF7D210022490115
:10192000052001F0E7FF0BE02000002088130000F5
:1019300014010020FE000020B6030000550900003D
:101940000520FEF77CFEE148077000F045FD00F041
:10195000A0FBA9E7DE481421006D04F0E7FCDC4998
:101960000865DC4980B2E575884201D3B7709BE712
:10197000152000F07EFDBBE7192000F07AFD6574AC
:101980000520FEF7C1FDD148077000F025FD00F0ED
:1019900080FBA5E7CE4800218038C166012201679F
:1019A0008274C17441707047F8B5CB480078002844
:1019B00078D0C74E0025603EB0783446203C0028E1
:1019C00001D0E56669E0C1480078002866D1707AE8
:1019D000012700285AD0A07C002817D0E07C0028DE
:1019E00014D0B07C192824D050226421012001F0A9
:1019F00081FF50226421022001F07CFF50226421EB
:101A0000022001F077FFB07C401CB0740121490333
:101A1000B24802F0A8F900281ED0E566206F142114
:101A2000AF4A4143914243D12567E07F002824D04B
:101A300034E0B574A57400226421012001F05AFF3E
:101A400000226421022001F055FF002264210320BE
:101A500001F050FF3770D9E7E06E14217D22414339
:101A60001201914206D1E5662567984867700570B6
:101A7000E77413E0401CE06610E06570142000F08D
:101A8000F8FCE77091483772077007E001214903BD
:101A9000924802F068F9012805D025671421062034
:101AA00002F0AEF8F8BD206F14214143C82902D0DE
:101AB000401C2067F2E7002264210120256701F025
:101AC00019FF00226421022001F014FF002264218A
:101AD000032001F00FFF0020FEF7C0FC3570A57752
:101AE000FEF7DDFC7772D9E7F0B5794DF7B0603DD0
:101AF000287801284FD1A8780028FBD12C46203C1B
:101B0000E07F0028F6D120780028F3D1A07F0028BC
:101B10001DD17626B7003946684604F005FC3246EA
:101B20006946704800F0FEFE3A4669466E48FEF788
:101B30000BFB6D48FFF760F90620A077FFF76FFBFE
:101B40000020FEF78BFC00206872FFF723FFA07FC8
:101B5000654F062813D178787D21C90048430621B6
:101B6000FEF75AFE00280AD03878401EE874072095
:101B7000A0770120FEF772FC5C4801F034FDA07FE5
:101B800002287ED00126012806D007280BD0042881
:101B900041D008285ED074E0E87C002819D00721E5
:101BA000A177401EE8743D21514804F0BDFB504828
:101BB0003D213D3004F0B6FB4D483D217A3004F024
:101BC000B1FB207D012809D002280BD003280FD1BA
:101BD00037E00220A0773878E87452E09C22B91CE4
:101BE000684603E040499C229E31684604F034FB7D
:101BF000012269463E48FFF743F93D4802223D3045
:101C00000CA9FFF73DF93A4803227A3018A9FFF7EB
:101C100037F90420A077902001F0B6FB2C4900236F
:101C200040394882403189688A0089182F4AD35E3A
:101C3000C91881420AD30820A0776675A675E67593
:101C400011E02B499C229E396846CFE7267004207C
:101C5000A07716E0607D072805D1A07D072802D176
:101C6000E07D072815D022490120FEF749FE2049D2
:101C700002203D31FEF744FE1D4903207A31FEF774
:101C80003FFEFEF75CFB0A21072001F0B9FF77B0A9
:101C9000F0BDA677FEF703FCE87C0028F1D1122006
:101CA00000F0E7FB267102202872EAE710B507482A
:101CB0000078002805D10C48AC3801F0A2F9FEF7F5
:101CC00007FD64210A2001F09BFF10BDFD000020EC
:101CD000A0000020CC080000FE0000200004004806
:101CE000204E000000780008A40400201801002005
:101CF0007C060020F0B5232085B00121400402F0CD
:101D00000DFA0121480402F01BFA0121084602F0F5
:101D10000EFAFF2601360025684602960573C57344
:101D200002274773092002A9C00601F0CEFF012453
:101D3000092002A9C006029401F0C7FF0821002073
:101D400003F01AFE6846009605710C2141718471FA
:101D500003F08AFD0021084603F00EFE10216846BC
:101D60000094417103F080FD0721684601744474BA
:101D7000847404A802F036FA684647740521017499
:101D800004A802F02FFA05B0F0BD70B50926F606DA
:101D90000121304601F0E7FF012806D0012130463D
:101DA00001F0E1FF00283ED079E00022642101200B
:101DB00001F0A0FD00226421022001F09BFD002221
:101DC0006421032001F096FD00226421042001F02B
:101DD00091FD00226421052001F08CFD00210220EC
:101DE00001F033FB0021032001F02FFB0021042030
:101DF00001F02BFB0021084601F027FB00252C46B3
:101E0000052001F06AF80121304601F0ACFF0128FD
:101E100001D16D1CEDB2641CE4B2052CF0D3052D8C
:101E20003DD1002070BD00226421012001F062FD3F
:101E300000226421022001F05DFD002264210320C4
:101E400001F058FD00226421042001F053FD00221E
:101E50006421052001F04EFD0021022001F0F5FA79
:101E60000021032001F0F1FA0021042001F0EDFA35
:101E70000021084601F0E9FA00252C46052001F072
:101E80002CF80121304601F06EFF002801D16D1CB5
:101E9000EDB2641CE4B2052CF0D3052D01D0032073
:101EA00070BD022070BD70B5FE48007801281BD0BF
:101EB000012003F023FD002813D00925ED060121A0
:101EC000284601F050FFF84C012806D00121284691
:101ED00001F049FF002802D003E0002000E00220CA
:101EE0002070012003F007FD70BD10B5ED480078AB
:101EF000012815D0FF240134204603F0FFFC002800
:101F00000BD0E9490878032805D1E8480078002873
:101F100001D10220C87000200871204603F0EBFCBC
:101F200010BD70B5E24800240470E2480125057038
:101F3000FEF754FCFEF7B3FADF48E1490470DF48CE
:101F40000470D94884704570C5700C70032101700D
:101F5000D4480470DB480470DB480470DB4804702C
:101F6000DB480470DB480460DB480460DB48057034
:101F7000DB480570DB480570DB480570DB48057001
:101F8000DB480480DB480480DB480480DB480570C4
:101F9000DB480470DB480460DB480460DB48046015
:101FA000DB480460DB480460DB480460DB48046015
:101FB000DB480460DB480460DB480460DB48046005
:101FC000DB480570DB480460DB480480DB480470B4
:101FD000DB480470B5480470DA480470DA480470CD
:101FE000DA480470DA480470DA480470DA48047099
:101FF000DA480470DA480470DA480470DA48047089
:10200000DA480470DA480470DA480470DA48047078
:10201000DA480470DA480470DA480460DA48048068
:10202000DA480480DA480480DA480480DA48048018
:10203000DA480480DA480470DA480470DA48047038
:10204000DA48047070BD70B50021084601F0FDF952
:102050000021012001F0F9F90021022001F0F5F939
:102060000021032001F0F1F90021042001F0EDF935
:102070000020FEF7F3F900247D25ED00284600F04E
:102080002CFF641CE4B2022CF8D30120FEF7E6F921
:1020900070BD10B5C6490020086000F0F5FE01F0E3
:1020A000C7FDFEF79DF8FEF751F910BDF0B52320EE
:1020B000A3B00121400402F031F87C2000900325F8
:1020C000684645710126067100248471C67169460F
:1020D000B84801F0FAFD7C21B64801F056FE02270F
:1020E00018A81C970575C47509201CA9C00601F025
:1020F000ECFD18A81E960477C4771EA9AD4801F020
:10210000E4FD0021AC4802F0C6FF0021AB4803F01B
:1021100064FB0021A94803F0B4FAA748002150301D
:1021200002F0B9FFA44800213C3002F0B4FF0021C6
:10213000A34802F022F90C200E9008A845770477F6
:10214000C77709200EA9C00601F0BFFD6802029002
:102150006846457306738473C673092002A9C006D6
:1021600001F0B3FD09206902C00601F00EFE300344
:1021700004906846457506758475C675092004A9DE
:10218000C00601F0A2FD09203103C00601F0FDFDEB
:10219000F00306906846457706778477C77709206D
:1021A00006A9C00601F091FD0920F103C00601F067
:1021B000EEFD23208001089008A845710671847106
:1021C000C77101460920C00601F07FFD23210920C7
:1021D0008901C00601F0DBFD7A48109010A8457116
:1021E0000471C7710146734801F06FFD754971486C
:1021F00001F0CDFD30200A9008A845730473C47324
:1022000009200AA9C00601F060FD20A820964571AA
:10221000047108A8C773092020A9C00601F055FD64
:10222000A802129010A845730473C77312A96148DD
:1022300001F04BFD30020C9008A8457506758475B9
:10224000C67509200CA9C00601F03FFD0920310226
:10225000C00601F09AFD05204003149010A84575B2
:102260000475C47514A9534801F02FFD2720C0013F
:10227000169010A845770477C77716A94D4801F046
:1022800024FD07204003189018A845710471C771F8
:1022900001464D4801F019FD18A81A9545730473BD
:1022A000C77393E020000020FC0000203F000020C6
:1022B000F7000020490000203E0000202A000020F6
:1022C00041000020210000202200002023000020E7
:1022D000240000208C000020900000202B00002013
:1022E0002C0000202D0000202E00002030000020B7
:1022F00074000020760000207800002032000020CA
:1023000033000020B0000020B4000020BC000020FA
:10231000C0000020C4000020C8000020CC00002025
:10232000D0000020D4000020D8000020DC000020D5
:102330002F000020B8000020F4000020F60000204C
:1023400040000020FA000020FB0000204200002096
:1023500048000020460000204700002044000020E4
:1023600045000020430000203100002054000020E0
:10237000550000207A0000207C000020560000203C
:1023800057000020F00000207E0000208000002088
:1023900082000020840000208600002088000020A9
:1023A00058000020590000205A0000205B00002047
:1023B00024010020000400480800024000240140DD
:1023C0000044004002400000000800481AA99B4851
:1023D00001F07BFC23B0F0BD10B5FFF7A2FDFFF7C5
:1023E00089FC00F0A7FFFFF761FE0121080701F05B
:1023F000A7FE0121084602F0BFFE10BD70B5904D4A
:10240000904C2868A04216D002F004FF352003F05B
:102410000AF9284602F02FFF2146284602F05DFF08
:102420002146281D02F059FF85480021083002F09E
:1024300054FF02F0F8FE70BDFEB50020804C009005
:102440000190029003226946204600F06BFA2514A1
:10245000A6142946FF227C4803F03FFF05E03246E0
:102460007949204600F0F0FA64190198A042F6D2AA
:10247000FEBDF0B585B007460020029003900490A1
:10248000032202A96E4800F04DFA7048039C844272
:1024900040D28614B5002946FF226B4803F01DFF89
:1024A00032466949204600F03DFA01A9684601F02C
:1024B000EBFA6846C0780004C11968464078000607
:1024C0000818049909064A0D5F49885068468378C0
:1024D0008079511800061B18684640790704684641
:1024E000007900023818181848600498401C0490BD
:1024F0000006000E04D1534802900398401903903F
:10250000032202A94E4800F09FFA32464E49204667
:1025100000F09AFA37E470B54D4C207800287DD051
:1025200004287BD0E0780125022832D1C10109209E
:10253000C00601F018FC0021002804D06171A078C9
:1025400000281BD025E06079322802D0401C607141
:102550001FE06171A078002808D000223D48A270D9
:10256000002A05D061700422E27003E00122F5E741
:102570006570E1700170FDF792FF0AE02078002895
:1025800007D0BFF34F8F35493348C860BFF34F8F33
:10259000FEE7E078042802D0002820D048E0304848
:1025A0000078002844D01120FFF763FF01210020AC
:1025B00000F04BFF2B480078012804D0022805D0FA
:1025C000032806D009E00121022004E001210320B4
:1025D00001E00121042000F038FFE57028E000222E
:1025E0006421012001F086F900226421022001F01B
:1025F00081F900226421032001F07CF9002264218A
:10260000012001F077F900226421022001F072F923
:1026100000226421032001F06DF900E00CE013209A
:10262000FFF727FFFFF70FFDFFF7D6FEFFF731FD9E
:102630001421032001F0E4FA70BD000000140048EA
:102640000088000800900008100A0020000002081E
:10265000FC0000203E0000200400FA0500ED00E030
:10266000220000203400002000B5D9B0FF226946C6
:102670000A7008224A7000228A700322CA70087108
:10268000020A4A71020C8A71000EC8716846FEF790
:102690000EF869464A78FA48921C00F053FC59B08B
:1026A00000BDF8B5FF270546D9373946F54803F090
:1026B00039FEF54E0020F34C30803946204603F0B9
:1026C00031FE287920706879607021780818308090
:1026D000F8BDF8B516460F460024054602F09AFDEF
:1026E000352002F0A0FF284602F0C5FDFF2E12D9CA
:1026F00013E0A000395CC019427812028918827870
:10270000C0781204000610180918284602F0E5FDEA
:10271000641CA4B22D1DB442EBD302F084FD20460C
:10272000F8BDF0B5FF269B36D64DD74C91B0112998
:1027300036D0122949D013295DD0212975D02229FC
:102740006FD023296ED031296DD032296CD0332936
:1027500024D1071DA8190F903C21684603F0E4FD21
:1027600000206A46397811542388401CC9187F1C00
:1027700021803C28F6DB3C2269460F9803F06CFD73
:102780002088A919020A20310A7748777622BD49A4
:10279000BE48FFF79EFFBE490120087011B0F0BD92
:1027A000061D30216846AD1C03F0BEFD00216846C1
:1027B000327842542388491CD218761C2280302952
:1027C000F6DB01463022284612E0AE4E051D3236B9
:1027D0003021684603F0A8FD002168462A7842545B
:1027E0002388491CD2186D1C22803029F6DB7DE03D
:1027F00003F032FDD2E7A34E051D62363C21684648
:1028000003F092FD002168462A7842542388491C2F
:10281000D2186D1C22803C29F6DB3EE0014651E0D7
:1028200003E015E027E03AE04EE0964E051D9E36A7
:102830003021684603F078FD002168462A7842542A
:102840002388491CD2186D1C22803029F6DB4DE00C
:102850008C4E051DCE363021684603F065FD002103
:1028600068462A7842542388491CD2186D1C22805D
:102870003029F6DB3AE0834E051DFE363C216846E2
:1028800003F052FD002168462A7842542388491CEF
:10289000D2186D1C22803C29F6DB3C22BEE7051DC8
:1028A0007C4E3021684603F03FFD00216A462878BF
:1028B00050542388491CC0186D1C20803029F6DB39
:1028C00030226946304693E7724E051D303630217E
:1028D000684603F029FD002168462A78425423887F
:1028E000491CD2186D1C22803029F6DB302295E776
:1028F0007CB5FF2168460170052141700024847079
:102900000821634DC17029780171FDF7D0FE68463A
:10291000427869465A48921C00F014FB2C707CBD2A
:102920000068704730B50023002907D004E09D00FF
:1029300010C85B1C4C519BB29342F8D330BD30B5EC
:10294000FFB07624D0B0A500294658A803F0ECFCCF
:10295000224658A94D48FFF7E5FF2A4658A949489D
:1029600003F07AFC4748FEF747FAFF2069460870F3
:10297000A2204870002088700920C8704148027861
:102980000A7142784A7102216A46801C0378541801
:10299000401C491C23719E29F8DB1046FDF787FE79
:1029A0006846427869463648921C00F0CBFA7FB000
:1029B00050B030BD30B5D9B0FF2168460170A021BC
:1029C0004170002181700A21C17032499E209C39DA
:1029D000FF236A463B3314180D78A03C401C491C69
:1029E000A5719842F7DB1046FDF761FE6846427814
:1029F00069462348921C00F0A5FA59B030BD30B5A5
:102A0000D9B0FF2168460170A0214170002181707A
:102A10000B21C170FF201F493B30FF236A46D7338B
:102A200014180D78FF3C413C401C491CA57298428B
:102A3000F6DB1046FDF73BFE6846427869461048D3
:102A4000921C00F07FFAD8E7F8B516460F46054607
:102A5000002402F0DFFB352002F0E5FD284602F0FD
:102A60000AFC07E0A0003958284602F036FC641C36
:102A7000A4B22D1DB442F5D302F0D5FB2046F8BD1B
:102A80009804002037080020F80000200078000893
:102A9000020100207109002000787047F7B56946EF
:102AA000C8884D880A790C78401B111B00D5494213
:102AB000002800DA404203F039FC0646694648899E
:102AC000097A401B091B00D54942002800DA404220
:102AD00003F02CFC30184008FEBDF0B58FB0FF218C
:102AE000684601730F23437300218173D74F602120
:102AF000C1733E780670FC1C228842807D78057187
:102B00006188C180BF780772A48844810674160A60
:102B100046748274C5740A0A027541758775210A64
:102B2000C1750476CA4802A9008803315854010AC5
:102B300002A80230195403A8FDF7B9FD6846427B8C
:102B400003A9C448921C00F0FDF96B4607CBFFF7C0
:102B5000A5FF0E9001220EA9BF48FFF7BAFD0FB0E6
:102B6000F0BD10B5B94AD41C01290CD0022911D0EE
:102B7000032907D100799070902000F005FCA08017
:102B8000FFF7ABFF10BD00791070902000F0FCFB48
:102B9000208010BD00795070902000F0F5FB60801F
:102BA00010BD1CB5FF2269460A7005224A7000223A
:102BB0008A706622CA7008716846FDF778FD69461A
:102BC0004A78A448921C00F0BDF91CBD0EB5002047
:102BD00000900190029003226946A048FFF7A2FEF0
:102BE00002980EBD0EB5FF20694608700820487097
:102BF000002088706920C870FFF7E8FF020E694660
:102C00000A71020C4A71020A8A71C8716846FDF79E
:102C10004EFD69464A788F48921C00F093F90EBD2C
:102C200030B5BFB00546FF2368460370AB1E437046
:102C3000002484707123C370130A0371427106204B
:102C40006A4605E00B781354641C401CA4B2491C6E
:102C500053785B1E8342F5DA1046FDF728FD68467F
:102C6000427869467B48921C00F06CF92946684618
:102C700003F05AFB20463FB030BD10B5092103F0E8
:102C800055FB002901D0401C80B210BDF0B50446B0
:102C9000734985B000200860FFF798FFC117090E3F
:102CA00009180A02090A0902401A150C80B21E21ED
:102CB00003F03CFB0090E80028180E4601210F2588
:102CC000C902ED010190A04223D3664EFF22304697
:102CD00003F003FB2046FFF7D0FFC1025F4801224B
:102CE000081852023146FFF71DFE0921204603F065
:102CF0001DFB002909D02046FFF7BFFFC100401887
:102D0000201AF0214843801921E0711922468820B9
:102D10002DE0544FFF22384603F0DFFA2046FFF73C
:102D2000ACFFC1024D480122081852023946FFF794
:102D3000F9FD009901984018A04220460AD3FFF7F8
:102D40009CFFC1004018201AF0214843C0194119C6
:102D5000F8200BE0FFF791FFC1004018201AF02186
:102D60004843C0194119F0000830C0B22246FFF7AD
:102D700057FF05B0F0BD002804D001794079090261
:102D8000081880B2704710B5C178232933D015DCFC
:102D9000112930D009DC091F0B0003F0D5FB0929EC
:102DA00032352F28282828382800122923D0132923
:102DB00021D021291FD0222919D11CE0512929D045
:102DC00009DC312917D0322915D0332913D05029E5
:102DD0000DD1012121E052291ED0652920D068297A
:102DE00030D0702903D1FFF7C6FFFFF74FFF10BDAA
:102DF000FFF757FC10BDFFF794FC10BDFFF778FDFF
:102E000010BDFFF79CFD10BDFFF7D4FD10BDFFF70F
:102E1000F6FD10BD022100E00321FFF7A2FE10BD68
:102E200000F067FE00280AD00D4900200860FFF777
:102E300003FBFFF7E3FA2020FFF71BFB0120FFF75E
:102E4000B0FE10BDFFF7CEFE10BD00000301002054
:102E50001801002098040020008000080088000865
:102E600090000020100A0020064908800028FDD1AB
:102E7000704710B500F01AF810BD10B500B200F0A0
:102E80002CF810BD0C01002010B50420C04301F047
:102E9000D5F91E481C49006803F048FA1C4940B2A5
:102EA0007D220870D2005043488010BD184900228E
:102EB0008A5618495043486100228A6108690123F3
:102EC000184308610869C30701D0C003FAD508692F
:102ED0004008400008618A6170470D4902228A5EFD
:102EE0000C495043486100228A6108690123184354
:102EF00008610869C30701D0C003FAD50869400812
:102F0000400008618A61704700127A0000000020CA
:102F10000E01002000E000E0816000218180C2807D
:102F2000418001807047002181804180018070478D
:102F30008188C088814201D30120704700207047FA
:102F400080887047F0B5C4888388A41AA34201DD45
:102F50000020F0BD00231D460DE00488C688B44261
:102F600000D3058007888668CC5CF4550488641C0F
:102F70005B1C04809BB29342EFD3818889188180C7
:102F80000120F0BD70B58388934200D81A46002313
:102F90001D460DE04488C688B44200D3458046886B
:102FA0008468A45DCC544488641C5B1C44809BB240
:102FB0009342EFD38188891A8180104670BD002228
:102FC000C26482644821426501657047826C815405
:102FD000816C491C8164482901D1002181647047BA
:102FE000C16C425C491CC164482901D10021C16403
:102FF00010467047C26C816C881A914200DA4830E2
:10300000704770B5044600F0A8F8216D814201DBDD
:103010000D1A01E00D1A4835002320650EE0C11895
:10302000482903DB01191846103002E0011918463F
:103030005830095C2046FFF7C9FF5B1C606DAB424E
:10304000EDDB40196065482801DB4838606570BDDC
:10305000F3B501214C0493B0204601F05FF8012143
:10306000084601F05BF80121204601F069F80926C5
:10307000F60601220321304600F093FE01220221D0
:10308000304600F08EFE0C2502206946009508713E
:103090000320487100248C710120C871304600F073
:1030A00014FEE1204002304F12940D900E940F94C4
:1030B00010940DA91195384601F0EDF82B4801F058
:1030C0008FFF29488025283002901020099446025D
:1030D0000394059406940795049008940A9402A911
:1030E0000B960C94214801F0ADFF2048143001F0FC
:1030F00077FF1D4805A92430029013980390149877
:10310000049431C120200A9018480894099402A917
:103110000B960C94143001F095FF0122C021384623
:1031200001F068FA11480121143001F0B4FF0121C7
:103130000E4801F0B0FF0121384601F01EF915B02C
:10314000F0BD0A4A13685B085B001360D0605160F1
:1031500010680121084310607047044810B514300E
:1031600001F0A5FF10BD00000044004044000240F3
:103170001CB50121480400F0D1FF0320400200905B
:1031800001206946087188710022CA7148710920BE
:10319000C00600F09AFD1CBD1CB501208002009005
:1031A00001206946087188710020C87103204871A8
:1031B0000920C00600F089FD1CBD1CB5012080025D
:1031C000009000206946087101228A71C8710320AD
:1031D00048710920C00600F078FD1CBD70B5FFF7EE
:1031E000DBFF0125AD020920C00685616C108461FA
:1031F0000520FFF73EFE7A4E35810520FFF739FEA8
:10320000348170BD70B501247548A402048160103A
:103210000925ED06A8610520FFF72BFEAC6105200E
:10322000FFF727FE70BD70B5FFF7B6FF01206C4CAD
:103230008002208145100920C00685610520FFF726
:1032400018FE25810520FFF714FE70BD10B5FFF7AD
:10325000A3FF012189020920C00681614C1084610D
:103260000520FFF706FE5E4804810520FFF701FEFA
:1032700010BD70B50120002580020924E406A0617C
:103280000520FFF7F6FD01267602A6610520FFF76F
:10329000F0FDFFF792FF1420FFF7EBFD208AFFF708
:1032A0007BFF0520FFF7E5FD4D4806811920FFF75C
:1032B000E0FD284670BDF8B509270024FF06012669
:1032C000054676022806474801D5B86101E0444921
:1032D00008816806050E0520FFF7CBFDBE610520BD
:1032E000FFF7C7FD3E4806810520FFF7C2FD641CBD
:1032F000E4B2082CE6D3F8BDF8B50024FFF75DFF73
:103300000126002576020927FF06BE610520FFF78A
:10331000B0FD6006398A000E4905CC0F04433048E1
:1033200006810520FFF7A5FD6D1CEDB2082DECD33D
:103330002046F8BD10B5FFF71BFFFFF74FFF002039
:10334000FFF7B9FFFFF795FF0620FFF7B4FF10BDA9
:1033500010B5FFF70DFFFFF741FF9020FFF7ABFF20
:10336000FFF787FF0120FFF7A6FFFFF782FFBE20D0
:10337000FFF7A1FFFFF77DFF8320FFF79CFFFFF71B
:1033800078FFFFF73FFF10BD10B50446FFF726FF9B
:103390002046FFF790FFFFF76CFF0020FFF78BFF41
:1033A000FFF767FFFFF72EFFFFF718FF641CE0B27F
:1033B000FFF781FFFFF75DFFFFF79EFF0A4C2070CC
:1033C000FFF731FFFFF798FF6070FFF72CFFFFF763
:1033D00019FF207861780002401880B210BD00000B
:1033E0002000004800040000120100201FB5012148
:1033F000480400F09CFE15216846017300244473C4
:103400000121817303A800F0EDFEE3487D21C9008E
:10341000006802F08BFF401E019068460480048122
:1034200044808472DD4C6946204601F097F9012101
:10343000204601F010FD01221146204601F0FAFC61
:103440000121204601F0FBF91FBD024610B5D4480A
:10345000130003F079F805040A141A200F0001295B
:1034600001D0082104E0082106E0012903D004214D
:1034700000F08BFC10BD042100F089FC10BD012977
:1034800001D04021F4E74021F6E7012901D02021B5
:10349000EEE72021F0E7012901D01021E8E7102113
:1034A000EAE71CB57C2000900120694608710020E5
:1034B0008871C8710320BA4C4871204600F005FCA1
:1034C0000821204600F061FC0421204600F05DFC4C
:1034D0004021204600F059FC2021204600F055FCF8
:1034E0001021204600F051FC1CBD7CB501242403B2
:1034F000012069460094087100208871C87103207A
:1035000009254871ED06284600F0DFFB21462846D4
:1035100000F03DFC7CBD7CB50324A402012069467B
:103520000094087100208871C87103209C4D487177
:10353000284600F0CAFB2146284600F028FC7CBD46
:103540001CB50120C00300900021684601710121D3
:10355000C1716946924800F0B8FB1CBD1CB5302013
:103560000090002069460871C871032048718C489A
:1035700000F0ABFB1CBD7CB50124E40301206946CF
:103580000094087100228A71C871032009254871CE
:10359000ED06284600F099FB2146284600F0F5FB91
:1035A0007CBD1CB5FF2001300090002069460871E9
:1035B0000920C00600F089FB1CBD1CB5012040039A
:1035C0000090002069460871754800F07EFB1CBD24
:1035D0001CB5012000900020694608710920C00632
:1035E00000F073FB1CBDF0B585B00746142168469A
:1035F00002F09AFE00253220FFF76FFC00246E4691
:103600009020FFF7C1FE61007052401985B205207D
:10361000FFF74CFC641CE4B20A2CF1D30A212846C3
:1036200002F084FE388005B0F0BDF0B5012193B002
:10363000480400F073FD0121880400F06FFD0226AC
:1036400003216846069601770024C477092006A95D
:10365000C00600F03AFB012706A95148069700F082
:1036600034FB0121480200F062FD0121084600F010
:1036700055FD4C4D284601F0DBFF4B4801F0B0FCF6
:10368000484809A940300890484851C18020460068
:103690000D90C0000F90202010900C94000211900B
:1036A0000E9608A91294404801F0CCFC01213E4836
:1036B00001F0F1FC0221284602F099F80121284688
:1036C00002F08BF8684601F0D4FF68460094077159
:1036D00004200590029469460494284601F0B6FF40
:1036E00007220221284602F031F8072231462846F7
:1036F00002F02CF8284602F04CF80121284601F08F
:10370000C0FF2B4C2846214602F081F80028F9D052
:10371000284602F05AF813B0F0BD10B5232001215D
:10372000400400F0FBFCFFF753FFFFF73AFFFFF701
:1037300044FFFFF713FFFFF71EFFFFF7D6FEFFF76B
:10374000B0FEFFF7E8FEFFF7FBFEFFF76EFFFFF7A7
:10375000FFFDFEF753FE10BD10B509200121C00684
:1037600000F001FB10BD0120704770470120704739
:1037700070470120704770471CB50121880400F094
:10378000CDFC01200022694600900A71C8710448EE
:1037900000F09BFA1CBD0000000000200044014026
:1037A00000040048002401400800024014010020E9
:1037B00001000001F0B5AC4D89B00021284601F0B0
:1037C0003EF8AA4E0021304601F039F8A84F0021FA
:1037D000384601F034F80021A64801F030F8002105
:1037E000A54801F02CF8A5480690A54968468182B5
:1037F00000248483C482847705A9284600F0AEFFA4
:1038000005A9384600F0AAFF05A9304600F0A6FF3A
:1038100005A9984800F0A2FF05A9974800F09EFF6F
:103820006021684601800121418004218180029449
:1038300084810821C1814901018244826946284668
:1038400001F02DF80821284601F070F9694630464C
:1038500001F025F80821304601F068F9694638463C
:1038600001F01DF80821384601F060F969468148E9
:1038700001F0B7F808217F4801F06BF969467E48EE
:1038800001F00DF808217C4801F050F9012128468B
:1038900000F0BCFF0121304600F0B8FF012138469E
:1038A00000F0B4FF0121734800F0B0FF012172481D
:1038B00000F0ACFF0121284600F0C1FF0121304695
:1038C00000F0BDFF0121384600F0B9FF0121694831
:1038D00000F0B5FF0121684800F0B1FF0121384632
:1038E00000F0D1FF09B0F0BD10B500F060F8FFF7AF
:1038F00061FF10BD70B516460546604A481E88B087
:10390000904240D8642E3ED8501C02F00FFD401E5D
:1039100006905B496846818200248483C482847750
:1039200006986421401C704302F000FD01466022AD
:1039300068460280012242800422828002918481B2
:103940000821C181490101824482012D0BD0022D41
:103950000CD0032D19D0042D1AD0052D13D1C481FC
:1039600005A9454C04E005A93F4C01E0404C05A9E0
:10397000204600F0F3FE6946204600F090FF082143
:10398000204601F0D3F808B070BD05A9374CEFE729
:10399000C481384C05A9204600F0E0FE6946204667
:1039A00001F01FF80821204601F0D3F8EBE7FEB53F
:1039B00003200121400400F0B1FB0121022000F0AE
:1039C000BFFB0121880400F0B2FB0121080200F0D6
:1039D000B7FB0121CD02284600F0A9FB0121080414
:1039E00000F0A5FB022468460471002181710121C9
:1039F000C171032141710926F606012206213046D4
:103A000000F0CFF9402000906946304600F05DF9A3
:103A100005220721304600F0C4F980200090694655
:103A2000304600F052F9174F00220121384600F0CD
:103A3000B8F969463846009400F047F902220B2194
:103A4000304600F0AEF969463046009500F03DF989
:103A500001220E21384600F0A4F960030090694667
:103A6000384600F032F9FEBD00040040002000405E
:103A700000480140002C0140004001407FBB000095
:103A8000E70300000004004810B50446002002F0DF
:103A9000D1F82146002002F041F910BD0A2805D0D6
:103AA0000B2805D00C2800D1122070471020704739
:103AB0001120704710B50121080700F041FB0120DB
:103AC00001F02BFB012000F011FA212000F0B0F9E9
:103AD0000028FAD0FF20013000F006FB2A48FF2121
:103AE00041607F210160012000F003FB01F08AFFAB
:103AF00010BD10B5044688B0012001F00EFBFFF7A1
:103B0000D9FF00200290204841680491006803908A
:103B100061796846C175A1794175E1798175617AEC
:103B20000176A17A4176E17A817602A801F0D6FF8A
:103B3000002810D006A9002002F02FF805A90020C7
:103B400002F09FF801A96846FFF79EFF6846C0781B
:103B5000002801D014E0FEE76846407801280FD124
:103B60006846807801280BD168460079002807D183
:103B700068464079002803D168468079002800D043
:103B8000012008B010BD00001C0100202B4D2C4C62
:103B90000026666061680C20414348194279012A79
:103BA00009D1C3888268D21823689A4203D88660F4
:103BB000C680685880476068401C60600F28E9D361
:103BC000E7E730B50C2314461C4D5C43631959716B
:103BD0001A7128510020D880986030BD0E2805D871
:103BE0000C225043154A01218018417170470E285C
:103BF00005D80C225043114A0021801841717047AA
:103C000010B50E280ED80E4A13680C2250430B4AEA
:103C100084187D20C00048437D21C900A36002F0C4
:103C200085FBE08010BD06480168491C01607047B3
:103C300010B5FFF7DBFB10BD70470000101200202D
:103C4000240100200748804707480047FEE7FEE7B9
:103C5000FEE7FEE7FEE7FEE704480549054A064B96
:103C600070470000E1010008C1000008281300208F
:103C7000281900202815002028150020092110B53A
:103C8000C906884202D101214C0404E04D49884212
:103C900009D101210402204600F05BFA00212046F0
:103CA00000F057FA10BD4849884202D101210402B0
:103CB000F1E74649884202D101210C05EBE744496E
:103CC0008842EFD101218C05E5E7F0B500220124FF
:103CD00023460D6893401D409D422AD10D79012D48
:103CE00001D0022D12D1876855000326AE40B7439C
:103CF00087604E79AE4085682E43866085889D43F7
:103D0000858085888B7993401D43858006685500A2
:103D10000323AB409E4306600E790768AE403E43E6
:103D20000660C6689E43C660CB79AB40C5682B432E
:103D3000C360521C102ACBD3F0BD2649016000217C
:103D40000171022242718171C1717047012208B56F
:103D500012040A430092C261C1610099C161C16944
:103D6000C069009008BD0246128A00200A4200D0B5
:103D700001207047008A70470246928A00200A425A
:103D800000D001207047808A7047816170470185AB
:103D90007047002A01D08161704701857047818298
:103DA00070474B07DB0E9A40C90810B58900081808
:103DB000016A0F249C40A1430162016A1143016220
:103DC00010BD00000004004800080048000C004836
:103DD00000140048FFFF0000F7480168012211436A
:103DE00001604168F54A114041600168F44A1140A0
:103DF00001600168012292049143016041683F2201
:103E0000120491434160C16A09090901C162016B51
:103E1000FF22543291430163416B490849004163D9
:103E2000002181607047E44900228A7088707047E1
:103E300003460020E0495A090CD0012A0CD0022A7E
:103E40000CD0496BDA06D20E012393400B4200D00E
:103E5000012070470968F5E7096AF3E7496AF1E765
:103E600018B500200524240200901120FFF7E0FF80
:103E70000099491C0091A14201D00028F5D01120E1
:103E8000FFF7D6FF002800D0012018BDCA4A1168EC
:103E9000F8239943C000084310607047C6490028C2
:103EA000086802D00122104301E040084000086089
:103EB0007047C14A516BF8239943C00008435063CF
:103EC0007047BD490028486B02D00122104301E031
:103ED0004008400048637047B74904220028486BF7
:103EE00001D0904300E0104348637047B2490A6A2A
:103EF000520852000A620A6A04239A430A620A6A52
:103F000002430A627047AC490A6A18239A430A625C
:103F10000A6A02430A627047A7490028486A02D029
:103F20000122104301E0400840004862704710B58C
:103F3000A14A53683D242404A343536053680843B3
:103F40000343536010BD01229B49120600280868F4
:103F500001D0104300E0904308607047964AD16A50
:103F6000090909010143D162704701229249D20433
:103F70000028086801D0104300E0904308607047B3
:103F80008D49C87170478C4A51688908890001437E
:103F900051607047884840680C2108407047864A45
:103FA0005168F0239943014351607047824A516838
:103FB00007231B0299430143516070477E494A68B9
:103FC00001239B039A434A604A6883B21A434A60BA
:103FD0000A6B8B159A430A630A6B000C02430A634F
:103FE000704775490A6B40239A430A630A6B024380
:103FF0000A63704770490A6B10239A430A630A6B7D
:1040000002430A6370476C490A6B920892000A6384
:104010000A6B02430A637047F8B5674D0446686847
:104020000C21684E084003D0042801D0082801D094
:10403000266012E0696868680122890212040F0F85
:104040001040BF1C00281CD0E86A0107090F304649
:10405000491C02F06BF97843206068685A4B0006EF
:10406000000F1A5C20680146D14061606A68520501
:10407000520F9A5CD140A1602A6BD20505D4534AF5
:1040800009E0534847432760E7E76A68520401D4D0
:104090004A0800E08A08E2602A6B53064D4A03D4BE
:1040A0004C4B1233236100E022612B6BDB0601D401
:1040B000666100E060612B6B9B070FD0296B89075D
:1040C000890F01290CD0286B8007800F022809D0A6
:1040D000286BC043800700D1A661F8BDA161F8BD7F
:1040E000A061F8BDA261F8BD33490A6A02430A62C1
:1040F000704731490028374A086A01D0104300E070
:1041000090430862704701222B4912040028086A74
:1041100001D0104300E0904308627047264A00290E
:10412000516901D0014300E0814351617047224A47
:104130000029916901D0014300E0814391617047FA
:104140001D4A0029D16901D0014300E08143D161BA
:104150007047194A0029916A01D0014300E0814368
:1041600091627047144A0029D16801D0014300E0F0
:104170008143D1607047104A0029116901D0014381
:1041800000E08143116170470B4A0029517A01D048
:10419000014300E08143517270470748416A0122A0
:1041A0001206114341627047034A0146926800209B
:1041B0000A4200D001207047001002400CB8FFF8FE
:1041C000FFFFF6FE00127A002C010020809FD50030
:1041D00000093D000080000001498872EBE7000003
:1041E0000010024030B5837801210278002B15D0F1
:1041F0009408174BA400E41823689207D50EFF22F9
:10420000AA40934342789207120EAA401A432260B2
:104210000078C006C00E81400E4804E0D006C00EF3
:1042200081400C488030016030BD0B4A0029116983
:1042300001D0014300E08143116170470422074926
:104240000428086902D09043086170471043FBE7D7
:1042500000E400E000E100E000ED00E000E000E04C
:10426000F74910B5884209D101218C032046FFF798
:1042700079FF00212046FFF775FF10BDF149884204
:10428000FBD101214C042046FFF775FF0021204699
:10429000FFF771FF10BD70B50446006888B00D4689
:1042A0004008400020606168032000038143A86843
:1042B000084360602168E448EA6801406868104388
:1042C0002A690A4310432060A06803210902884339
:1042D00069690143A1606846FFF79EFED8488442A1
:1042E00001D1069800E0029821680904296801D5E7
:1042F000490000E089001922504302F017F80546F2
:10430000642102F013F80601300964214843216852
:10431000281A090407D5C0006421323002F006F8DB
:104320004007400F06E000016421323001F0FEFF3B
:104330000007000F3043A08108B070BD4B21C901B8
:1043400001600021416081600C22C1600261416115
:10435000704710B542680F231B029A4318C92343C4
:104360000C6849680C4323431343436010BD00218C
:10437000016041608160C16070470029016802D01E
:104380000122114301E04908490001607047002AF9
:10439000026801D00A4300E08A43026070470122AC
:1043A000D2030029016801D0114300E0914301606C
:1043B00070470122D2020029816801D0114300E038
:1043C0009143816070470122D2040029416801D0E5
:1043D000114300E09143416070470122920400299B
:1043E000416801D0114300E0914341607047002AC9
:1043F000426801D00A4300E08A43426070470122CC
:10440000D2030029416801D0114300E0914341608B
:1044100070470122D2050029416801D0114300E014
:104420009143416070474269120E1206426142692F
:104430000A4342617047028A120A12020282028A09
:104440000A430282704702220029016801D0114309
:1044500000E0914301607047826803231B059A4383
:10446000826082680A438260704701221205002937
:10447000416801D0114300E09143416070474268B8
:1044800003235B059A43426042680A4342607047D7
:10449000C1690122D2039143C1617047C905C90DA9
:1044A00001857047808CC005C00D704742681202BC
:1044B000120A4260426809060A43426070470122BC
:1044C00052030029016801D0114300E091430160CB
:1044D000704702680123DB029A43026002680A43C4
:1044E00002607047426810239A43426042680A4360
:1044F00042607047426820239A43426042680A4300
:1045000042607047012292030029416801D01143A3
:1045100000E091434160704708220029816801D082
:10452000114300E0914381607047028AD2B2028257
:10453000028A09020A430282704720220029816808
:1045400001D0114300E0914381607047102200299F
:10455000816801D0114300E0914381607047826817
:1045600007235B049A438260826849040A4382609D
:10457000704742691202120A4261426909060A43FF
:1045800042617047826804239A43826082680A43CA
:104590008260704702220029816801D0114300E047
:1045A000914381607047012292030029816801D004
:1045B000114300E091438160704782680123DB036F
:1045C0009A43826082680A438260704702681F23B0
:1045D0005B059A430260026849050A43026070471E
:1045E00002681F231B049A430260026809040A43FD
:1045F00002607047002A826801D00A4300E08A43C3
:1046000082607047826801235B039A4382608268FC
:104610000A438260704710B50B041C0E01238B40C7
:10462000022C02D0032C02D002E0001D00E0083072
:104630000168002A01D0194300E09943016010BDD0
:104640000038014000440040F3E9FFFF002A028BDC
:1046500001D00A4300E08A43028370478268012345
:104660001B039A43826082680A4382607047024655
:10467000D26900200A4200D00120704701627047D1
:1046800030B50A04130E0122144600258C40012B7C
:104690000ED0022B0ED08368090C2340C0698A40DB
:1046A0001040002B02D0002800D00125284630BD44
:1046B0000368F1E74368EFE70A0C012191400162CA
:1046C00070470000F84910B5884202D10121C41496
:1046D00030E001218907884206D101210846FFF711
:1046E0004AFD0021012008E0F049884208D101215B
:1046F0000220FFF740FD00210220FFF73CFD10BD26
:10470000EB49884206D101211020FFF734FD00213A
:104710001020F2E7E749884207D18415012120469D
:10472000FFF729FD00212046E7E7E349884209D148
:1047300001210C042046FFF715FD00212046FFF75C
:1047400011FD10BDDD49884202D101214C04F1E781
:10475000DB498842F5D101218C04EBE710B50288D2
:10476000D14B984206D00124A407A04202D0CF4CDE
:10477000A04203D17024A2434C882243CC4CA042D7
:1047800003D0D04C22400C89224302804A68C26286
:104790000A880285984208D0C74A904205D0C74A85
:1047A000904202D0C64A904201D1897A0186012105
:1047B000818210BD0021C943416000210180018137
:1047C0004180817270470185828270470288702320
:1047D0009A430A430280704741627047C162704742
:1047E000406A7047008D704702220029018801D07D
:1047F000114300E0914301807047042200290188A1
:1048000001D0114300E091430180704780220029CC
:10481000018801D0114300E0914301807047028874
:1048200008239A43028002880A4302807047028864
:10483000A44B1A40028002880A4302807047002974
:10484000018802D00122114301E04908490001809A
:10485000704710B50A884B88CC881A438B8823434D
:104860001A430B891A434B8989891A430A434030FA
:10487000828010BD0021018041808180C180018142
:1048800041818181704740300029818803D0012215
:10489000D203114301E04904490C8180704730B5CF
:1048A000028C520852000284038C8288048B70258B
:1048B000AC43A4080D88A40025430224A3438C899B
:1048C0001C434B882343784CA04208D07A4CA0422A
:1048D00005D07A4CA04202D0794CA0420DD10824D8
:1048E000A343CC891C4304239C438B882343754CEE
:1048F00022400C8A14434A8A2243828005838968B5
:104900004163038430BD70B5028C10239A43028446
:10491000048C8288038B6C4D2B400D782D062D0C5A
:104920001D4320239C438B891B051E0C4B8826436B
:104930001B051B0C5C4C3343A04215D18024A343C0
:10494000CC892405240C1C4340239C438B881B05E5
:104950001B0C23435D4C22400C8AA404240C1443FA
:104960004A8A9204120C22438280058389688163FB
:10497000038470BD30B5028C554B1A400284038C01
:104980008288848B7025AC43A4080D88A40025433D
:10499000504C23400C7B2406240C1C438B781B06B4
:1049A0001B0C2343404CA04215D14B4C23408C7B25
:1049B0002406240C1C43494B1C400B791B061B0C82
:1049C0002343474C22400C8A2405240C14434A8A72
:1049D0001205120C2243828085838968C163038497
:1049E00030BD30B5028C3F4B1A400284048C838862
:1049F000828B354D2A400D782D062D0C15433A4AF1
:104A000014400A7B1207120C22438C782407240CD2
:104A10001443254A904205D1344A13400A8A92052C
:104A2000120C13438380858389680164048430BD3C
:104A3000002101804180818081608181C18101826A
:104A40004182704730B5034618330124058C8C40F1
:104A5000A5430584002910D008290ED0091F080499
:104A6000400CC018016807231B03994301600168CB
:104A70001206120C1143016030BD4808C0180168CD
:104A80007023994301600168F4E7416370478163D3
:104A90007047C163704701647047028B70239A436B
:104AA0000A43028370470000002C014000040040CC
:104AB0000010004000200040004001400044014040
:104AC00000480140FFFC0000FF8C0000FFF30000E5
:104AD000FFFE0000FFFD0000FFF70000FFFB0000ED
:104AE000FFCF0000FFEF0000FFDF0000FFBF00006E
:104AF000028BF64B09021A4011430183D2E7828BE5
:104B000070239A430A438283CCE7828BEF4B0902DE
:104B10001A4011438183C5E70029818802D0012210
:104B2000114301E0490849008180BBE7028B08235B
:104B30009A430A430283B5E7028BE54B09021A4008
:104B400011430183AEE7828B08239A430A43828391
:104B5000A8E7828BDE4B09021A4011438183A1E74B
:104B6000028B04239A430A4302839BE7028BD94BAF
:104B700009021A401143018394E7828B04239A436C
:104B80000A4382838EE7828BD24B09021A4011437B
:104B9000818387E7028B80239A430A43028381E75C
:104BA000028B5204520C0902114301837AE7828B73
:104BB00080239A430A43828374E7828B5204520C07
:104BC0000902114381836DE7028C02239A430A4351
:104BD000028467E7028C08239A430A43028461E750
:104BE000028C20239A430901114301845AE7028C65
:104BF00080239A4309011143018453E7028CB64B89
:104C000009021A40114301844CE7028CB04B09029F
:104C10001A401143018445E7028CB04B09031A4046
:104C2000114301843EE7028908239A4302810289E5
:104C30000A43028136E710B50123048C8B409C4364
:104C40000484038C8A401343038410BD10B50423ED
:104C5000048C8B409C430484038C8A40134303845C
:104C600010BD04220029818801D0114300E0914346
:104C7000818017E7828B9A4B1A408283828B0902CC
:104C80000A4382830EE7828B0C239A438283828BB2
:104C90000A43828306E7028B914B1A400283028B00
:104CA00009020A430283FDE6F0B5048C1026B443E2
:104CB0000484058B048C8B4F1B0309013D402B435F
:104CC00012021A43A0239C430C43344302830484FE
:104CD000F0BD028B0C239A430283028B0A430283AA
:104CE000E0E670B5048C640864000484058B048CD1
:104CF0001B011343F3260A22B54394432B430C4371
:104D000001210C430383048470BDF8B50446088870
:104D10004E888A880B890D4600281DD0042824D08F
:104D20000828208C2AD0704908402084A08B278C2A
:104D300031036C4E120230400243180310436B4A99
:104D4000A08317400F43012109030F432784E988FB
:104D50002046FFF78FFFF8BD31462046FFF7C1FF21
:104D6000E9882046FFF7B5FFF8BD31462046FFF73A
:104D70009BFFE9882046FFF78EFFF8BD5C4908409D
:104D80002084A18B208C3702F3261B01B1431343EF
:104D90000B435849A3830840FF213843013108439E
:104DA0002084E9882046FFF76EFFF8BD00210180CE
:104DB000418001228280C180018173E6F8B50C46F2
:104DC0004988002601250746002900D10226A2882D
:104DD000012A00D10225208823890028384610D0D6
:104DE000FFF762FFE1883846FFF755FF23892A461F
:104DF00031463846FFF775FFE1883846FFF769FF0F
:104E0000F8BDFFF76EFFE1883846FFF762FF2389A0
:104E10002A4631463846FFF747FFE1883846FFF714
:104E20003AFFF8BD406B3DE6806B3BE6C06B39E670
:104E3000006C37E6002A828901D00A4300E08A43E9
:104E400082812FE681822DE60246128A00200A42E4
:104E500000D0012026E6C943018223E60246138AD8
:104E6000002092890B400A40002B02D0002A00D07B
:104E7000012017E6C943018214E611434030018145
:104E800010E6002A828901D00A4300E08A43828129
:104E900008E608220029818801D0114300E09143EF
:104EA0008180FFE50189C908C9000181FAE502890D
:104EB00070239A430A430281F4E510B50446FFF7D4
:104EC000F6FF208907210843208110BDFF8F0000D5
:104ED000FFF70000FFFB0000FFFD0000FFDF000008
:104EE000FFF30000FF0C0000FFEF0000FF5F000079
:104EF000FFFE0000FFF5000070B516460D460446A3
:104F000060290CD001223146FFF7EBFE29462046EE
:104F1000FFF7CDFF208907210843208170BD0122C2
:104F20003146FFF7C1FEF1E710B504891B021343B8
:104F3000E4B20B432343038110BD10B50446FFF7D1
:104F4000F3FF2089C108C900072001437020814375
:104F50000143218110BD10B50446FFF7E5FF20890C
:104F6000012189030843208110BD828870239A4360
:104F7000828082880A43828094E50289D208D20026
:104F8000028102890A4302818CE5028980239A43C7
:104F9000028102890A43028184E570B50689048B87
:104FA000058CF608F6000E430C4906810C40FF21E3
:104FB00002310C43AA218D43190111432943048373
:104FC000018470BD80220029818801D0114300E056
:104FD0009143818066E54030018263E5FCFC00007E
:104FE0000168454A11400160002101604160816013
:104FF000C1604249414A0839904202D148680F22B3
:1050000005E03E4A1432904204D14868F022104331
:1050100048607047394A2832904203D148680F22CD
:105020001202F4E7354A3C32904203D148680F221D
:105030001203ECE7314A50329042EAD148680F221D
:105040001204E4E730B503682D4A0C6A13408A68FD
:105050004D6922430C692C4322438C692243CC695D
:1050600022434C6A22438C6A22431A430260CA6874
:1050700042600A6882604968C16030BD00210160F9
:1050800041608160C160016141618161C161016212
:105090004162816270470029016802D001221143F8
:1050A00001E0154A11400160704741607047406857
:1050B00080B27047002A026801D00A4300E08A43A8
:1050C0000260704701460D4A0020083A12680A4201
:1050D00000D00120704709490839486070470146EF
:1050E000064A0020083A12680A4200D001207047A0
:1050F0000249083948607047FEFF0000080002407E
:105100000F80FFFF10B501210C072046FFF733F891
:1051100000212046FFF72FF810BD30498A150028DE
:10512000086801D0104300E09043086070472B4AA4
:105130001168E02399430143116070472749102209
:105140000028086801D0104300E0904308607047D1
:10515000224A0029516801D0014300E08143516097
:1051600070471F490A6904239A430A61012801D044
:1051700020BF704730BF7047184B1A6892089200E2
:1051800002431A601648036904221343036101298C
:1051900004D020BF016991430161704730BFF9E736
:1051A0000E48026804210A430260026802231A437F
:1051B00002600B4802690A43026130BF7047074A28
:1051C0000146526800200A4200D00120704703497E
:1051D0000A68800002430A607047000000700040C7
:1051E00000ED00E0FE4A11684908490001431160E2
:1051F0007047FB4910220028086801D0104300E0E6
:10520000904308607047F64900200968890600D578
:1052100001207047F2480169090603D5F149416050
:10522000F14941607047EE480169802211430161F4
:105230007047EB490420CA68D20701D001207047AB
:10524000CA68D20601D502207047C9684907FBD554
:105250000320704700B50346FFF7EBFF02E0FFF7BE
:10526000E8FF5B1E012803D0002B00D1052000BD04
:10527000002BF4D1FAE7F0B50B2706463F04384679
:10528000FFF7E8FF04280FD1D54C206902252843F9
:105290002061666120694021084320613846FFF79C
:1052A000D9FF2169A9432161F0BD70B50B252D04FB
:1052B0002846FFF7CFFF04280ED1C94C20690426E9
:1052C0003043206120694021084320612846FFF7D0
:1052D000C1FF2169B143216170BDF8B506460020C8
:1052E0000B273F0400900D463846FFF7B3FF042814
:1052F00015D1BB4C20690121084320613580384617
:10530000FFF7A8FF042806D1B61C280C00963080B1
:105310003846FFF79FFF2169490849002161F8BD20
:10532000F0B50B2706463F040D463846FFF792FFBF
:1053300004280CD1AA4C2069012108432061358042
:105340003846FFF787FF2169490849002161F0BD10
:10535000A3480169890503D4A2498160A2498160FB
:1053600070479F48016942159143016170479C480D
:1053700001690122520311430161704798490020DD
:10538000C9694907890F00D001207047F0B5AA25E7
:10539000FFF7F4FF002800D000250B273F04384614
:1053A000FFF758FF042813D18D4C20692026304385
:1053B000206120694021084320613846FFF74AFFF9
:1053C0001021042805D0052802D022698A432261D1
:1053D000F0BD2069B043206120690E463043206152
:1053E000824805803846FFF735FF0528F0D021694F
:1053F000B1432161F0BDF0B5C043C6B20004050E53
:105400000B200004FFF726FF04281BD1744C2169F0
:10541000102211432161754FFF2E06D03E810B20D3
:105420000004FFF717FF042806D1FF2D06D07D8169
:105430000B200004FFF70EFF052803D0226910217E
:105440008A432261F0BDF0B50B260746360430468C
:10545000FFF700FF04281ED1614C20692025284356
:10546000206120694021084320613046FFF7F2FEA9
:1054700004280BD12069A843206120691025284306
:1054800020615A4807803046FFF7E4FE052802D025
:105490002169A9432161F0BDF0B505460B20944672
:1054A0000F460004FFF7D6FE042814D14C4C2069A7
:1054B0001026304320613D4360460543F8200543F4
:1054C0004A4845800B200004FFF7C4FE052802D09F
:1054D0002169B1432161F0BDF0B50B2705463F04BA
:1054E0003846FFF7B7FE042810D13D4C206910263E
:1054F00030432061EF2005433C4845803846FFF7A4
:10550000A9FE052802D02169B1432161F0BDF0B5A3
:105510000B2705463F043846FFF79CFE042810D1B0
:105520002F4C2069102630432061DF2005432F488F
:1055300045803846FFF78EFE052802D02169B14329
:105540002161F0BDF0B50B2705463F043846FFF753
:1055500081FE042810D1224C20691026304320619E
:10556000BF200543214845803846FFF773FE0528D4
:1055700002D02169B1432161F0BDF0B50B2705468A
:105580003F043846FFF766FE042810D1144C20690A
:105590001026304320618820054314484580384652
:1055A000FFF758FE052802D02169B1432161F0BD03
:1055B000F0B507460B200E460004FFF74BFE04280B
:1055C00017D1074C20691025284320613E800B200D
:1055D0000004FFF73FFE05280BD02169A94307E02F
:1055E0000020024023016745AB89EFCD00F8FF1F83
:1055F0002161F0BD0D48C0690004000E70470B48E2
:10560000006A7047094A0029116901D0014300E08E
:10561000814311617047054A0146D26800200A4261
:1056200000D0012070470149C86070470020024047
:10563000854910B5884208D1441501212046FEF75E
:1056400091FD00212046FEF78DFD10BD30B5C368E9
:105650007E4A8C6813400A680D792243CC686D033A
:105660002C4322430C69496922430A431A43C2600E
:1056700030BD0021016001718160C1600161416143
:1056800070470029816801D0012200E00222114305
:1056900081607047002A026901D00A4300E08A4312
:1056A000026170470122D2030029C16801D0114371
:1056B00000E09143C1607047012292030029C16854
:1056C00001D0114300E09143C16070470122D2052F
:1056D0000029C16801D0114300E09143C1607047C7
:1056E0000904114301627047C2681F239B069A4355
:1056F0000A43C2607047012292050029C16801D0A7
:10570000114300E09143C160704701225049D20526
:105710000028886801D0104300E0904388607047FB
:1057200001224B4992050028886801D0104300E00F
:105730009043886070470122454912060028886816
:1057400001D0104300E0904388607047836A0B43A8
:10575000836242617047012252030029C16801D06F
:10576000114300E09143C1607047012212040029F7
:10577000C16801D0114300E09143C160704701222C
:1057800012030029C16801D0114300E09143C160B8
:105790007047826800210123DB071A4382600F23D0
:1057A0001B038268491CD20FD207994201D0002AFC
:1057B000F7D18168002901DB006C70470020704739
:1057C000816810221143816070478168042211436F
:1057D00081607047006C80B270470029C16802D0B8
:1057E0000122114301E049084900C1607047C268C5
:1057F00002239A43C260C2680A43C2607047002A0B
:10580000426801D00A4300E08A4342607047024682
:105810000020CB0104D5926801231B069A4300E0C7
:1058200012680A4200D001207047016070470246AA
:105830005368002012680B400A4202D0002B00D0AF
:1058400001207047016070470024014003D2FFFF30
:1058500000270140324831490160002141608160E8
:10586000C16030494161704710B583792C490268A5
:10587000002B26D00B6893430B604A6803689A4359
:105880004A600279521813680468234313608A68D7
:1058900003689A438A60CA6803689A43CA60427977
:1058A000102A05D051180A68006802430A6010BD2A
:1058B0008A6803681A438A60CA6800680243CA603B
:1058C00010BD0079401801689143016010BD0021AE
:1058D000016001710C2242718171704710490A699F
:1058E00002430A6170470E4A0146526900200A428B
:1058F00000D0012070470A4948617047084A0146B4
:105900001368002052690B400A4202D0002B00D0DD
:105910000120704702494861704700000000940F61
:1059200000040140FFFF6B00244801688907890FCC
:10593000016000218160C16001614161816982155E
:105940001143816170471D4A11688908890001432C
:1059500011607047194A0029116801D0014300E025
:10596000814311607047154A0029116801D0014335
:1059700000E08143116070478A07130F10B50F22B2
:105980009A408C080D49A40061188C6894438C607F
:105990008A68984002438A6010BD08498A690243B8
:1059A0008A617047054900208969C90500D5012031
:1059B000704702498A6902438A61704700000140CA
:1059C0000D49086070470C49486070470A49886073
:1059D00070470949094808607047074908617047DE
:1059E0000549074808607047034A0146D26800200D
:1059F0000A4200D00120704700300040AAAA0000EF
:105A0000CCCC000018B50020FB49009088688006C7
:105A100001D5012018BDCA20486253204862C868D9
:105A2000A0229043C86020229302C868009C1040C6
:105A3000641C00949C4201D00028F6D0C8688006FF
:105A400001D5012000E00020FF224A6218BD18B5F0
:105A500000200090E848C168490612D40021C943DB
:105A6000C16040220314C168009C1140641C009472
:105A70009C4201D00029F6D0C068400601D4002025
:105A800018BD012018BD78B50024DB4DCA20009454
:105A90002646686253206862FFF7D9FF002813D0BA
:105AA0002C60D6486860A868AC60D5482861EC6175
:105AB000EC62EC63D04840304460EC600460FFF777
:105AC000A1FF002800D00126FF206862304678BD83
:105AD000C948C16880229143C160704770B50546CE
