:020000040800F2
:100000001011002059370008C5010008C701000879
:1000100000000000000000000000000000000000E0
:10002000000000000000000000000000C9010008FE
:100030000000000000000000CB010008CD01000816
:100040006B3700086B3700086B3700086B37000808
:100050006B370008331E00086B370008771E000856
:100060006B3700086B3700086B3700086B370008E8
:100070006B3700086B3700086B3700086B370008D8
:100080006B3700086B370008000000006B37000872
:100090006B370008CF0100086B3700086B3700088A
:1000A0006B3700086B3700086B3700086B370008A8
:1000B0006B370008000000006B37000800000000EC
:1000C00000F002F800F03EF80CA030C80838241800
:1000D0002D18A246671EAB4654465D46AC4201D180
:1000E00000F030F87E460F3E0FCCB6460126334274
:1000F00000D0FB1AA246AB463343184750580000C5
:1001000070580000103A02D378C878C1FAD8520764
:1001100001D330C830C101D504680C6070470000BD
:100120000023002400250026103A01D378C1FBD813
:10013000520700D330C100D50B6070471FB51FBDFB
:1001400010B510BD05F0D7FA1146FFF7F7FF00F024
:1001500025F805F0EFFA03B4FFF7F2FF03BC05F052
:10016000F5FA000070B505460C46164602E00FCCC5
:100170000FC5103E102EFAD2082E02D303CC03C5B1
:10018000083E042E07D301CC01C5361F03E02178B9
:100190002970641C6D1C761EF9D270BD10B502F07A
:1001A0007DFC03F0CFFA02F0EDF801F048FF0022E9
:1001B0000121034803F08FFA03F072FA002010BD0A
:1001C0002D0300087047FEE770477047704710B571
:1001D000064C0121204604F0CBFB002805D003F09B
:1001E000ACFA0121204604F0CFFB10BD00440140D1
:1001F00010B5474801680122114301604168454A32
:10020000114041600168444A1140016001680122C7
:1002100092049143016041683F221204914341607E
:10022000C16A09090901C162016BFF22543291437D
:100230000163416B4908490041630021816000F07E
:100240002EF810BD70B5324D69680C20014033485E
:10025000334C03D0042901D0082901D0206014E0D8
:100260006A686968012392021B04160F1940B61CC4
:10027000002907D0E96A0907090F491C05F08BF925
:100280007043EBE727484643266068682449000628
:10029000000F091D085C2168C140216070BD38B5A0
:1002A00000201B4C00902068012109048843206035
:1002B0001D480168102211430160016801221143A9
:1002C0000160606860606068606060683F21090488
:1002D0008843606060680521C904084360600520A8
:1002E00003F0D8FB2068012109060843206020683C
:1002F0008001FCD560688008800060606068022131
:100300000843606060680007800F0228FAD138BD9A
:10031000001002400CB8FFF8FFFFF6FE00127A0052
:100320000000002000093D000020024010B503F04D
:1003300000F803F0ECF8FF2205322649264802F0C7
:10034000F5FB4821254802F08DFC2448583802F07E
:1003500040FC08220121224803F0BDF909220121B5
:10036000204803F0B8F9022201211F4803F0B3F935
:10037000042201211D4803F0AEF9062201211C4888
:1003800003F0A9F90B2201211A4803F0A4F9052270
:100390000121194803F09FF901221146174803F083
:1003A0009AF907220121164803F095F90322012149
:1003B000144803F090F90A220121134803F08BF945
:1003C000002003F09EF910BD10B532210E2003F07D
:1003D000A1F910BD1B070020800400203804002074
:1003E0002B070008391C0008A9230008BD0E0008CF
:1003F000671A0008E30F0008F7180008C71700087D
:10040000A915000857100008FB110008FB4901203E
:1004100008707047F949002008707047F7480121BB
:1004200041718171C1710172417281720021417506
:100430008175C175C187017641768176C176017774
:1004400041777047ED480021417581757047EB4950
:10045000002380318B62CB62012280394A718A711C
:100460004A758A750B764B76032807D0062808D084
:10047000092802D10320C87608777047CA760A7720
:1004800070470220F7E770B5DD4C0646012189026E
:10049000204603F004FA0121C902204603F0FFF9C7
:1004A0000021084602F0DBFD0021012002F0D7FD0B
:1004B000D248007D012804D0022805D0032806D0A8
:1004C00009E00021022004E00021032001E00021D6
:1004D000042002F0C4FDFF25F535284602F0D7FAC6
:1004E00000241FE00121022002F0B9FD01210320B8
:1004F00002F0B5FD0121042002F0B1FD284602F012
:10050000C6FA0021022002F0AAFD0021032002F019
:10051000A6FD0021042002F0A2FD284602F0B7FA51
:10052000641CE4B2B442DDD370BD70B50022642116
:10053000012002F0F2FF00226421022002F0EDFF10
:1005400000226421032002F0E8FF0022642104203D
:1005500002F0E3FF7D26760100223146052002F0FD
:10056000DCFF0021084602F07AFD0024F51001218D
:10057000022002F074FD0121032002F070FD012130
:10058000042002F06CFD32223146052002F0C5FF46
:10059000284602F0ACFA0021022002F060FD0021A2
:1005A000032002F05CFD0021042002F058FD00222F
:1005B0003146052002F0B1FF284602F098FA641C8B
:1005C000E4B2032CD3D370BD70B58D4C0646012127
:1005D0008902204603F063F90121C902204603F095
:1005E0005EF90021084602F03AFD8448007D0128AA
:1005F00004D0022805D0032806D009E000210220FB
:1006000004E00021032001E00021042002F027FD86
:10061000FF25F535284602F03AFA00240FE00121C3
:10062000084602F01CFD284602F031FA00210120A4
:1006300002F015FD284602F02AFA641CE4B2B44226
:10064000EDD370BD10B500224378012104E0445C75
:10065000A218491C92B289B29942F8D3110AC15426
:10066000C018427010BDF8B5664D674802F0CCFA6C
:10067000624C002786B2203453E0634802F0BAFA95
:10068000E17A002942D0217B00292FD0617B685478
:10069000607B401C6073A07B401E0006000EA073B0
:1006A0003DD100226978012003E02B5C9A1892B2B8
:1006B000401C8842F9DB685C03026818407818180F
:1006C00090420BD1FF224F495F32881804F002FF9D
:1006D0004E4802F087F9022002F009FAE772FF2182
:1006E00027735F31474804F054FF18E0FF22411E92
:1006F0005D32914208D2434A617B5054A07301207D
:100700002073491C61730AE0E77208E0FF2806D1F4
:100710003C4908700121E17227736173A773761E4B
:10072000B6B2002EA9D10120F8BD10B5FF24CCB07F
:100730002D342146684604F02CFF35480078002807
:100740000AD1314822466946A03002F025FA01005C
:1007500002D0684602F0FFFA1C21082002F0DAFFFE
:100760004CB010BD2549012088730020803188617C
:1007700070472249012000230A4648718032936263
:100780008871D362C87113630872536348729363AC
:10079000887253620874D360C8721361087313625D
:1007A0004873D36188739361C8735361704770B5A0
:1007B000124A0B00803204F0D0FF0F13090E2F33C2
:1007C000383D134213474C51565B13000B49491DEA
:1007D0009160A33103E00949891D9160A631D1637D
:1007E00093680C491D7800240968012D45D00E1826
:1007F00001258E4245D2002848D04CE0140000204C
:100800000004004824010020E003002082020020B0
:10081000ED0000200C010020FE499160A931DEE7C7
:10082000FC49491C9160AC31D9E7FA49891C9160B7
:10083000AF31D4E7F749C91C91609A31CFE7F54948
:10084000093191607C31CAE7F249091D9160853117
:10085000C5E7F049491D91609431D163ED49891D87
:1008600091608F31D163EB49C91D91608A31D163A9
:10087000E849083191608531B1E7D06B01601C70A7
:1008800009E0D66B3668891B814204D31D70D06B9A
:100890000460012070BD002070BDDE4AD21F1146E9
:1008A0004031032806D0012811D1507F04280ED1F1
:1008B0000C200BE0507F002805D0012805D002282D
:1008C00005D1092002E0032000E0062008807047DF
:1008D000F3B58DB000200A90032006900420039009
:1008E000002009900520089006200290072007901C
:1008F0000E46C8480D99082502247930012904D0F4
:10090000022909D003290ED114E0C2490E31016435
:10091000C91C4164C91C05E0BE490F310164C91CF2
:100920004164C91C8164BB487930006C007801289F
:1009300017D041E002210A9104210691052103917B
:1009400006210991072108910821029109210791A7
:10095000B0490A2510310164C91C03244164C91C33
:10096000E0E7AC4F3078FF1F797F401E884217DAEE
:1009700000226421012002F0D0FD00226421022027
:1009800002F0CBFD00226421032002F0C6FD072007
:100990007875B875F8750020F876387778770BE0B9
:1009A000387800280FD000226421032002F0B5FD22
:1009B0000020B877FFF732FD96487930006C007858
:1009C000022811D035E0934F06997937B86C491C4D
:1009D000007868438019425C611C415C0D9802F00C
:1009E0009CFD396C022008700D98032828D0894F8F
:1009F0007937B86C0078684381190398401C085C0B
:100A00007D21C90048430D99FFF7D1FE002810D081
:100A1000796C0878401C0870396C05200870B86C37
:100A20000022007868438119601C095C0D9802F06F
:100A300074FD784F7937386C007804285FD06BE00C
:100A4000902002F0ABFA734F7937B96C0B910978AB
:100A500069438A190A990492491C535C79686E4A61
:100A60008C464B430021515E5A18824236D862466A
:100A7000B4235A435118814212D9396C03200870AB
:100A80000B99097869438A19611C515C002202F0B4
:100A900044FD394601208039C87100203863C8E719
:100AA000396C0420087000226421012002F035FD19
:100AB00000226421022002F030FD00226421032084
:100AC00002F02BFD554F01218902384602F0E7FE66
:100AD0000121C902384602F0E2FEAAE70398049910
:100AE000401C085C7D21C90048430D99FFF75FFE5B
:100AF00000289ED0786C0178491C01708CE745492C
:100B00000020C91F8877FFF789FC0520FFF7BBFC91
:100B100001F038FC01F093FA3E483E4F7930006C0A
:100B200039370078032849D138464030806C007846
:100B3000684381190998401C085C7D21C90048431D
:100B40000D99FFF734FE00280CD03888401C3880FF
:100B500038464030416C0A78521C0A70006C0521FE
:100B6000017021E0902002F019FA2A49B42279316B
:100B7000496800235143284AD35EC91888421DD3CF
:100B8000244904207931096C002208706421012075
:100B900002F0C3FC00226421022002F0BEFC00220D
:100BA0006421032002F0B9FC012189021B4802F0F4
:100BB00076FE0121C902194802F071FE154879300C
:100BC000006C0078052838D112487930416C806C6F
:100BD0000A780078684381190898401C085C8242B2
:100BE0002CD10D99032921D10A4919318872FFF7B7
:100BF00054FE3888032805D0062803D0092801D0E0
:100C00000C2813D100226421012002F086FC00226E
:100C1000642105E01B0000200801002000040048BA
:100C2000022002F07AFC3888FFF70CFCFE4806210F
:100C3000026C1170406C0021017049E00D9803288E
:100C4000029818D0401C085C7D21C90048430D99CA
:100C5000FFF7ADFD00283BD0F34F0699B86C491C57
:100C60000078641C68438019425C015D0D9802F0B5
:100C700054FC022099E0401C085C7D21C9004843D7
:100C80000D99FFF794FD002818D03888042803D068
:100C9000072801D00A2801D1FFF7D9FBE24900203B
:100CA00080390870E14F01218902384602F0F9FDD0
:100CB0000121C902384602F0F4FDCDE70121890285
:100CC000DA4802F0ECFD0121C902D84802F0E7FD44
:100CD000D548016C0978062969D10D9903292ED0D0
:100CE000398803294ED006294CD009294AD00C292D
:100CF00048D00746806C0078684381190798401CEB
:100D0000085C7D21C90048430D99FFF750FD00287C
:100D10004DD0C5490820803988770020796C641C43
:100D20000870B86C0022007868438019015D0D9846
:100D300002F0F3FBB96C0878401C087034E0BA4844
:100D4000806C0078684381190798401C085C7D21FD
:100D5000C90048430D99FFF72AFD002827D0B24F5C
:100D60000020803F387001218902B04802F099FDCF
:100D70000121C902AD4802F094FD0820B877002097
:100D80008037CBE7A84A0821803A91770746406C24
:100D900000210170B86C641C00780022684380193F
:100DA000015D0D9802F0B9FB0120396C08700FB09D
:100DB000F0BD10B500229E4BFF21D9319C5C8454BC
:100DC000521C8A42FADB014676229A4801F0BDFBAA
:100DD00010BD02780021521EFF2A38D20022491C81
:100DE00089B243189B78491C89B2012B2FD80B4636
:100DF000603B3C2B05D99C3B3C2B02D99C3B3C2BBC
:100E000001D8491C89B243189B78491C89B2002B30
:100E10001DD043189B785B1F602B18D2491C89B2E8
:100E200043189B78491C89B2002B10D00B46603BBD
:100E30003C2B05D99C3B3C2B02D99C3B3C2B01D83D
:100E4000491C89B243189B785B1EFA2B00D3B0E78C
:100E5000C91C521C89B2362AC1DB7047F7B5002085
:100E600001990124491C844603468E46012A04D078
:100E7000022A02D0032A02D002E0082000E00A2061
:100E800005465D437146695C012910D1002108E0E7
:100E9000019E7618AF5D009E3755641C491CE4B274
:100EA000C9B28142F4D36146491CC9B28C465B1C6D
:100EB000062BDBDB009960460870FEBDF8B55A4C86
:100EC0000121603C22782546C903584800260127A5
:100ED000203D002A43D002F0D0FC00284AD1E07B1C
:100EE000052872D0401CE0730AE0207C052805D15B
:100EF000E97F002902D1E178002969D0401C2074E3
:100F00001421042002F006FCF8BD022028750021FF
:100F100002F0A5F80121032013E0022802D00328E3
:100F200011D107E003202875002102F098F8012173
:100F3000042006E02F750021042002F090F8012122
:100F4000022002F08CF8FFF769FAAE7700226421E4
:100F5000012002F0E2FA0022642102201DE0364B5B
:100F6000A2781B781A43EB7F1A43C9D102F085FCA3
:100F7000002804D0E673687C0128B6D0C0E70E21B3
:100F80002E48FFF714FC0028A9D0EF772771FFF750
:100F900045FAAE7700226421012002F0BEFA002259
:100FA0006421022002F0B9FA00226421032002F039
:100FB000B4FA00226421042002F0AFFA0022642176
:100FC000052002F0AAFA9BE7FFE76F74E67397E744
:100FD0001548EF73466126746E74287D01289CD1F4
:100FE00093E7F8B516480078002833D00E4D803DC1
:100FF000287801282AD186020C4C3146204602F07E
:101000004EFC77003946204602F049FC7D2008213D
:101010004001FFF7CCFB002818D03146204602F0F3
:1010200040FC394620460DE09400002000040048B2
:101030007457000800780008ED00002088130000B5
:10104000EE00002002F02DFC0020287032210B2041
:1010500002F060FBF8BDF8B5FD4E0427307801259D
:10106000FC4C002835D100226421012002F055FA01
:1010700000226421022002F050FA002264210320A1
:1010800002F04BFA00226421042002F046FA7D218E
:1010900000224901052002F040FA322001F027FD2C
:1010A00009200121C00602F0E8FB012801D03570BB
:1010B00012E037706570E848A570017800291CD1EE
:1010C0000570E64900200870E24920398877FFF76B
:1010D000A5F93078012803D101F054F900F0AFFFF1
:1010E0003078022803D101F04DF900F0A8FF6078B4
:1010F000012802D004282DD030E00926F606202150
:10110000304602F0BAFB002805D11021304602F02B
:10111000B4FB012806D02021304602F0AEFB0128A6
:1011200003D008E0022060701BE01021304602F07E
:10113000A4FB002806D02021304602F09EFB0128A7
:1011400003D006E00320607047E01021304602F033
:1011500094FB677001F016F900F071FF60780228C7
:1011600038D10021012001F07AFF0021022001F096
:1011700076FF0021032001F072FF0021042001F01E
:101180006EFF617C7D20C000002919D00C21FFF783
:101190000EFB00281ED00121002001F060FF00207E
:1011A00009256074ED062021284602F066FB01281F
:1011B00010D11021284602F060FB0028C2D009E0BF
:1011C0000C21FFF7F4FA002804D00021084601F0B2
:1011D00046FF65746078032803D10121002001F0E7
:1011E0003EFF1421032002F095FAF8BD884201D990
:1011F000401A00E0081A80B27047F8B5954C0125F6
:101200002079974F002601282FD120462038C17819
:101210000079014359D1022001F021FF0021032070
:1012200001F01DFF0021042001F019FF00226421BC
:10123000012002F072F900226421022002F06DF90F
:1012400000226421032002F068F9002264210420B6
:1012500002F063F97D2100224901052002F05DF9C9
:10126000607D0A2807D0401C60752079022810D0C4
:10127000032823D029E002206675207141026571A0
:10128000384602F00CFB0121C902384602F007FB88
:10129000EBE7E570E07D14217D224143520191424C
:1012A00017D10121E6758902384602F0FAFA0121C8
:1012B000C902384602F0F5FA03202071042020719B
:1012C00046226421032002F028F9E078012802D0A8
:1012D00031E0401CE0756079012808D1A07D282804
:1012E00009D0401CA0750121022001F0B8FE6079F0
:1012F000022805D00DE00220A67560710021F3E7F9
:10130000A07D282809D0401CA0750121032001F0F0
:10131000A6FE6079032805D00DE00320A675607154
:101320000021F3E7A07D28280BD0401CA0750121E7
:10133000042001F094FE474D20792035042804D084
:1013400033E0A67565710021F2E7688B14217D22D8
:1013500041439201914208D100226421032002F00E
:10136000DCF8052020716E8322E0401C80B2688387
:10137000052803D1902001F011FEE883688B014617
:10138000FF39903911D1902001F008FE2884E98BB3
:10139000FFF72CFF962808D200226421032002F0D8
:1013A000BCF8072020716E837FE02079052839D1B1
:1013B000A88B14212B4A414391420DD10121AE83C8
:1013C0008902384602F06BFA0121C902384602F060
:1013D00066FA0620207128E0401C80B2A88301280C
:1013E00003D1902001F0DAFD6884A88B1E49884261
:1013F00018D1902001F0D2FDA8840146688CFFF737
:10140000F5FEFF212D3188420CD9072020710121E2
:10141000AE838902384602F042FA0121C9023846F9
:1014200002F03DFA207906282ED1E07D14210F4AE2
:10143000414391421CD101218902384602F031FA20
:101440000121C902384602F02CFAE6751CE00000C2
:10145000EC00002034000020EE000020ED00002011
:101460000004004830750000D20500008813000019
:10147000401CC0B2E075012803D1902001F08EFD20
:10148000E884E07DC82803D0207907280DD049E002
:10149000902001F083FD28850146E88CFFF7A6FE29
:1014A000642820D207202071E6750021E6700846E6
:1014B00001F0D5FD0021012001F0D1FD617E05295B
:1014C00014D0A07E142203465343FF222D329342B0
:1014D0002CD1E07E1423434393420FD1491C617603
:1014E000A676E6761EE0082020712FE0F6486676A4
:1014F000C67700F047FF00F0A2FD13E0401CE07645
:101500000121022001F0ABFD0121032001F0A7FD24
:101510000121042001F0A3FD50227D214901052075
:1015200001F0FBFF2079082810D038E0401CA0769D
:101530000021022001F093FD0021032001F08FFD26
:101540000021042001F08BFD0022E6E7E670207FF9
:101550001421DE4A4143914213D1DB480021C67772
:101560002677022001F07BFD0021032001F077FDAA
:101570000021042001F073FD00F004FF00F05FFD86
:101580000DE0401C20770121022001F068FD0121BF
:10159000032001F064FD0121042001F060FD14210D
:1015A0000A2002F0B7F8F8BDF8B5C74CC64D203494
:1015B000A0792E464036002838D1E87829790843AA
:1015C0007ED0308B042835D0401C3083002264212B
:1015D000012001F0A2FF00226421022001F09DFF02
:1015E00000226421032001F098FF002264210420DE
:1015F00001F093FF7D277F0100223946052001F08D
:101600008CFF00223946052001F087FF00210846A3
:1016100001F025FD0021022001F021FD0021032021
:1016200001F01DFD0021042001F019FDA079012821
:101630001ED04EE000203083207A022815D00121F0
:10164000022001F00CFD0121032001F008FD012121
:10165000042001F004FD01277D21A77132224901F8
:10166000052001F05AFFE771E0E701210020F0E7D3
:10167000207A012802D002280AD104E0924846309C
:10168000E867001F03E090484E30E867001F686776
:10169000E86F0A210088FFF78AF8002819D0207A1D
:1016A000022813D00021022001F0D9FC00210320E0
:1016B00001F0D5FC0021042001F0D1FC022000E063
:1016C0002BE0A071B08A401CB08205E000210846E2
:1016D000F2E7A079022820D1686FB18A0088884299
:1016E00003D10020B082032016E0E86F0A210088B1
:1016F000FFF75DF8002810D0207A022813D00121CE
:10170000022001F0ACFC0121032001F0A8FC012122
:10171000042001F0A4FC0120A0716B4FE079803718
:10172000012803D025E001210020F2E7207A0128DA
:1017300002D002280AD104E0634848303860001F14
:1017400003E0614850303860001FA86738680B21FB
:101750000088FFF72CF800280BD07D2100224901DA
:10176000052001F0DAFE0220E071F08A401CF082D0
:1017700002E0E079022817D1A86FF18A0088884238
:1017800003D10020F08203200DE038680B2100888F
:10179000FFF70DF8002807D07D21322249010520EE
:1017A00001F0BBFE0120E071A079032806D1E079A9
:1017B000032803D100F0E6FD00F041FC32210720B0
:1017C00001F0A8FFF8BDF8B541483F4C02884088B9
:1017D00020340090A07800282CD13E4800250078C5
:1017E000394E012700282AD0217E20466030142956
:1017F00029D0491C2176C16C8918C16436490098EA
:10180000884217D2A07C012853D0002264210120F5
:1018100001F083FE00226421022001F07EFE0022FE
:101820006421032001F079FE7575B575F575A07C0E
:10183000401CA0743221012001F06CFFF8BD274844
:1018400082420FD210E0204814218030C06C03F097
:10185000A2FE1D498031C864204980B289392576AD
:10186000884201D3B770C9E7B57000226421012016
:1018700001F053FE00226421022001F04EFE0022FE
:101880006421032001F049FE00226421042001F0BC
:1018900044FE7D2100224901052001F03EFE052085
:1018A000FEF792FE0E48077000F06CFD00F0C7FBDB
:1018B000A4E7A5740520FEF7E6FD0948077000F0CF
:1018C00061FD00F0BCFBB5E71400002088130000A8
:1018D00004010020EE000020B603000055090000BE
:1018E000ED0000200021DC480122C16601678274FE
:1018F000C17441707047F8B5D8480078002874D09A
:10190000D54E00252036B078D34C002801D0E566AE
:1019100066E0D3480078002863D1707A0127002858
:1019200057D0A07C002817D0E07C002814D0F07C91
:10193000192824D050226421012001F0EEFD50220C
:101940006421022001F0E9FD50226421022001F00F
:10195000E4FDF07C401CF07401214903C14801F012
:101960008CFF00281ED0E566206F1421BE4A41433B
:10197000914240D12567E07F002824D031E0F57402
:10198000A57400226421012001F0C7FD002264211A
:10199000022001F0C2FD00226421032001F0BDFD00
:1019A0003770D9E7E06E14217D2241431201914244
:1019B00006D1E5662567AA4867700570E77410E0F0
:1019C000401CE0660DE06570E770A548377207704F
:1019D00007E001214903A34801F04FFF012805D08A
:1019E00025671421052001F095FEF8BD206F142114
:1019F0004143C82902D0401C2067F2E7002264213D
:101A00000120256701F089FD00226421022001F0F8
:101A100084FD00226421032001F07FFD0121890261
:101A2000904801F03CFF0121C9028E4801F037FFC8
:101A30003570A577FEF7F2FC7772D2E770B5864D68
:101A400000248035894E01E00A2C09D0304600F090
:101A5000A3FE641C68600A38E4B25B28F4D270BD4F
:101A60001420686070BDF0B57B4DF7B02035287844
:101A700001285DD1A8780028FBD1774CE07F0028B1
:101A8000F7D120780028F4D1A07F764F002823D109
:101A90007626B100684603F07CFD324669467448FC
:101AA00000F07CFEB20069467248FEF75BFB7148AD
:101AB000FFF78FF90620A077FFF7C0FF0121890209
:101AC000384601F0ECFE0121C902384601F0E7FE7C
:101AD00000206872FFF706FFA07F664E06281AD125
:101AE00070787D21C90048430621FEF760FE00287A
:101AF00011D030780121401E28750720A077890277
:101B0000384601F0CEFE0121C902384601F0C9FE77
:101B1000594801F074FBA07F02287ED002220127E1
:101B2000012806D007280BD0042840D008285DD013
:101B300073E0287D002819D00721A177401E287561
:101B40003D214E4803F025FD4C483D213D3003F03A
:101B50001EFD4A483D217A3003F019FD207D012801
:101B600008D002280AD003280ED136E0A2773078B8
:101B7000287552E09C22B11C684603E03D499C2236
:101B80009E31684603F0A6FC012269463B48FFF7F8
:101B900065F93A4802223D300CA9FFF75FF9374852
:101BA00003227A3018A9FFF759F90420A077902072
:101BB00001F0F4F928490023403148824031496856
:101BC0008A0089182C4AD35EC91881420AD308209A
:101BD000A0776775A775E77511E028499C229E39A3
:101BE0006846CFE727700420A07716E0607D0728BD
:101BF00005D1A07D072802D1E07D072813D01F4919
:101C00000120FEF765FE1D4902203D31FEF760FE12
:101C10001A4903207A31FEF75BFE0A21062001F003
:101C200079FD77B0F0BDA777FEF7F8FB287D002897
:101C3000F3D127712A72F0E710B50948007800281F
:101C400005D10C48AC3800F0E6FFFEF70CFD64212E
:101C5000092001F05FFD10BD14000020EE000020FF
:101C6000ED00002000040048204E0000006800083D
:101C7000007800088C040020080100206406002081
:101C8000F0B5232085B00121400401F0D1FF0121EE
:101C9000480401F0DFFF0121084601F0D2FFFF26D2
:101CA00001360025684602960573C57302274773FF
:101CB000092002A9C00601F092FD0124092002A911
:101CC000C006029401F08BFD0821002003F0DEFB2A
:101CD0006846009605710C214171847103F04EFB3A
:101CE0000021084603F0D2FB1021684600944171A0
:101CF00003F044FB0721684601744474847404A80B
:101D000001F0FAFF684647740521017404A801F048
:101D1000F3FF05B0F0BD70B50926F6060121304687
:101D200001F0ABFD012806D00121304601F0A5FDF0
:101D300000283ED079E000226421012001F0EDFB73
:101D400000226421022001F0E8FB0022642103202C
:101D500001F0E3FB00226421042001F0DEFB0022FD
:101D60006421052001F0D9FB0021022001F077F960
:101D70000021032001F073F90021042001F06FF924
:101D80000021084601F06BF900252C46052000F0E3
:101D9000AEFE0121304601F070FD012801D16D1C1D
:101DA000EDB2641CE4B2052CF0D3052D3DD100202A
:101DB00070BD00226421012001F0AFFB00226421EC
:101DC000022001F0AAFB00226421032001F0A5FB00
:101DD00000226421042001F0A0FB002264210520E0
:101DE00001F09BFB0021022001F039F900210320C2
:101DF00001F035F90021042001F031F900210846F5
:101E000001F02DF900252C46052000F070FE01217F
:101E1000304601F032FD002801D16D1CEDB2641C8A
:101E2000E4B2052CF0D3052D01D0032070BD0220B3
:101E300070BD70B5FE48007801281BD0012003F06A
:101E4000E7FA002813D00925ED060121284601F004
:101E500014FDF84C012806D00121284601F00DFDA3
:101E6000002802D003E0002000E0022020700120C2
:101E700003F0CBFA70BD10B5ED480078012815D0FD
:101E8000FF240134204603F0C3FA00280BD0E949AF
:101E90000878032805D1E8480078002801D10220FD
:101EA000C87000200871204603F0AFFA10BD70B56D
:101EB000E24800240470E24801250480E1480570EE
:101EC000FEF757FCFEF7AAFADF48E1490470DF4845
:101ED0000470D84884704570C5700C70032101707F
:101EE000D3480470DB480470DB480470DB4804709E
:101EF000DB480470DB480460DB480460DB480570A5
:101F0000DB480570DB480570DB480570DB48057071
:101F1000DB480480DB480480DB480480DB48057034
:101F2000DB480470DB480460DB480460DB48046085
:101F3000DB480460DB480460DB480460DB48046085
:101F4000DB480460DB480460DB480460DB48046075
:101F5000DB480570DB480460DB480480DB48047024
:101F6000DB480470B4480470DA480470DA4804703E
:101F7000DA480470DA480470DA480470DA48047009
:101F8000DA480470DA480470DA480470DA480470F9
:101F9000DA480470DA480470DA480470DA480470E9
:101FA000DA480470DA480470DA480460DA480480D9
:101FB000DA480480DA480480DA480480DA48048089
:101FC000DA480480DA480470DA480470DA480470A9
:101FD000DA48047070BDF8B50021084601F03FF8FA
:101FE0000021012001F03BF80021022001F037F828
:101FF0000021032001F033F80021042001F02FF824
:102000000126CF4DB6023146284601F048FC71004A
:10201000284601F044FC00247D27FF00384600F0EC
:1020200066FD641CE4B2022CF8D33146284601F068
:1020300038FC0121C902284601F033FCF8BD10B577
:10204000C0490020086000F029FD01F07BFBFEF78D
:10205000CFF8FEF76BF910BDF0B52320A3B0012136
:10206000400401F0E5FD7C200090032568464571A1
:102070000126067100248471C6716946B04801F0DA
:10208000AEFB7C21AE4801F00AFC022718A81C9781
:102090000575C47509201CA9C00601F0A0FB18A88D
:1020A0001E960477C4771EA9A54801F098FB00216D
:1020B000A54802F07AFD0021A44803F018F9002198
:1020C000A24803F068F8A0480021503002F06DFDEE
:1020D0009D4800213C3002F068FD00219C4801F041
:1020E000D6FE0C200E9008A845770477C777092004
:1020F0000EA9C00601F073FB6802029068464573A2
:1021000006738473C673092002A9C00601F067FB39
:1021100009206902C00601F0C2FB30030490684642
:10212000457506758475C675092004A9C00601F0B9
:1021300056FB09203103C00601F0B1FBF003069005
:102140006846457706778477C777092006A9C006D1
:1021500001F045FB0920F103C00601F0A2FB23209A
:102160008001089008A8457106718471C771014605
:102170000920C00601F033FB232109208901C00694
:1021800001F08FFB7348109010A845710471C7715E
:1021900001466B4801F023FB6E49694801F081FB61
:1021A00030200A9008A845730473C47309200AA953
:1021B000C00601F014FB20A820964571047108A800
:1021C000C773092020A9C00601F009FBA8021290DC
:1021D00010A845730473C77312A9594801F0FFFA98
:1021E00030020C9008A8457506758475C6750920DF
:1021F0000CA9C00601F0F3FA09203102C00601F073
:102200004EFB05204003149010A845750475C47555
:1022100014A94B4801F0E3FA2720C001169010A83A
:1022200045770477C77716A9454801F0D8FA93E0B7
:1022300014000020EC000020330000203E000020AD
:10224000540000203D000020320000201E0000202D
:102250003500002015000020160000201700002087
:102260001800002080000020840000201F000020B3
:102270002000002021000020220000202400002057
:10228000680000206A0000206C000020260000206A
:1022900027000020A0000020A4000020AC000020A7
:1022A000B0000020B4000020B8000020BC000020D6
:1022B000C0000020C4000020C8000020CC00002086
:1022C00023000020A8000020E4000020E6000020F9
:1022D00034000020EA000020EB000020360000203F
:1022E0003C0000203A0000203B0000203800002085
:1022F0003900002037000020250000204900002080
:102300004A0000206E000020700000204B000020DA
:102310004C000020E000002072000020740000202B
:1023200076000020780000207A0000207C00002049
:102330004D0000204E0000204F00002050000020E3
:10234000000400480C010020080002400024014065
:10235000004400400240000007204003189018A8E5
:1023600045710471C7710146554801F038FA18A843
:102370001A9545730473C7731AA9524801F02FFACE
:1023800023B0F0BD10B5FFF792FDFFF779FC00F028
:10239000DBFDFFF761FE0121080701F05BFC012175
:1023A000084602F073FC10BD70B5474C2078002839
:1023B0007ED004287CD0E0780125022832D1C101EA
:1023C0000920C00601F059FA0021002804D06171EB
:1023D000A07800281BD025E06079322802D0401C6C
:1023E00060711FE06171A078002808D00022374892
:1023F000A270002A05D061700422E27003E001227D
:10240000F5E76570E1700170FEF708F80AE02078E2
:10241000002807D0BFF34F8F2E492D48C860BFF367
:102420004F8FFEE7E078042802D000281DD042E05C
:102430002948007800283ED00121002000F00FFE3E
:1024400026480078012804D0022805D0032806D0A9
:1024500009E00121022004E00121032001E0012123
:10246000042000F0FCFDE57025E00022642101203D
:1024700001F053F800226421022001F04EF80022FE
:102480006421032001F049F800226421012001F0B9
:1024900044F800226421022001F03FF80022642168
:1024A000032001F03AF8FFF796FDFFF76BFF00E01D
:1024B00005E0FFF7C4FD1421022001F02BF970BDE7
:1024C0000008004800140048EC0000203200002002
:1024D0000400FA0500ED00E01600002028000020AE
:1024E00000B5D9B0FF2269460A7008224A7000225E
:1024F0008A700322CA700871020A4A71020C8A713A
:10250000000EC8716846FEF79DF869464A78FD4896
:10251000921C00F021FB59B000BDF8B5FF2705461D
:10252000D9373946F84803F032F8F84E0020F64C17
:1025300030803946204603F02AF8287920706879DF
:102540006070217808183080F8BDF8B516460F463F
:102550000024054602F0E8FB352002F0EEFD284697
:1025600002F013FCFF2E12D913E0A000395CC01951
:102570004278120289188278C07812040006101876
:102580000918284602F033FC641CA4B22D1DB44285
:10259000EBD302F0D2FB2046F8BDF0B5FF269B3608
:1025A000D94DDA4C91B0112936D0122949D01329CE
:1025B0005DD0212975D022296FD023296ED03129F1
:1025C0006DD032296CD0332924D1071DA8190F9062
:1025D0003C21684602F0DDFF00206A46397811543C
:1025E0002388401CC9187F1C21803C28F6DB3C2234
:1025F00069460F9802F06EFF2088A919020A20315F
:102600000A7748777622C049C148FFF79EFFC14943
:102610000120087011B0F0BD061D30216846AD1CC8
:1026200002F0B7FF00216846327842542388491CE3
:10263000D218761C22803029F6DB0146302228464B
:1026400012E0B14E051D32363021684602F0A1FF7E
:10265000002168462A7842542388491CD2186D1CF0
:1026600022803029F6DB7DE002F034FFD2E7A64E6F
:10267000051D62363C21684602F08BFF002168464A
:102680002A7842542388491CD2186D1C22803C2988
:10269000F6DB3EE0014651E003E015E027E03AE0DA
:1026A0004EE0994E051D9E363021684602F071FFBE
:1026B000002168462A7842542388491CD2186D1C90
:1026C00022803029F6DB4DE08F4E051DCE363021BD
:1026D000684602F05EFF002168462A78425423884B
:1026E000491CD2186D1C22803029F6DB3AE0864E58
:1026F000051DFE363C21684602F04BFF002168466E
:102700002A7842542388491CD2186D1C22803C2907
:10271000F6DB3C22BEE7051D7F4E3021684602F005
:1027200038FF00216A46287850542388491CC01875
:102730006D1C20803029F6DB30226946304693E755
:10274000754E051D30363021684602F022FF00210B
:1027500068462A7842542388491CD2186D1C22806E
:102760003029F6DB302295E77CB5FF216846017001
:1027700005214170002484700821664DC1702978BC
:102780000171FDF75FFF6846427869465D48921C1B
:1027900000F0E2F92C707CBD0068704730B5002372
:1027A000002907D004E09D0010C85B1C4C519BB26F
:1027B0009342F8D330BD30B5FFB07624D0B0A50039
:1027C000294658A802F0E5FE224658A95048FFF7CE
:1027D000E5FF2A4658A94C4802F07CFE4A48FEF71D
:1027E000F8FAFF2069460870A2204870002088701F
:1027F0000920C870444802780A7142784A7102215F
:102800006A46801C03785418401C491C23719E2979
:10281000F8DB1046FDF716FF6846427869463948EE
:10282000921C00F099F97FB050B030BD30B5D9B0EE
:10283000FF2168460170A0214170002181700A21AA
:10284000C17035499E209C39FF236A463B331418DA
:102850000D78A03C401C491CA5719842F7DB10463E
:10286000FDF7F0FE6846427869462648921C00F063
:1028700073F959B030BD30B5D9B0FF216846017049
:10288000A0214170002181700B21C170FF202249DD
:102890003B30FF236A46D73314180D78FF3C413C88
:1028A000401C491CA5729842F6DB1046FDF7CAFE93
:1028B0006846427869461348921C00F04DF9D8E703
:1028C00000787047F7B56946C8884E880A790D7850
:1028D000801B511B00D54942002800DA404202F01B
:1028E00064FE84B269464889097A801B491B00D579
:1028F0004942002800DA404202F057FE80B2201818
:102900004008FEBD800400201F080020E8000020D1
:1029100000780008F200002059090020F0B58FB0BF
:10292000FF21684601730F234373002181734F4FCA
:102930006021C1733E780670FC1C228842807D783D
:1029400005716188C180BF780772A48844810674CC
:10295000160A46748274C5740A0A02754175877531
:10296000210AC1750476424802A9008803315854EF
:10297000010A02A80230195403A8FDF763FE684655
:10298000427B03A93B48921C00F0E6F86B4607CB5C
:10299000FFF798FF0E9001220EA93748FFF7D5FDEB
:1029A0000FB0F0BD10B5314AD41C01290CD002295A
:1029B00011D0032907D100799070902000F0EEFA31
:1029C000A080FFF7ABFF10BD00791070902000F0E1
:1029D000E5FA208010BD00795070902000F0DEFAFA
:1029E000608010BD10B5C17821292BD00CDC091FE7
:1029F0000B0002F0B2FE101F2D302A1E1E1E1E33C9
:102A00001E1E1E1E2224261E33291BD008DC22294E
:102A100018D0232916D0312914D0322909D111E038
:102A200050291ED051291ED0522902D10321FFF76F
:102A3000B9FF10BDFFF771FD10BD112102E0122199
:102A400000E01321FFF7A9FD10BDFFF78DFE10BDBB
:102A5000FFF7B1FE10BDFFF7E9FE10BDFFF70BFF5A
:102A600010BD0121E3E70221E1E70000F3000020AF
:102A70000801002080040020006800080649088042
:102A80000028FDD1704710B500F01AF810BD10B540
:102A900000B200F02CF810BDFC00002010B504209E
:102AA000C04301F055F91E481C49006802F073FD4F
:102AB0001C4940B27D220870D2005043488010BDAE
:102AC000184900228A5618495043486100228A61F9
:102AD00008690123184308610869C30701D0C003CE
:102AE000FAD508694008400008618A6170470D49BD
:102AF00002228A5E0C495043486100228A610869BB
:102B00000123184308610869C30701D0C003FAD53F
:102B100008694008400008618A61704700127A0025
:102B200000000020FE00002000E000E081600021A5
:102B30008180C28041800180704700218180418076
:102B4000018070478188C088814201D3012070478D
:102B50000020704780887047F0B5C4888388A41A25
:102B6000A34201DD0020F0BD00231D460DE00488D6
:102B7000C688B44200D3058007888668CC5CF455CB
:102B80000488641C5B1C04809BB29342EFD3818851
:102B9000891881800120F0BD70B58388934200D8E8
:102BA0001A4600231D460DE04488C688B44200D36F
:102BB000458046888468A45DCC544488641C5B1CB2
:102BC00044809BB29342EFD38188891A818010465A
:102BD00070BD0022C264826448214265016570476D
:102BE000826C8154816C491C8164482901D1002187
:102BF00081647047C16C425C491CC164482901D1A1
:102C00000021C16410467047C26C816C881A9142E1
:102C100000DA4830704770B5044600F0A8F8216D1E
:102C2000814201DB0D1A01E00D1A483500232065B1
:102C30000EE0C118482903DB01191846103002E0E4
:102C4000011918465830095C2046FFF7C9FF5B1C84
:102C5000606DAB42EDDB40196065482801DB483808
:102C6000606570BDF3B501214C0493B0204600F0BF
:102C7000DFFF0121084600F0DBFF0121204600F0C4
:102C8000E9FF0926F60601220321304600F013FE73
:102C900001220221304600F00EFE0C25022069467A
:102CA000009508710320487100248C710120C871BF
:102CB000304600F094FDE1204002304F12940D9018
:102CC0000E940F9410940DA91195384601F06DF8EB
:102CD0002B4801F00FFF2948802528300290102052
:102CE0000994460203940594069407950490089469
:102CF0000A9402A90B960C94214801F02DFF20485C
:102D0000143001F0F7FE1D4805A9243002901398F5
:102D100003901498049431C120200A901848089414
:102D2000099402A90B960C94143001F015FF0122AE
:102D3000C021384601F0E8F911480121143001F0B2
:102D400034FF01210E4801F030FF0121384601F027
:102D50009EF815B0F0BD0A4A13685B085B0013606B
:102D6000D06051601068012108431060704704482A
:102D700010B5143001F025FF10BD000000440040E4
:102D8000440002401CB50121480400F051FF03201B
:102D90004002009001206946087188710022CA71C2
:102DA00048710920C00600F01AFD1CBD1CB50120A9
:102DB0008002009001206946087188710020C87166
:102DC000032048710920C00600F009FD1CBD1CB598
:102DD00001208002009000206946087101228A715A
:102DE000C871032048710920C00600F0F8FC1CBD22
:102DF00070B5FFF7DBFF0125AD020920C006856134
:102E00006C1084610520FFF73EFE7A4E3581052067
:102E1000FFF739FE348170BD70B501247548A402F6
:102E2000048160100925ED06A8610520FFF72BFE3F
:102E3000AC610520FFF727FE70BD70B5FFF7B6FF48
:102E400001206C4C8002208145100920C00685615C
:102E50000520FFF718FE25810520FFF714FE70BD41
:102E600010B5FFF7A3FF012189020920C006816187
:102E70004C1084610520FFF706FE5E4804810520A2
:102E8000FFF701FE10BD70B5012000258002092466
:102E9000E406A0610520FFF7F6FD01267602A66193
:102EA0000520FFF7F0FDFFF792FF1420FFF7EBFD81
:102EB000208AFFF77BFF0520FFF7E5FD4D480681DF
:102EC0001920FFF7E0FD284670BDF8B5092700245A
:102ED000FF060126054676022806474801D5B86157
:102EE00001E0444908816806050E0520FFF7CBFD87
:102EF000BE610520FFF7C7FD3E4806810520FFF7AC
:102F0000C2FD641CE4B2082CE6D3F8BDF8B5002479
:102F1000FFF75DFF0126002576020927FF06BE6147
:102F20000520FFF7B0FD6006398A000E4905CC0F79
:102F30000443304806810520FFF7A5FD6D1CEDB266
:102F4000082DECD32046F8BD10B5FFF71BFFFFF7A7
:102F50004FFF0020FFF7B9FFFFF795FF0620FFF7AF
:102F6000B4FF10BD10B5FFF70DFFFFF741FF902034
:102F7000FFF7ABFFFFF787FF0120FFF7A6FFFFF783
:102F800082FFBE20FFF7A1FFFFF77DFF8320FFF741
:102F90009CFFFFF778FFFFF73FFF10BD10B5044619
:102FA000FFF726FF2046FFF790FFFFF76CFF00209A
:102FB000FFF78BFFFFF767FFFFF72EFFFFF718FF05
:102FC000641CE0B2FFF781FFFFF75DFFFFF79EFF94
:102FD0000A4C2070FFF731FFFFF798FF6070FFF792
:102FE0002CFFFFF719FF207861780002401880B2AB
:102FF00010BD000020000048000400000201002075
:103000001FB50121480400F01CFE1521684601731C
:10301000002444730121817303A800F06DFEE3488E
:103020007D21C900006802F0B6FA401E0190684692
:103030000480048144808472DD4C6946204601F09E
:1030400017F90121204601F090FC0122114620468B
:1030500001F07AFC0121204601F07BF91FBD0246F8
:1030600010B5D448130002F078FB05040A141A20A6
:103070000F00012901D0082104E0082106E0012900
:1030800003D0042100F00BFC10BD042100F009FC6A
:1030900010BD012901D04021F4E74021F6E70129C4
:1030A00001D02021EEE72021F0E7012901D01021F5
:1030B000E8E71021EAE71CB57C2000900120694672
:1030C000087100208871C8710320BA4C48712046ED
:1030D00000F085FB0821204600F0E1FB042120469A
:1030E00000F0DDFB4021204600F0D9FB20212046E6
:1030F00000F0D5FB1021204600F0D1FB1CBD7CB5B3
:10310000012424030120694600940871002088717D
:10311000C871032009254871ED06284600F05FFBC1
:103120002146284600F0BDFB7CBD7CB50324A402EB
:10313000012069460094087100208871C87103203D
:103140009C4D4871284600F04AFB2146284600F075
:10315000A8FB7CBD1CB50120C0030090002168467F
:1031600001710121C1716946924800F038FB1CBD14
:103170001CB5302000900021684601710121C17109
:103180000321417169468B4800F029FB1CBD7CB5C9
:103190000124E403012069460094087100228A7129
:1031A000C871032009254871ED06284600F017FB79
:1031B0002146284600F073FB7CBD1CB5FF20013082
:1031C00000900020694608710920C00600F007FB46
:1031D0001CBD1CB501204003009000206946087109
:1031E000744800F0FCFA1CBD1CB5012000900020C2
:1031F000694608710920C00600F0F1FA1CBDF0B55F
:1032000085B007461421684602F0C3F90025322034
:10321000FFF76DFC00246E469020FFF7BFFE6100B3
:103220007052401985B20520FFF74AFC641CE4B2D5
:103230000A2CF1D30A21284602F0ADF9388005B0F6
:10324000F0BDF0B5012193B0480400F0F1FC01217C
:10325000880400F0EDFC02260321684606960177FB
:103260000024C477092006A9C00600F0B8FA012797
:1032700006A95048069700F0B2FA0121480200F072
:10328000E0FC0121084600F0D3FC4B4D284601F03C
:1032900059FF4A4801F02EFC474809A940300890E0
:1032A000474851C1802046000D90C0000F9020205B
:1032B00010900C94000211900E9608A912943F48A9
:1032C00001F04AFC01213D4801F06FFC0221284633
:1032D00002F017F80121284602F009F8684601F0CB
:1032E00052FF6846009407710420059002946946D5
:1032F0000494284601F034FF07220221284601F0F9
:10330000AFFF07223146284601F0AAFF284601F008
:10331000CAFF0121284601F03EFF2A4C28462146DB
:1033200001F0FFFF0028F9D0284601F0D8FF13B0C4
:10333000F0BD10B523200121400400F079FCFFF717
:1033400053FFFFF73AFFFFF744FFFFF711FFFFF7C7
:103350001EFFFFF7D4FEFFF7AEFEFFF7E6FEFFF716
:10336000F9FEFFF76EFFFFF7FDFD10BD10B5092058
:103370000121C00600F081FA10BD0120704770479E
:103380000120704770470120704770471CB501212C
:10339000880400F04DFC01200022694600900A716B
:1033A000C871044800F01BFA1CBD0000000000209A
:1033B000004401400004004800240140080002408D
:1033C0000401002001000001F0B5AD4F8DB00021D7
:1033D000384600F0BEFF0021AA4800F0BAFF0021E5
:1033E000A94800F0B6FF0021A84800F0B2FF002174
:1033F000A74800F0AEFFA7480190A74968460180A2
:1034000000240481448084726946384600F030FF0D
:1034100069469D4800F02CFF69469A4800F028FF55
:1034200069469A4800F024FF6946994800F020FF59
:10343000BD1568468584C484048544850126868537
:1034400008A9914800F08FFF08A9904800F08BFF71
:1034500008A98F4800F087FF602168468181C681F6
:103460000594048344838583C48303A9384600F00C
:10347000A0FF0821384601F0E3F803A9814800F0D5
:1034800098FF08217F4801F0DBF803A97E4800F08F
:1034900090FF08217C4801F0D3F803A97B4801F094
:1034A0002AF80821794801F0DEF803A9784800F0ED
:1034B00080FF0821764801F0C3F80121384600F06A
:1034C0002FFF01216F4800F02BFF01216E4800F013
:1034D00027FF01216D4800F023FF01216C4800F017
:1034E0001FFF0121384600F034FF0121654800F03C
:1034F00030FF0121644800F02CFF0121634800F0F7
:1035000028FF0121624800F024FF0DB0F0BD10B586
:1035100000F05AF8FFF758FF10BD70B51646054683
:103520005C4A481E88B090423AD8642E38D8501C65
:1035300002F031F8401E0690574968468182002407
:103540008483C482847706986421401C704302F00F
:1035500022F80146602268460280012242800291E0
:103560008481012D0BD0022D0CD0032D1AD0042DF7
:103570001BD0052D14D1C48105A9454C05E005A932
:103580003F4C02E0C481404C05A9204600F070FE8B
:103590006946204600F00DFF0821204601F050F852
:1035A00008B070BD05A9374CEFE7C481374C05A9B9
:1035B000204600F05DFE6946204600F09CFF082191
:1035C000204601F050F8EBE7FEB50320012140044E
:1035D00000F02EFB0121022000F03CFB01218804B9
:1035E00000F02FFB0121080200F034FB0121CC0286
:1035F000204600F026FB0121080400F022FB0225F2
:1036000069460D7100208871C87103204871092630
:10361000F60601220621304600F04DF940200090C8
:103620006946304600F0DBF805220721304600F0FD
:1036300042F9802000906946304600F0D0F8174FDC
:1036400000220121384600F036F9694638460095D7
:1036500000F0C5F802220B21304600F02CF9694633
:103660003046009400F0BBF801220E21384600F0ED
:1036700022F9E00000906946384600F0B0F8FEBD3F
:10368000000400400020004000480140002C0140A0
:10369000004001407FBB0000E70300000004004839
:1036A0002B4D2C4C0026666061680C204143481964
:1036B0004279012A09D1C3888268D21823689A42C4
:1036C00003D88660C680685880476068401C606088
:1036D0000F28E9D3E7E730B50C2314461C4D5C43B3
:1036E000631959711A7128510020D880986030BD33
:1036F0000E2805D80C225043154A0121801841712B
:1037000070470E2805D80C225043114A002180181A
:103710004171704710B50E280ED80E4A13680C225E
:1037200050430B4A84187D20C00048437D21C900C6
:10373000A36001F030FFE08010BD06480168491C1D
:103740000160704710B5FFF75BFC10BD70470000CB
:10375000F80900200C01002007488047074800476F
:10376000FEE7FEE7FEE7FEE7FEE7FEE70448054961
:10377000054A064B70470000F1010008C10000082F
:10378000100B002010110020100D0020100D002043
:10379000092110B5C906884202D101214C0404E078
:1037A0004D49884209D101210402204600F05BFA0C
:1037B0000021204600F057FA10BD4849884202D146
:1037C00001210402F1E74649884202D101210C059A
:1037D000EBE744498842EFD101218C05E5E7F0B5DC
:1037E0000022012423460D6893401D409D422AD1AA
:1037F0000D79012D01D0022D12D1876855000326C5
:10380000AE40B74387604E79AE4085682E438660F0
:1038100085889D43858085888B7993401D4385806D
:10382000066855000323AB409E4306600E79076887
:10383000AE403E430660C6689E43C660CB79AB404F
:10384000C5682B43C360521C102ACBD3F0BD264958
:10385000016000210171022242718171C1717047C2
:10386000012208B512040A430092C261C1610099A5
:10387000C161C169C069009008BD0246128A00207A
:103880000A4200D001207047008A70470246928A9F
:1038900000200A4200D001207047808A7047816171
:1038A000704701857047002A01D08161704701850A
:1038B0007047818270474B07DB0E9A40C90810B5EC
:1038C00089000818016A0F249C40A1430162016A23
:1038D0001143016210BD00000004004800080048C8
:1038E000000C004800140048FFFF0000F748016882
:1038F0000122114301604168F54A114041600168AD
:10390000F44A114001600168012292049143016070
:1039100041683F22120491434160C16A09090901CB
:10392000C162016BFF22543291430163416B49082C
:1039300049004163002181607047E44900228A7098
:103940008870704703460020E0495A090CD0012ACC
:103950000CD0022A0CD0496BDA06D20E0123934018
:103960000B4200D0012070470968F5E7096AF3E7C8
:10397000496AF1E718B500200524240200901120BF
:10398000FFF7E0FF0099491C0091A14201D00028F7
:10399000F5D01120FFF7D6FF002800D0012018BD78
:1039A000CA4A1168F8239943C00008431060704761
:1039B000C6490028086802D00122104301E04008EF
:1039C000400008607047C14A516BF8239943C0001A
:1039D000084350637047BD490028486B02D001225C
:1039E000104301E04008400048637047B749042293
:1039F0000028486B01D0904300E0104348637047B3
:103A0000B2490A6A520852000A620A6A04239A43B7
:103A10000A620A6A02430A627047AC490A6A1823BA
:103A20009A430A620A6A02430A627047A749002859
:103A3000486A02D00122104301E040084000486279
:103A4000704710B5A14A53683D242404A343536032
:103A5000536808430343536010BD01229B4912067B
:103A60000028086801D0104300E0904308607047C8
:103A7000964AD16A090909010143D16270470122BE
:103A80009249D2040028086801D0104300E0904316
:103A9000086070478D49C87170478C4A5168890821
:103AA0008900014351607047884840680C210840F4
:103AB0007047864A5168F02399430143516070472B
:103AC000824A516807231B029943014351607047A2
:103AD0007E494A6801239B039A434A604A6883B23D
:103AE0001A434A600A6B8B159A430A630A6B000CEF
:103AF00002430A63704775490A6B40239A430A637D
:103B00000A6B02430A63704770490A6B10239A4399
:103B10000A630A6B02430A6370476C490A6B920896
:103B200092000A630A6B02430A637047F8B5674D57
:103B3000044668680C21684E084003D0042801D070
:103B4000082801D0266012E06968686801228902AD
:103B500012040F0F1040BF1C00281CD0E86A010798
:103B6000090F3046491C01F016FD78432060686853
:103B70005A4B0006000F1A5C20680146D140616074
:103B80006A685205520F9A5CD140A1602A6BD20537
:103B900005D4534A09E0534847432760E7E76A687A
:103BA000520401D44A0800E08A08E2602A6B5306F6
:103BB0004D4A03D44C4B1233236100E022612B6B3E
:103BC000DB0601D4666100E060612B6B9B070FD0C0
:103BD000296B8907890F01290CD0286B8007800F7A
:103BE000022809D0286BC043800700D1A661F8BD28
:103BF000A161F8BDA061F8BDA261F8BD33490A6AB0
:103C000002430A62704731490028374A086A01D0E6
:103C1000104300E090430862704701222B491204D0
:103C20000028086A01D0104300E090430862704702
:103C3000264A0029516901D0014300E081435161C6
:103C40007047224A0029916901D0014300E0814375
:103C5000916170471D4A0029D16901D0014300E0FC
:103C60008143D1617047194A0029916A01D001430B
:103C700000E0814391627047144A0029D16801D065
:103C8000014300E08143D1607047104A0029116967
:103C900001D0014300E08143116170470B4A0029C4
:103CA000517A01D0014300E08143517270470748C7
:103CB000416A01221206114341627047034A0146DC
:103CC000926800200A4200D0012070470010024094
:103CD0000CB8FFF8FFFFF6FE00127A001401002076
:103CE000809FD50000093D000080000001498872D6
:103CF000EBE700000010024030B583780121027824
:103D0000002B15D09408174BA400E41823689207E1
:103D1000D50EFF22AA40934342789207120EAA4082
:103D20001A4322600078C006C00E81400E4804E0AD
:103D3000D006C00E81400C488030016030BD0B4A77
:103D40000029116901D0014300E0814311617047EE
:103D5000042207490428086902D09043086170478B
:103D60001043FBE700E400E000E100E000ED00E0CC
:103D700000E000E0F74910B5884209D101218C0329
:103D80002046FFF779FF00212046FFF775FF10BDA1
:103D9000F1498842FBD101214C042046FFF775FF11
:103DA00000212046FFF771FF10BD70B50446006882
:103DB00088B00D4640084000206061680320000381
:103DC0008143A868084360602168E448EA680140CC
:103DD000686810432A690A4310432060A0680321E1
:103DE0000902884369690143A1606846FFF79EFEA6
:103DF000D848844201D1069800E00298216809045D
:103E0000296801D5490000E089001922504301F0DA
:103E1000C2FB0546642101F0BEFB060130096421A6
:103E200048432168281A090407D5C00064213230AC
:103E300001F0B1FB4007400F06E000016421323081
:103E400001F0A9FB0007000F3043A08108B070BD4E
:103E50004B21C90101600021416081600C22C160D9
:103E600002614161704710B542680F231B029A43FB
:103E700018C923430C6849680C4323431343436028
:103E800010BD0021016041608160C1607047002960
:103E9000016802D00122114301E049084900016094
:103EA0007047002A026801D00A4300E08A4302609A
:103EB00070470122D2030029016801D0114300E0BC
:103EC0009143016070470122D2020029816801D02C
:103ED000114300E09143816070470122D204002920
:103EE000416801D0114300E09143416070470122D5
:103EF00092040029416801D0114300E091434160E0
:103F00007047002A426801D00A4300E08A434260B9
:103F100070470122D2030029416801D0114300E01B
:103F20009143416070470122D2050029416801D0C8
:103F3000114300E09143416070474269120E12063E
:103F4000426142690A4342617047028A120A1202C0
:103F50000282028A0A430282704702220029016813
:103F600001D0114300E09143016070478268032350
:103F70001B059A43826082680A438260704701226F
:103F800012050029416801D0114300E091434160CE
:103F90007047426803235B059A43426042680A43C4
:103FA00042607047C1690122D2039143C1617047E9
:103FB000C905C90D01857047808CC005C00D7047CB
:103FC00042681202120A4260426809060A434260CD
:103FD0007047012252030029016801D0114300E01B
:103FE00091430160704702680123DB029A4302603B
:103FF00002680A4302607047426810239A43426095
:1040000042680A4342607047426820239A434260F4
:1040100042680A43426070470122920300294168C6
:1040200001D0114300E0914341607047082200290C
:10403000816801D0114300E0914381607047028A9A
:10404000D2B20282028A09020A4302827047202207
:104050000029816801D0114300E0914381607047DD
:1040600010220029816801D0114300E09143816052
:104070007047826807235B049A4382608268490420
:104080000A438260704742691202120A4261426921
:1040900009060A4342617047826804239A4382609A
:1040A00082680A438260704702220029816801D039
:1040B000114300E09143816070470122920300297F
:1040C000816801D0114300E09143816070478268AC
:1040D0000123DB039A43826082680A43826070474F
:1040E00002681F235B059A430260026849050A4380
:1040F0000260704702681F231B049A430260026833
:1041000009040A4302607047002A826801D00A430A
:1041100000E08A4382607047826801235B039A4310
:10412000826082680A438260704710B50B041C0EDF
:1041300001238B40022C02D0032C02D002E0001D90
:1041400000E008300168002A01D0194300E09943DB
:10415000016010BD0038014000440040F3E9FFFF5A
:10416000002A028B01D00A4300E08A430283704791
:10417000826801231B039A43826082680A4382603B
:1041800070470246D26900200A4200D001207047E1
:104190000162704730B50A04130E0122144600254F
:1041A0008C40012B0ED0022B0ED08368090C2340CB
:1041B000C0698A401040002B02D0002800D00125A1
:1041C000284630BD0368F1E74368EFE70A0C012198
:1041D0009140016270470000F84910B5884202D151
:1041E0000121C41430E001218907884206D1012150
:1041F0000846FFF74AFD0021012008E0F049884207
:1042000008D101210220FFF740FD00210220FFF725
:104210003CFD10BDEB49884206D101211020FFF77B
:1042200034FD00211020F2E7E749884207D18415C8
:1042300001212046FFF729FD00212046E7E7E34959
:10424000884209D101210C042046FFF715FD002109
:104250002046FFF711FD10BDDD49884202D1012142
:104260004C04F1E7DB498842F5D101218C04EBE7EE
:1042700010B50288D14B984206D00124A407A04271
:1042800002D0CF4CA04203D17024A2434C882243D9
:10429000CC4CA04203D0D04C22400C892243028057
:1042A0004A68C2620A880285984208D0C74A90428A
:1042B00005D0C74A904202D0C64A904201D1897ABD
:1042C00001860121818210BD0021C9434160002186
:1042D000018001814180817270470185828270472F
:1042E000028870239A430A430280704741627047F4
:1042F000C1627047406A7047008D704702220029F2
:10430000018801D0114300E09143018070470422ED
:104310000029018801D0114300E0914301807047DA
:1043200080220029018801D0114300E091430180DF
:104330007047028808239A43028002880A43028059
:1043400070470288A44B1A40028002880A43028008
:1043500070470029018802D00122114301E0490879
:1043600049000180704710B50A884B88CC881A43F1
:104370008B8823431A430B891A434B8989891A4333
:104380000A434030828010BD00210180418081803D
:10439000C18001814181818170474030002981883D
:1043A00003D00122D203114301E04904490C81806A
:1043B000704730B5028C520852000284038C828808
:1043C000048B7025AC43A4080D88A4002543022467
:1043D000A3438C891C434B882343784CA04208D0CC
:1043E0007A4CA04205D07A4CA04202D0794CA0422F
:1043F0000DD10824A343CC891C4304239C438B8800
:104400002343754C22400C8A14434A8A22438280FB
:10441000058389684163038430BD70B5028C102325
:104420009A430284048C8288038B6C4D2B400D7858
:104430002D062D0C1D4320239C438B891B051E0C30
:104440004B8826431B051B0C5C4C3343A04215D103
:104450008024A343CC892405240C1C4340239C4383
:104460008B881B051B0C23435D4C22400C8AA40443
:10447000240C14434A8A9204120C2243828005833E
:1044800089688163038470BD30B5028C554B1A4036
:104490000284038C8288848B7025AC43A4080D8829
:1044A000A4002543504C23400C7B2406240C1C43C1
:1044B0008B781B061B0C2343404CA04215D14B4C60
:1044C00023408C7B2406240C1C43494B1C400B7955
:1044D0001B061B0C2343474C22400C8A2405240C4A
:1044E00014434A8A1205120C22438280858389680C
:1044F000C163038430BD30B5028C3F4B1A40028447
:10450000048C8388828B354D2A400D782D062D0C26
:1045100015433A4A14400A7B1207120C22438C7846
:104520002407240C1443254A904205D1344A1340F1
:104530000A8A9205120C134383808583896801647B
:10454000048430BD002101804180818081608181AF
:10455000C18101824182704730B50346183301247E
:10456000058C8C40A5430584002910D008290ED065
:10457000091F0804400CC018016807231B03994356
:10458000016001681206120C1143016030BD480839
:10459000C01801687023994301600168F4E7416322
:1045A000704781637047C163704701647047028B35
:1045B00070239A430A43028370470000002C014095
:1045C0000004004000100040002000400040014076
:1045D0000044014000480140FFFC0000FF8C000047
:1045E000FFF30000FFFE0000FFFD0000FFF70000EA
:1045F000FFFB0000FFCF0000FFEF0000FFDF000027
:10460000FFBF0000028BF64B09021A4011430183E1
:10461000D2E7828B70239A430A438283CCE7828B52
:10462000EF4B09021A4011438183C5E700298188B5
:1046300002D00122114301E0490849008180BBE713
:10464000028B08239A430A430283B5E7028BE54BAA
:1046500009021A4011430183AEE7828B08239A4373
:104660000A438283A8E7828BDE4B09021A4011437A
:104670008183A1E7028B04239A430A4302839BE7C9
:10468000028BD94B09021A401143018394E7828BB4
:1046900004239A430A4382838EE7828BD24B09021A
:1046A0001A401143818387E7028B80239A430A4390
:1046B000028381E7028B5204520C090211430183E9
:1046C0007AE7828B80239A430A43828374E7828B42
:1046D0005204520C0902114381836DE7028C0223BC
:1046E0009A430A43028467E7028C08239A430A43E9
:1046F000028461E7028C20239A430901114301845B
:104700005AE7028C80239A4309011143018453E73D
:10471000028CB64B09021A40114301844CE7028C0B
:10472000B04B09021A401143018445E7028CB04B9B
:1047300009031A40114301843EE7028908239A4382
:10474000028102890A43028136E710B50123048CF5
:104750008B409C430484038C8A401343038410BD24
:1047600010B50423048C8B409C430484038C8A4042
:104770001343038410BD04220029818801D0114312
:1047800000E09143818017E7828B9A4B1A40828325
:10479000828B09020A4382830EE7828B0C239A43A1
:1047A0008283828B0A43828306E7028B914B1A40F5
:1047B0000283028B09020A430283FDE6F0B5048CF2
:1047C0001026B4430484058B048C8B4F1B03090112
:1047D0003D402B4312021A43A0239C430C43344315
:1047E00002830484F0BD028B0C239A430283028B64
:1047F0000A430283E0E670B5048C64086400048414
:10480000058B048C1B011343F3260A22B543944302
:104810002B430C4301210C430383048470BDF8B582
:10482000044608884E888A880B890D4600281DD0CA
:10483000042824D00828208C2AD0704908402084DD
:10484000A08B278C31036C4E1202304002431803B8
:1048500010436B4AA08317400F43012109030F4304
:104860002784E9882046FFF78FFFF8BD31462046B0
:10487000FFF7C1FFE9882046FFF7B5FFF8BD3146D5
:104880002046FFF79BFFE9882046FFF78EFFF8BD23
:104890005C4908402084A18B208C3702F3261B0141
:1048A000B14313430B435849A3830840FF213843C6
:1048B000013108432084E9882046FFF76EFFF8BDE8
:1048C00000210180418001228280C180018173E644
:1048D000F8B50C464988002601250746002900D175
:1048E0000226A288012A00D10225208823890028D7
:1048F000384610D0FFF762FFE1883846FFF755FFD2
:1049000023892A4631463846FFF775FFE188384645
:10491000FFF769FFF8BDFFF76EFFE1883846FFF744
:1049200062FF23892A4631463846FFF747FFE18870
:104930003846FFF73AFFF8BD406B3DE6806B3BE63B
:10494000C06B39E6006C37E6002A828901D00A4341
:1049500000E08A4382812FE681822DE60246128A98
:1049600000200A4200D0012026E6C943018223E646
:104970000246138A002092890B400A40002B02D085
:10498000002A00D0012017E6C943018214E6114332
:104990004030018110E6002A828901D00A4300E0FC
:1049A0008A43828108E608220029818801D01143C8
:1049B00000E091438180FFE50189C908C9000181B8
:1049C000FAE5028970239A430A430281F4E510B59F
:1049D0000446FFF7F6FF208907210843208110BD18
:1049E000FF8F0000FFF70000FFFB0000FFFD00004D
:1049F000FFDF0000FFF30000FF0C0000FFEF0000EE
:104A0000FF5F0000FFFE0000FFF5000070B51646D6
:104A10000D46044660290CD001223146FFF7EBFE1B
:104A200029462046FFF7CDFF208907210843208132
:104A300070BD01223146FFF7C1FEF1E710B50489D0
:104A40001B021343E4B20B432343038110BD10B593
:104A50000446FFF7F3FF2089C108C900072001437E
:104A6000702081430143218110BD10B50446FFF73A
:104A7000E5FF2089012189030843208110BD828838
:104A800070239A43828082880A43828094E5028957
:104A9000D208D200028102890A4302818CE5028990
:104AA00080239A43028102890A43028184E570B51A
:104AB0000689048B058CF608F6000E430C49068126
:104AC0000C40FF2102310C43AA218D4319011143EF
:104AD00029430483018470BD80220029818801D08C
:104AE000114300E09143818066E54030018263E537
:104AF000FCFC00000168454A114001600021016092
:104B000041608160C1604249414A0839904202D106
:104B100048680F2205E03E4A1432904204D14868AA
:104B2000F022104348607047394A2832904203D13E
:104B300048680F221202F4E7354A3C32904203D112
:104B400048680F221203ECE7314A50329042EAD112
:104B500048680F221204E4E730B503682D4A0C6A56
:104B600013408A684D6922430C692C4322438C69A7
:104B70002243CC6922434C6A22438C6A22431A4363
:104B80000260CA6842600A6882604968C16030BDDC
:104B90000021016041608160C1600161416181610A
:104BA000C16101624162816270470029016802D0DF
:104BB0000122114301E0154A114001607047416034
:104BC0007047406880B27047002A026801D00A43EB
:104BD00000E08A430260704701460D4A0020083A0F
:104BE00012680A4200D0012070470949083948601C
:104BF00070470146064A0020083A12680A4200D06F
:104C0000012070470249083948607047FEFF0000E4
:104C1000080002400F80FFFF10B501210C0720465D
:104C2000FFF733F800212046FFF72FF810BD304979
:104C30008A150028086801D0104300E090430860FE
:104C400070472B4A1168E023994301431160704774
:104C5000274910220028086801D0104300E0904343
:104C600008607047224A0029516801D0014300E0E2
:104C70008143516070471F490A6904239A430A61BE
:104C8000012801D020BF704730BF7047184B1A6809
:104C90009208920002431A601648036904221343E3
:104CA0000361012904D020BF01699143016170476C
:104CB00030BFF9E70E48026804210A430260026827
:104CC00002231A4302600B4802690A43026130BFA3
:104CD0007047074A0146526800200A4200D001206E
:104CE000704703490A68800002430A607047000069
:104CF0000070004000ED00E0FE4A116849084900DC
:104D0000014311607047FB4910220028086801D058
:104D1000104300E0904308607047F649002009689E
:104D2000890600D501207047F2480169090603D5BC
:104D3000F1494160F14941607047EE4801698022C4
:104D4000114301617047EB490420CA68D20701D0C2
:104D500001207047CA68D20601D502207047C96891
:104D60004907FBD50320704700B50346FFF7EBFF6B
:104D700002E0FFF7E8FF5B1E012803D0002B00D103
:104D8000052000BD002BF4D1FAE7F0B50B2706464D
:104D90003F043846FFF7E8FF04280FD1D54C2069BF
:104DA0000225284320616661206940210843206173
:104DB0003846FFF7D9FF2169A9432161F0BD70B5DD
:104DC0000B252D042846FFF7CFFF04280ED1C94C30
:104DD0002069042630432061206940210843206176
:104DE0002846FFF7C1FF2169B143216170BDF8B5C5
:104DF000064600200B273F0400900D463846FFF77B
:104E0000B3FF042815D1BB4C206901210843206160
:104E100035803846FFF7A8FF042806D1B61C280CB9
:104E2000009630803846FFF79FFF21694908490006
:104E30002161F8BDF0B50B2706463F040D46384604
:104E4000FFF792FF04280CD1AA4C206901210843E6
:104E5000206135803846FFF787FF216949084900FE
:104E60002161F0BDA3480169890503D4A24981608D
:104E7000A249816070479F480169421591430161D1
:104E800070479C4801690122520311430161704738
:104E900098490020C9694907890F00D0012070474F
:104EA000F0B5AA25FFF7F4FF002800D000250B2756
:104EB0003F043846FFF758FF042813D18D4C206972
:104EC0002026304320612069402108432061384674
:104ED000FFF74AFF1021042805D0052802D02269D7
:104EE0008A432261F0BD2069B043206120690E46EB
:104EF00030432061824805803846FFF735FF05289A
:104F0000F0D02169B1432161F0BDF0B5C043C6B214
:104F10000004050E0B200004FFF726FF04281BD118
:104F2000744C2169102211432161754FFF2E06D068
:104F30003E810B200004FFF717FF042806D1FF2D48
:104F400006D07D810B200004FFF70EFF052803D05B
:104F5000226910218A432261F0BDF0B50B26074675
:104F600036043046FFF700FF04281ED1614C20694B
:104F700020252843206120694021084320613046D4
:104F8000FFF7F2FE04280BD12069A84320612069B5
:104F90001025284320615A4807803046FFF7E4FE79
:104FA000052802D02169A9432161F0BDF0B505466D
:104FB0000B2094460F460004FFF7D6FE042814D1B8
:104FC0004C4C20691026304320613D436046054328
:104FD000F82005434A4845800B200004FFF7C4FE33
:104FE000052802D02169B1432161F0BDF0B50B273E
:104FF00005463F043846FFF7B7FE042810D13D4C64
:105000002069102630432061EF2005433C4845804D
:105010003846FFF7A9FE052802D02169B143216176
:10502000F0BDF0B50B2705463F043846FFF79CFE60
:10503000042810D12F4C2069102630432061DF2036
:1050400005432F4845803846FFF78EFE052802D0DD
:105050002169B1432161F0BDF0B50B2705463F043E
:105060003846FFF781FE042810D1224C2069102613
:1050700030432061BF200543214845803846FFF773
:1050800073FE052802D02169B1432161F0BDF0B55E
:105090000B2705463F043846FFF766FE042810D16B
:1050A000144C2069102630432061882005431448A1
:1050B00045803846FFF758FE052802D02169B143E4
:1050C0002161F0BDF0B507460B200E460004FFF746
:1050D0004BFE042817D1074C206910252843206176
:1050E0003E800B200004FFF73FFE05280BD021690E
:1050F000A94307E00020024023016745AB89EFCDBB
:1051000000F8FF1F2161F0BD0D48C0690004000ECA
:1051100070470B48006A7047094A0029116901D09D
:10512000014300E0814311617047054A0146D2689E
:1051300000200A4200D0012070470149C860704732
:1051400000200240854910B5884208D1441501214C
:105150002046FEF791FD00212046FEF78DFD10BD93
:1051600030B5C3687E4A8C6813400A680D792243C3
:10517000CC686D032C4322430C69496922430A43DE
:105180001A43C26030BD0021016001718160C160BD
:105190000161416170470029816801D0012200E06E
:1051A0000222114381607047002A026901D00A433C
:1051B00000E08A43026170470122D2030029C168DE
:1051C00001D0114300E09143C16070470122920376
:1051D0000029C16801D0114300E09143C1607047CC
:1051E0000122D2050029C16801D0114300E091439A
:1051F000C16070470904114301627047C2681F23F0
:105200009B069A430A43C260704701229205002917
:10521000C16801D0114300E09143C1607047012291
:105220005049D2050028886801D0104300E090431F
:105230008860704701224B4992050028886801D098
:10524000104300E0904388607047012245491206F0
:105250000028886801D0104300E0904388607047C0
:10526000836A0B4383624261704701225203002923
:10527000C16801D0114300E09143C1607047012231
:1052800012040029C16801D0114300E09143C160BC
:105290007047012212030029C16801D0114300E0C8
:1052A0009143C1607047826800210123DB071A43E4
:1052B00082600F231B038268491CD20FD2079942D8
:1052C00001D0002AF7D18168002901DB006C70470A
:1052D0000020704781681022114381607047816807
:1052E0000422114381607047006C80B2704700292E
:1052F000C16802D00122114301E049084900C160A0
:105300007047C26802239A43C260C2680A43C260FF
:105310007047002A426801D00A4300E08A43426095
:10532000704702460020CB0104D5926801231B067A
:105330009A4300E012680A4200D0012070470160E1
:10534000704702465368002012680B400A4202D0A0
:10535000002B00D0012070470160704700240140FD
:1053600003D2FFFF0027014032483149016000218C
:1053700041608160C16030494161704710B58379F7
:105380002C490268002B26D00B6893430B604A68B7
:1053900003689A434A6002795218136804682343E9
:1053A00013608A6803689A438A60CA6803689A43EC
:1053B000CA604279102A05D051180A680068024371
:1053C0000A6010BD8A6803681A438A60CA68006868
:1053D0000243CA6010BD0079401801689143016022
:1053E00010BD0021016001710C2242718171704772
:1053F00010490A6902430A6170470E4A0146526920
:1054000000200A4200D0012070470A4948617047D5
:10541000084A01461368002052690B400A4202D034
:10542000002B00D0012070470249486170470000FE
:105430000000940F00040140FFFF6B002448016846
:105440008907890F016000218160C16001614161AC
:10545000816982151143816170471D4A116889086D
:105460008900014311607047194A0029116801D071
:10547000014300E0814311607047154A002911681B
:1054800001D0014300E08143116070478A07130F88
:1054900010B50F229A408C080D49A40061188C6841
:1054A00094438C608A68984002438A6010BD084922
:1054B0008A6902438A617047054900208969C905E4
:1054C00000D50120704702498A6902438A6170470A
:1054D00000000140F8B5042A2CD3830712D00B78C2
:1054E000491C0370401C521E83070BD00B78491CCB
:1054F0000370401C521E830704D00B78491C0370B4
:10550000401C521E8B079B0F05D0C91ADF002023B9
:10551000DE1B08C90AE0FAF725FEF8BD1D4608C9DA
:10552000FD401C46B4402C4310C0121F042AF5D283
:10553000F308C91A521EF0D40B78491C0370401CA2
:10554000521EEAD40B78491C0370401C012AE4D493
:1055500009780170F8BD01E004C0091F0429FBD2DD
:105560008B0701D50280801CC90700D002707047EC
:1055700000290BD0C30702D00270401C491E02292B
:1055800004D3830702D50280801C891EE3E7002232
:10559000EEE70022DFE7002203098B422CD3030A47
:1055A0008B4211D300239C464EE003460B433CD470
:1055B000002243088B4231D303098B421CD3030AD8
:1055C0008B4201D394463FE0C3098B4201D3CB0108
:1055D000C01A524183098B4201D38B01C01A524138
:1055E00043098B4201D34B01C01A524103098B423C
:1055F00001D30B01C01A5241C3088B4201D3CB0027
:10560000C01A524183088B4201D38B00C01A524109
:1056100043088B4201D34B00C01A5241411A00D2B9
:1056200001465241104670475DE0CA0F00D0494222
:10563000031000D34042534000229C4603098B4292
:105640002DD3030A8B4212D3FC22890112BA030A1A
:105650008B420CD3890192118B4208D3890192119C
:105660008B4204D389013AD0921100E08909C30921
:105670008B4201D3CB01C01A524183098B4201D323
:105680008B01C01A524143098B4201D34B01C01A0E
:10569000524103098B4201D30B01C01A5241C30886
:1056A0008B4201D3CB00C01A524183088B4201D3F5
:1056B0008B00C01A5241D9D243088B4201D34B0010
:1056C000C01A5241411A00D20146634652415B1052
:1056D000104601D34042002B00D549427047634633
:1056E0005B1000D3404201B50020C046C04602BD59
:1056F000704770477047754600F024F8AE460500C5
:1057000069465346C008C000854618B020B5FEF76C
:105710002DF860BC00274908B6460026C0C5C0C5A4
:10572000C0C5C0C5C0C5C0C5C0C5C0C5403D490095
:105730008D46704710B50446C046C0462046FAF76D
:105740000AFD10BD00487047AC0A0020014918202E
:10575000ABBEFEE726000200704730B47446641EFC
:105760002578641CAB4200D21D46635D5B00E318E4
:1057700030BC1847020211016432280101101201E5
:10578000641E28010104130164322801010C140174
:10579000641E28010100150164322801010416016C
:1057A000641E280101002101643228010110220138
:1057B000641E28010104230164322801010C240124
:1057C000641E28010100250164322801010426011C
:1057D000641E2801010031015064631E04030101AD
:1057E00032016464631E0403010133016E64631EAD
:1057F0000403010134018C64631E040201013501BC
:10580000AA64631E040101013601B164631E040130
:10581000010111016432280101101201641E2801E6
:105820000104130164322801010C1401641E2801D3
:10583000010015016432280101041601641E2801CB
:10584000010021016432280101002201641E2801A7
:10585000010023016432280101002401641E280193
:10586000010025016432280101042601641E28017B
:10587000010031014664631E0403010132015A64D0
:10588000631E0403010133016E64631E04030101FE
:1058900034018264631E0402010135018C64631EBD
:1058A000040101013601A064631E0401010111011C
:1058B0006432280101101201641E28010104130141
:1058C00064322801010C1401641E28010100150135
:1058D0006432280101041601641E2801010021011F
:1058E0006432280101102201641E280101042301F1
:1058F00064322801010C2401641E280101002501E5
:105900006432280101042601641E280101003101CE
:105910005064631E0503010132016464631E0503C4
:10592000010133016E64631E0503010134018C64BF
:10593000631E050201013501AA64631E0501010110
:105940003601B164631E050101013B886C590008F2
:10595000000000202401000004010008905A000803
:1059600024010020EC0F000020010008006CDC0284
:1059700000000000000000000102030406070809FF
:10598000000000000001010101010101010101010C
:105990000100010001000000000000000000000004
:1059A00000000000000000000001000000000000F6
:1059B00000010000000000000000000000000000E6
:1059C000000005000500F401F40105000500F401E4
:1059D000F4010000000000000000000000000000D2
:1059E00000000000000000000000000000000000B7
:1059F00000000000000000000000000000000000A7
:105A00000000000000000000000000000000000096
:105A10000000000000000000000000000000000086
:105A20000000000000000000000000000000000076
:105A30000000000000000000000000000000000066
:105A40000000000000000000000000000000000056
:105A50000000000000000000030100010000000041
:105A60000000000000000000000000000000000036
:105A70000000000000000000000000000000000026
:105A800000000000010203040102030406070809E4
:04000005080037595F
:00000001FF
