:020000040800F2
:100000000811002091340008C5010008C70100084C
:1000100000000000000000000000000000000000E0
:10002000000000000000000000000000C9010008FE
:100030000000000000000000CB010008CD01000816
:10004000A3340008A3340008A3340008A334000834
:10005000A33400080B1D0008A3340008471D000846
:10006000A3340008A3340008A3340008A334000814
:10007000A3340008A3340008A3340008A334000804
:10008000A3340008A334000800000000A3340008D3
:10009000A3340008CF010008A3340008A3340008EB
:1000A000A3340008A3340008A3340008A3340008D4
:1000B000A334000800000000A33400080000000082
:1000C00000F002F800F03EF80CA030C80838241800
:1000D0002D18A246671EAB4654465D46AC4201D180
:1000E00000F030F87E460F3E0FCCB6460126334274
:1000F00000D0FB1AA246AB46334318478855000090
:10010000A8550000103A02D378C878C1FAD852072F
:1001100001D330C830C101D504680C6070470000BD
:100120000023002400250026103A01D378C1FBD813
:10013000520700D330C100D50B6070471FB51FBDFB
:1001400010B510BD05F073F91146FFF7F7FF00F089
:1001500025F805F08BF903B4FFF7F2FF03BC05F0B7
:1001600091F9000070B505460C46164602E00FCC2A
:100170000FC5103E102EFAD2082E02D303CC03C5B1
:10018000083E042E07D301CC01C5361F03E02178B9
:100190002970641C6D1C761EF9D270BD10B502F07A
:1001A00031FB03F06BF902F04BF801F0A6FE0022E0
:1001B0000121034803F02BF903F00EF9002010BDD4
:1001C0002D0300087047FEE770477047704710B571
:1001D000064C0121204604F067FA002805D003F000
:1001E00048F90121204604F06BFA10BD004401409B
:1001F00010B5474801680122114301604168454A32
:10020000114041600168444A1140016001680122C7
:1002100092049143016041683F221204914341607E
:10022000C16A09090901C162016BFF22543291437D
:100230000163416B4908490041630021816000F07E
:100240002EF810BD70B5324D69680C20014033485E
:10025000334C03D0042901D0082901D0206014E0D8
:100260006A686968012392021B04160F1940B61CC4
:10027000002907D0E96A0907090F491C05F027F88A
:100280007043EBE727484643266068682449000628
:10029000000F091D085C2168C140216070BD38B5A0
:1002A00000201B4C00902068012109048843206035
:1002B0001D480168102211430160016801221143A9
:1002C0000160606860606068606060683F21090488
:1002D0008843606060680521C904084360600520A8
:1002E00003F074FA206801210906084320602068A1
:1002F0008001FCD560688008800060606068022131
:100300000843606060680007800F0228FAD138BD9A
:10031000001002400CB8FFF8FFFFF6FE00127A0052
:100320000000002000093D000020024010B502F04E
:10033000B2FE02F089FFFF2205322649264802F06C
:10034000A9FA4821254802F041FB2448583802F018
:10035000F4FA08220121224803F059F80922012168
:10036000204803F054F8022201211F4803F04FF8FF
:10037000062201211D4803F04AF8042201211C48ED
:1003800003F045F80B2201211A4803F040F805223A
:100390000121194803F03BF801221146174803F0E8
:1003A00036F807220121164803F031F80322012113
:1003B000144803F02CF80A220121134803F027F80F
:1003C000002003F03AF810BD10B532210E2003F0E2
:1003D0003DF810BD170700207C04002034040020E5
:1003E000FF060008231B00086522000835190008D5
:1003F000E50D00080B0F0008F7170008DF160008CE
:10040000AB140008590F000821110008F849012019
:1004100008707047F649002008707047F4490120C1
:1004200048718871C87108724872887200204875D6
:100430008875C8750A46C887403210805080908001
:10044000D080108150819081D081108208764876CA
:100450008876C87608774877704770B5E54C0646C9
:1004600001218902204603F0B6F80121C902204685
:1004700003F0B1F80021084602F0A3FC002101209E
:1004800002F09FFCDA48007D012804D0022805D044
:10049000032806D009E00021022004E00021032007
:1004A00001E00021042002F08CFCFF25F5352846F0
:1004B00002F0A1F900241FE00121022002F081FCDA
:1004C0000121032002F07DFC0121042002F079FCCF
:1004D000284602F090F90021022002F072FC00216F
:1004E000032002F06EFC0021042002F06AFC284682
:1004F00002F081F9641CE4B2B442DDD370BD70B582
:1005000000226421012002F0A5FE002264210220C5
:1005100002F0A0FE00226421032002F09BFE0022D4
:100520006421042002F096FE7D26760100223146E9
:10053000052002F08FFE0021084602F042FC002454
:10054000F5100121022002F03CFC0121032002F001
:1005500038FC0121042002F034FC3222314605200F
:1005600002F078FE284602F076F90021022002F01F
:1005700028FC0021032002F024FC0021042002F0CA
:1005800020FC00223146052002F064FE284602F0DD
:1005900062F9641CE4B2032CD3D370BD70B5954CE2
:1005A000064601218902204603F015F80121C902FF
:1005B000204603F010F80021084602F002FC8C48A7
:1005C000007D012804D0022805D0032806D009E0C8
:1005D0000021022004E00021032001E0002104208A
:1005E00002F0EFFBFF25F535284602F004F9002460
:1005F0000FE00121084602F0E4FB284602F0FBF878
:100600000021012002F0DDFB284602F0F4F8641C12
:10061000E4B2B442EDD370BD10B50022437801219D
:1006200004E0445CA218491C92B289B29942F8D302
:10063000110AC154C018427010BDF8B56E4D6F4814
:1006400002F096F96A4C002786B2203453E06B48DA
:1006500002F084F9A17A002942D0E17A00292FD052
:10066000217B6854207B401C2073607B401E000669
:10067000000E60733DD100226978012003E02B5CFD
:100680009A1892B2401C8842F9DB685C0302681831
:100690004078181890420BD1FF2257495F328818D2
:1006A00004F0B4FD564802F05BF8022002F0D3F8E3
:1006B000A772FF21E7725F314F4804F006FE18E091
:1006C000FF22411E5D32914208D24B4A217B505499
:1006D00060730120E072491C21730AE0A77208E0F0
:1006E000FF2806D1444908700121A172E7722173E5
:1006F0006773761EB6B2002EA9D10120F8BD10B5E1
:10070000FF24CCB02D342146684604F0DEFD3D4880
:10071000007800280AD1394822466946A03002F004
:10072000EFF8010002D0684602F0C9F91C21082048
:1007300002F08CFE4CB010BD2D49012088730020C2
:100740008031086270472A49012000230A46487117
:100750008032136388715363C87193630872D363E3
:10076000487213648872D36208745361C8729361CB
:10077000087393624873536288731362C873D361BA
:10078000704770B51A4A0B00803204F082FE0F13D6
:10079000090E21262B3F134313484D52575C13007B
:1007A0001349491D1161AB3103E01149891D1161E4
:1007B000AE315164136914491D7800240968012D74
:1007C00046D00E1801258E4246D2002849D04DE071
:1007D0000749C91D1161B131EBE7054908311161C4
:1007E000B431E6E7024909311161B731E1E70000B0
:1007F000140000200004004820010020DC03002039
:100800007E020020F500002008010020F749116158
:10081000A231CEE7F549891D11618431C9E7F34959
:10082000491C11618D31C4E7F049891C11619C316B
:100830005164EE49C91C116197315164EB49091D9E
:10084000116192315164E949491D11618D31B0E75F
:10085000506C01601C7009E0566C3668891B81423F
:1008600004D31D70506C0460012070BD002070BD69
:10087000F3B587B00020059004200290002004907A
:100880000520039006200190072000900E46D748CF
:1008900007990825022403277630012904D002296C
:1008A00009D003290ED114E0D0490B318164C91C51
:1008B000C164C91C05E0CD490C318164C91CC16407
:1008C000C91C0165C9487630806C0078012816D0B3
:1008D00040E00221059105210291062104910721A2
:1008E00003910821019109210091C0490A250D3188
:1008F0008164C91C03240427C164C91CE1E7BB4A05
:1009000031787632106D491E0078884212DD6843D6
:100910008119601C095C0022079802F09BFCB34817
:1009200007217630806C0170B04900207631096D66
:1009300008700FE0AD490A390978002911D000226A
:100940006421032002F086FCA84900200A39887738
:10095000FFF764FDA5487630806C007802280ED041
:1009600034E068438019791C425C611C415C079843
:1009700002F070FC9D4902207631896C087007985E
:1009800003282AD099487630006D00786843811991
:100990000298401C085C7D21C90048430799FFF775
:1009A000F0FE002812D091487630C26C1178491CB4
:1009B0001170826C05211170006D0022007868436F
:1009C0008119601C095C079802F044FC8748763066
:1009D000806C0078042860D06CE0902002F092F9DE
:1009E00082497631096D8C46097869438A190599DF
:1009F000491C535C14214B437D4909885B18834291
:100A000039D8E12212018918884215D2774903208A
:100A10007631896C08706146097869438A19611CCE
:100A2000515C002202F016FC704901200A39C8719D
:100A3000002080318863C9E76C4904207631896CD5
:100A4000002208706421012002F004FC00226421CD
:100A5000022002F0FFFB00226421032002F0FAFBD7
:100A600001218902634802F0B6FD0121C9026148F3
:100A700002F0B1FDAAE702987D21401C105CC9007C
:100A800048430799FFF77DFE00289FD057487630EE
:100A9000C16C0A78521C0A708BE7544900200A394D
:100AA0008877FFF7BBFC0520FFF7D7FC01F0C8FBF8
:100AB00001F023FA4D487630806C0078032842D14B
:100AC0004A487630006D0078684381190498401CCC
:100AD000085C7D21C90048430799FFF752FE0028B2
:100AE00009D042487630C26C1178491C1170806C74
:100AF000052101701DE0902002F004F93C490A88AC
:100B0000E1210901511888421DD33849042076316A
:100B1000896C002208706421012002F09BFB0022F6
:100B20006421022002F096FB00226421032002F0DF
:100B300091FB012189022F4802F04DFD0121C902DC
:100B40002C4802F048FD29487630806C84460078B5
:100B5000052863D1254803997630C36C006D491C84
:100B600000781A7868438019415C8A4205D10621D1
:100B7000604601700020187050E007990329019920
:100B80001BD0491C405C7D21C90048430799FFF7F1
:100B9000F8FD002842D015487F1C7630006D641C9B
:100BA000007868438019C25D015D079802F052FB2E
:100BB0000E4902207631896C5EE0491C405C7D2143
:100BC000C90048430799FFF7DCFD002814D0074906
:100BD00000200A39087001218902064802F0FDFC54
:100BE0000121C902034802F0F8FCD4E71E000020EE
:100BF0000601002000040048FF4F01218902384609
:100C000002F0E9FC0121C902384602F0E4FCFB4F86
:100C1000B86C0078062831D009B0F0BDF74FB86C39
:100C200000780628F8D10798032827D0386D007877
:100C3000684381190098401C085C7D21C900484325
:100C40000799FFF79EFD0028E6D039460820803935
:100C500088770020F96C641C0870386D00220078D9
:100C600068438019015D079802F0F4FA396D08783D
:100C7000401C0870B96C01200870CDE7DF48006D9A
:100C80000078684381190098401C085C7D21C900E8
:100C900048430799FFF775FD002812D0D74F002071
:100CA000803F387001218902D34802F096FC01216F
:100CB000C902D14802F091FC0820B87700208037A3
:100CC000C8E7CD4C01218902204602F084FC0121B5
:100CD000C902204602F07FFC9EE710B50022C84BF7
:100CE000FF21D9319C5C8454521C8A42FADB0146B4
:100CF0007622C44801F077FB10BD02780021521E15
:100D0000FF2A38D20022491C89B243189B78491C1B
:100D100089B2012B2FD80B46603B3C2B05D99C3B5D
:100D20003C2B02D99C3B3C2B01D8491C89B243186F
:100D30009B78491C89B2002B1DD043189B785B1F00
:100D4000602B18D2491C89B243189B78491C89B280
:100D5000002B10D00B46603B3C2B05D99C3B3C2B19
:100D600002D99C3B3C2B01D8491C89B243189B7883
:100D70005B1EFA2B00D3B0E7C91C521C89B2362A7D
:100D8000C1DB7047F7B5002001990124491C844656
:100D900003468E46012A04D0022A02D0032A02D03A
:100DA00002E0082000E00A2005465D437146695CC8
:100DB000012910D1002108E0019E7618AF5D009E48
:100DC0003755641C491CE4B2C9B28142F4D3614670
:100DD000491CC9B28C465B1C062BDBDB00996046C4
:100DE0000870FEBDF8B5854C0121603C227825468F
:100DF000C903814800260127203D002A43D002F084
:100E0000D8FB00284AD1A07B052872D0401CA073D3
:100E10000AE0E07B052805D1E97F002902D1E178CD
:100E2000002969D0401CE0731421042002F00EFB5D
:100E3000F8BD02202875002101F0C3FF0121032025
:100E400013E0022802D0032811D107E003202875FF
:100E5000002101F0B6FF0121042006E02F750021DA
:100E6000042001F0AEFF0121022001F0AAFFFFF7EC
:100E7000D5FAAE7700226421012002F0EBF90022BE
:100E8000642102201DE0604BA2781B781A43EB7F9F
:100E90001A43C9D102F08DFB002804D0A673687CE8
:100EA0000128B6D0C0E70E215848FFF76AFC002899
:100EB000A9D0EF772771FFF7B1FAAE77002264214E
:100EC000012002F0C7F900226421022002F0C2F9D9
:100ED00000226421032002F0BDF9002264210420D5
:100EE00002F0B8F900226421052002F0B3F99BE773
:100EF000FFE76F74A67397E74048EF73C661E67328
:100F00006E74287D01289CD193E7F8B53B4D803D58
:100F1000287801281BD18602374C3146204602F042
:100F20005AFB77003946204602F055FB7D20082108
:100F30004001FFF726FC002809D03146204602F088
:100F40004CFB3946204602F048FB00202870322135
:100F50000B2002F07BFAF8BDF8B52D4E274C307807
:100F600004270125603C002835D10022642101209E
:100F700002F070F900226421022002F06BF90022D5
:100F80006421032002F066F900226421042002F0AB
:100F900061F97D2100224901052002F05BF9322030
:100FA00001F059FC09200121C00602F002FB0128D2
:100FB00001D0357012E0377065701648A570017861
:100FC00000292DD105701049002008700B49803987
:100FD0008877FFF723FA3078012803D101F030F940
:100FE00000F08BFF3078022803D101F029F900F0DE
:100FF00084FF607801280FE000040048940000207E
:10100000AC54000800780008F500002088130000A8
:10101000F4000020F600002002D004282DD030E09B
:101020000926F6062021304602F0C3FA012805D130
:101030001021304602F0BDFA002806D020213046AB
:1010400002F0B7FA002803D008E0022060701BE02D
:101050001021304602F0ADFA012806D0202130469A
:1010600002F0A7FA012803D006E00320607047E0F1
:101070001021304602F09DFA677001F0E1F800F0AF
:101080003CFF6078022838D10021012001F099FE50
:101090000021022001F095FE0021032001F091FEC5
:1010A0000021042001F08DFE217C7D20C00000295C
:1010B00019D00C21FFF765FB00281ED0012100206C
:1010C00001F07FFE002009252074ED06202128462E
:1010D00002F06FFA002810D11021284602F069FAB8
:1010E0000128C2D009E00C21FFF74BFB002804D0F7
:1010F0000021084601F065FE25746078032803D1BD
:101100000121002001F05DFE1421032002F09EF970
:10111000F8BD884201D9401A00E0081A80B2704731
:10112000F8B5FE4C01262079FD4F002501282FD16E
:1011300020462038C1780079014359D1022001F0BE
:1011400040FE0021032001F03CFE0021042001F0BC
:1011500038FE00226421012002F07CF80022642184
:10116000022002F077F800226421032002F072F8D6
:1011700000226421042002F06DF87D210022490143
:10118000052002F067F8207D0A2807D0401C207552
:101190002079022810D0032823D029E002202575C9
:1011A000207141026671384602F015FA0121C90228
:1011B000384602F010FAEBE7E670E07D14217D225C
:1011C00041435201914217D10121E5758902384608
:1011D00002F003FA0121C902384602F0FEF90320A9
:1011E00020710420207146226421032002F032F88D
:1011F000E078012802D031E0401CE07560790128D8
:1012000008D1607D282809D0401C6075012102208A
:1012100001F0D7FD6079022805D00DE00220657548
:1012200060710021F3E7607D282809D0401C6075BB
:101230000121032001F0C5FD6079032805D00DE0F0
:101240000320657560710021F3E7607D28280BD0CD
:10125000401C60750121042001F0B3FDAF4E2079E0
:101260002036042804D030E0657566710021F2E76D
:10127000A07D1421AB4A4143914208D10022642150
:10128000032001F0E7FF05202071A57520E0401C38
:10129000C0B2A075052803D1902001F033FDB085C0
:1012A000A07DC82811D1902001F02CFDF085B18DD2
:1012B000FFF72FFF962808D200226421032001F0B7
:1012C000C9FF07202071A5756EE02079052839D166
:1012D000708D1421944A414391420DD101217585AD
:1012E0008902384602F077F90121C902384602F036
:1012F00072F90620207128E0401C80B27085012818
:1013000003D1902001F0FEFC3086708D8749884221
:1013100018D1902001F0F6FC70860146308EFFF760
:10132000F8FEFF212D3188420CD9072020710121C0
:1013300075858902384602F04EF90121C902384606
:1013400002F049F9207906281DD1E07D1421754A63
:10135000414391420BD101218902384602F03DF907
:101360000121C902384602F038F9E5750BE0401C4E
:10137000C0B2E075012803D1902001F0C3FCB08613
:10138000E07DC82803D0207907280DD04AE09020BE
:1013900001F0B8FCF0860146B08EFFF7BAFE642873
:1013A00020D207202071E5750021E570084601F084
:1013B00008FD0021012001F004FD617E052914D003
:1013C000A07E142203465343FF222D3293422DD197
:1013D000E07E14234343934210D1491C6176A576E5
:1013E000E5761FE00820207130E04C486576203813
:1013F000C57700F025FF00F080FD13E0401CE0768B
:101400000121022001F0DDFC0121032001F0D9FCC3
:101410000121042001F0D5FC50227D214901052045
:1014200001F018FF2079082810D039E0401CA07680
:101430000021022001F0C5FC0021032001F0C1FCC5
:101440000021042001F0BDFC0022E6E7E570207FCA
:101450001421344A4143914214D1304800212038AC
:10146000C5772577022001F0ACFC0021032001F0B4
:10147000A8FC0021042001F0A4FC00F0E1FE00F033
:101480003CFD0DE0401C20770121022001F099FC79
:101490000121032001F095FC0121042001F091FCC1
:1014A00014210A2001F0D2FFF8BDF8B51B4C01272A
:1014B000A0792546264660352036002846D12046AC
:1014C0002038C178007901437DD0308D042841D087
:1014D000401C308500226421012001F0BBFE002267
:1014E0006421022001F0B6FE00226421032001F0F5
:1014F000B1FE00226421042001F0ACFE7D21002217
:101500004901052001F0A6FE7D21002249010520A8
:1015100001F0A0FE002108460AE00000340000208F
:10152000000400488813000030750000D205000058
:1015300001F047FC0021022001F043FC00210320C0
:1015400001F03FFC0021042001F03BFCA0790128C0
:101550001DD04CE000203085207A022814D00121D3
:10156000022001F02EFC0121032001F02AFC0121C0
:10157000042001F026FC7D21A771322249010520BB
:1015800001F068FEE771E1E701210020F1E7207A30
:10159000012802D0022809D103E0FE48A860001FFC
:1015A00003E0FC480830A860001F2860A8680A21F2
:1015B0000088FFF7E6F8002819D0207A022813D017
:1015C0000021022000E01EE001F0FBFB00210320CF
:1015D00001F0F7FB0021042001F0F3FB0220A071D1
:1015E000B08C401CB08405E000210846F4E7A079E7
:1015F000022820D12868B18C0088884204D10020BC
:10160000B0840320A07116E0A8680A210088FFF7C3
:10161000B8F800280FD0207A022810D0012102202B
:1016200001F0CFFB0121032001F0CBFB01210420BD
:1016300001F0C7FBA771E079012803D025E0012163
:101640000020F5E7207A012802D002280AD104E020
:10165000D048801CE860001F03E0CE480A30E860F4
:10166000001F6860E8680B210088FFF78AF80028EF
:101670000BD07D2100224901052001F0EBFD022065
:10168000E071F08C401CF08402E0E079022817D170
:101690006868F18C0088884204D10020F08403201F
:1016A000E0710DE0E8680B210088FFF76AF8002878
:1016B00006D07D2132224901052001F0CBFDE771E2
:1016C000A079032806D1E079032803D100F0B8FD02
:1016D00000F013FC3221072001F0B8FEF8BDF8B588
:1016E000AD48AC4C02884088363C0090A078002879
:1016F0002DD1AA48264600780025203E0127002843
:101700002AD0217E20466030142929D0491C217618
:10171000416D89184165A2490098884217D2607CC2
:10172000012853D000226421012001F093FD002202
:101730006421022001F08EFD00226421032001F0CB
:1017400089FD7575B575F575607C401C6074322136
:10175000012001F07BFEF8BD924882420FD210E0DA
:101760008C4814212A30406D03F0B1FD89492A319B
:1017700048658C4980B289392576884201D3B77093
:10178000C9E7B57000226421012001F063FD002249
:101790006421022001F05EFD00226421032001F09B
:1017A00059FD00226421042001F054FD7D21002216
:1017B0004901052001F04EFD0520FEF7EFFE7A48B5
:1017C000077000F03DFD00F098FBA4E7657405206C
:1017D000FEF743FE7448077000F032FD00F08DFB09
:1017E000B5E76C480021563881670122C1678274D1
:1017F000C17441707047F8B5664D0024363DA87835
:101800002E46203E002802D0B467F4676DE066489B
:101810000078002869D1687A0127002857D0B07C69
:10182000002817D0F07C002814D0A87C192824D0D8
:1018300050226421012001F00DFD5022642102207C
:1018400001F008FD50226421022001F003FDA87C74
:10185000401CA87401214903544801F0AAFE002845
:101860001ED0B467F06F1421514A414391423AD1DE
:10187000F467F07F002824D037E0AC74B474002201
:101880006421012001F0E6FC00226421022001F025
:10189000E1FC00226421032001F0DCFC2F70D9E779
:1018A000B06F14217D2241431201914206D1B467E9
:1018B000F4673D4877700470F77416E0401CB06719
:1018C00013E07470F77038482F7207700DE0012133
:1018D0004903364801F06DFE012806D1F06F14214E
:1018E0004143C82906D0401CF0671421052001F0AF
:1018F000ADFDF8BD002264210120F46701F0AAFCCF
:1019000000226421022001F0A5FC002264210320B2
:1019100001F0A0FC01218902244801F05CFE0121B4
:10192000C902224801F057FE2C70B477FEF776FD0D
:101930006F72DAE7F0B5174DF7B0363D2878012819
:1019400071D1A8780028FBD12C46203CE07F0028EC
:10195000F6D120780028F3D1A07F144F002836D18B
:101960007626B100684603F0B0FC3246694611485D
:1019700000F062FEB20069460F48FEF7F3FB0E4826
:10198000FFF7BBF90620A07701218902384601F054
:1019900022FE13E06A00002002010020F600002071
:1019A000B603000055090000F500002000040048BF
:1019B000204E000000780008880400200121C902A0
:1019C000384601F008FE00206872FFF70AFFA07F8A
:1019D0005C4E06281AD170787D21C9004843062143
:1019E000FEF7CFFE002811D030780121401EE874A8
:1019F0000720A0778902384601F0EFFD0121C902D6
:101A0000384601F0EAFD504801F0ABFAA07F022809
:101A100078D002230127012806D007280BD00428FC
:101A200040D0082857D06DE0E87C002819D0072165
:101A3000A177401EE8743D21444803F046FC43482A
:101A40003D213D3003F03FFC40483D217A3003F01A
:101A50003AFC207D012808D002280AD003280ED1A4
:101A600030E0A3773078E8744CE09C22B11C6846E3
:101A700003E034499C229E31684603F0C7FB0122F3
:101A800069463248FFF77EF9304802223D300CA902
:101A9000FFF778F92D4803227A3018A9FFF772F979
:101AA0000420A077902001F02DF929494884264987
:101AB0000988643188420AD80820A0776775A7751D
:101AC000E77511E021499C229E396846D5E72770C9
:101AD0000420A07716E0607D072805D1A07D0728A7
:101AE00002D1E07D072813D018490120FEF7C0FE7F
:101AF000164902203D31FEF7BBFE144903207A311E
:101B0000FEF7B6FE0A21062001F0A0FC77B0F0BD7A
:101B1000A777FEF783FCE87C0028F3D127712B72AE
:101B2000F0E710B50B480078002805D10548AC381F
:101B300000F025FFFEF781FD6421092001F086FCFD
:101B400010BD00008804002006010020600600206F
:101B500054000020F5000020F0B5232085B00121BD
:101B6000400401F001FF0121480401F00FFF0121B1
:101B7000084601F002FFFF2601360025684602965E
:101B80000573C57302274773092002A9C00601F037
:101B9000C2FC0124092002A9C006029401F0BBFC8A
:101BA0000821002003F00EFB6846009605710C2109
:101BB0004171847103F07EFA0021084603F002FBB4
:101BC000102168460094417103F074FA07216846B9
:101BD00001744474847404A801F02AFF68464774B1
:101BE0000521017404A801F023FF05B0F0BD70B514
:101BF0000926F6060121304601F0DBFC012806D05B
:101C00000121304601F0D5FC00283ED079E00022C9
:101C10006421012001F01EFB00226421022001F05A
:101C200019FB00226421032001F014FB002264212F
:101C3000042001F00FFB00226421052001F00AFBC3
:101C40000021022001F0BDF80021032001F0B9F8C5
:101C50000021042001F0B5F80021084601F0B1F898
:101C600000252C46052000F0F6FD0121304601F04C
:101C7000A0FC012801D16D1CEDB2641CE4B2052C5E
:101C8000F0D3052D3DD1002070BD0022642101203C
:101C900001F0E0FA00226421022001F0DBFA0022C8
:101CA0006421032001F0D6FA00226421042001F00F
:101CB000D1FA00226421052001F0CCFA0021022093
:101CC00001F07FF80021032001F07BF800210420BF
:101CD00001F077F80021084601F073F800252C4642
:101CE000052000F0B8FD0121304601F062FC00281B
:101CF00001D16D1CEDB2641CE4B2052CF0D3052DAE
:101D000001D0032070BD022070BD70B5012003F02A
:101D10001BFA002813D00925ED060121284601F001
:101D200048FCFD4C012806D00121284601F041FC69
:101D3000002802D003E0002000E0022020700120F3
:101D400003F0FFF970BD10B5FF240134204603F005
:101D5000FBF9002809D0F0490878032805D1EF489D
:101D60000078002801D10220C870204603F0E9F96C
:101D700010BD10B5EA4801240470FEF7E4FCFEF73C
:101D80004DFBE84900200870E749E84A0870E2493D
:101D900088704C70CC70107003220A70E44908708F
:101DA000E4490870E4490870E4490870E44908709F
:101DB000E4490860E4490860E4490C70E4490C70A7
:101DC000E4490C70E4490C70E4490C70E449088063
:101DD000E4490880E4490880E4490C70E44908704B
:101DE000E4490860E4490860E4490860E44908609F
:101DF000E4490860E4490860E4490860E44908608F
:101E0000E4490860E4490860E4490860E4490C706A
:101E1000E4490860E4490880E4490870E44908702E
:101E2000BE490870E3490870E3490870E349087047
:101E3000E3490870E3490870E3490870E349087012
:101E4000E3490870E3490870E3490870E349087002
:101E5000E3490870E3490870E3490870E3490870F2
:101E6000E3490870E3490860E3490880E3490880D2
:101E7000E3490880E3490880E3490880E349088092
:101E8000E3490870E3490870E3490870E3490870C2
:101E900010BDF8B50021084600F093FF0021012095
:101EA00000F08FFF0021022000F08BFF00210320B3
:101EB00000F087FF0021042000F083FF0126D84DA9
:101EC000B6023146284601F086FB7100284601F033
:101ED00082FB00247D27FF00384600F0BCFC641C18
:101EE000E4B2042CF8D33146284601F076FB0121F8
:101EF000C902284601F071FBF8BD10B5C9490020A0
:101F0000086000F07FFC01F0B9FAFEF771F9FEF706
:101F10000DFA10BDF0B52320A3B00121400401F05B
:101F200023FD7C200090032568464571012606713B
:101F300000248471C6716946B94801F0ECFA7C212D
:101F4000B74801F048FB022718A81C970575C4750F
:101F500009201CA9C00601F0DEFA18A81E96047715
:101F6000C4771EA9AE4801F0D6FA0021AE4802F0AF
:101F7000B8FC0021AD4803F056F80021AB4802F050
:101F8000A6FFA9480021503002F0ABFCA648002172
:101F90003C3002F0A6FC0021A54801F014FE0C2004
:101FA0000E9008A845770477C77709200EA9C006C8
:101FB00001F0B1FA680202906846457306738473B3
:101FC000C673092002A9C00601F0A5FA092069021A
:101FD000C00601F000FB30030490684645750675A5
:101FE0008475C675092004A9C00601F094FA092079
:101FF0003103C00601F0EFFAF0030690684645771A
:1020000006778477C777092006A9C00601F083FA0E
:102010000920F103C00601F0E0FA232080010890B6
:1020200008A8457106718471C77101460920C00670
:1020300001F071FA232109208901C00601F0CDFACF
:102040007C48109010A845710471C771014674480E
:1020500001F061FA7749724801F0BFFA30200A9026
:1020600008A845730473C47309200AA9C00601F0C7
:1020700052FA20A820964571047108A8C773092058
:1020800020A9C00601F047FAA802129010A84573D3
:102090000473C77312A9624801F03DFA30020C9034
:1020A00008A8457506758475C67509200CA9C00673
:1020B00001F031FA09203102C00601F08CFA052046
:1020C0004003149010A845750475C47514A95448AC
:1020D00001F021FA2720C001169010A84577047757
:1020E000C77716A94E4801F016FA0720400318904A
:1020F00018A845710471C77101464F4801F00BFAE9
:1021000018A81A9545730473C7731AA94B4801F0B0
:1021100002FA23B0F0BD0000F400002033000020DC
:102120003D000020320000201E000020350000206D
:1021300014000020150000201600002017000020C9
:10214000180000208C000020900000201F000020BC
:102150002000002021000020220000202400002078
:10216000780000207A0000207C000020260000205B
:1021700027000020A8000020AC000020B4000020B0
:10218000B8000020BC000020C0000020C4000020D7
:10219000C8000020CC000020D0000020D400002087
:1021A00023000020B0000020EC000020EE00002002
:1021B00034000020F2000020F30000203600002050
:1021C0003C0000203A0000203B00002038000020A6
:1021D00039000020370000202500002048000020A2
:1021E000490000204A0000207E0000204B00002013
:1021F0004C000020E8000020800000208200002029
:102200008400002086000020880000208A00002032
:102210004D0000204E0000204F0000205000002004
:10222000000400480801002008000240002401408A
:10223000004400400240000000080048001400482C
:1022400010B5FFF796FDFFF787FC00F031FDFFF7B3
:1022500061FE0121080701F099FB0121084602F007
:10226000B1FB10BD70B5414C0125E078022826D1A4
:10227000C1010920C00601F09CF90021002804D00A
:102280002171A07800281ED019E02079322802D0D0
:10229000401C207113E02171A078002808D0002094
:1022A000334AA070002805D061700420E07003E07C
:1022B0000120F5E76570E1701170FEF7AFF8E07886
:1022C000032802D005E00320E070FFF7B9FFFFF715
:1022D00014FEE078042802D000281DD040E02548F4
:1022E000007800283CD00121002000F06AFD22483F
:1022F0000078012804D0022805D0032806D009E080
:102300000121022004E00121032001E00121042039
:1023100000F057FDE57023E000226421012000F069
:1023200099FF00226421022000F094FF0022642122
:10233000032000F08FFF00226421012000F08AFFBB
:1023400000226421022000F085FF00226421032086
:1023500000F080FFFFF79DFDFFF772FFFFF7CDFD57
:102360001421022001F072F870BD0000F40000207A
:1023700032000020160000202800002000B5D9B04F
:10238000FF2269460A7008224A7000228A700322DE
:10239000CA700871020A4A71020C8A71000EC87173
:1023A0006846FEF739F969464A78F948921C00F008
:1023B00087FA59B000BDF8B5FF270546D937394629
:1023C000F44802F080FFF44E0020F24C3080394691
:1023D000204602F078FF28792070687960702178B3
:1023E00008183080F8BDF8B516460F46002405469B
:1023F00002F036FB352002F03CFD284602F061FB7E
:10240000FF2E12D913E0A000395CC01942781202E5
:1024100089188278C0781204000610180918284616
:1024200002F081FB641CA4B22D1DB442EBD302F078
:1024300020FB2046F8BDF0B5FF269B36D54DD64C87
:1024400091B0112936D0122949D013295DD0212904
:1024500075D022296FD023296ED031296DD0322931
:102460006CD0332924D1071DA8190F903C21684650
:1024700002F02BFF00206A46397811542388401C53
:10248000C9187F1C21803C28F6DB3C2269460F9846
:1024900002F0BCFE2088A919020A20310A77487789
:1024A0007622BC49BD48FFF79EFFBD490120087058
:1024B00011B0F0BD061D30216846AD1C02F005FFCD
:1024C00000216846327842542388491CD218761C71
:1024D00022803029F6DB01463022284612E0AD4E3C
:1024E000051D32363021684602F0EFFE00216846B5
:1024F0002A7842542388491CD2186D1C2280302926
:10250000F6DB7DE002F082FED2E7A24E051D6236C8
:102510003C21684602F0D9FE002168462A784254E0
:102520002388491CD2186D1C22803C29F6DB3EE032
:10253000014651E003E015E027E03AE04EE0954E19
:10254000051D9E363021684602F0BFFE0021684618
:102550002A7842542388491CD2186D1C22803029C5
:10256000F6DB4DE08B4E051DCE363021684602F07D
:10257000ACFE002168462A7842542388491CD218B0
:102580006D1C22803029F6DB3AE0824E051DFE36B6
:102590003C21684602F099FE002168462A784254A0
:1025A0002388491CD2186D1C22803C29F6DB3C2272
:1025B000BEE7051D7B4E3021684602F086FE0021F5
:1025C0006A46287850542388491CC0186D1C208006
:1025D0003029F6DB30226946304693E7714E051DFF
:1025E00030363021684602F070FE002168462A78B5
:1025F00042542388491CD2186D1C22803029F6DBF6
:10260000302295E77CB5FF216846017005214170B5
:10261000002484700821624DC17029780171FDF792
:10262000FBFF6846427869465948921C00F048F919
:102630002C707CBD0068704730B50023002907D09E
:1026400004E09D0010C85B1C4C519BB29342F8D330
:1026500030BD30B5FFB07624D0B0A500294658A8CB
:1026600002F033FE224658A94C48FFF7E5FF2A4600
:1026700058A9484802F0CAFD4648FEF73EFBFF2035
:1026800069460870A2204870002088700920C87030
:10269000404802780A7142784A7102216A46801CD9
:1026A00003785418401C491C23719E29F8DB1046FE
:1026B000FDF7B2FF6846427869463548921C00F043
:1026C000FFF87FB050B030BD30B5D9B0FF216846BB
:1026D0000170A0214170002181700A21C17031492F
:1026E0009E209C39FF236A463B3314180D78A03C8A
:1026F000401C491CA5719842F7DB1046FDF78CFF82
:102700006846427869462248921C00F0D9F859B0D0
:1027100030BD30B5D9B0FF2168460170A0214170AD
:10272000002181700B21C170FF201E493B30FF2327
:102730006A46D73314180D78FF3C413C401C491CB5
:10274000A5729842F6DB1046FDF766FF68464278B0
:1027500069460F48921C00F0B3F8D8E7007870473C
:1027600010B5C17813292DD01EDC072930D008DC24
:1027700004292AD005292ED0062901D1FFF7A4FF6C
:1027800010BD0C292AD011291CD01229F8D119E02A
:102790007C0400201B080020F000002000780008C6
:1027A000F90000205509002031290BD006DC212931
:1027B00008D0222906D02329E2D103E0322901D012
:1027C0003329DDD1FFF737FE10BDFFF7F4FD10BD53
:1027D000FFF718FF10BDFFF73CFF10BDFFF799FF93
:1027E00010BD0000064908800028FDD1704710B5D3
:1027F00000F01AF810BD10B500B200F02CF810BDB2
:10280000FA00002010B50420C04301F03DF91E4835
:102810001C49006802F05BFD1C4940B27D22087033
:10282000D2005043488010BD184900228A561849EA
:102830005043486100228A610869012318430861F6
:102840000869C30701D0C003FAD5086940084000F1
:1028500008618A6170470D4902228A5E0C49504323
:10286000486100228A6108690123184308610869E8
:10287000C30701D0C003FAD50869400840000861C9
:102880008A61704700127A0000000020FC000020DE
:1028900000E000E0816000218180C28041800180F1
:1028A0007047002181804180018070478188C08805
:1028B000814201D301207047002070478088704713
:1028C000F0B5C4888388A41AA34201DD0020F0BDBE
:1028D00000231D460DE00488C688B44200D305805D
:1028E00007888668CC5CF4550488641C5B1C0480F3
:1028F0009BB29342EFD38188891881800120F0BD7B
:1029000070B58388934200D81A4600231D460DE017
:102910004488C688B44200D3458046888468A45D54
:10292000CC544488641C5B1C44809BB29342EFD31C
:102930008188891A8180104670BD0022C264826439
:102940004821426501657047826C8154816C491C45
:102950008164482901D1002181647047C16C425CC7
:10296000491CC164482901D10021C1641046704747
:10297000C26C816C881A914200DA4830704770B599
:10298000044600F0A8F8216D814201DB0D1A01E038
:102990000D1A4835002320650EE0C118482903DBD5
:1029A00001191846103002E0011918465830095C28
:1029B0002046FFF7C9FF5B1C606DAB42EDDB4019A1
:1029C0006065482801DB4838606570BDF3B50121BA
:1029D0004C0493B0204600F0C7FF0121084600F0E8
:1029E000C3FF0121204600F0D1FF0926F60601228F
:1029F0000321304600F0FBFD01220221304600F0A9
:102A0000F6FD0C25022069460095087103204871E7
:102A100000248C710120C871304600F07CFDE1205B
:102A20004002304F12940D900E940F9410940DA903
:102A30001195384601F055F82B4801F0F7FE29486A
:102A400080252830029010200994460203940594B2
:102A500006940795049008940A9402A90B960C9486
:102A6000214801F015FF2048143001F0DFFE1D4819
:102A700005A924300290139803901498049431C14E
:102A800020200A9018480894099402A90B960C94E7
:102A9000143001F0FDFE0122C021384601F0D0F9CA
:102AA00011480121143001F01CFF01210E4801F0F2
:102AB00018FF0121384601F086F815B0F0BD0A4A2A
:102AC00013685B085B001360D060516010680121DF
:102AD000084310607047044810B5143001F00DFF32
:102AE00010BD000000440040440002401CB501211C
:102AF000480400F039FF032040020090012069469D
:102B0000087188710022CA7148710920C00600F05E
:102B100002FD1CBD1CB50120800200900120694609
:102B2000087188710020C871032048710920C0060F
:102B300000F0F1FC1CBD1CB50120800200900020BB
:102B40006946087101228A71C87103204871092001
:102B5000C00600F0E0FC1CBD70B5FFF7DBFF0125EF
:102B6000AD020920C00685616C1084610520FFF765
:102B70003EFE7A4E35810520FFF739FE348170BD67
:102B800070B501247548A402048160100925ED0682
:102B9000A8610520FFF72BFEAC610520FFF727FE9B
:102BA00070BD70B5FFF7B6FF01206C4C800220812C
:102BB00045100920C00685610520FFF718FE258114
:102BC0000520FFF714FE70BD10B5FFF7A3FF01212C
:102BD00089020920C00681614C1084610520FFF73D
:102BE00006FE5E4804810520FFF701FE10BD70B5AA
:102BF0000120002580020924E406A0610520FFF7DA
:102C0000F6FD01267602A6610520FFF7F0FDFFF72D
:102C100092FF1420FFF7EBFD208AFFF77BFF0520D2
:102C2000FFF7E5FD4D4806811920FFF7E0FD284636
:102C300070BDF8B509270024FF0601260546760277
:102C40002806474801D5B86101E044490881680673
:102C5000050E0520FFF7CBFDBE610520FFF7C7FD80
:102C60003E4806810520FFF7C2FD641CE4B2082C33
:102C7000E6D3F8BDF8B50024FFF75DFF0126002577
:102C800076020927FF06BE610520FFF7B0FD60064A
:102C9000398A000E4905CC0F0443304806810520CF
:102CA000FFF7A5FD6D1CEDB2082DECD32046F8BD55
:102CB00010B5FFF71BFFFFF74FFF0020FFF7B9FF2D
:102CC000FFF795FF0620FFF7B4FF10BD10B5FFF723
:102CD0000DFFFFF741FF9020FFF7ABFFFFF787FFE6
:102CE0000120FFF7A6FFFFF782FFBE20FFF7A1FF3D
:102CF000FFF77DFF8320FFF79CFFFFF778FFFFF7CB
:102D00003FFF10BD10B50446FFF726FF2046FFF732
:102D100090FFFFF76CFF0020FFF78BFFFFF767FFC7
:102D2000FFF72EFFFFF718FF641CE0B2FFF781FFEB
:102D3000FFF75DFFFFF79EFF0A4C2070FFF731FFA2
:102D4000FFF798FF6070FFF72CFFFFF719FF20785F
:102D500061780002401880B210BD000020000048D9
:102D600000040000000100201FB50121480400F00C
:102D700004FE152168460173002444730121817308
:102D800003A800F055FEE2487D21C900006802F06A
:102D90009EFA01906846048004814480DD4C6946B7
:102DA000204601F001F90121204601F07AFC0122C0
:102DB0001146204601F064FC0121204601F065F92E
:102DC0001FBD024610B5D448130002F062FB050493
:102DD0000A141A200F00012901D0082104E008215B
:102DE00006E0012903D0042100F0F5FB10BD042109
:102DF00000F0F3FB10BD012901D04021F4E7402190
:102E0000F6E7012901D01021EEE71021F0E70129B2
:102E100001D02021E8E72021EAE71CB57C200090C2
:102E200001206946087100208871C8710320BA4CDE
:102E30004871204600F06FFB0821204600F0CBFBD4
:102E40000421204600F0C7FB4021204600F0C3FBD0
:102E50001021204600F0BFFB2021204600F0BBFBE4
:102E60001CBD7CB50124240301206946009408712F
:102E700000208871C871032009254871ED06284695
:102E800000F049FB2146284600F0A7FB7CBD7CB53D
:102E90000324A4020120694600940871002088716F
:102EA000C87103209C4D4871284600F034FB214630
:102EB000284600F092FB7CBD1CB50120C0030090A9
:102EC0000021684601710121C1716946924800F0F4
:102ED00022FB1CBD1CB5302000900021684601710A
:102EE0000121C1710321417169468B4800F013FB38
:102EF0001CBD7CB50124E4030120694600940871DF
:102F000000228A71C871032009254871ED06284600
:102F100000F001FB2146284600F05DFB7CBD1CB59E
:102F2000FF20013000900020694608710920C0068A
:102F300000F0F1FA1CBD1CB50120400300900020F8
:102F400069460871744800F0E6FA1CBD1CB5012002
:102F500000900020694608710920C00600F0DBFAE5
:102F60001CBDF0B585B007461421684602F0ADF9E6
:102F700000253220FFF76FFC00246E469020FFF7FB
:102F8000C1FE61007052401985B20520FFF74CFC6C
:102F9000641CE4B20A2CF1D30A21284602F097F906
:102FA000388005B0F0BDF0B5012193B0480400F0C1
:102FB000DBFC0121880400F0D7FC022603216846CF
:102FC000069601770024C477092006A9C00600F000
:102FD000A2FA012706A95048069700F09CFA0121A1
:102FE000480200F0CAFC0121084600F0BDFC4B4D30
:102FF000284601F043FF4A4801F018FC474809A958
:1030000040300890474851C1802046000D90C000D4
:103010000F90202010900C94000211900E9608A999
:1030200012943F4801F034FC01213D4801F059FC65
:103030000221284602F001F80121284601F0F3FFA1
:10304000684601F03CFF6846009407710420059033
:10305000029469460494284601F01EFF07220221CB
:10306000284601F099FF07223146284601F094FFD7
:10307000284601F0B4FF0121284601F028FF2A4C20
:103080002846214601F0E9FF0028F9D0284601F042
:10309000C2FF13B0F0BD10B523200121400400F0A1
:1030A00063FCFFF753FFFFF73AFFFFF744FFFFF71B
:1030B00011FFFFF71EFFFFF7D4FEFFF7AEFEFFF78D
:1030C000E6FEFFF7F9FEFFF76EFFFFF7FFFD10BD0D
:1030D00010B509200121C00600F06BFA10BD0120D7
:1030E0007047704701207047704701207047704754
:1030F0001CB50121880400F037FC0120002269463C
:1031000000900A71C871044800F005FA1CBD000067
:103110000000002000440140000400480024014059
:10312000080002400201002001000001F0B58DB04E
:10313000A1480690A1496846818200248483A04F5B
:10314000C48205A9384600F02FFF05A99D4800F06C
:103150002BFF05A99C4800F027FF05A99B4800F01C
:1031600023FF05A99A4800F01FFFBD156846858416
:10317000C484048544850126868508A9914800F009
:103180008EFF08A9914800F08AFF08A9904800F036
:1031900086FF602168460180468002948481C48154
:1031A000058244826946384600F09FFF0821384670
:1031B00001F0E2F86946844800F097FF0821824850
:1031C00001F0DAF869467F4800F08FFF08217D485A
:1031D00001F0D2F869467D4801F029F808217B48C2
:1031E00001F0DDF869467A4800F07FFF0821784851
:1031F00001F0C2F80121384600F02EFF012172488B
:1032000000F02AFF01216F4800F026FF01216F48DE
:1032100000F022FF01216E4800F01EFF0121384618
:1032200000F033FF0121684800F02FFF01216548BD
:1032300000F02BFF0121654800F027FF01216448C1
:1032400000F023FF0DB0F0BD10B500F059F8FFF706
:103250006DFF10BD70B516460546574A481E88B02A
:10326000904239D8642E37D8501C02F030F8401EF6
:10327000069052496846818200248483C48206985D
:103280006421401C704302F022F801466022684627
:1032900002800122428002918481012D0BD0022DF7
:1032A0000CD0032D1AD0042D1BD0052D14D1C481B0
:1032B00005A9474C05E005A9414C02E0C481414CF9
:1032C00005A9204600F070FE6946204600F00DFF7B
:1032D0000821204601F050F808B070BD05A93A4C0D
:1032E000EFE7C481394C05A9204600F05DFE694630
:1032F000204600F09CFF0821204601F050F8EBE743
:10330000FEB523200121400400F02EFB0121022004
:1033100000F03CFB0121880400F02FFB0121080292
:1033200000F034FB0121CC02204600F026FB0121F5
:10333000080400F022FB022569460D710020887107
:10334000C871032048710926F6060122062130467D
:1033500000F04DF9402000906946304600F0DBF85F
:1033600005220721304600F042F98020009069468E
:10337000304600F0D0F8174F00220121384600F007
:1033800036F969463846009500F0C5F802220B214F
:10339000304600F02CF969463046009400F0BBF846
:1033A00001220E21384600F022F9E0000090694623
:1033B000384600F0B0F8FEBD7FBB0000E703000018
:1033C000000400400048014000200040002C014063
:1033D00000400140000400482B4D2C4C0026666044
:1033E00061680C20414348194279012A09D1C388F8
:1033F0008268D21823689A4203D28660C6806858D1
:1034000080476068401C60600F28E9D3E7E730B56B
:103410000C2314461C4D5C43631959711A712851D1
:103420000020D880986030BD0E2805D80C2250436B
:10343000154A01218018417170470E2805D80C22C9
:103440005043114A002180184171704710B50E2871
:103450000ED80E4A13680C2250430B4A84187D2064
:10346000C00048437D21C900A36001F030FFE08027
:1034700010BD06480168491C0160704710B5FFF790
:1034800073FC10BD70470000F40900200801002003
:103490000748804707480047FEE7FEE7FEE7FEE7EC
:1034A000FEE7FEE704480549054A064B7047000061
:1034B000F1010008C1000008080B002008110020DD
:1034C000080D0020080D0020092110B5C90688420A
:1034D00002D101214C0404E04D49884209D1012167
:1034E0000402204600F05BFA0021204600F057FA63
:1034F00010BD4849884202D101210402F1E7464942
:10350000884202D101210C05EBE744498842EFD102
:1035100001218C05E5E7F0B50022012423460D6862
:1035200093401D409D422AD10D79012D01D0022DDD
:1035300012D1876855000326AE40B74387604E79A5
:10354000AE4085682E43866085889D43858085884A
:103550008B7993401D438580066855000323AB405B
:103560009E4306600E790768AE403E430660C6681B
:103570009E43C660CB79AB40C5682B43C360521CE9
:10358000102ACBD3F0BD264901600021017102222F
:1035900042718171C1717047012208B512040A435A
:1035A0000092C261C1610099C161C169C0690090A6
:1035B00008BD0246128A00200A4200D0012070474E
:1035C000008A70470246928A00200A4200D00120F9
:1035D0007047808A70478161704701857047002A73
:1035E00001D08161704701857047818270474B0728
:1035F000DB0E9A40C90810B589000818016A0F242B
:103600009C40A1430162016A1143016210BD0000A8
:103610000004004800080048000C0048001400485E
:10362000FFFF0000F7480168012211430160416873
:10363000F54A114041600168F44A11400160016897
:10364000012292049143016041683F221204914398
:103650004160C16A09090901C162016BFF2254324C
:1036600091430163416B4908490041630021816036
:103670007047E44900228A70887070470346002032
:10368000E0495A090CD0012A0CD0022A0CD0496B0F
:10369000DA06D20E012393400B4200D0012070477E
:1036A0000968F5E7096AF3E7496AF1E718B5002008
:1036B0000524240200901120FFF7E0FF0099491C27
:1036C0000091A14201D00028F5D01120FFF7D6FFCC
:1036D000002800D0012018BDCA4A1168F823994378
:1036E000C000084310607047C6490028086802D02F
:1036F0000122104301E04008400008607047C14AC1
:10370000516BF8239943C000084350637047BD498B
:103710000028486B02D00122104301E0400840001D
:1037200048637047B74904220028486B01D0904392
:1037300000E0104348637047B2490A6A52085200D9
:103740000A620A6A04239A430A620A6A02430A6204
:103750007047AC490A6A18239A430A620A6A02430C
:103760000A627047A7490028486A02D00122104324
:1037700001E0400840004862704710B5A14A536814
:103780003D242404A3435360536808430343536018
:1037900010BD01229B4912060028086801D0104381
:1037A00000E0904308607047964AD16A0909090110
:1037B0000143D162704701229249D204002808686F
:1037C00001D0104300E09043086070478D49C871F4
:1037D00070478C4A516889088900014351607047DD
:1037E000884840680C2108407047864A5168F02399
:1037F0009943014351607047824A516807231B0275
:1038000099430143516070477E494A6801239B03F5
:103810009A434A604A6883B21A434A600A6B8B151E
:103820009A430A630A6B000C02430A6370477549A6
:103830000A6B40239A430A630A6B02430A63704788
:1038400070490A6B10239A430A630A6B02430A63A6
:1038500070476C490A6B920892000A630A6B024334
:103860000A637047F8B5674D044668680C21684ED6
:10387000084003D0042801D0082801D0266012E0B7
:10388000696868680122890212040F0F1040BF1C8A
:1038900000281CD0E86A0107090F3046491C01F0D6
:1038A00016FD7843206068685A4B0006000F1A5CCA
:1038B00020680146D14061606A685205520F9A5CE7
:1038C000D140A1602A6BD20505D4534A09E0534880
:1038D00047432760E7E76A68520401D44A0800E0DA
:1038E0008A08E2602A6B53064D4A03D44C4B1233CC
:1038F000236100E022612B6BDB0601D4666100E0EE
:1039000060612B6B9B070FD0296B8907890F0129F9
:103910000CD0286B8007800F022809D0286BC04389
:10392000800700D1A661F8BDA161F8BDA061F8BD16
:10393000A261F8BD33490A6A02430A6270473149FD
:103940000028374A086A01D0104300E0904308621B
:10395000704701222B4912040028086A01D0104345
:1039600000E0904308627047264A0029516901D05F
:10397000014300E0814351617047224A0029916967
:1039800001D0014300E08143916170471D4A002945
:10399000D16901D0014300E08143D1617047194AE8
:1039A0000029916A01D0014300E081439162704790
:1039B000144A0029D16801D0014300E08143D1605D
:1039C0007047104A0029116901D0014300E081438A
:1039D000116170470B4A0029517A01D0014300E080
:1039E0008143517270470748416A01221206114310
:1039F00041627047034A0146926800200A4200D0A3
:103A000001207047001002400CB8FFF8FFFFF6FEDF
:103A100000127A0010010020809FD50000093D00AF
:103A20000080000001498872EBE7000000100240AE
:103A300030B5837801210278002B15D09408174BFC
:103A4000A400E41823689207D50EFF22AA409343EE
:103A500042789207120EAA401A4322600078C006EC
:103A6000C00E81400E4804E0D006C00E81400C48D4
:103A70008030016030BD0B4A0029116901D001433B
:103A800000E0814311617047042207490428086956
:103A900002D09043086170471043FBE700E400E068
:103AA00000E100E000ED00E000E000E0F74910B5C3
:103AB000884209D101218C032046FFF779FF0021BC
:103AC0002046FFF775FF10BDF1498842FBD1012167
:103AD0004C042046FFF775FF00212046FFF771FFD9
:103AE00010BD70B50446006888B00D46400840001F
:103AF00020606168032000038143A8680843606078
:103B00002168E448EA680140686810432A690A436A
:103B100010432060A06803210902884369690143BA
:103B2000A1606846FFF79EFED848844201D10698FE
:103B300000E0029821680904296801D5490000E0E5
:103B400089001922504301F0C2FB0546642101F0AF
:103B5000BEFB06013009642148432168281A090484
:103B600007D5C0006421323001F0B1FB4007400F9F
:103B700006E000016421323001F0A9FB0007000FCC
:103B80003043A08108B070BD4B21C9010160002104
:103B9000416081600C22C16002614161704710B5D3
:103BA00042680F231B029A4318C923430C684968D3
:103BB0000C4323431343436010BD00210160416067
:103BC0008160C16070470029016802D00122114361
:103BD00001E04908490001607047002A026801D0ED
:103BE0000A4300E08A43026070470122D2030029A1
:103BF000016801D0114300E0914301607047012248
:103C0000D2020029816801D0114300E09143816014
:103C100070470122D2040029416801D0114300E01D
:103C2000914341607047012292040029416801D00C
:103C3000114300E0914341607047002A426801D07F
:103C40000A4300E08A43426070470122D203002900
:103C5000416801D0114300E0914341607047012267
:103C6000D2050029416801D0114300E09143416031
:103C700070474269120E1206426142690A4342616C
:103C80007047028A120A12020282028A0A430282E0
:103C9000704702220029016801D0114300E09143DE
:103CA00001607047826803231B059A438260826823
:103CB0000A4382607047012212050029416801D041
:103CC000114300E0914341607047426803235B0564
:103CD0009A43426042680A4342607047C1690122C8
:103CE000D2039143C1617047C905C90D0185704771
:103CF000808CC005C00D704742681202120A4260F3
:103D0000426809060A4342607047012252030029B3
:103D1000016801D0114300E09143016070470268DF
:103D20000123DB029A43026002680A430260704783
:103D3000426810239A43426042680A4342607047D7
:103D4000426820239A43426042680A4342607047B7
:103D5000012292030029416801D0114300E0914300
:103D60004160704708220029816801D0114300E0BA
:103D7000914381607047028AD2B20282028A0902AC
:103D80000A430282704720220029816801D0114332
:103D900000E091438160704710220029816801D0C2
:103DA000114300E0914381607047826807235B0400
:103DB0009A438260826849040A438260704742697C
:103DC0001202120A4261426909060A4342617047BF
:103DD000826804239A43826082680A438260704743
:103DE00002220029816801D0114300E091438160E3
:103DF0007047012292030029816801D0114300E03D
:103E000091438160704782680123DB039A4382609B
:103E100082680A438260704702681F235B059A43E9
:103E20000260026849050A430260704702681F2366
:103E30001B049A430260026809040A430260704747
:103E4000002A826801D00A4300E08A4382607047FA
:103E5000826801235B039A43826082680A4382601E
:103E6000704710B50B041C0E01238B40022C02D0AE
:103E7000032C02D002E0001D00E008300168002A97
:103E800001D0194300E09943016010BD00380140A2
:103E900000440040F3E9FFFF002A028B01D00A43EF
:103EA00000E08A4302837047826801231B039A4320
:103EB000826082680A43826070470246D2690020AD
:103EC0000A4200D0012070470162704730B50A04F1
:103ED000130E0122144600258C40012B0ED0022B1C
:103EE0000ED08368090C2340C0698A401040002B23
:103EF00002D0002800D00125284630BD0368F1E734
:103F00004368EFE70A0C012191400162704700000D
:103F1000F84910B5884202D10121C41430E00121D2
:103F20008907884206D101210846FFF74AFD002192
:103F3000012008E0F049884208D101210220FFF762
:103F400040FD00210220FFF73CFD10BDEB498842F7
:103F500006D101211020FFF734FD00211020F2E7E7
:103F6000E749884207D1841501212046FFF729FD42
:103F700000212046E7E7E349884209D101210C04EA
:103F80002046FFF715FD00212046FFF711FD10BD6B
:103F9000DD49884202D101214C04F1E7DB49884226
:103FA000F5D101218C04EBE710B50288D14B984282
:103FB00006D00124A407A04202D0CF4CA04203D1D6
:103FC0007024A2434C882243CC4CA04203D0D04C56
:103FD00022400C89224302804A68C2620A88028514
:103FE000984208D0C74A904205D0C74A904202D0B2
:103FF000C64A904201D1897A01860121818210BD91
:104000000021C9434160002101800181418081720A
:104010007047018582827047028870239A430A4361
:104020000280704741627047C1627047406A7047C2
:10403000008D704702220029018801D0114300E061
:1040400091430180704704220029018801D0114367
:1040500000E091430180704780220029018801D04F
:10406000114300E0914301807047028808239A437E
:10407000028002880A43028070470288A44B1A40DB
:10408000028002880A43028070470029018802D01A
:104090000122114301E0490849000180704710B531
:1040A0000A884B88CC881A438B8823431A430B8990
:1040B0001A434B8989891A430A434030828010BDD4
:1040C0000021018041808180C18001814181818105
:1040D000704740300029818803D00122D203114368
:1040E00001E04904490C8180704730B5028C5208C8
:1040F00052000284038C8288048B7025AC43A40890
:104100000D88A40025430224A3438C891C434B88BB
:104110002343784CA04208D07A4CA04205D07A4C78
:10412000A04202D0794CA0420DD10824A343CC89EF
:104130001C4304239C438B882343754C22400C8AE8
:1041400014434A8A22438280058389684163038439
:1041500030BD70B5028C10239A430284048C82888F
:10416000038B6C4D2B400D782D062D0C1D43202309
:104170009C438B891B051E0C4B8826431B051B0C7F
:104180005C4C3343A04215D18024A343CC89240541
:10419000240C1C4340239C438B881B051B0C23438E
:1041A0005D4C22400C8AA404240C14434A8A9204D5
:1041B000120C22438280058389688163038470BD69
:1041C00030B5028C554B1A400284038C8288848B54
:1041D0007025AC43A4080D88A4002543504C23400F
:1041E0000C7B2406240C1C438B781B061B0C2343DE
:1041F000404CA04215D14B4C23408C7B2406240C10
:104200001C43494B1C400B791B061B0C2343474C9A
:1042100022400C8A2405240C14434A8A1205120CED
:104220002243828085838968C163038430BD30B5B1
:10423000028C3F4B1A400284048C8388828B354D5C
:104240002A400D782D062D0C15433A4A14400A7B5E
:104250001207120C22438C782407240C1443254A9D
:10426000904205D1344A13400A8A9205120C134336
:104270008380858389680164048430BD00210180C6
:104280004180818081608181C1810182418270474A
:1042900030B5034618330124058C8C40A5430584B2
:1042A000002910D008290ED0091F0804400CC0189E
:1042B000016807231B039943016001681206120C71
:1042C0001143016030BD4808C0180168702399434C
:1042D00001600168F4E74163704781637047C1631F
:1042E000704701647047028B70239A430A4302832C
:1042F00070470000002C0140000400400010004006
:1043000000200040004001400044014000480140BE
:10431000FFFC0000FF8C0000FFF30000FFFE000028
:10432000FFFD0000FFF70000FFFB0000FFCF0000D3
:10433000FFEF0000FFDF0000FFBF0000028BF64B25
:1043400009021A4011430183D2E7828B70239A43FA
:104350000A438283CCE7828BEF4B09021A40114358
:104360008183C5E70029818802D00122114301E041
:10437000490849008180BBE7028B08239A430A431E
:104380000283B5E7028BE54B09021A401143018312
:10439000AEE7828B08239A430A438283A8E7828B85
:1043A000DE4B09021A4011438183A1E7028B0423EB
:1043B0009A430A4302839BE7028BD94B09021A40B6
:1043C0001143018394E7828B04239A430A43828337
:1043D0008EE7828BD24B09021A401143818387E713
:1043E000028B80239A430A43028381E7028B5204A3
:1043F000520C0902114301837AE7828B80239A438E
:104400000A43828374E7828B5204520C09021143DF
:1044100081836DE7028C02239A430A43028467E793
:10442000028C08239A430A43028461E7028C20230A
:104430009A430901114301845AE7028C80239A436D
:1044400009011143018453E7028CB64B09021A405B
:10445000114301844CE7028CB04B09021A4011430E
:10446000018445E7028CB04B09031A4011430184D3
:104470003EE7028908239A43028102890A430281A6
:1044800036E710B50123048C8B409C430484038CD5
:104490008A401343038410BD10B50423048C8B4061
:1044A0009C430484038C8A401343038410BD04227C
:1044B0000029818801D0114300E09143818017E7F2
:1044C000828B9A4B1A408283828B09020A43828331
:1044D0000EE7828B0C239A438283828B0A4382836A
:1044E00006E7028B914B1A400283028B09020A43B2
:1044F0000283FDE6F0B5048C1026B4430484058BDA
:10450000048C8B4F1B0309013D402B4312021A43BD
:10451000A0239C430C43344302830484F0BD028BEC
:104520000C239A430283028B0A430283E0E670B5B0
:10453000048C640864000484058B048C1B01134301
:10454000F3260A22B54394432B430C4301210C4329
:104550000383048470BDF8B5044608884E888A88B1
:104560000B890D4600281DD0042824D00828208C53
:104570002AD0704908402084A08B278C31036C4ED0
:10458000120230400243180310436B4AA0831740C5
:104590000F43012109030F432784E9882046FFF7D1
:1045A0008FFFF8BD31462046FFF7C1FFE98820465E
:1045B000FFF7B5FFF8BD31462046FFF79BFFE988BE
:1045C0002046FFF78EFFF8BD5C4908402084A18B90
:1045D000208C3702F3261B01B14313430B43584988
:1045E000A3830840FF213843013108432084E98830
:1045F0002046FFF76EFFF8BD0021018041800122B7
:104600008280C180018173E6F8B50C464988002696
:1046100001250746002900D10226A288012A00D1DF
:104620000225208823890028384610D0FFF762FF32
:10463000E1883846FFF755FF23892A463146384638
:10464000FFF775FFE1883846FFF769FFF8BDFFF710
:104650006EFFE1883846FFF762FF23892A4631461C
:104660003846FFF747FFE1883846FFF73AFFF8BDC5
:10467000406B3DE6806B3BE6C06B39E6006C37E68D
:10468000002A828901D00A4300E08A4382812FE612
:1046900081822DE60246128A00200A4200D00120C3
:1046A00026E6C943018223E60246138A0020928946
:1046B0000B400A40002B02D0002A00D0012017E650
:1046C000C943018214E611434030018110E6002AFB
:1046D000828901D00A4300E08A43828108E60822E9
:1046E0000029818801D0114300E091438180FFE5DA
:1046F0000189C908C9000181FAE5028970239A433A
:104700000A430281F4E510B50446FFF7F6FF20895D
:1047100007210843208110BDFF8F0000FFF7000034
:10472000FFFB0000FFFD0000FFDF0000FFF30000C3
:10473000FF0C0000FFEF0000FF5F0000FFFE000025
:10474000FFF5000070B516460D46044660290CD0F2
:1047500001223146FFF7EBFE29462046FFF7CDFF49
:10476000208907210843208170BD01223146FFF7CF
:10477000C1FEF1E710B504891B021343E4B20B43F9
:104780002343038110BD10B50446FFF7F3FF2089D2
:10479000C108C900072001437020814301432181E2
:1047A00010BD10B50446FFF7E5FF208901218903FC
:1047B0000843208110BD828870239A4382808288BA
:1047C0000A43828094E50289D208D20002810289DC
:1047D0000A4302818CE5028980239A43028102897F
:1047E0000A43028184E570B50689048B058CF608BE
:1047F000F6000E430C4906810C40FF2102310C43A8
:10480000AA218D431901114329430483018470BDFA
:1048100080220029818801D0114300E091438180EA
:1048200066E54030018263E5FCFC00000168454A12
:10483000114001600021016041608160C160424916
:10484000414A0839904202D148680F2205E03E4AA9
:104850001432904204D14868F022104348607047F7
:10486000394A2832904203D148680F221202F4E7F5
:10487000354A3C32904203D148680F221203ECE7DC
:10488000314A50329042EAD148680F221204E4E7DC
:1048900030B503682D4A0C6A13408A684D6922437B
:1048A0000C692C4322438C692243CC6922434C6A15
:1048B00022438C6A22431A430260CA6842600A6833
:1048C00082604968C16030BD002101604160816043
:1048D000C160016141618161C161016241628162C6
:1048E00070470029016802D00122114301E0154AF6
:1048F00011400160704741607047406880B2704766
:10490000002A026801D00A4300E08A43026070472F
:1049100001460D4A0020083A12680A4200D00120E0
:10492000704709490839486070470146064A002027
:10493000083A12680A4200D001207047024908393B
:1049400048607047FEFF0000080002400F80FFFF34
:1049500010B501210C072046FFF733F8002120464F
:10496000FFF72FF810BD30498A150028086801D0DC
:10497000104300E09043086070472B4A1168E02321
:1049800099430143116070472749102200280868A5
:1049900001D0104300E0904308607047224A00298C
:1049A000516801D0014300E08143516070471F49C5
:1049B0000A6904239A430A61012801D020BF704785
:1049C00030BF7047184B1A689208920002431A6071
:1049D00016480369042213430361012904D020BF50
:1049E000016991430161704730BFF9E70E480268E1
:1049F00004210A430260026802231A4302600B4842
:104A000002690A43026130BF7047074A0146526893
:104A100000200A4200D00120704703490A68800044
:104A200002430A60704700000070004000ED00E0A3
:104A3000FE4A116849084900014311607047FB496B
:104A400010220028086801D0104300E0904308605D
:104A50007047F64900200968890600D50120704793
:104A6000F2480169090603D5F1494160F149416005
:104A70007047EE4801698022114301617047EB499C
:104A80000420CA68D20701D001207047CA68D20644
:104A900001D502207047C9684907FBD5032070473C
:104AA00000B50346FFF7EBFF02E0FFF7E8FF5B1EF0
:104AB000012803D0002B00D1052000BD002BF4D12C
:104AC000FAE7F0B50B2706463F043846FFF7E8FF44
:104AD00004280FD1D54C2069022528432061666146
:104AE00020694021084320613846FFF7D9FF21693A
:104AF000A9432161F0BD70B50B252D042846FFF7B1
:104B0000CFFF04280ED1C94C206904263043206110
:104B100020694021084320612846FFF7C1FF216931
:104B2000B143216170BDF8B5064600200B273F0454
:104B300000900D463846FFF7B3FF042815D1BB4C53
:104B4000206901210843206135803846FFF7A8FF1E
:104B5000042806D1B61C280C009630803846FFF792
:104B60009FFF2169490849002161F8BDF0B50B2775
:104B700006463F040D463846FFF792FF04280CD145
:104B8000AA4C206901210843206135803846FFF78F
:104B900087FF2169490849002161F0BDA3480169E7
:104BA000890503D4A2498160A249816070479F486A
:104BB000016942159143016170479C4801690122D6
:104BC000520311430161704798490020C9694907A0
:104BD000890F00D001207047F0B5AA25FFF7F4FF38
:104BE000002800D000250B273F043846FFF758FF68
:104BF000042813D18D4C2069202630432061206980
:104C00004021084320613846FFF74AFF102104285D
:104C100005D0052802D022698A432261F0BD2069AF
:104C2000B043206120690E463043206182480580F0
:104C30003846FFF735FF0528F0D02169B1432161DF
:104C4000F0BDF0B5C043C6B20004050E0B20000451
:104C5000FFF726FF04281BD1744C21691022114351
:104C60002161754FFF2E06D03E810B200004FFF717
:104C700017FF042806D1FF2D06D07D810B200004EC
:104C8000FFF70EFF052803D0226910218A43226115
:104C9000F0BDF0B50B26074636043046FFF700FF9F
:104CA00004281ED1614C20692025284320612069F9
:104CB0004021084320613046FFF7F2FE04280BD163
:104CC0002069A843206120691025284320615A48A3
:104CD00007803046FFF7E4FE052802D02169A9438A
:104CE0002161F0BDF0B505460B2094460F46000447
:104CF000FFF7D6FE042814D14C4C2069102630430F
:104D000020613D4360460543F82005434A484580FD
:104D10000B200004FFF7C4FE052802D02169B1432F
:104D20002161F0BDF0B50B2705463F043846FFF77B
:104D3000B7FE042810D13D4C206910263043206175
:104D4000EF2005433C4845803846FFF7A9FE05287B
:104D500002D02169B1432161F0BDF0B50B270546B2
:104D60003F043846FFF79CFE042810D12F4C2069E1
:104D7000102630432061DF2005432F484580384608
:104D8000FFF78EFE052802D02169B1432161F0BDF5
:104D9000F0B50B2705463F043846FFF781FE04288F
:104DA00010D1224C2069102630432061BF200543DA
:104DB000214845803846FFF773FE052802D0216957
:104DC000B1432161F0BDF0B50B2705463F043846DD
:104DD000FFF766FE042810D1144C206910263043DA
:104DE000206188200543144845803846FFF758FE67
:104DF000052802D02169B1432161F0BDF0B5074615
:104E00000B200E460004FFF74BFE042817D1074C79
:104E100020691025284320613E800B200004FFF705
:104E20003FFE05280BD02169A94307E0002002407E
:104E300023016745AB89EFCD00F8FF1F2161F0BD6D
:104E40000D48C0690004000E70470B48006A7047A7
:104E5000094A0029116901D0014300E08143116131
:104E60007047054A0146D26800200A4200D001205E
:104E700070470149C860704700200240854910B55D
:104E8000884208D1441501212046FEF791FD0021FA
:104E90002046FEF78DFD10BD30B5C3687E4A8C6894
:104EA00013400A680D792243CC686D032C432243DA
:104EB0000C69496922430A431A43C26030BD00218C
:104EC000016001718160C160016141617047002929
:104ED000816801D0012200E0022211438160704705
:104EE000002A026901D00A4300E08A430261704748
:104EF0000122D2030029C16801D0114300E091438F
:104F0000C1607047012292030029C16801D011439A
:104F100000E09143C16070470122D2050029C168B9
:104F200001D0114300E09143C1607047090411436F
:104F300001627047C2681F239B069A430A43C260FE
:104F40007047012292050029C16801D0114300E099
:104F50009143C160704701225049D20500288868FA
:104F600001D0104300E090438860704701224B4914
:104F700092050028886801D0104300E090438860C3
:104F800070470122454912060028886801D0104365
:104F900000E0904388607047836A0B4383624261FC
:104FA0007047012252030029C16801D0114300E07B
:104FB0009143C1607047012212040029C16801D0E9
:104FC000114300E09143C1607047012212030029A0
:104FD000C16801D0114300E09143C160704782680D
:104FE00000210123DB071A4382600F231B03826821
:104FF000491CD20FD207994201D0002AF7D181680B
:10500000002901DB006C7047002070478168102286
:1050100011438160704781680422114381607047A9
:10502000006C80B270470029C16802D00122114390
:1050300001E049084900C1607047C26802239A43F1
:10504000C260C2680A43C2607047002A426801D049
:105050000A4300E08A434260704702460020CB01C9
:1050600004D5926801231B069A4300E012680A42A5
:1050700000D001207047016070470246536800204D
:1050800012680B400A4202D0002B00D0012070476A
:10509000016070470024014003D2FFFF0027014058
:1050A000324831490160002141608160C16030496E
:1050B0004161704710B583792C490268002B26D0D6
:1050C0000B6893430B604A6803689A434A6002790D
:1050D000521813680468234313608A6803689A436C
:1050E0008A60CA6803689A43CA604279102A05D068
:1050F00051180A68006802430A6010BD8A68036894
:105100001A438A60CA6800680243CA6010BD007909
:10511000401801689143016010BD002101600171D8
:105120000C2242718171704710490A6902430A6179
:1051300070470E4A0146526900200A4200D0012001
:1051400070470A4948617047084A014613680020C1
:1051500052690B400A4202D0002B00D00120704758
:1051600002494861704700000000940F00040140AC
:10517000FFFF6B00244801688907890F0160002147
:105180008160C16001614161816982151143816162
:1051900070471D4A116889088900014311607047F2
:1051A000194A0029116801D0014300E081431160D0
:1051B0007047154A0029116801D0014300E081437E
:1051C000116070478A07130F10B50F229A408C08A0
:1051D0000D49A40061188C6894438C608A689840DB
:1051E00002438A6010BD08498A6902438A61704798
:1051F000054900208969C90500D501207047024989
:105200008A6902438A61704700000140F8B5042AA8
:105210002CD3830712D00B78491C0370401C521EFC
:1052200083070BD00B78491C0370401C521E830768
:1052300004D00B78491C0370401C521E8B079B0F37
:1052400005D0C91ADF002023DE1B08C90AE0FAF7DF
:1052500089FFF8BD1D4608C9FD401C46B4402C43DB
:1052600010C0121F042AF5D2F308C91A521EF0D436
:105270000B78491C0370401C521EEAD40B78491C61
:105280000370401C012AE4D409780170F8BD01E0E4
:1052900004C0091F0429FBD28B0701D50280801CA2
:1052A000C90700D00270704700290BD0C30702D095
:1052B0000270401C491E022904D3830702D50280D4
:1052C000801C891EE3E70022EEE70022DFE70022D0
:1052D00003098B422CD3030A8B4211D300239C4633
:1052E0004EE003460B433CD4002243088B4231D3AB
:1052F00003098B421CD3030A8B4201D394463FE03F
:10530000C3098B4201D3CB01C01A524183098B429E
:1053100001D38B01C01A524143098B4201D34B0187
:10532000C01A524103098B4201D30B01C01A5241EA
:10533000C3088B4201D3CB00C01A524183088B4271
:1053400001D38B00C01A524143088B4201D34B005A
:10535000C01A5241411A00D20146524110467047CC
:105360005DE0CA0F00D04942031000D340425340D1
:1053700000229C4603098B422DD3030A8B4212D391
:10538000FC22890112BA030A8B420CD389019211C3
:105390008B4208D3890192118B4204D389013AD000
:1053A000921100E08909C3098B4201D3CB01C01AD5
:1053B000524183098B4201D38B01C01A52414309E8
:1053C0008B4201D34B01C01A524103098B4201D3D6
:1053D0000B01C01A5241C3088B4201D3CB00C01A43
:1053E000524183088B4201D38B00C01A5241D9D25B
:1053F00043088B4201D34B00C01A5241411A00D2DC
:105400000146634652415B10104601D34042002BD7
:1054100000D54942704763465B1000D3404201B556
:105420000020C046C04602BD7047704770477546B1
:1054300000F024F8AE46050069465346C008C00097
:10544000854618B020B5FEF72DF860BC0027490846
:10545000B6460026C0C5C0C5C0C5C0C5C0C5C0C50C
:10546000C0C5C0C5403D49008D46704710B50446D3
:10547000C046C0462046FAF76EFE10BD0048704791
:10548000A80A002001491820ABBEFEE72600020052
:10549000704730B47446641E2578641CAB4200D259
:1054A0001D46635D5B00E31830BC1847C80211015C
:1054B0006432060101041201643206010104130181
:1054C0006432060101041401643C06010104150163
:1054D000643C060101041601643C0601010421013B
:1054E0006432060101042201643206010104230131
:1054F0006432060101042401643C06010104250113
:10550000643C060101042601643C060101043128C3
:105510000164280A0A010002323C01642D0A0A01D2
:10552000000233500164320A0A010002346401644B
:10553000370A0A010002358C01643C0A0A010002A4
:1055400036A00164410A0A010002110164460A0101
:105550000102120164460A010102130164460A01B4
:105560000102140164500A010102150164500A018C
:105570000102160164500A010102210164460A0178
:105580000102220164460A010102230164460A0164
:105590000102240164500A010102250164500A013C
:1055A0000102260164500A010102313201642D0A10
:1055B0000501010232410164320A0501010233553D
:1055C0000164370A05010102346901643C0A0501DE
:1055D000010235910164410A0501010236A5016409
:1055E000410A05010102110164500A01010312017F
:1055F00064500A010103130164500A0101031401FC
:10560000645A0A0101031501645A0A0101031601D3
:10561000645A0A010103210164500A0101032201B5
:1056200064500A010103230164500A0101032401AB
:10563000645A0A0101032501645A0A010103260183
:10564000645A0A01010331320164500A0401010362
:1056500032440164500A0401010333580164500AC2
:1056600004010103346E01645A0A040101033596F2
:1056700001645A0A0401010336AA01645A0A0401AA
:1056800001033645A4560008000000202001000058
:1056900004010008C457000820010020E80F0000A2
:1056A00020010008006CDC02000000000000000087
:1056B00001020304060708090000000000010101BF
:1056C00001010101010101010100010001000000CF
:1056D00000000000000000000000000000000000CA
:1056E00000010000000000000100000000000000B8
:1056F00000000000000000000000000000000000AA
:105700000000000000000000000005000500F4019A
:10571000F40105000500F401F401000000000000A0
:105720000000000000000000000000000000000079
:105730000000000000000000000000000000000069
:105740000000000000000000000000000000000059
:105750000000000000000000000000000000000049
:105760000000000000000000000000000000000039
:105770000000000000000000000000000000000029
:105780000000000000000000000000000000000019
:105790000000000000000000030100010000000004
:1057A00000000000000000000000000000000000F9
:1057B00000000000000000000102030401020304D5
:0457C00006070809C7
:04000005080034912A
:00000001FF
