:020000040800F2
:10000000C0100020CD2E0008C5010008C70100085F
:1000100000000000000000000000000000000000E0
:10002000000000000000000000000000C9010008FE
:100030000000000000000000CB010008CD01000816
:10004000DF2E0008DF2E0008DF2E0008DF2E00085C
:10005000DF2E00080F190008DF2E00084B190008DA
:10006000DF2E0008DF2E0008DF2E0008DF2E00083C
:10007000DF2E0008DF2E0008DF2E0008DF2E00082C
:10008000DF2E0008DF2E000800000000DF2E000831
:10009000DF2E0008CF010008DF2E0008DF2E000849
:1000A000DF2E0008DF2E0008DF2E0008DF2E0008FC
:1000B000DF2E000800000000DF2E00080000000016
:1000C00000F002F800F03EF80CA030C80838241800
:1000D0002D18A246671EAB4654465D46AC4201D180
:1000E00000F030F87E460F3E0FCCB6460126334274
:1000F00000D0FB1AA246AB4633431847B44F00006A
:10010000D44F0000103A02D378C878C1FAD8520709
:1001100001D330C830C101D504680C6070470000BD
:100120000023002400250026103A01D378C1FBD813
:10013000520700D330C100D50B6070471FB51FBDFB
:1001400010B510BD04F091FE1146FFF7F7FF00F067
:1001500025F804F0A9FE03B4FFF7F2FF03BC04F096
:10016000AFFE000070B505460C46164602E00FCC07
:100170000FC5103E102EFAD2082E02D303CC03C5B1
:10018000083E042E07D301CC01C5361F03E02178B9
:100190002970641C6D1C761EF9D270BD10B502F07A
:1001A00077F802F089FE01F066FD01F0E4FB002221
:1001B0000121034802F049FE02F02CFE002010BD90
:1001C0002D0300087047FEE770477047704710B571
:1001D000064C0121204603F085FF002805D002F0DF
:1001E00066FE0121204603F089FF10BD0044014056
:1001F00010B5474801680122114301604168454A32
:10020000114041600168444A1140016001680122C7
:1002100092049143016041683F221204914341607E
:10022000C16A09090901C162016BFF22543291437D
:100230000163416B4908490041630021816000F07E
:100240002EF810BD70B5324D69680C20014033485E
:10025000334C03D0042901D0082901D0206014E0D8
:100260006A686968012392021B04160F1940B61CC4
:10027000002907D0E96A0907090F491C04F045FD68
:100280007043EBE727484643266068682449000628
:10029000000F091D085C2168C140216070BD38B5A0
:1002A00000201B4C00902068012109048843206035
:1002B0001D480168102211430160016801221143A9
:1002C0000160606860606068606060683F21090488
:1002D0008843606060680521C904084360600520A8
:1002E00002F092FF2068012109060843206020687F
:1002F0008001FCD560688008800060606068022131
:100300000843606060680007800F0228FAD138BD9A
:10031000001002400CB8FFF8FFFFF6FE00127A0052
:100320000000002000093D000020024010B502F04E
:10033000D1FB02F0A7FCFF2205322649264801F036
:10034000EFFF4021254802F087F82448503802F09A
:100350003AF808220121224802F077FD0922012102
:10036000204802F072FD012211461F4802F06DFD87
:10037000062201211D4802F068FD042201211C48CB
:1003800002F063FD0B2201211A4802F05EFD0522F6
:100390000121194802F059FD02220121174802F0FB
:1003A00054FD07220121164802F04FFD03220121CE
:1003B000144802F04AFD0A220121134802F045FDCB
:1003C000002002F058FD10BD10B532210E2002F0C1
:1003D0005BFD10BDDD060020640400202404002025
:1003E000730600081F1700089B1C00084B15000827
:1003F000350C0008490D00084F14000803140008CC
:100400000B120008970D0008110F0008FE4901208B
:1004100008707047FC49002008707047FA490120B5
:1004200048718871C87108724872887200204875D6
:100430008875C87588870A46C88740321080508002
:100440009080D080108150819081D081087648764C
:100450008876C87608774877704770B5002264219F
:10046000012002F015FC00226421022002F010FCA1
:1004700000226421032002F00BFC002264210420EE
:1004800002F006FC7D26760100223146052002F0AE
:10049000FFFB0021084602F0DAF90024F5100121E3
:1004A000022002F0D4F90121032002F0D0F9012149
:1004B000042002F0CCF932223146052002F0E8FB9C
:1004C000284601F00EFF0021022002F0C0F90021B1
:1004D000032002F0BCF90021042002F0B8F9002248
:1004E0003146052002F0D4FB284601F0FAFE641CD8
:1004F000E4B2032CD3D370BD70B50546002264214D
:10050000012002F0C5FB00226421022002F0C0FBA2
:1005100000226421032002F0BBFB0022642104209E
:1005200002F0B6FB7D2100224901052002F0B0FB5C
:100530000021084602F08BF9B348017D012904D05F
:10054000022905D0032906D009E00021022004E099
:100550000021032001E00021042002F078F90024AA
:10056000FF26F5360FE00121084602F070F930460B
:1005700001F087FE0021012002F069F9304601F008
:1005800080FE641CE4B2AC42EDD370BD10B5002215
:100590004378012104E0445CA218491C92B289B25C
:1005A0009942F8D3110AC154C018427010BDF8B571
:1005B000964D974801F022FF934C002786B22034D5
:1005C00053E0934801F010FF617A002942D0A17AEC
:1005D00000292FD0E17A6854E07A401CE072207B39
:1005E000401E0006000E20733DD1002269780120D4
:1005F00003E02B5C9A1892B2401C8842F9DB685CDD
:10060000030268184078181890420BD1FF227F49E6
:100610005F32881804F018FB7E4801F0EDFD0220DF
:1006200001F05FFE6772FF21A7725F31774804F027
:100630006AFB18E0FF22411E5D32914208D2734AE4
:10064000E17A505420730120A072491CE1720AE043
:10065000677208E0FF2806D16C49087001216172B9
:10066000A772E1722773761EB6B2002EA9D10120BF
:10067000F8BD10B5FF24CCB02D342146684604F0F7
:1006800042FB6548007800280AD161482246694645
:10069000903001F07BFE010002D0684601F055FF6A
:1006A0001C21082002F0F0FB4CB010BD564901207F
:1006B000887300208031C861704730B5524A0B0002
:1006C000803204F004FC0F13090E20252A2F133466
:1006D00013393E43484D13004B49491DD160A731A2
:1006E00003E04949891DD160AA311164D3684B499F
:1006F0001C780968012C38D00D1801248D4239D29C
:1007000000283CD03EE04049C91DD160AD31ECE746
:100710003D490831D160B031E7E73B490931D1604B
:10072000B331E2E738490A31D1609E31DDE736491D
:100730001031D1608031D8E733490B31D160893134
:10074000D3E731490C31D160983111642E490D3114
:10075000D160933111642C490E31D1608E31116416
:1007600029490F31D1608931BFE7106C0160002049
:10077000187007E0126C1268891A814202D31C704B
:10078000012030BD002030BDF3B585B004200390BA
:100790000520029006200190072000900E461A487E
:1007A00005990825022403278030012904D0022955
:1007B00009D003290ED114E0134915314164C91C35
:1007C0008164C91C05E0104916314164C91C81646B
:1007D000C91CC1640C488030406C007800281FD0D0
:1007E00053E005210391062102910721019108217F
:1007F00000910549092517314164C91C03240427C8
:100800008164C91CE5E700001400002018010020E5
:10081000D403002076020020ED000020000100201B
:10082000FE483178C06C491E0078884210DD68436C
:100830008119601C095C0022059802F029FAF7482A
:100840000421406C0170F5490020C96C08701CE05F
:10085000059903291FD0F14980390978002968D00A
:1008600000226421012002F013FA002264210220F8
:1008700002F00EFA00226421032002F009FAE7498F
:10088000002080398877FFF7C9FDE448406C007884
:1008900001285BD07CE0902001F07AFFDF494623FD
:1008A000C96C097869438919CA785A43824204D9C4
:1008B000781C0A5C601C095C41E0AF218901884218
:1008C00017D200226421012002F0E2F90022642103
:1008D000022002F0DDF900226421032002F0D8F9A1
:1008E000CE4B0020803B9877FFF798FD01201870D1
:1008F000CBE7CA490120803908700022642102F048
:10090000C7F900226421022002F0C2F9002264210A
:10091000032002F0BDF9C149002080398877FFF734
:100920007DFD0320FFF7E8FD01F0A5F901F023F8B4
:10093000ABE768438019791C425C611C415C0598F7
:1009400002F0A6F9B5490120496C0870B348C06CA3
:100950000078684381190398401C085C7D21C90018
:1009600048430599FFF7A9FE002811D0AB48816CD8
:100970000A78521C0A70426C02211170C06C00226D
:10098000007868438119601C095C059802F080F9C1
:10099000A248406C8446007802285AD19F480299A8
:1009A000836CC06C491C00781A7868438019415CDC
:1009B0008A4205D10320614608700020187048E083
:1009C00005990329019919D0491C405C7D21C90072
:1009D00048430599FFF771FE00283AD08F487F1CE5
:1009E000C06C641C007868438019C25D015D059885
:1009F00002F04EF989490120496C58E0491C405CDD
:100A00007D21C90048430599FFF757FE00280ED005
:100A1000824900208039087001218902804802F053
:100A2000FAFA0121C9027E4802F0F5FAD6E77C4FB6
:100A300001218902384602F0ECFA0121C902384648
:100A400002F0E7FA754F786C0078032831D007B0D0
:100A5000F0BD724F786C00780328F8D10598032810
:100A600027D0F86C0078684381190098401C085C16
:100A70007D21C90048430599FFF71FFE0028E6D0F5
:100A80003946082080398877B96C00200870F86CE6
:100A9000641C0078002268438019015D059802F00B
:100AA000F7F8F96C0878401C0870796C0020087021
:100AB000CDE75A48C06C0078684381190098401C03
:100AC000085C7D21C90048430599FFF7F6FD002821
:100AD00022D0524F0020803F3870012189025048B7
:100AE00002F099FA0121C9024D4802F094FA082057
:100AF000B8778037B96C00200870F86C641C0078F7
:100B0000002268438019015D059802F0C1F8F86C75
:100B10000178491C0170C8E7414C01218902204637
:100B200002F077FA0121C902204602F072FA8EE73C
:100B300010B500223B4BFF21C9319C5C8454521CF0
:100B40008A42FADB01467222374801F0BCF910BD37
:100B500002780021521EFF2A2CD20022491C89B2A1
:100B600043189B78491C89B2012B23D80B46603B64
:100B7000362B05D9963B362B02D9963B362B01D81E
:100B8000491C89B243189B78491C89B2002B11D0AB
:100B900043189B785B1F5F2B0CD2491C89B243180A
:100BA0009B78491C89B2002B04D043189B785B1EAC
:100BB000FA2B00D3BCE7C91C521C89B2362ACDDB04
:100BC0007047F7B5002001990124491C844603466B
:100BD0008E46012A04D0022A02D0032A02D002E063
:100BE000082000E0092005465D437146695C012943
:100BF00010D1002108E0019E7618AF5D009E3755A8
:100C0000641C491CE4B2C9B28142F4D36146491C58
:100C1000C9B28C465B1C062BDBDB07E0940000208E
:100C200000040048E84E000800780008009960467B
:100C30000870FEBDF8B5FC4DFC49A87809782C4633
:100C40000843203CE17F084330D10121C903F84823
:100C500002F0CDF900260127002804D06E73607CD5
:100C6000012818D022E00E21F248FFF726FD0028C7
:100C700008D0E7772F71FFF7D1FB00226421A67718
:100C800001204AE0687B052802D0401C68730DE013
:100C900067746E730AE0A87B052805D1E17F0029FF
:100CA00002D1E978002906D0401CA8731421042041
:100CB00002F0EAF8F8BDDC48E77360308661AE7395
:100CC0006674207D012804D002280AD0032810D0A1
:100CD00018E002202075002101F0B9FD0121032058
:100CE0000EE003202075002101F0B1FD0121042058
:100CF00006E027750021042001F0A9FD0121022052
:100D000001F0A5FDFFF78AFBA677002264210120F0
:100D100001F0BEFF00226421022001F0B9FF002291
:100D20006421022001F0B4FF00226421032001F0BD
:100D3000AFFF00226421042001F0AAFF00226421F9
:100D4000052001F0A5FFB1E7F8B5B74D203D2878A3
:100D500001281BD18602B64C3146204602F059F9D3
:100D600077003946204602F054F97D2008214001E1
:100D7000FFF7A3FC002809D03146204602F04BF9CA
:100D80003946204602F047F90020287032210B2016
:100D900002F07AF8F8BDF8B5A74E0427307801259F
:100DA000A14C002835D100226421012001F070FF00
:100DB00000226421022001F06BFF00226421032045
:100DC00001F066FF00226421042001F061FF7D2113
:100DD00000224901052001F05BFF322001F081FA79
:100DE00009200121C00602F002F9012801D0357066
:100DF00012E0377065709148A570017800291CD108
:100E000005708A4900200870874920398877FFF7E4
:100E100005FB3078012803D100F02DFF00F0ABFD79
:100E20003078022803D100F026FF00F0A4FD60789E
:100E3000012802D004282DD030E00926F606202112
:100E4000304602F0D4F8012805D11021304602F0D6
:100E5000CEF8002806D02021304602F0C8F800283D
:100E600003D008E0022060701BE01021304602F041
:100E7000BEF8012806D02021304602F0B8F801283B
:100E800003D006E00320607039E01021304602F004
:100E9000AEF8677000F0EFFE00F06DFD607802289C
:100EA0002AD10021012001F0D2FC0021022001F012
:100EB000CEFC0021032001F0CAFC0021042001F037
:100EC000C6FCE17B7D20C00000290BD00C21FFF780
:100ED000F4FB002810D00121002001F0B8FC002014
:100EE000E07309E00C21FFF7E8FB002804D00021A3
:100EF000084601F0ACFCE5736078032803D10121BA
:100F0000002001F0A4FC1421032001F0BDFFF8BD76
:100F1000F8B5454C022720790126002501282AD161
:100F20000021022001F093FC0021032001F08FFC3E
:100F30000021042001F08BFC00226421012001F03B
:100F4000A7FE00226421022001F0A2FE00226421FB
:100F5000032001F09DFE00226421042001F098FE90
:100F60007D2100224901052001F092FEA07D0A2882
:100F700005D0401CA0752079022802D009E0A57593
:100F80002771E6700320207166715A22642101F0F6
:100F90007FFEE07801282ED16079012808D1E07D1C
:100FA000282809D0401CE0750121022001F04FFCE7
:100FB0006079022804D00CE0E57567710021F4E740
:100FC000E07D282809D0401CE0750121032001F0B4
:100FD0003EFC6079032805D00DE00320E5756071C3
:100FE0000021F3E7E07D28280CD0401CE0750121AA
:100FF000042001F02CFC0C4E20790E4F20360328E3
:1010000004D037E0E57566710021F1E7207E1421F8
:101010004143B94214D100226421032001F038FE7B
:101020000420207129E0000034000020ED000020A1
:101030000004004888130000EC000020EE000020AF
:10104000401CC0B22076052803D1902001F0A0FBFF
:101050003082207EC8280DD1902001F099FB70824B
:10106000318A401A962805DA00226421032001F013
:101070000FFE28E02079042828D1607E1421414306
:10108000B9420CD101218902FE4801F0C2FF0121C1
:10109000C902FC4801F0BDFF0520207119E0401C89
:1010A000C0B26076012803D1902001F071FBB082BC
:1010B000607EC8280AD1902001F06AFBF082B18AD4
:1010C000401A3C2802DD062020712BE020790528FB
:1010D00025D1A07E14214143B9420CD101218902BE
:1010E000E84801F098FF0121C902E64801F093FFAA
:1010F0000720207101E0401CA076A07E012803D1CA
:10110000902001F045FB3083A07EC82807D19020B5
:1011100001F03EFB7083318B401A6428D3DB2079C9
:10112000062831D1E570217C0A2911D0607C142277
:1011300003465343FF222D32934229D1A07C14232E
:10114000434393420CD1491C21746574A57457E044
:10115000CD482574C57700F08EFD00F00CFC13E03F
:10116000401CA0740121022001F071FB0121032029
:1011700001F06DFB0121042001F069FB50227D216B
:101180004901052001F084FD2079072810D037E0BF
:10119000401C60740021022001F059FB0021032053
:1011A00001F055FB0021042001F051FB0022E6E78D
:1011B000E570E07C14214143B94213D1B2480021CB
:1011C000C577E574022001F042FB0021032001F005
:1011D0003EFB0021042001F03AFB00F04CFD00F042
:1011E000CAFB0DE0401CE0740121022001F02FFB3E
:1011F0000121032001F02BFB0121042001F027FB3A
:1012000014210A2001F040FEF8BDF8B59E4D9E4F16
:101210002035A8792E463C4660364034002838D127
:10122000F878397908437AD0608E042835D0401C8C
:10123000608600226421012001F02AFD0022642141
:10124000022001F025FD00226421032001F020FD91
:1012500000226421042001F01BFD7D2100224901B0
:10126000052001F015FD7D2100224901052001F036
:101270000FFD0021084601F0EAFA0021022001F0EA
:10128000E6FA0021032001F0E2FA0021042001F037
:10129000DEFAA879012819D042E0002060860121F9
:1012A000022001F0D4FA0121032001F0D0FA01213B
:1012B000042001F0CCFA0120A8717D2132224901DD
:1012C000052001F0E5FC0120E871E2E7287A012819
:1012D00002D002280AD104E06B4860307060001F21
:1012E00003E0694868307060001FF86770680A2181
:1012F0000088FFF7E2F9002812D00021022001F057
:10130000A6FA0021032001F0A2FA0021042001F036
:101310009EFA0220A871E08D401CE08503E020E0E9
:10132000A87902281DD1F86FE18D0088884203D189
:101330000020E085032013E070680A210088FFF791
:10134000BCF900280DD00121022001F080FA012112
:10135000032001F07CFA0121042001F078FA012039
:10136000A871E879012822D1287A012802D0022820
:101370000AD104E044486230B060001F03E04248F4
:101380006A30B060001F3060B0680B210088FFF742
:1013900094F900280BD07D2100224901052001F09D
:1013A00077FC0220E871208E401C208602E0E8795C
:1013B000022817D13068218E0088884203D100208E
:1013C000208603200DE0B0680B210088FFF775F937
:1013D000002807D07D2132224901052001F058FC68
:1013E0000120E871A879032806D1E879032803D100
:1013F00000F041FC00F0BFFA3221072001F044FD6B
:10140000F8BD10B5204A21482032018892784088E2
:10141000002A17D11E4A1F4B8A181B4901249A42E1
:1014200005D81C4A2332904201D38C700AE0002078
:1014300088700320FFF760F81748047000F01BFC69
:1014400000F099FA3221022001F01EFD10BDF8B51E
:101450000D4E00252036B0780B4C002802D0656771
:10146000A5676DE0A07C002829D0E07C002826D06C
:10147000307D192828D050226421012001F008FC79
:1014800050220BE00004004814000020FA00002065
:1014900034F7FFFF93030000ED00002064210220D9
:1014A00001F0F6FB50226421022001F0F1FB5022F2
:1014B0006421032001F0ECFB307D401C3075A04F0F
:1014C0003878002814D03BE03575A57400226421DB
:1014D000012001F0DDFB00226421022001F0D8FB95
:1014E00000226421032001F0D3FB01203070E6E7E5
:1014F00001214903934801F07AFD00280DD065676A
:10150000A06F1421904A4143914217D1A56765709D
:101510000120E0703072387012E0606F14217D227B
:1015200041431201914206D165670120A5676070B1
:101530003D70E07404E0401C606701E0401CA0675F
:101540001421052001F0A0FCF8BDF0B57F4EF3B0EA
:10155000307801287ED1B0780028FBD13446203C79
:10156000E07F0028F6D120780028F3D1A07F784FC3
:10157000002500280CD002286CD0012820D0032898
:1015800025D0072825D0042862D006286ED07EE01A
:1015900072208100009001A803F0B5FB01A96D48FD
:1015A000009A00F0B9FDFF22C93201A96848FEF790
:1015B000D9FD6748FFF7CCFA0320A077387804E01C
:1015C000707D00281BD00321A177401E7075072075
:1015D000A0773721604803F096FB5F48372137300A
:1015E00003F08FFB5C4837216E3003F08AFB207DCF
:1015F000012809D002280BD0032816D10FE00920BA
:10160000A0773878707570E09622B91C68460AE0B9
:101610004F49982298316846FEF7A4FD05E04E49EF
:1016200096229A39684603F00FFB012269464A4820
:10163000FFF7C7FA4848022237300CA9FFF7C1FA72
:10164000454803226E3018A9FFF7BBFA0420A077A3
:10165000902000E05DE001F09BF83C492031888556
:10166000FF215F3188420DD80620A07778787D2150
:10167000C90048430621FFF720F8002807D00820BA
:10168000A07707E0012020700420A07741E0A07F30
:10169000082816D1607D042805D1A07D042802D138
:1016A000E07D042813D02C4903206E31FFF76CF83D
:1016B00029490120FFF768F8274902203731FFF751
:1016C00063F8A07F092810D00A2814D021E0E5761D
:1016D000257765770123A377FEF7A0FE707D0028AC
:1016E000EFD1237102203072EBE70220A0776575FD
:1016F000A575E5750DE00320FEF7FEFEA57765757F
:10170000A5750F49E5750120087000F0B4FA00F0E6
:1017100032F90A21062001F0B7FB73B0F0BD10B515
:1017200007480078002805D109489C3800F06DFE74
:10173000FEF73DFF6421092001F0A6FB10BD00006B
:10174000ED0000200004004860EA000034000020A2
:10175000700400200078000838060020F0B523202F
:1017600085B00121400401F01DFE0121480401F073
:101770002BFE0121084601F01EFEFF260136002542
:10178000684602960573C57302274773092002A9AC
:10179000C00601F0DEFB0124092002A9C006029464
:1017A00001F0D7FB0821002003F02AFA68460096D2
:1017B00005710C214171847103F09AF900210846EA
:1017C00003F01EFA102168460094417103F090F96D
:1017D0000721684601744474847404A801F046FE2D
:1017E000684647740521017404A801F03FFE05B066
:1017F000F0BD70B50926F6060121304601F0F7FB71
:10180000012806D00121304601F0F1FB00283ED02E
:1018100079E000226421012001F03AFA00226421DB
:10182000022001F035FA00226421032001F030FA91
:1018300000226421042001F02BFA002264210520FB
:1018400001F026FA0021022001F001F80021032016
:1018500000F0FDFF0021042000F0F9FF0021084600
:1018600000F0F5FF00252C46052000F03AFD01218F
:10187000304601F0BCFB012801D16D1CEDB2641CA7
:10188000E4B2052CF0D3052D3DD1002070BD00221F
:101890006421012001F0FCF900226421022001F002
:1018A000F7F900226421032001F0F2F900226421FB
:1018B000042001F0EDF900226421052001F0E8F98F
:1018C0000021022000F0C3FF0021032000F0BFFF31
:1018D0000021042000F0BBFF0021084600F0B7FF04
:1018E00000252C46052000F0FCFC0121304601F0CB
:1018F0007EFB002801D16D1CEDB2641CE4B2052C06
:10190000F0D3052D01D0032070BD022070BD70B54D
:10191000012003F037F9002813D00925ED06012135
:10192000284601F064FBFB4C012806D00121284623
:1019300001F05DFB002802D003E0002000E002205F
:101940002070012003F01BF970BD10B5FF24013495
:10195000204603F017F9002809D0EE49087803283B
:1019600005D1ED480078002801D10220C87020463A
:1019700003F005F910BD10B5E8490020086000F03B
:1019800087FC01F099FAFEF733FCFEF7CFFC10BD9F
:10199000F0B52320A3B00121400401F003FD7C2019
:1019A0000090032568464571012606710024847164
:1019B000C6716946DA4801F0CCFA7C21D84801F0BA
:1019C00028FB022718A81C970575C47509201CA9B7
:1019D000C00601F0BEFA18A81E960577C4771EA9A6
:1019E000CF4801F0B6FA0021CE4802F098FC002161
:1019F000CD4803F036F80021CB4802F086FF0C20DA
:101A00000E9008A845770477C77709200EA9C0066D
:101A100001F09FFAC3480021503002F080FCC14819
:101A200000213C3002F07BFC0021C04801F0E9FDC0
:101A3000680202906846457306738473C673092072
:101A400002A9C00601F085FA09206902C00601F06A
:101A5000E0FA300304906846457506758475C675CE
:101A6000092004A9C00601F074FA09203103C00658
:101A700001F0CFFAF0030690684645770677847741
:101A8000C777092006A9C00601F063FA0920F1030F
:101A9000C00601F0C0FA23208001089008A8457113
:101AA00006718471C77101460920C00601F051FA20
:101AB000232109208901C00601F0ADFA9C4810904D
:101AC00010A845710471C7710146954801F041FAAB
:101AD0009749934801F09FFA30200A9008A845736F
:101AE0000473C47309200AA9C00601F032FA20A8C1
:101AF00020964571047108A8C773092020A9C00663
:101B000001F027FAA802129010A845730473C77356
:101B100012A9834801F01DFA30020C9008A84575FF
:101B200006758475C67509200CA9C00601F011FA66
:101B300009203102C00601F06CFA05204003149020
:101B400010A845750475C47514A9754801F001FA0B
:101B50002720C001169010A845770477C77716A9EB
:101B60006F4801F0F6F907204003189018A8457156
:101B70000471C77101466F4801F0EBF918A81A9576
:101B800045730473C7731AA96B4801F0E2F923B0D7
:101B9000F0BD10B5FEF742FC6849002008705D4AB0
:101BA000012190705170664BD1701870032313702F
:101BB000644A1070644A1070644A1070644A10706D
:101BC000644A1070644A1060644A1060644A11707C
:101BD000644A1170644A1170644A1170644A117049
:101BE000644A1080644A1080644A1080644A11700C
:101BF000644A1070644A1060644A1060644A10605D
:101C0000644A1060644A1060644A1060644A10605C
:101C1000644A1060644A1060644A1060644A10604C
:101C2000644A117064490860644908806449087016
:101C3000644908703849087063490870634908703E
:101C40006349087063490870634908706349087004
:101C500063490870634908706349087063490870F4
:101C600063490870634908706349087063490870E4
:101C70006349087010BD10B5FFF78BFFFFF76EFDCD
:101C800000F05CFDFFF784FE0121080701F09CFBDA
:101C90000121084602F0B4FB10BD70B51D4C0125B2
:101CA000E078022826D1C1010920C00601F09FF981
:101CB0000021002804D02171A07800281ED019E04E
:101CC0002079322802D0401C207113E02171A078C5
:101CD000002808D00020194AA070002805D06170A3
:101CE0000420E07003E00120F5E76570E1701170F9
:101CF000FEF794FBE078032802D005E00320E070B3
:101D0000FFF7B9FFFFF737FEE07804287CD0002802
:101D100079D09AE0EC000020330000200001002080
:101D20000004004808000240002401400044004034
:101D30000240000000080048001400483200002063
:101D4000350000201400002015000020160000209F
:101D50001700002018000020880000208C000020C0
:101D60001F00002020000020210000202200002071
:101D70002400002082000020840000208600002033
:101D80002600002027000020A4000020A80000203A
:101D9000B0000020B4000020B8000020BC000020EB
:101DA000C0000020C4000020C8000020CC0000209B
:101DB000D000002023000020AC000020E400002020
:101DC000E600002034000020EA000020EB000020A4
:101DD000360000203C0000203A0000203B0000209C
:101DE00038000020390000203700002025000020A6
:101DF0004A0000204B0000204C0000204D00002035
:101E00004E00002000E01CE01248007800281CD0A2
:101E10000121002000F01BFD0F480078012804D0AC
:101E2000022805D0032806D009E00121022004E0A1
:101E30000121032001E00121042000F008FDE570EC
:101E400003E0FFF718FFFFF796FD1421012001F0D2
:101E50001BF870BD160000202800002000B5D9B086
:101E6000FF2269460A7008224A7000228A70032203
:101E7000CA700871020A4A71020C8A71000EC87198
:101E80006846FEF783FB69464A78F348921C00F0E7
:101E90005DFA59B000BDF8B5FF270546C937394688
:101EA000EE4802F02EFFEE4E0020EC4C308039461A
:101EB000204602F026FF287920706879607021782A
:101EC00008183080F8BDF8B516460F4600240546C0
:101ED00002F0E4FA352002F0EAFC284602F00FFB9B
:101EE000FF2E12D913E0A000395CC019427812020B
:101EF00089188278C078120400061018091828463C
:101F000002F02FFB641CA4B22D1DB442EBD302F0EF
:101F1000CEFA2046F8BDF0B5FF268F36CF4DD04C17
:101F20008FB0112936D0122949D013295DD021292B
:101F300075D022296FD023296ED031296DD0322956
:101F40006CD0332924D1071DA8190E90382168467A
:101F500002F0D9FE00206A46397811542388401CCB
:101F6000C9187F1C21803628F6DB362269460E9878
:101F700002F06AFE2088A919020A20318A75C87504
:101F80007222B649B748FFF79EFFB7490120087093
:101F90000FB0F0BD061D30216846AD1C02F0B3FE47
:101FA00000216846327842542388491CD218761C96
:101FB00022803029F6DB01463022284612E0A74E67
:101FC000051D32363021684602F09DFE002168462C
:101FD0002A7842542388491CD2186D1C228030294B
:101FE000F6DB7DE002F030FED2E79C4E051D623646
:101FF0003821684602F087FE002168462A7842545C
:102000002388491CD2186D1C22803629F6DB3EE05D
:10201000014651E003E015E027E03AE04EE08F4E44
:10202000051D98363021684602F06DFE0021684695
:102030002A7842542388491CD2186D1C22803029EA
:10204000F6DB4DE0854E051DC8363021684602F0AE
:102050005AFE002168462A7842542388491CD21827
:102060006D1C22803029F6DB3AE07C4E051DF836E7
:102070003821684602F047FE002168462A7842541B
:102080002388491CD2186D1C22803629F6DB3622A3
:10209000BEE7051D754E3021684602F034FE002172
:1020A0006A46287850542388491CC0186D1C20802B
:1020B0003029F6DB30226946304693E76B4E051D2A
:1020C00030363021684602F01EFE002168462A782C
:1020D00042542388491CD2186D1C22803029F6DB1B
:1020E000302295E77CB5FF216846017005214170DB
:1020F0000024847008215C4DC17029780171FEF7BD
:1021000045FA6846427869465348921C00F01EF929
:102110002C707CBD0068704730B50023002907D0C3
:1021200004E09D0010C85B1C4C519BB29342F8D355
:1021300030BD30B5FFB07224CCB0A500294658A8F8
:1021400002F0E1FD224658A94648FFF7E5FF2A467E
:1021500058A9424802F078FD4048FEF7F9FCFF20FC
:1021600069460870FC204870002088700920C870FB
:102170003A4802780A7142784A7102216A46801C04
:1021800003785418401C491C2371F829F8DB1046C9
:10219000FEF7FCF96846427869462F48921C00F029
:1021A000D5F87FB04CB030BD30B5D9B0FF2168460E
:1021B0000170D0214170002181700A21C1702B492A
:1021C000F8203639FF236A46C53314180D78FF3CD2
:1021D000013C401C491C25739842F6DB1046FEF773
:1021E000D5F96846427869461B48921C00F0AEF863
:1021F00059B030BD0078704710B5C17813291FD091
:1022000010DC072922D008DC04291CD0052920D0A5
:10221000062901D1FFF7C8FF10BD112910D01229DE
:10222000FAD10DE031290BD006DC212908D0222972
:1022300006D02329F0D103E0322901D03329EBD194
:10224000FFF769FE10BDFFF726FE10BDFFF74AFF3E
:1022500010BDFFF76EFF10BD64040020E1070020F1
:10226000E800002000780008F10000200F0900209D
:10227000064908800028FDD1704710B500F01AF813
:1022800010BD10B500B200F02CF810BDF200002017
:1022900010B50420C04301F015F91E481C49006820
:1022A00002F033FD1C4940B27D220870D200504339
:1022B000488010BD184900228A5618495043486189
:1022C00000228A6108690123184308610869C3076D
:1022D00001D0C003FAD508694008400008618A614E
:1022E00070470D4902228A5E0C4950434861002222
:1022F0008A6108690123184308610869C30701D08E
:10230000C003FAD508694008400008618A61704737
:1023100000127A0000000020F400002000E000E03D
:10232000816000218180C28041800180704700214E
:1023300081804180018070478188C088814201D3BB
:10234000012070470020704780887047F0B5C4882E
:102350008388A41AA34201DD0020F0BD00231D469E
:102360000DE00488C688B44200D3058007888668DB
:10237000CC5CF4550488641C5B1C04809BB29342C3
:10238000EFD38188891881800120F0BD70B58388E2
:10239000934200D81A4600231D460DE04488C688A3
:1023A000B44200D3458046888468A45DCC544488F8
:1023B000641C5B1C44809BB29342EFD38188891AD2
:1023C0008180104670BD0022426402644021C264D4
:1023D00081647047026C8154016C491C016440297E
:1023E00001D1002101647047416C425C491C416489
:1023F000402901D10021416410467047426C016CB4
:10240000881A914200DA4030704770B5044600F0F7
:10241000A8F8A16C814201DB0D1A01E00D1A4035CC
:102420000023A0640EE0C118402903DB01191846FF
:10243000103002E0011918465030095C2046FFF7C1
:10244000C9FF5B1CE06CAB42EDDB4019E064402847
:1024500001DB4038E06470BDF3B501214C0493B05A
:10246000204600F09FFF0121084600F09BFF01215C
:10247000204600F0A9FF0926F60601220321304676
:1024800000F0D3FD01220221304600F0CEFD0C25E4
:1024900002206946009508710320487100248C7160
:1024A0000120C871304600F054FDE1204002304F59
:1024B00012940D900E940F9410940DA91195384616
:1024C00001F02DF82B4801F0CFFE29488025283057
:1024D00002901020099446020394059406940795EF
:1024E000049008940A9402A90B960C94214801F0D8
:1024F000EDFE2048143001F0B7FE1D4805A9243038
:102500000290139803901498049431C120200A90EB
:1025100018480894099402A90B960C94143001F001
:10252000D5FE0122C021384601F0A8F91148012149
:10253000143001F0F4FE01210E4801F0F0FE0121FB
:10254000384601F05EF815B0F0BD0A4A13685B0822
:102550005B001360D0605160106801210843106077
:102560007047044810B5143001F0E5FE10BD0000BE
:1025700000440040440002401CB50121480400F022
:1025800011FF032040020090012069460871887104
:102590000022CA7148710920C00600F0DAFC1CBD97
:1025A0001CB50120800200900120694608718871E5
:1025B0000020C871032048710920C00600F0C9FC42
:1025C0001CBD1CB5012080020090002069460871E6
:1025D00001228A71C871032048710920C00600F0E9
:1025E000B8FC1CBD70B5FFF7DBFF0125AD0209206B
:1025F000C00685616C1084610520FFF73EFE7A4EAF
:1026000035810520FFF739FE348170BD70B5012496
:102610007548A402048160100925ED06A861052013
:10262000FFF72BFEAC610520FFF727FE70BD70B5EC
:10263000FFF7B6FF01206C4C800220814510092075
:10264000C00685610520FFF718FE25810520FFF7EC
:1026500014FE70BD10B5FFF7A3FF01218902092008
:10266000C00681614C1084610520FFF706FE5E48BC
:1026700004810520FFF701FE10BD70B50120002583
:1026800080020924E406A0610520FFF7F6FD01267B
:102690007602A6610520FFF7F0FDFFF792FF1420F8
:1026A000FFF7EBFD208AFFF77BFF0520FFF7E5FD35
:1026B0004D4806811920FFF7E0FD284670BDF8B5AA
:1026C00009270024FF06012605467602280647480A
:1026D00001D5B86101E0444908816806050E05206E
:1026E000FFF7CBFDBE610520FFF7C7FD3E48068121
:1026F0000520FFF7C2FD641CE4B2082CE6D3F8BD48
:10270000F8B50024FFF75DFF0126002576020927B2
:10271000FF06BE610520FFF7B0FD6006398A000E96
:102720004905CC0F0443304806810520FFF7A5FD7D
:102730006D1CEDB2082DECD32046F8BD10B5FFF7A7
:102740001BFFFFF74FFF0020FFF7B9FFFFF795FFD3
:102750000620FFF7B4FF10BD10B5FFF70DFFFFF720
:1027600041FF9020FFF7ABFFFFF787FF0120FFF746
:10277000A6FFFFF782FFBE20FFF7A1FFFFF77DFF57
:102780008320FFF79CFFFFF778FFFFF73FFF10BDA7
:1027900010B50446FFF726FF2046FFF790FFFFF72E
:1027A0006CFF0020FFF78BFFFFF767FFFFF72EFF9F
:1027B000FFF718FF641CE0B2FFF781FFFFF75DFF32
:1027C000FFF79EFF0A4C2070FFF731FFFFF798FFDD
:1027D0006070FFF72CFFFFF719FF20786178000287
:1027E000401880B210BD0000200000480004000026
:1027F000F80000201FB50121480400F0DCFD152180
:1028000068460173002444730121817303A800F01A
:102810002DFECE487D21C900006802F076FA0190B5
:102820006846048004814480C94C6946204601F012
:10283000D9F80121204601F052FC01221146204620
:1028400001F03CFC0121204601F03DF91FBD02468C
:1028500010B5C048130002F03AFB05040A141A2010
:102860000F00012901D0082104E0082106E0012918
:1028700003D0042100F0CDFB10BD042100F0CBFB00
:1028800010BD012901D04021F4E74021F6E70129DC
:1028900001D01021EEE71021F0E7012901D020211D
:1028A000E8E72021EAE71CB57C200090012069467A
:1028B000087100208871C8710320A64C4871204619
:1028C00000F047FB0821204600F0A3FB042120462E
:1028D00000F09FFB4021204600F09BFB102120468A
:1028E00000F097FB2021204600F093FB1CBD7CB537
:1028F0000124240301206946009408710020887196
:10290000C871032009254871ED06284600F021FB17
:102910002146284600F07FFB7CBD1CB503208002C9
:10292000009001206946087100208871C871032059
:102930004871884800F00DFB1CBD1CB50120C00388
:1029400000900021684601710121C17169468148EA
:1029500000F0FFFA1CBD1CB5302000900021684635
:1029600001710121C171032141716946794800F06B
:10297000F0FA1CBD7CB50124E403012069460094F3
:10298000087100228A71C871032009254871ED067B
:10299000284600F0DEFA2146284600F03AFB7CBDCE
:1029A0001CB5FF2001300090002069460871092005
:1029B000C00600F0CEFA1CBD1CB5012040030090FB
:1029C000002069460871634800F0C3FA1CBD1CB5BD
:1029D000012000900020694608710920C00600F01F
:1029E000B8FA1CBDF0B5012193B0480400F0DAFC40
:1029F0000121880400F0D6FC0226032168460696D1
:102A000001770024C477092006A9C00600F0A1FAC6
:102A1000012706A94F48069700F09BFA01214802BA
:102A200000F0C9FC0121084600F0BCFC4A4D2846D4
:102A300001F042FF494801F017FC474809A940301E
:102A40000890474851C1802046000D90C0000F906B
:102A5000202010900C94000211900E9608A9129458
:102A60003E4801F033FC01213C4801F058FC0221B2
:102A7000284602F000F80121284601F0F2FF6846DE
:102A800001F03BFF68460094077104200590029412
:102A900069460494284601F01DFF072202212846BA
:102AA00001F098FF07223146284601F093FF28469F
:102AB00001F0B3FF0121284601F027FF294C2846E9
:102AC000214601F0E8FF0028F9D0284601F0C1FFB7
:102AD00013B0F0BD10B523200121400400F062FCCA
:102AE000FFF775FFFFF75CFFFFF766FFFFF733FFA8
:102AF000FFF740FFFFF7FBFEFFF7D5FEFFF70DFFE7
:102B0000FFF71BFFFFF76EFFFFF726FE10BD10B5A6
:102B100009200121C00600F06AFA10BD01207047AB
:102B200070470120704770470120704770471CB5FF
:102B30000121880400F036FC012000226946009043
:102B40000A71C871034800F004FA1CBD000000209F
:102B500000440140000400480024014008000240F5
:102B6000FA00002001000001F0B58DB0A1480690E8
:102B7000A1496846818200248483A04FC48205A9AC
:102B8000384600F02FFF05A99D4800F02BFF05A94E
:102B90009C4800F027FF05A99B4800F023FF05A9EA
:102BA0009A4800F01FFFBD1568468584C4840485DB
:102BB00044850126868508A9914800F08EFF08A962
:102BC000914800F08AFF08A9904800F086FF602134
:102BD00068460180468002948481C48105824482D3
:102BE0006946384600F09FFF0821384601F0E2F8B8
:102BF0006946844800F097FF0821824801F0DAF81E
:102C000069467F4800F08FFF08217D4801F0D2F827
:102C100069467D4801F029F808217B4801F0DDF87C
:102C200069467A4800F07FFF0821784801F0C2F831
:102C30000121384600F02EFF0121724800F02AFFE2
:102C400001216F4800F026FF01216F4800F022FFAC
:102C500001216E4800F01EFF0121384600F033FFCD
:102C60000121684800F02FFF0121654800F02BFF8B
:102C70000121654800F027FF0121644800F023FF8F
:102C80000DB0F0BD10B500F059F8FFF76DFF10BDA5
:102C900070B516460546574A481E88B0904239D846
:102CA000642E37D8501C02F030F8401E069052496E
:102CB0006846818200248483C48206986421401C73
:102CC000704302F022F80146602268460280012229
:102CD000428002918481012D0BD0022D0CD0032D56
:102CE0001AD0042D1BD0052D14D1C48105A9474C41
:102CF00005E005A9414C02E0C481414C05A92046EC
:102D000000F070FE6946204600F00DFF08212046C5
:102D100001F050F808B070BD05A93A4CEFE7C48146
:102D2000394C05A9204600F05DFE6946204600F0BA
:102D30009CFF0821204601F050F8EBE7FEB5232068
:102D40000121400400F02EFB0121022000F03CFB99
:102D50000121880400F02FFB0121080200F034FB60
:102D60000121CC02204600F026FB0121080400F0DE
:102D700022FB022569460D7100208871C87103206D
:102D800048710926F60601220621304600F04DF969
:102D9000402000906946304600F0DBF8052207210C
:102DA000304600F042F9802000906946304600F03D
:102DB000D0F8174F00220121384600F036F9694655
:102DC0003846009500F0C5F802220B21304600F08D
:102DD0002CF969463046009400F0BBF801220E2120
:102DE000384600F022F9E00000906946384600F0CD
:102DF000B0F8FEBD7FBB0000E70300000004004008
:102E00000048014000200040002C014000400140EB
:102E1000000400482B4D2C4C0026666061680C2095
:102E2000414348194279012A09D1C3888268D218DE
:102E300023689A4203D28660C680685880476068DB
:102E4000401C60600F28E9D3E7E730B50C23144637
:102E50001C4D5C43631959711A7128510020D880A8
:102E6000986030BD0E2805D80C225043154A012128
:102E70008018417170470E2805D80C225043114A22
:102E8000002180184171704710B50E280ED80E4AE7
:102E900013680C2250430B4A84187D20C00048431D
:102EA0007D21C900A36001F030FFE08010BD06481D
:102EB0000168491C0160704710B5FFF79BFC10BD0D
:102EC00070470000AC09002000010020074880473F
:102ED00007480047FEE7FEE7FEE7FEE7FEE7FEE7FE
:102EE00004480549054A064B70470000F1010008F7
:102EF000C1000008C00A0020C0100020C00C002043
:102F0000C00C0020092110B5C906884202D1012158
:102F10004C0404E04D49884209D1012104022046B5
:102F200000F05BFA0021204600F057FA10BD484936
:102F3000884202D101210402F1E74649884202D1C8
:102F400001210C05EBE744498842EFD101218C05B2
:102F5000E5E7F0B50022012423460D6893401D40AB
:102F60009D422AD10D79012D01D0022D12D1876801
:102F700055000326AE40B74387604E79AE40856862
:102F80002E43866085889D43858085888B79934014
:102F90001D438580066855000323AB409E430660B1
:102FA0000E790768AE403E430660C6689E43C66021
:102FB000CB79AB40C5682B43C360521C102ACBD3DE
:102FC000F0BD264901600021017102224271817128
:102FD000C1717047012208B512040A430092C26110
:102FE000C1610099C161C169C069009008BD024614
:102FF000128A00200A4200D001207047008A7047E0
:103000000246928A00200A4200D001207047808A3E
:1030100070478161704701857047002A01D0816146
:10302000704701857047818270474B07DB0E9A40DD
:10303000C90810B589000818016A0F249C40A143F3
:103040000162016A1143016210BD000000040048E2
:1030500000080048000C004800140048FFFF000072
:10306000F74801680122114301604168F54A1140A7
:1030700041600168F44A1140016001680122920434
:103080009143016041683F22120491434160C16A4B
:1030900009090901C162016BFF22543291430163A6
:1030A000416B490849004163002181607047E44950
:1030B00000228A708870704703460020E0495A0950
:1030C0000CD0012A0CD0022A0CD0496BDA06D20EA1
:1030D000012393400B4200D0012070470968F5E7B7
:1030E000096AF3E7496AF1E718B5002005242402CC
:1030F00000901120FFF7E0FF0099491C0091A142C8
:1031000001D00028F5D01120FFF7D6FF002800D00D
:10311000012018BDCA4A1168F8239943C00008432A
:1031200010607047C6490028086802D00122104389
:1031300001E04008400008607047C14A516BF82325
:103140009943C000084350637047BD490028486B4D
:1031500002D00122104301E040084000486370475C
:10316000B74904220028486B01D0904300E0104387
:1031700048637047B2490A6A520852000A620A6AF2
:1031800004239A430A620A6A02430A627047AC49FE
:103190000A6A18239A430A620A6A02430A6270475B
:1031A000A7490028486A02D00122104301E04008E4
:1031B00040004862704710B5A14A53683D2424047A
:1031C000A3435360536808430343536010BD012277
:1031D0009B4912060028086801D0104300E0904384
:1031E00008607047964AD16A090909010143D16212
:1031F000704701229249D2040028086801D0104388
:1032000000E09043086070478D49C87170478C4A50
:1032100051688908890001435160704788484068B7
:103220000C2108407047864A5168F02399430143B6
:1032300051607047824A516807231B02994301433A
:10324000516070477E494A6801239B039A434A6054
:103250004A6883B21A434A600A6B8B159A430A6321
:103260000A6B000C02430A63704775490A6B4023DE
:103270009A430A630A6B02430A63704770490A6BF8
:1032800010239A430A630A6B02430A6370476C492E
:103290000A6B920892000A630A6B02430A63704742
:1032A000F8B5674D044668680C21684E084003D0A5
:1032B000042801D0082801D0266012E069686868F7
:1032C0000122890212040F0F1040BF1C00281CD0DD
:1032D000E86A0107090F3046491C01F016FD7843E2
:1032E000206068685A4B0006000F1A5C206801468F
:1032F000D14061606A685205520F9A5CD140A1606A
:103300002A6BD20505D4534A09E053484743276046
:10331000E7E76A68520401D44A0800E08A08E260DC
:103320002A6B53064D4A03D44C4B1233236100E001
:1033300022612B6BDB0601D4666100E060612B6BC0
:103340009B070FD0296B8907890F01290CD0286BA7
:103350008007800F022809D0286BC043800700D166
:10336000A661F8BDA161F8BDA061F8BDA261F8BD7C
:1033700033490A6A02430A62704731490028374AD2
:10338000086A01D0104300E09043086270470122B0
:103390002B4912040028086A01D0104300E0904332
:1033A00008627047264A0029516901D0014300E0B4
:1033B000814351617047224A0029916901D001433C
:1033C00000E08143916170471D4A0029D16901D015
:1033D000014300E08143D1617047194A0029916A95
:1033E00001D0014300E0814391627047144A0029F3
:1033F000D16801D0014300E08143D1607047104A99
:103400000029116901D0014300E081431161704737
:103410000B4A0029517A01D0014300E081435172E7
:1034200070470748416A0122120611434162704702
:10343000034A0146926800200A4200D001207047EA
:10344000001002400CB8FFF8FFFFF6FE00127A00F1
:1034500008010020809FD50000093D000080000089
:1034600001498872EBE700000010024030B5837814
:1034700001210278002B15D09408174BA400E41802
:1034800023689207D50EFF22AA4093434278920701
:10349000120EAA401A4322600078C006C00E814076
:1034A0000E4804E0D006C00E81400C488030016018
:1034B00030BD0B4A0029116901D0014300E081436E
:1034C00011617047042207490428086902D090431B
:1034D000086170471043FBE700E400E000E100E012
:1034E00000ED00E000E000E0F74910B5884209D1A6
:1034F00001218C032046FFF779FF00212046FFF7CA
:1035000075FF10BDF1498842FBD101214C042046D2
:10351000FFF775FF00212046FFF771FF10BD70B562
:103520000446006888B00D4640084000206061688D
:10353000032000038143A868084360602168E448D1
:10354000EA680140686810432A690A431043206012
:10355000A06803210902884369690143A1606846A4
:10356000FFF79EFED848844201D1069800E00298F9
:1035700021680904296801D5490000E08900192261
:10358000504301F0C2FB0546642101F0BEFB060179
:103590003009642148432168281A090407D5C0006E
:1035A0006421323001F0B1FB4007400F06E000011A
:1035B0006421323001F0A9FB0007000F3043A081E5
:1035C00008B070BD4B21C9010160002141608160DC
:1035D0000C22C16002614161704710B542680F233F
:1035E0001B029A4318C923430C6849680C432343C0
:1035F0001343436010BD0021016041608160C160E0
:1036000070470029016802D00122114301E04908F6
:10361000490001607047002A026801D00A4300E0B7
:103620008A43026070470122D2030029016801D059
:10363000114300E09143016070470122D20200294A
:10364000816801D0114300E09143816070470122FD
:10365000D2040029416801D0114300E09143416048
:103660007047012292040029416801D0114300E013
:10367000914341607047002A426801D00A4300E04C
:103680008A43426070470122D2030029416801D079
:10369000114300E09143416070470122D2050029A7
:1036A000416801D0114300E0914341607047426995
:1036B000120E1206426142690A4342617047028A51
:1036C000120A12020282028A0A430282704702220E
:1036D0000029016801D0114300E091430160704767
:1036E000826803231B059A43826082680A438260D2
:1036F0007047012212050029416801D0114300E002
:10370000914341607047426803235B059A434260DE
:1037100042680A4342607047C1690122D203914363
:10372000C1617047C905C90D01857047808CC0050E
:10373000C00D704742681202120A426042680906D0
:103740000A4342607047012252030029016801D0F8
:10375000114300E091430160704702680123DB02DE
:103760009A43026002680A4302607047426810236D
:103770009A43426042680A4342607047426820238D
:103780009A43426042680A434260704701229203B2
:103790000029416801D0114300E091434160704726
:1037A00008220029816801D0114300E09143816023
:1037B0007047028AD2B20282028A09020A43028256
:1037C000704720220029816801D0114300E0914315
:1037D0008160704710220029816801D0114300E008
:1037E000914381607047826807235B049A4382603B
:1037F000826849040A438260704742691202120AD1
:103800004261426909060A434261704782680423A3
:103810009A43826082680A438260704702220029CC
:10382000816801D0114300E091438160704701221B
:1038300092030029816801D0114300E09143816027
:10384000704782680123DB039A43826082680A43DF
:103850008260704702681F235B059A43026002681A
:1038600049050A430260704702681F231B049A43FC
:103870000260026809040A4302607047002A8268F5
:1038800001D00A4300E08A438260704782680123C6
:103890005B039A43826082680A438260704710B576
:1038A0000B041C0E01238B40022C02D0032C02D0EF
:1038B00002E0001D00E008300168002A01D0194331
:1038C00000E09943016010BD003801400044004011
:1038D000F3E9FFFF002A028B01D00A4300E08A438C
:1038E00002837047826801231B039A4382608268C7
:1038F0000A43826070470246D26900200A4200D023
:10390000012070470162704730B50A04130E01228E
:10391000144600258C40012B0ED0022B0ED083685C
:10392000090C2340C0698A401040002B02D00028B7
:1039300000D00125284630BD0368F1E74368EFE772
:103940000A0C01219140016270470000F84910B54E
:10395000884202D10121C41430E001218907884244
:1039600006D101210846FFF74AFD0021012008E0A9
:10397000F049884208D101210220FFF740FD0021D3
:103980000220FFF73CFD10BDEB49884206D1012122
:103990001020FFF734FD00211020F2E7E7498842AC
:1039A00007D1841501212046FFF729FD002120467B
:1039B000E7E7E349884209D101210C042046FFF7DB
:1039C00015FD00212046FFF711FD10BDDD4988429D
:1039D00002D101214C04F1E7DB498842F5D10121F4
:1039E0008C04EBE710B50288D14B984206D0012435
:1039F000A407A04202D0CF4CA04203D17024A2431E
:103A00004C882243CC4CA04203D0D04C22400C899D
:103A1000224302804A68C2620A880285984208D01E
:103A2000C74A904205D0C74A904202D0C64A904247
:103A300001D1897A01860121818210BD0021C9430B
:103A400041600021018001814180817270470185C0
:103A500082827047028870239A430A43028070472B
:103A600041627047C1627047406A7047008D70477D
:103A700002220029018801D0114300E09143018016
:103A8000704704220029018801D0114300E09143CE
:103A90000180704780220029018801D0114300E095
:103AA000914301807047028808239A43028002886C
:103AB0000A43028070470288A44B1A4002800288A1
:103AC0000A43028070470029018802D00122114375
:103AD00001E0490849000180704710B50A884B8809
:103AE000CC881A438B8823431A430B891A434B898A
:103AF00089891A430A434030828010BD0021018029
:103B000041808180C1800181418181817047403045
:103B10000029818803D00122D203114301E0490426
:103B2000490C8180704730B5028C520852000284E3
:103B3000038C8288048B7025AC43A4080D88A400F4
:103B400025430224A3438C891C434B882343784C90
:103B5000A04208D07A4CA04205D07A4CA04202D0B4
:103B6000794CA0420DD10824A343CC891C430423E3
:103B70009C438B882343754C22400C8A14434A8A09
:103B800022438280058389684163038430BD70B518
:103B9000028C10239A430284048C8288038B6C4D20
:103BA0002B400D782D062D0C1D4320239C438B8923
:103BB0001B051E0C4B8826431B051B0C5C4C33431A
:103BC000A04215D18024A343CC892405240C1C4396
:103BD00040239C438B881B051B0C23435D4C2240D8
:103BE0000C8AA404240C14434A8A9204120C224323
:103BF0008280058389688163038470BD30B5028C3F
:103C0000554B1A400284038C8288848B7025AC4308
:103C1000A4080D88A4002543504C23400C7B2406A7
:103C2000240C1C438B781B061B0C2343404CA042E6
:103C300015D14B4C23408C7B2406240C1C43494B50
:103C40001C400B791B061B0C2343474C22400C8A5B
:103C50002405240C14434A8A1205120C2243828044
:103C600085838968C163038430BD30B5028C3F4BC6
:103C70001A400284048C8388828B354D2A400D784B
:103C80002D062D0C15433A4A14400A7B1207120CDC
:103C900022438C782407240C1443254A904205D1F2
:103CA000344A13400A8A9205120C13438380858399
:103CB00089680164048430BD0021018041808180D5
:103CC00081608181C18101824182704730B50346A4
:103CD00018330124058C8C40A5430584002910D09D
:103CE00008290ED0091F0804400CC01801680723DA
:103CF0001B039943016001681206120C1143016015
:103D000030BD4808C01801687023994301600168FC
:103D1000F4E74163704781637047C1637047016492
:103D20007047028B70239A430A4302837047000056
:103D3000002C014000040040001000400020004022
:103D4000004001400044014000480140FFFC0000E9
:103D5000FF8C0000FFF30000FFFE0000FFFD0000ED
:103D6000FFF70000FFFB0000FFCF0000FFEF0000A7
:103D7000FFDF0000FFBF0000028BF64B09021A4074
:103D800011430183D2E7828B70239A430A438283D3
:103D9000CCE7828BEF4B09021A4011438183C5E7C0
:103DA0000029818802D00122114301E0490849001D
:103DB0008180BBE7028B08239A430A430283B5E75D
:103DC000028BE54B09021A4011430183AEE7828B57
:103DD00008239A430A438283A8E7828BDE4B0902B9
:103DE0001A4011438183A1E7028B04239A430A43BB
:103DF00002839BE7028BD94B09021A4011430183CE
:103E000094E7828B04239A430A4382838EE7828B52
:103E1000D24B09021A401143818387E7028B80232A
:103E20009A430A43028381E7028B5204520C09022F
:103E3000114301837AE7828B80239A430A4382836A
:103E400074E7828B5204520C0902114381836DE79F
:103E5000028C02239A430A43028467E7028C0823F8
:103E60009A430A43028461E7028C20239A430901A2
:103E7000114301845AE7028C80239A4309011143BC
:103E8000018453E7028CB64B09021A4011430184A6
:103E90004CE7028CB04B09021A401143018445E7FC
:103EA000028CB04B09031A40114301843EE702899A
:103EB00008239A43028102890A43028136E710B53A
:103EC0000123048C8B409C430484038C8A4013435D
:103ED000038410BD10B50423048C8B409C430484E0
:103EE000038C8A401343038410BD04220029818877
:103EF00001D0114300E09143818017E7828B9A4BF8
:103F00001A408283828B09020A4382830EE7828BE6
:103F10000C239A438283828B0A43828306E7028BB7
:103F2000914B1A400283028B09020A430283FDE689
:103F3000F0B5048C1026B4430484058B048C8B4F9D
:103F40001B0309013D402B4312021A43A0239C434B
:103F50000C43344302830484F0BD028B0C239A4348
:103F60000283028B0A430283E0E670B5048C640886
:103F700064000484058B048C1B011343F3260A227E
:103F8000B54394432B430C4301210C430383048426
:103F900070BDF8B5044608884E888A880B890D469E
:103FA00000281DD0042824D00828208C2AD070494D
:103FB00008402084A08B278C31036C4E12023040C5
:103FC0000243180310436B4AA08317400F4301219B
:103FD00009030F432784E9882046FFF78FFFF8BDC8
:103FE00031462046FFF7C1FFE9882046FFF7B5FFBD
:103FF000F8BD31462046FFF79BFFE9882046FFF7D2
:104000008EFFF8BD5C4908402084A18B208C3702CC
:10401000F3261B01B14313430B435849A3830840C4
:10402000FF213843013108432084E9882046FFF707
:104030006EFFF8BD00210180418001228280C18095
:10404000018173E6F8B50C4649880026012507462C
:10405000002900D10226A288012A00D10225208849
:1040600023890028384610D0FFF762FFE1883846E0
:10407000FFF755FF23892A4631463846FFF775FF7B
:10408000E1883846FFF769FFF8BDFFF76EFFE1886A
:104090003846FFF762FF23892A4631463846FFF744
:1040A00047FFE1883846FFF73AFFF8BD406B3DE631
:1040B000806B3BE6C06B39E6006C37E6002A8289EC
:1040C00001D00A4300E08A4382812FE681822DE6F7
:1040D0000246128A00200A4200D0012026E6C94387
:1040E000018223E60246138A002092890B400A408F
:1040F000002B02D0002A00D0012017E6C94301821C
:1041000014E611434030018110E6002A828901D073
:104110000A4300E08A43828108E608220029818858
:1041200001D0114300E091438180FFE50189C90876
:10413000C9000181FAE5028970239A430A4302818A
:10414000F4E510B50446FFF7F6FF20890721084380
:10415000208110BDFF8F0000FFF70000FFFB000073
:10416000FFFD0000FFDF0000FFF30000FF0C000078
:10417000FFEF0000FF5F0000FFFE0000FFF5000002
:1041800070B516460D46044660290CD00122314612
:10419000FFF7EBFE29462046FFF7CDFF20890721D8
:1041A0000843208170BD01223146FFF7C1FEF1E7CF
:1041B00010B504891B021343E4B20B43234303816C
:1041C00010BD10B50446FFF7F3FF2089C108C900F0
:1041D00007200143702081430143218110BD10B5A8
:1041E0000446FFF7E5FF2089012189030843208168
:1041F00010BD828870239A43828082880A4382801D
:1042000094E50289D208D200028102890A43028120
:104210008CE5028980239A43028102890A43028144
:1042200084E570B50689048B058CF608F6000E430C
:104230000C4906810C40FF2102310C43AA218D4319
:104240001901114329430483018470BD8022002990
:10425000818801D0114300E09143818066E54030C0
:10426000018263E5FCFC00000168454A11400160E1
:104270000021016041608160C1604249414A0839C2
:10428000904202D148680F2205E03E4A1432904223
:1042900004D14868F022104348607047394A2832F8
:1042A000904203D148680F221202F4E7354A3C32AB
:1042B000904203D148680F221203ECE7314A503292
:1042C0009042EAD148680F221204E4E730B503684F
:1042D0002D4A0C6A13408A684D6922430C692C43AD
:1042E00022438C692243CC6922434C6A22438C6A64
:1042F00022431A430260CA6842600A6882604968C1
:10430000C16030BD0021016041608160C160016118
:1043100041618161C161016241628162704700292E
:10432000016802D00122114301E0154A11400160E9
:10433000704741607047406880B27047002A026849
:1043400001D00A4300E08A430260704701460D4AEB
:104350000020083A12680A4200D00120704709493B
:104360000839486070470146064A0020083A12683A
:104370000A4200D00120704702490839486070475E
:10438000FEFF0000080002400F80FFFF10B5012172
:104390000C072046FFF733F800212046FFF72FF8DF
:1043A00010BD30498A150028086801D0104300E08C
:1043B0009043086070472B4A1168E02399430143FA
:1043C00011607047274910220028086801D0104367
:1043D00000E0904308607047224A0029516801D0EC
:1043E000014300E08143516070471F490A6904237B
:1043F0009A430A61012801D020BF704730BF70473F
:10440000184B1A689208920002431A601648036912
:10441000042213430361012904D020BF01699143A1
:104420000161704730BFF9E70E48026804210A4372
:104430000260026802231A4302600B4802690A43C1
:10444000026130BF7047074A0146526800200A42A5
:1044500000D00120704703490A68800002430A60C7
:10446000704700000070004000ED00E0FE4A116857
:1044700049084900014311607047FB491022002898
:10448000086801D0104300E0904308607047F64987
:1044900000200968890600D501207047F2480169AB
:1044A000090603D5F1494160F14941607047EE4882
:1044B00001698022114301617047EB490420CA68F9
:1044C000D20701D001207047CA68D20601D5022068
:1044D0007047C9684907FBD50320704700B50346FC
:1044E000FFF7EBFF02E0FFF7E8FF5B1E012803D0B8
:1044F000002B00D1052000BD002BF4D1FAE7F0B568
:104500000B2706463F043846FFF7E8FF04280FD183
:10451000D54C20690225284320616661206940212D
:10452000084320613846FFF7D9FF2169A94321617B
:10453000F0BD70B50B252D042846FFF7CFFF0428EA
:104540000ED1C94C206904263043206120694021E6
:10455000084320612846FFF7C1FF2169B14321616B
:1045600070BDF8B5064600200B273F0400900D46AD
:104570003846FFF7B3FF042815D1BB4C2069012151
:104580000843206135803846FFF7A8FF042806D18C
:10459000B61C280C009630803846FFF79FFF216933
:1045A000490849002161F8BDF0B50B2706463F04D4
:1045B0000D463846FFF792FF04280CD1AA4C20691B
:1045C00001210843206135803846FFF787FF2169C4
:1045D000490849002161F0BDA3480169890503D458
:1045E000A2498160A249816070479F4801694215D4
:1045F0009143016170479C480169012252031143B4
:104600000161704798490020C9694907890F00D0A6
:1046100001207047F0B5AA25FFF7F4FF002800D06D
:1046200000250B273F043846FFF758FF042813D115
:104630008D4C2069202630432061206940210843A9
:1046400020613846FFF74AFF1021042805D00528CD
:1046500002D022698A432261F0BD2069B043206103
:1046600020690E4630432061824805803846FFF7B6
:1046700035FF0528F0D02169B1432161F0BDF0B5C7
:10468000C043C6B20004050E0B200004FFF726FF4E
:1046900004281BD1744C2169102211432161754FEC
:1046A000FF2E06D03E810B200004FFF717FF0428E1
:1046B00006D1FF2D06D07D810B200004FFF70EFFF1
:1046C000052803D0226910218A432261F0BDF0B58C
:1046D0000B26074636043046FFF700FF04281ED19C
:1046E000614C20692025284320612069402108432E
:1046F00020613046FFF7F2FE04280BD12069A84361
:10470000206120691025284320615A4807803046DF
:10471000FFF7E4FE052802D02169A9432161F0BD1D
:10472000F0B505460B2094460F460004FFF7D6FE71
:10473000042814D14C4C20691026304320613D439D
:1047400060460543F82005434A4845800B20000495
:10475000FFF7C4FE052802D02169B1432161F0BDF5
:10476000F0B50B2705463F043846FFF7B7FE04288F
:1047700010D13D4C2069102630432061EF200543C5
:104780003C4845803846FFF7A9FE052802D021693C
:10479000B1432161F0BDF0B50B2705463F04384613
:1047A000FFF79CFE042810D12F4C206910263043BF
:1047B0002061DF2005432F4845803846FFF78EFEF5
:1047C000052802D02169B1432161F0BDF0B50B2766
:1047D00005463F043846FFF781FE042810D1224CDD
:1047E0002069102630432061BF20054321484580C1
:1047F0003846FFF773FE052802D02169B1432161D5
:10480000F0BDF0B50B2705463F043846FFF766FEBE
:10481000042810D1144C20691026304320618820D0
:104820000543144845803846FFF758FE052802D056
:104830002169B1432161F0BDF0B507460B200E465A
:104840000004FFF74BFE042817D1074C2069102500
:10485000284320613E800B200004FFF73FFE05281F
:104860000BD02169A94307E00020024023016745DE
:10487000AB89EFCD00F8FF1F2161F0BD0D48C06985
:104880000004000E70470B48006A7047094A00296F
:10489000116901D0014300E0814311617047054A6D
:1048A0000146D26800200A4200D001207047014929
:1048B000C860704700200240854910B5884208D181
:1048C000441501212046FEF791FD00212046FEF708
:1048D0008DFD10BD30B5C3687E4A8C6813400A68F0
:1048E0000D792243CC686D032C4322430C6949693E
:1048F00022430A431A43C26030BD002101600171A6
:104900008160C1600161416170470029816801D007
:10491000012200E00222114381607047002A0269EF
:1049200001D00A4300E08A43026170470122D203AA
:104930000029C16801D0114300E09143C160704774
:10494000012292030029C16801D0114300E0914384
:10495000C16070470122D2050029C16801D011430E
:1049600000E09143C1607047090411430162704740
:10497000C2681F239B069A430A43C2607047012204
:1049800092050029C16801D0114300E09143C16044
:10499000704701225049D2050028886801D0104391
:1049A00000E090438860704701224B49920500283F
:1049B000886801D0104300E090438860704701226E
:1049C000454912060028886801D0104300E0904352
:1049D00088607047836A0B4383624261704701229B
:1049E00052030029C16801D0114300E09143C16026
:1049F0007047012212040029C16801D0114300E070
:104A00009143C1607047012212030029C16801D09F
:104A1000114300E09143C160704782680021012387
:104A2000DB071A4382600F231B038268491CD20FE5
:104A3000D207994201D0002AF7D18168002901DB11
:104A4000006C70470020704781681022114381601C
:104A5000704781680422114381607047006C80B206
:104A600070470029C16802D00122114301E04908C2
:104A70004900C1607047C26802239A43C260C2689D
:104A80000A43C2607047002A426801D00A4300E02E
:104A90008A434260704702460020CB0104D59268E9
:104AA00001231B069A4300E012680A4200D001204D
:104AB00070470160704702465368002012680B403F
:104AC0000A4202D0002B00D00120704701607047DD
:104AD0000024014003D2FFFF002701403248314942
:104AE0000160002141608160C160304941617047CF
:104AF00010B583792C490268002B26D00B689343AC
:104B00000B604A6803689A434A6002795218136836
:104B10000468234313608A6803689A438A60CA68FA
:104B200003689A43CA604279102A05D051180A686E
:104B3000006802430A6010BD8A6803681A438A60ED
:104B4000CA6800680243CA6010BD00794018016855
:104B50009143016010BD0021016001710C2242717E
:104B60008171704710490A6902430A6170470E4A11
:104B70000146526900200A4200D0012070470A49CC
:104B800048617047084A01461368002052690B408B
:104B90000A4202D0002B00D0012070470249486130
:104BA000704700000000940F00040140FFFF6B00FD
:104BB000244801688907890F016000218160C16074
:104BC00001614161816982151143816170471D4A0C
:104BD000116889088900014311607047194A00294A
:104BE000116801D0014300E0814311607047154A0C
:104BF0000029116801D0014300E081431160704732
:104C00008A07130F10B50F229A408C080D49A40093
:104C100061188C6894438C608A68984002438A606B
:104C200010BD08498A6902438A617047054900201E
:104C30008969C90500D50120704702498A69024384
:104C40008A61704700000140F8B5042A2CD383071D
:104C500012D00B78491C0370401C521E83070BD0E6
:104C60000B78491C0370401C521E830704D00B783C
:104C7000491C0370401C521E8B079B0F05D0C91A9C
:104C8000DF002023DE1B08C90AE0FBF76BFAF8BD42
:104C90001D4608C9FD401C46B4402C4310C0121FDD
:104CA000042AF5D2F308C91A521EF0D40B78491C15
:104CB0000370401C521EEAD40B78491C0370401C40
:104CC000012AE4D409780170F8BD01E004C0091F8D
:104CD0000429FBD28B0701D50280801CC90700D0B4
:104CE0000270704700290BD0C30702D00270401C2D
:104CF000491E022904D3830702D50280801C891E25
:104D0000E3E70022EEE70022DFE7002203098B42FF
:104D10002CD3030A8B4211D300239C464EE003465A
:104D20000B433CD4002243088B4231D303098B420E
:104D30001CD3030A8B4201D394463FE0C3098B4244
:104D400001D3CB01C01A524183098B4201D38B019D
:104D5000C01A524143098B4201D34B01C01A524140
:104D600003098B4201D30B01C01A5241C3088B4285
:104D700001D3CB00C01A524183088B4201D38B0070
:104D8000C01A524143088B4201D34B00C01A524112
:104D9000411A00D201465241104670475DE0CA0FE9
:104DA00000D04942031000D34042534000229C46A9
:104DB00003098B422DD3030A8B4212D3FC228901B3
:104DC00012BA030A8B420CD3890192118B4208D389
:104DD000890192118B4204D389013AD0921100E0EB
:104DE0008909C3098B4201D3CB01C01A52418309FF
:104DF0008B4201D38B01C01A524143098B4201D32C
:104E00004B01C01A524103098B4201D30B01C01A56
:104E10005241C3088B4201D3CB00C01A52418308D0
:104E20008B4201D38B00C01A5241D9D243088B4226
:104E300001D34B00C01A5241411A00D201466346C9
:104E400052415B10104601D34042002B00D549422D
:104E5000704763465B1000D3404201B50020C04656
:104E6000C04602BD704770477047754600F024F891
:104E7000AE46050069465346C008C000854618B0D6
:104E800020B5FEF72DF860BC00274908B64600267D
:104E9000C0C5C0C5C0C5C0C5C0C5C0C5C0C5C0C5EA
:104EA000403D49008D46704710B50446C046C04697
:104EB0002046FBF750F910BD00487047600A0020FB
:104EC00001491820ABBEFEE726000200704730B44F
:104ED0007446641E2578641CAB4200D21D46635D97
:104EE0005B00E31830BC1847010511016432010171
:104EF0000101120164320101010113016432010157
:104F00000101140164320101010115016432010142
:104F10000101160164320101010121016432010124
:104F20000101220164320101010123016432010106
:104F300001012401643201010101250164320101F2
:104F400001012601643201010101310101643201D4
:104F500001010132010164320101010133010164E7
:104F60003201010101340101643201010101350105
:104F700001643201010101360101643201010101C4
:104F800011016432010101011201643201010101C8
:104F900013016432010101011401643201010101B4
:104FA00015016432010101011601643201010101A0
:104FB0002101643201010101220164320101010178
:104FC0002301643201010101240164320101010164
:104FD0002501643201010101260164320101010150
:104FE0003101016432010101013201016432010128
:104FF0000101330101643201010101340101643214
:105000000101010135010164320101010136010193
:105010006432010101011101643201010101120137
:105020006432010101011301643201010101140123
:10503000643201010101150164320101010116010F
:1050400064320101010121016432010101012201E7
:1050500064320101010123016432010101012401D3
:1050600064320101010125016432010101012601BF
:105070006432010101013101016432010101013297
:1050800001016432010101013301016432010101B6
:105090000134010164320101010135010164320171
:1050A00001010136010164320101010128350000CE
:1050B000D050000800000020180100000401000882
:1050C000E851000818010020A80F00002001000886
:1050D000006CDC020000000000000000010203047C
:1050E000060708090000000000010101010101019B
:1050F00001010101010001000100000000000000A9
:10510000000000000000000000000000000000009F
:10511000000000010000000000000000000000008E
:10512000000000000000000000000000000000007F
:10513000000000000000000000000000000000006F
:1051400005000500C800C80005000500F401F401D1
:10515000000000000000000000000000000000004F
:10516000000000000000000000000000000000003F
:10517000000000000000000000000000000000002F
:10518000000000000000000000000000000000001F
:10519000000000000000000000000000000000000F
:1051A00000000000000000000000000000000000FF
:1051B00000000000000000000000000003010001EA
:1051C00000000000000000000000000000000000DF
:1051D00000000000000000000000000001020304C5
:0851E00001020304060708099F
:0400000508002ECDF4
:00000001FF
