:020000040800F2
:10000000C810002029320008C5010008C7010008F7
:1000100000000000000000000000000000000000E0
:10002000000000000000000000000000C9010008FE
:100030000000000000000000CB010008CD01000816
:100040003B3200083B3200083B3200083B320008DC
:100050003B3200085F1B00083B3200089B1B000876
:100060003B3200083B3200083B3200083B320008BC
:100070003B3200083B3200083B3200083B320008AC
:100080003B3200083B320008000000003B32000811
:100090003B320008CF0100083B3200083B32000829
:1000A0003B3200083B3200083B3200083B3200087C
:1000B0003B320008000000003B3200080000000056
:1000C00000F002F800F03EF80CA030C80838241800
:1000D0002D18A246671EAB4654465D46AC4201D180
:1000E00000F030F87E460F3E0FCCB6460126334274
:1000F00000D0FB1AA246AB4633431847105300000A
:1001000030530000103A02D378C878C1FAD85207A9
:1001100001D330C830C101D504680C6070470000BD
:100120000023002400250026103A01D378C1FBD813
:10013000520700D330C100D50B6070471FB51FBDFB
:1001400010B510BD05F03FF81146FFF7F7FF00F0BE
:1001500025F805F057F803B4FFF7F2FF03BC05F0EC
:100160005DF8000070B505460C46164602E00FCC5F
:100170000FC5103E102EFAD2082E02D303CC03C5B1
:10018000083E042E07D301CC01C5361F03E02178B9
:100190002970641C6D1C761EF9D270BD10B502F07A
:1001A000FDF903F037F801F05FFF01F0D1FD002207
:1001B0000121034802F0F7FF02F0DAFF002010BD32
:1001C0002D0300087047FEE770477047704710B571
:1001D000064C0121204604F033F9002805D003F035
:1001E00014F80121204604F037F910BD0044014005
:1001F00010B5474801680122114301604168454A32
:10020000114041600168444A1140016001680122C7
:1002100092049143016041683F221204914341607E
:10022000C16A09090901C162016BFF22543291437D
:100230000163416B4908490041630021816000F07E
:100240002EF810BD70B5324D69680C20014033485E
:10025000334C03D0042901D0082901D0206014E0D8
:100260006A686968012392021B04160F1940B61CC4
:10027000002907D0E96A0907090F491C04F0F3FEB9
:100280007043EBE727484643266068682449000628
:10029000000F091D085C2168C140216070BD38B5A0
:1002A00000201B4C00902068012109048843206035
:1002B0001D480168102211430160016801221143A9
:1002C0000160606860606068606060683F21090488
:1002D0008843606060680521C904084360600520A8
:1002E00003F040F9206801210906084320602068D6
:1002F0008001FCD560688008800060606068022131
:100300000843606060680007800F0228FAD138BD9A
:10031000001002400CB8FFF8FFFFF6FE00127A0052
:100320000000002000093D000020024010B502F04E
:100330007EFD02F055FEFF2205322649264802F0D6
:1003400075F94021254802F00DFA2448503802F092
:10035000C0F908220121224802F025FF09220121CB
:10036000204802F020FF022201211F4802F01BFF5B
:10037000062201211D4802F016FF042201211C481B
:1003800002F011FF0B2201211A4802F00CFF052296
:100390000121194802F007FF01221146174802F017
:1003A00002FF07220121164802F0FDFE032201216F
:1003B000144802F0F8FE0A220121134802F0F3FE6D
:1003C000002002F006FF10BD10B532210E2002F011
:1003D00009FF10BDE50600206C0400202C0400205D
:1003E0003B070008771900088D2000084317000814
:1003F0000B0D00081F0E00086B160008CF15000833
:100400009F1300087D0E000843100008F7490120E3
:1004100008707047F549002008707047F3490120C3
:1004200048718871C87108724872887200204875D6
:100430008875C87588870A46C88740321080508002
:100440009080D080108150819081D081087648764C
:100450008876C87608774877704770B506460022D8
:100460006421012002F0C2FD00226421022002F07A
:10047000BDFD00226421032002F0B8FD00226421AA
:10048000042002F0B3FD7D2100224901052002F085
:10049000ADFD0021084602F060FB0021012002F0C2
:1004A0005CFBD248007D012804D0022805D0032837
:1004B00006D009E00021022004E00021032001E031
:1004C0000021042002F049FBFF25F535284602F003
:1004D0005EF800241FE00121022002F03EFB012112
:1004E000032002F03AFB0121042002F036FB2846EB
:1004F00002F04DF80021022002F02FFB0021032022
:1005000002F02BFB0021042002F027FB284602F01A
:100510003EF8641CE4B2B442DDD370BD70B5002275
:100520006421012002F062FD00226421022002F019
:100530005DFD00226421032002F058FD00226421A9
:10054000042002F053FD7D2676010022314605206D
:1005500002F04CFD0021084602F0FFFA0024F510DD
:100560000121022002F0F9FA0121032002F0F5FA3C
:100570000121042002F0F1FA32223146052002F076
:1005800035FD284602F033F80021022002F0E5FA9A
:100590000021032002F0E1FA0021042002F0DDFA3C
:1005A00000223146052002F021FD284602F01FF806
:1005B000641CE4B2032CD3D370BD70B50646002290
:1005C0006421012002F012FD00226421022002F0C9
:1005D0000DFD00226421032002F008FD00226421A9
:1005E000042002F003FD7D2100224901052002F0D4
:1005F000FDFC0021084602F0B0FA7C48007D01288D
:1006000004D0022805D0032806D009E000210220EA
:1006100004E00021032001E00021042002F09DFA03
:10062000FF25F535284601F0B2FF00240FE0012137
:10063000084602F092FA284601F0A9FF00210120A5
:1006400002F08BFA284601F0A2FF641CE4B2B44227
:10065000EDD370BD10B500224378012104E0445C65
:10066000A218491C92B289B29942F8D3110AC15416
:10067000C018427010BDF8B55D4D5E4802F044F8F8
:100680005A4C002786B2203453E05A4802F032F820
:10069000617A002942D0A17A00292FD0E17A6854EA
:1006A000E07A401CE072207B401E0006000E2073A2
:1006B0003DD100226978012003E02B5C9A1892B2A8
:1006C000401C8842F9DB685C0302681840781818FF
:1006D00090420BD1FF2246495F32881804F062FC39
:1006E000454801F00FFF022001F081FF6772FF21F2
:1006F000A7725F313E4804F0B4FC18E0FF22411EAF
:100700005D32914208D23A4AE17A50542073012076
:10071000A072491CE1720AE0677208E0FF2806D166
:100720003349087001216172A772E1722773761E46
:10073000B6B2002EA9D10120F8BD10B5FF24CCB06F
:100740002D342146684604F08CFC2C4800780028A3
:100750000AD1284822466946903001F09DFF0100E9
:1007600002D0684602F077F81C21082002F03AFD1A
:100770004CB010BD1D4901208873002080310862F3
:10078000704730B5194A0B00803204F04EFD0F134C
:10079000090E20252A3B133F1344494E535813009A
:1007A0001249491D1161AB3103E01049891D1161E6
:1007B000AE315164136912491C780968012C43D089
:1007C0000D1801248D4244D2002847D049E0074942
:1007D000C91D1161B131ECE7044908311161B4312F
:1007E000E7E7024909311161B731E2E7140000205F
:1007F00020010020DC0300207E020020F500002004
:1008000008010020FB491161A231D2E7F949891D95
:1008100011618431CDE7F749491C11618D31C8E779
:10082000F449891C11619C315164F249C91C116160
:1008300097315164EF49091D116192315164ED49BD
:10084000491D11618D31B4E7506C016000201870B2
:1008500007E0526C1268891A814202D31C70012091
:1008600030BD002030BDF3B585B0042002900520D6
:10087000039006200190072000900E46DD48059960
:100880000825022403277630012904D0022909D043
:1008900003290ED114E0D7490B318164C91CC1640E
:1008A000C91C05E0D3490C318164C91CC164C91C51
:1008B0000165D0487630806C0078002812D046E080
:1008C0000521029106210391072101910821009140
:1008D000C84909250D318164C91C03240427C1645A
:1008E000C91CE5E7C34932787631086D521E00789D
:1008F000904212DD68438119601C095C0022059852
:1009000002F074FBBB4804217630806C0170B94959
:1009100000207631096D087019E0B64A0A3A12785B
:10092000002A1BD000226421012002F05FFB00227C
:100930006421022002F05AFB00226421032002F00D
:1009400055FBAC4900200A398877FFF767FDA948B5
:100950007630806C007801280ED090E068438019D2
:10096000791C425C611C415C059802F03FFBA14987
:1009700001207631896C08700598032809D09D48BC
:100980007630006D0078684381190298401C085C3D
:100990005AE0902002F082F896497631096D097884
:1009A00069438A19D37814214B43934909885B180A
:1009B000834246D8E12212018918884217D20022C8
:1009C0006421012002F012FB00226421022002F0C7
:1009D0000DFB00226421032002F008FB854B002060
:1009E0000A3B9877FFF71AFD0120187047E081490C
:1009F00001200A3908700022642102F0F7FA00226F
:100A00006421022002F0F2FA00226421032002F0A5
:100A1000EDFA784900200A398877FFF7FFFC0121B9
:100A20008902764802F0A3FC0121C902734802F052
:100A30009EFC0520FFF711FD01F016FB01F088F97F
:100A40001DE00298401C105C7D21C90048430599B7
:100A5000FFF797FE002812D066487630C16C0A78FE
:100A6000521C0A70826C02211170006D0022007805
:100A700068438119601C095C059802F0B7FA5D486B
:100A80007630806C8446007802285ED159480399FC
:100A90007630C36C006D491C00781A786843801961
:100AA000415C8A4205D1032061460870002018701D
:100AB0004BE00599032901991BD0491C405C7D211D
:100AC000C90048430599FFF75CFE00283DD049481E
:100AD0007F1C7630006D641C007868438019C25D0D
:100AE000015D059802F082FA424901207631896C55
:100AF0005AE0491C405C7D21C90048430599FFF735
:100B000040FE00280ED03B4900200A390870012120
:100B100089023A4802F02DFC0121C902374802F04F
:100B200028FCD4E7354F01218902384602F01FFC2A
:100B30000121C902384602F01AFC2E4F7637B86CF4
:100B40000078032832D007B0F0BD2A4F7637B86C52
:100B500000780328F7D10598032827D0386D00784E
:100B6000684381190098401C085C7D21C9004843F6
:100B70000599FFF706FE0028E5D0394608208039A0
:100B800088770020F96C641C0870386D00220078AA
:100B900068438019015D059802F028FA396D0878DC
:100BA000401C0870B96C00200870CCE71148763002
:100BB000006D0078684381190098401C085C7D2115
:100BC000C90048430599FFF7DCFD002818D0094FFC
:100BD00000200A3F387001218902084802F0C9FB51
:100BE0000121C902054802F0C4FB0820B8770020A3
:100BF0008037C7E71E0000200601002000040048DF
:100C0000F94C01218902204602F0B1FB0121C90201
:100C1000204602F0ACFB96E710B50022F34BFF2113
:100C2000C9319C5C8454521C8A42FADB0146722210
:100C3000EF4801F0CEFA10BD02780021521EFF2AC3
:100C40002CD20022491C89B243189B78491C89B2D6
:100C5000012B23D80B46603B362B05D9963B362B10
:100C600002D9963B362B01D8491C89B243189B7890
:100C7000491C89B2002B11D043189B785B1F5F2B56
:100C80000CD2491C89B243189B78491C89B2002BAD
:100C900004D043189B785B1EFA2B00D3BCE7C91C19
:100CA000521C89B2362ACDDB7047F7B50020019976
:100CB0000124491C844603468E46012A04D0022A98
:100CC00002D0032A02D002E0082000E009200546F5
:100CD0005D437146695C012910D1002108E0019E45
:100CE0007618AF5D009E3755641C491CE4B2C9B24A
:100CF0008142F4D36146491CC9B28C465B1C062B69
:100D0000DBDB009960460870FEBDF8B5B94DBA4905
:100D1000A87809782C460843203CE17F084330D16D
:100D20000121C903B04802F010FB0026012700286A
:100D300004D06E73607C012818D022E00E21AF48E9
:100D4000FFF71FFD002808D0E7772F71FFF766FB3C
:100D500000226421A67701204AE0687B052802D0A2
:100D6000401C68730DE067746E730AE0A87B052869
:100D700005D1E17F002902D1E978002906D0401C85
:100D8000A8731421042002F02DFAF8BD9948E773E6
:100D90006030C661AE736674207D012804D00228DD
:100DA0000AD0032810D018E002202075002101F09D
:100DB000D4FE012103200EE003202075002101F064
:100DC000CCFE0121042006E027750021042001F05B
:100DD000C4FE0121022001F0C0FEFFF71FFBA67731
:100DE00000226421012002F001F900226421022086
:100DF00002F0FCF800226421022002F0F7F8002241
:100E00006421032002F0F2F800226421042002F0A1
:100E1000EDF800226421052002F0E8F8B1E7F8B50A
:100E2000744C203C2078012823D10025A577FFF7BA
:100E3000F5FA0120704F6C4E38708102304602F096
:100E400096FA0121C902304602F091FA7D2008216C
:100E50004001FFF796FC00280BD0012189023046A3
:100E600002F087FA0121C902304602F082FA2570A9
:100E70003D7032210B2002F0B5F9F8BDF8B5604E97
:100E80000427307801255B4C002835D100226421ED
:100E9000012002F0ABF800226421022002F0A6F843
:100EA00000226421032002F0A1F800226421042022
:100EB00002F09CF87D2100224901052002F096F8FD
:100EC000322001F094FB09200121C00602F03DFA16
:100ED000012801D0357012E0377065704948A5705F
:100EE000017800291CD10570434900200870414950
:100EF00020398877FFF792FA3078012803D101F082
:100F0000B3F800F025FF3078022803D101F0ACF8E7
:100F100000F01EFF6078012802D004282DD030E0B8
:100F20000926F6062021304602F00FFA012805D1E5
:100F30001021304602F009FA002806D02021304660
:100F400002F003FA002803D008E0022060701BE0E2
:100F50001021304602F0F9F9012806D02021304650
:100F600002F0F3F9012803D006E00320607058E096
:100F70001021304602F0E9F9677001F075F800F0D1
:100F8000E7FE6078022849D10021012001F0E5FD4B
:100F90000021022001F0E1FD0021032001F0DDFD30
:100FA0000021042001F0D9FDE17B7D20C000002953
:100FB0002AD00C21FFF7E5FB00282FD001210020CB
:100FC00001F0CBFD00200925E073ED062021284625
:100FD00002F0BBF9002821D11021284602F0B5F912
:100FE0000128C2D01AE00000000400484452000862
:100FF0000078000834000020F5000020881300006D
:10100000F4000020F60000200C21FFF7BAFB0028B6
:1010100004D00021084601F0A0FDE57360780328A4
:1010200003D10121002001F098FD1421032002F0DA
:10103000D9F8F8BD884201D9401A00E0081A80B2F8
:101040007047F8B5FA4C01252079FA4F002601289F
:101050002AD10021022001F080FD0021032001F0AF
:101060007CFD0021042001F078FD00226421012094
:1010700001F0BCFF00226421022001F0B7FF002232
:101080006421032001F0B2FF00226421042001F05A
:10109000ADFF7D2100224901052001F0A7FFE07D81
:1010A0000A2807D0401CE0752079022810D00328B8
:1010B00023D029E00220E67520714102657138468F
:1010C00002F055F90121C902384602F050F9EBE768
:1010D000E570207C14217D2241435201914217D1B9
:1010E000012126748902384602F043F90121C90220
:1010F000384602F03EF903202071042020713C2282
:101100006421032001F072FFE078012802D031E071
:10111000401C20746079012808D1207E282809D03D
:10112000401C20760121022001F017FD6079022881
:1011300005D00DE00220267660710021F3E7207EC5
:10114000282809D0401C20760121032001F005FD4C
:101150006079032805D00DE0032026766071002118
:10116000F3E7207E28280BD0401C207601210420A4
:1011700001F0F3FCAE4D20792035042804D02DE099
:10118000267665710021F2E7607E1421AA4A414368
:10119000914208D100226421032001F027FF05209D
:1011A000207166761DE0401CC0B26076052803D130
:1011B000902001F073FC2882607EC8280ED1902018
:1011C00001F06CFC6882298AFFF734FF962805D26B
:1011D00000226421032001F009FF2DE02079052879
:1011E0002DD1A88E1421954A414391420DD1012160
:1011F000AE868902384602F0BAF80121C9023846A3
:1012000002F0B5F8062020711CE0401C80B2A886D0
:10121000012803D1902001F041FCA882A88E8849C2
:1012200088420CD1902001F039FCE8820146A88A5E
:10123000FFF700FF642802D20720207131E02079F7
:1012400006281DD1A07E14217B4A414391420BD137
:1012500001218902384602F08CF80121C902384682
:1012600002F087F8A6760BE0401CC0B2A0760128F9
:1012700003D1902001F012FC2883A07EC82803D05F
:10128000207907280DD047E0902001F007FC688303
:101290000146288BFFF7CEFE6428CDD308202071AD
:1012A0004EE00021E670084601F057FC00210120C5
:1012B00001F053FC617C052911D0A07C1422034667
:1012C0005343FF222D3293422AD1E07C142343431F
:1012D00093420DD1491C6174A674E6741CE0544815
:1012E00066742038C67700F0BFFE00F031FD13E0D1
:1012F000401CE0740121022001F02FFC0121032099
:1013000001F02BFC0121042001F027FC50227D215B
:101310004901052001F06AFE2079082810D039E043
:10132000401CA0740021022001F017FC00210320C2
:1013300001F013FC0021042001F00FFC0022E6E77D
:10134000E670207D14213C4A4143914214D1384833
:1013500000212038C6772675022001F0FEFB00210F
:10136000032001F0FAFB0021042001F0F6FB00F05D
:101370007BFE00F0EDFC0DE0401C207501210220F9
:1013800001F0EBFB0121032001F0E7FB0121042028
:1013900001F0E3FB14210A2001F024FFF8BDF8B5A9
:1013A000234C0127A07925462646603520360028A3
:1013B0003AD120462038C178007901437ED0708E22
:1013C00004283FD0401C708600226421012001F0D7
:1013D0000DFE00226421022001F008FE002264219B
:1013E000032001F003FE00226421042001F0FEFD31
:1013F0007D2100224901052001F0F8FD7D21002218
:101400004901052001F0F2FD0021084601F0A5FB8D
:101410000021022001F0A1FB0021032001F09DFB2F
:101420000021042001F099FBA079012827D056E083
:10143000340000200004004888130000C0D40100DC
:101440005702000000207086207A022814D0012163
:10145000022001F082FB0121032001F07EFB01212B
:10146000042001F07AFB7D21A77132224901052079
:1014700001F0BCFDE771D7E701210020F1E7207AF8
:10148000012802D0022809D103E0F748A860001F14
:1014900003E0F5480830A860001F2860A8680A210A
:1014A0000088FFF76EF9002819D0207A022813D09F
:1014B0000021022001F051FB002100E01BE003208D
:1014C00001F04BFB0021042001F047FB0220A0713A
:1014D000F08D401CF08505E000210846F4E7A07976
:1014E000022820D12868F18D0088884204D100208C
:1014F000F0850320A07116E0A8680A210088FFF794
:1015000040F900280FD0207A022810D001210220B3
:1015100001F023FB0121032001F01FFB0121042026
:1015200001F01BFBA771E079012803D025E0012120
:101530000020F5E7207A012802D002280AD104E031
:10154000C948801CE860001F03E0C7480A30E86013
:10155000001F6860E8680B210088FFF712F9002877
:101560000BD07D2100224901052001F03FFD022022
:10157000E071308E401C308602E0E079022817D1FD
:101580006868318E0088884204D1002030860320AC
:10159000E0710DE0E8680B210088FFF7F2F8002801
:1015A00006D07D2132224901052001F01FFDE7719F
:1015B000A079032806D1E079032803D100F054FD77
:1015C00000F0C6FB3221072001F00CFEF8BDF8B593
:1015D000A648A54C01884088403C0090A07800288F
:1015E0001DD1A34826460078203E0125A14F0028A2
:1015F0001AD0E07E2246603214281AD0401CE076D1
:10160000506D401850659C490098884207D20520CB
:10161000FEF723FF3D7000F027FD00F099FB32211B
:10162000012001F0DFFDF8BD9448814211D2002075
:1016300011E08D4814212030406D03F014FD8A49DB
:101640008E4A2031486581B20020893AE076914285
:1016500001D3B570D7E7B0700520FEF7AEFF3D703F
:1016600000F002FD00F074FBCDE7F8B57E4E0025DA
:10167000403EB0783446203C002802D0A567E5679C
:101680005AE07C480078002856D1A07C0127002829
:1016900017D0E07C002814D0707D192826D0502265
:1016A0006421012001F0A2FC50226421022001F0FB
:1016B0009DFC50226421022001F098FC707D401CAA
:1016C0007075012149036E4801F03FFE002820D0CB
:1016D000A567E06F14216B4A414391422AD1E56727
:1016E0006570E77063483772077025E07575A574FB
:1016F00000226421012001F079FC002264210220F3
:1017000001F074FC00226421032001F06FFC3770AB
:10171000D7E7A06F14217D2241431201914206D1E7
:10172000A567E567534867700570E77404E0401CDF
:10173000A06701E0401CE0671421052001F052FD84
:10174000F8BDF0B5484EF3B0403E3078012879D16D
:10175000B0780028FBD13446203CE07F0028F6D149
:1017600020780028F3D1A07F454D00281DD1722795
:10177000B900684603F075FC3A466946424800F0F5
:1017800051FEBA0069464148FEF7ECFC3F48FFF7BE
:1017900053FA0620A07701218902284601F0E7FDCF
:1017A0000121C902284601F0E2FDA07F374F06283B
:1017B0001AD178787D21C90048430621FEF7E1FF60
:1017C000002811D038780121401EB0750320A07781
:1017D0008902284601F0CDFD0121C902284601F009
:1017E000C8FD2B4801F089FAA07F02282AD00025E5
:1017F000012808D003280DD007280DD0042863D075
:1018000008286DD089E0B07D00281CD00321A17785
:10181000401EB0750720A07737211E4803F021FC39
:101820001C483721373003F01AFC1A4837216E3034
:1018300003F015FC207D01280AD002280CD00328D3
:101840002FD129E091E00920A0773878B07578E0B1
:101850009622B91C684622E00C49982298316846C5
:10186000FEF780FC1DE00000740000200201002053
:10187000F6000020F5000020B60300005509000026
:101880000004004860EA00000078000878040020A6
:10189000060100204006002096223E49684603F0DB
:1018A00081FB3C48012269469A30FFF7FEF939482E
:1018B0000222D1300CA9FFF7F8F90322364818A903
:1018C000FFF7F3F90420A077902001F0E7F83349FF
:1018D0008885334909886431884205D80820A07773
:1018E000607D042805D00AE0012020700420A07744
:1018F0003BE0A07D042802D1E07D042813D02649D6
:101900000320FEF7B0FF244901206E39FEF7ABFF3C
:10191000214902203739FEF7A6FFA07F092810D001
:101920000A2814D021E0E576257765770123A3778F
:10193000FEF774FDB07D0028EFD1237102203072D4
:10194000EBE70220A0776575A575E5750DE003202E
:10195000FEF733FEA5776575A5751249E57501207B
:10196000087000F081FB00F0F3F90A21062001F075
:1019700039FC73B0F0BD10B50A480078002804D1D6
:10198000094800F0C8FEFEF776FE6421092001F048
:1019900029FC10BDA6050020AE0600205400002042
:1019A00006010020F5000020DC030020F0B5232014
:1019B00085B00121400401F0A3FE0121480401F09B
:1019C000B1FE0121084601F0A4FEFF2601360025E4
:1019D000684602960573C57302274773092002A95A
:1019E000C00601F064FC0124092002A9C00602948B
:1019F00001F05DFC0821002003F0B0FA6846009673
:101A000005710C214171847103F020FA0021084610
:101A100003F0A4FA102168460094417103F016FA0D
:101A20000721684601744474847404A801F0CCFE54
:101A3000684647740521017404A801F0C5FE05B08D
:101A4000F0BD70B50926F6060121304601F07DFC97
:101A5000012806D00121304601F077FC00283ED055
:101A600079E000226421012001F0C0FA0022642103
:101A7000022001F0BBFA00226421032001F0B6FA33
:101A800000226421042001F0B1FA00226421052023
:101A900001F0ACFA0021022001F05FF800210320E0
:101AA00001F05BF80021042001F057F800210846FE
:101AB00001F053F800252C46052000F098FD012187
:101AC000304601F042FC012801D16D1CEDB2641CCE
:101AD000E4B2052CF0D3052D3DD1002070BD0022CD
:101AE0006421012001F082FA00226421022001F029
:101AF0007DFA00226421032001F078FA002264219B
:101B0000042001F073FA00226421052001F06EFA2E
:101B10000021022001F021F80021032001F01DF82E
:101B20000021042001F019F80021084601F015F801
:101B300000252C46052000F05AFD0121304601F019
:101B400004FC002801D16D1CEDB2641CE4B2052C2C
:101B5000F0D3052D01D0032070BD022070BD70B5FB
:101B6000012003F0BDF9002813D00925ED0601215D
:101B7000284601F0EAFBFD4C012806D00121284649
:101B800001F0E3FB002802D003E0002000E0022087
:101B90002070012003F0A1F970BD10B5FF240134BD
:101BA000204603F09DF9002809D0F0490878032861
:101BB00005D1EF480078002801D10220C8702046E6
:101BC00003F08BF910BD10B5FEF728FCE9490020A1
:101BD0000870E949E54A0870907001215170E74B9F
:101BE000D170187003231370E54A1070E54A107025
:101BF000E54A1070E54A1070E54A1070E54A106039
:101C0000E54A1060E54A1170E54A1170E54A117025
:101C1000E54A1170E54A1170E54A1080E54A1080E6
:101C2000E54A1080E54A1170E54A1070E54A1060F7
:101C3000E54A1060E54A1060E54A1060E54A106028
:101C4000E54A1060E54A1060E54A1060E54A106018
:101C5000E54A1060E54A1060E54A1170E549086000
:101C6000E5490880E5490870E5490870C0490870F1
:101C7000E4490870E4490870E4490870E4490870D0
:101C8000E4490870E4490870E4490870E4490870C0
:101C9000E4490870E4490870E4490870E4490870B0
:101CA000E4490870E4490870E4490870E4490870A0
:101CB000E449086010BDF8B500226421012001F05C
:101CC00095F900226421022001F090F9002264219C
:101CD000032001F08BF900226421042001F086F931
:101CE00000226421052001F081F90021084600F05E
:101CF00034FF0021012000F030FF0021022000F01D
:101D00002CFF0021032000F028FF0021042000F018
:101D100024FF0126CC4DB6023146284601F027FBB0
:101D20007100284601F023FB00247D27FF00384680
:101D300000F05DFC641CE4B2042CF8D33146284664
:101D400001F017FB0121C902284601F012FBF8BD82
:101D500010B5BE490020086000F020FC01F05AFADE
:101D6000FEF746FAFEF7E2FA10BDF0B52320A3B065
:101D70000121400401F0C4FC7C200090032568464A
:101D800045710126067100248471C6716946AE480A
:101D900001F08DFA7C21AC4801F0E9FA022718A87D
:101DA0001C970575C47509201CA9C00601F07FFAAF
:101DB00018A81E960477C4771EA9A34801F077FAE5
:101DC0000021A34802F059FC0021A24802F0F7FFCD
:101DD0000021A04802F047FF9D480021503002F04A
:101DE0004CFC9B4800213C3002F047FC00219A4803
:101DF00001F0B5FD0C200E9008A845770477C77751
:101E000009200EA9C00601F052FA68020290684645
:101E1000457306738473C673092002A9C00601F0D6
:101E200046FA09206902C00601F0A1FA30030490C5
:101E30006846457506758475C675092004A9C006EF
:101E400001F035FA09203103C00601F090FAF003E1
:101E500006906846457706778477C777092006A9F4
:101E6000C00601F024FA0920F103C00601F081FA4E
:101E700023208001089008A8457106718471C771FC
:101E800001460920C00601F012FA23210920890128
:101E9000C00601F06EFA7148109010A845710471E7
:101EA000C7710146684801F002FA6C49664801F0C2
:101EB00060FA30200A9008A845730473C47309209F
:101EC0000AA9C00601F0F3F920A820964571047113
:101ED00008A8C773092020A9C00601F0E8F9A802E4
:101EE000129010A845730473C77312A9564801F0E5
:101EF000DEF930020C9008A8457506758475C67524
:101F000009200CA9C00601F0D2F909203102C0064F
:101F100001F02DFA05204003149010A845750475B2
:101F2000C47514A9484801F0C2F92720C0011690D1
:101F300010A845770477C77716A9434801F0B7F989
:101F400007204003189018A845710471C771014615
:101F5000434801F0ACF918A81A9545730473C77388
:101F60001AA9404801F0A3F923B0F0BDF400002005
:101F700033000020320000201E0000203500002029
:101F8000140000201500002016000020170000207B
:101F9000180000208C000020900000201F0000206E
:101FA000200000202100002022000020240000202A
:101FB00082000020840000208600002026000020EF
:101FC00027000020A8000020AC000020B400002062
:101FD000B8000020BC000020C0000020C400002089
:101FE000C8000020CC000020D0000020D400002039
:101FF00023000020B0000020EC000020EE000020B4
:1020000034000020F2000020F30000203600002001
:102010003C0000203A0000203B0000203800002057
:102020003900002037000020250000204B00002050
:102030004C0000204D000020880000204E000020B1
:102040004F000020E80000200004004808010020A4
:10205000080002400024014000440040024000000B
:10206000000800480014004810B5FFF7ACFDFFF76A
:102070009DFC00F0E9FCFFF778FE0121080701F064
:1020800051FB0121084602F069FB10BD70B5324CCE
:102090000125E078022826D1C1010920C00601F0FF
:1020A00054F90021002804D02171A07800281ED006
:1020B00019E02079322802D0401C207113E02171F0
:1020C000A078002808D00020244AA070002805D05D
:1020D00061700420E07003E00120F5E76570E170B5
:1020E0001170FEF79BF9E078032802D005E0032089
:1020F000E070FFF7B9FFFFF72BFEE078042802D06D
:1021000000281DD022E01648007800281ED00121AA
:10211000002000F022FD13480078012804D0022896
:1021200005D0032806D009E00121022004E00121A6
:10213000032001E00121042000F00FFDE57005E01F
:10214000FFF7B9FDFFF790FFFFF702FE1421022011
:1021500001F048F870BD0000F400002032000020BB
:10216000160000202800002000B5D9B0FF226946E3
:102170000A7008224A7000228A700322CA7008710D
:10218000020A4A71020C8A71000EC8716846FEF795
:1021900061FA69464A78F348921C00F05DFA59B03A
:1021A00000BDF8B5FF270546C9373946EE4802F0AD
:1021B00056FFEE4E0020EC4C30803946204602F0AF
:1021C0004EFF287920706879607021780818308077
:1021D000F8BDF8B516460F460024054602F00CFB84
:1021E000352002F012FD284602F037FBFF2E12D9EF
:1021F00013E0A000395CC019427812028918827875
:10220000C0781204000610180918284602F057FB7F
:10221000641CA4B22D1DB442EBD302F0F6FA2046A2
:10222000F8BDF0B5FF268F36CF4DD04C8FB01129B9
:1022300036D0122949D013295DD0212975D0222901
:102240006FD023296ED031296DD032296CD033293B
:1022500024D1071DA8190E903821684602F001FF0D
:1022600000206A46397811542388401CC9187F1C05
:1022700021803628F6DB362269460E9802F092FE5F
:102280002088A919020A20318A75C8757222B649B8
:10229000B748FFF79EFFB749012008700FB0F0BDA7
:1022A000061D30216846AD1C02F0DBFE00216846A9
:1022B000327842542388491CD218761C2280302957
:1022C000F6DB01463022284612E0A74E051D3236C5
:1022D0003021684602F0C5FE002168462A78425443
:1022E0002388491CD2186D1C22803029F6DB7DE042
:1022F00002F058FED2E79C4E051D62363821684632
:1023000002F0AFFE002168462A7842542388491C17
:10231000D2186D1C22803629F6DB3EE0014651E0E2
:1023200003E015E027E03AE04EE08F4E051D9836B9
:102330003021684602F095FE002168462A78425412
:102340002388491CD2186D1C22803029F6DB4DE011
:10235000854E051DC8363021684602F082FE0021F8
:1023600068462A7842542388491CD2186D1C228062
:102370003029F6DB3AE07C4E051DF83638216846F8
:1023800002F06FFE002168462A7842542388491CD7
:10239000D2186D1C22803629F6DB3622BEE7051DD9
:1023A000754E3021684602F05CFE00216A462878AE
:1023B00050542388491CC0186D1C20803029F6DB3E
:1023C00030226946304693E76B4E051D303630218A
:1023D000684602F046FE002168462A784254238867
:1023E000491CD2186D1C22803029F6DB302295E77B
:1023F0007CB5FF216846017005214170002484707E
:1024000008215C4DC17029780171FEF723F96846F7
:10241000427869465348921C00F01EF92C707CBD2E
:102420000068704730B50023002907D004E09D0004
:1024300010C85B1C4C519BB29342F8D330BD30B5F1
:10244000FFB07224CCB0A500294658A802F009FEBE
:10245000224658A94648FFF7E5FF2A4658A94248B0
:1024600002F0A0FD4048FEF7E7FBFF206946087038
:10247000FC204870002088700920C8703A48027813
:102480000A7142784A7102216A46801C0378541806
:10249000401C491C2371F829F8DB1046FEF7DAF8D6
:1024A0006846427869462F48921C00F0D5F87FB004
:1024B0004CB030BD30B5D9B0FF2168460170D02195
:1024C0004170002181700A21C1702B49F8203639F2
:1024D000FF236A46C53314180D78FF3C013C401CAD
:1024E000491C25739842F6DB1046FEF7B3F86846A0
:1024F000427869461B48921C00F0AEF859B030BDD6
:102500000078704710B5C17813291FD010DC072957
:1025100022D008DC04291CD0052920D0062901D1AD
:10252000FFF7C8FF10BD112910D01229FAD10DE014
:1025300031290BD006DC212908D0222906D02329F5
:10254000F0D103E0322901D03329EBD1FFF769FE46
:1025500010BDFFF726FE10BDFFF74AFF10BDFFF7C5
:102560006EFF10BD6C040020E9070020F000002081
:1025700000780008F90000201709002006490880AB
:102580000028FDD1704710B500F01AF810BD10B545
:1025900000B200F02CF810BDFA00002010B50420A5
:1025A000C04301F03DF91E481C49006802F05BFD84
:1025B0001C4940B27D220870D2005043488010BDB3
:1025C000184900228A5618495043486100228A61FE
:1025D00008690123184308610869C30701D0C003D3
:1025E000FAD508694008400008618A6170470D49C2
:1025F00002228A5E0C495043486100228A610869C0
:102600000123184308610869C30701D0C003FAD544
:1026100008694008400008618A61704700127A002A
:1026200000000020FC00002000E000E081600021AC
:102630008180C2804180018070470021818041807B
:10264000018070478188C088814201D30120704792
:102650000020704780887047F0B5C4888388A41A2A
:10266000A34201DD0020F0BD00231D460DE00488DB
:10267000C688B44200D3058007888668CC5CF455D0
:102680000488641C5B1C04809BB29342EFD3818856
:10269000891881800120F0BD70B58388934200D8ED
:1026A0001A4600231D460DE04488C688B44200D374
:1026B000458046888468A45DCC544488641C5B1CB7
:1026C00044809BB29342EFD38188891A818010465F
:1026D00070BD0022426402644021C264816470477C
:1026E000026C8154016C491C0164402901D1002114
:1026F00001647047416C425C491C4164402901D12E
:102700000021416410467047426C016C881A914266
:1027100000DA4030704770B5044600F0A8F8A16CAC
:10272000814201DB0D1A01E00D1A40350023A0643F
:102730000EE0C118402903DB01191846103002E0F1
:10274000011918465030095C2046FFF7C9FF5B1C91
:10275000E06CAB42EDDB4019E064402801DB40381F
:10276000E06470BDF3B501214C0493B0204600F045
:10277000C7FF0121084600F0C3FF0121204600F0F9
:10278000D1FF0926F60601220321304600F0FBFDA9
:1027900001220221304600F0F6FD0C250220694698
:1027A000009508710320487100248C710120C871C4
:1027B000304600F07CFDE1204002304F12940D9035
:1027C0000E940F9410940DA91195384601F055F808
:1027D0002B4801F0F7FE2948802528300290102070
:1027E000099446020394059406940795049008946E
:1027F0000A9402A90B960C94214801F015FF204879
:10280000143001F0DFFE1D4805A924300290139812
:1028100003901498049431C120200A901848089419
:10282000099402A90B960C94143001F0FDFE0122CC
:10283000C021384601F0D0F911480121143001F0CF
:102840001CFF01210E4801F018FF0121384601F05C
:1028500086F815B0F0BD0A4A13685B085B00136088
:10286000D06051601068012108431060704704482F
:1028700010B5143001F00DFF10BD00000044004001
:10288000440002401CB50121480400F039FF032038
:102890004002009001206946087188710022CA71C7
:1028A00048710920C00600F002FD1CBD1CB50120C6
:1028B0008002009001206946087188710020C8716B
:1028C000032048710920C00600F0F1FC1CBD1CB5B6
:1028D00001208002009000206946087101228A715F
:1028E000C871032048710920C00600F0E0FC1CBD3F
:1028F00070B5FFF7DBFF0125AD020920C006856139
:102900006C1084610520FFF73EFE7A4E358105206C
:10291000FFF739FE348170BD70B501247548A402FB
:10292000048160100925ED06A8610520FFF72BFE44
:10293000AC610520FFF727FE70BD70B5FFF7B6FF4D
:1029400001206C4C8002208145100920C006856161
:102950000520FFF718FE25810520FFF714FE70BD46
:1029600010B5FFF7A3FF012189020920C00681618C
:102970004C1084610520FFF706FE5E4804810520A7
:10298000FFF701FE10BD70B501200025800209246B
:10299000E406A0610520FFF7F6FD01267602A66198
:1029A0000520FFF7F0FDFFF792FF1420FFF7EBFD86
:1029B000208AFFF77BFF0520FFF7E5FD4D480681E4
:1029C0001920FFF7E0FD284670BDF8B5092700245F
:1029D000FF060126054676022806474801D5B8615C
:1029E00001E0444908816806050E0520FFF7CBFD8C
:1029F000BE610520FFF7C7FD3E4806810520FFF7B1
:102A0000C2FD641CE4B2082CE6D3F8BDF8B500247E
:102A1000FFF75DFF0126002576020927FF06BE614C
:102A20000520FFF7B0FD6006398A000E4905CC0F7E
:102A30000443304806810520FFF7A5FD6D1CEDB26B
:102A4000082DECD32046F8BD10B5FFF71BFFFFF7AC
:102A50004FFF0020FFF7B9FFFFF795FF0620FFF7B4
:102A6000B4FF10BD10B5FFF70DFFFFF741FF902039
:102A7000FFF7ABFFFFF787FF0120FFF7A6FFFFF788
:102A800082FFBE20FFF7A1FFFFF77DFF8320FFF746
:102A90009CFFFFF778FFFFF73FFF10BD10B504461E
:102AA000FFF726FF2046FFF790FFFFF76CFF00209F
:102AB000FFF78BFFFFF767FFFFF72EFFFFF718FF0A
:102AC000641CE0B2FFF781FFFFF75DFFFFF79EFF99
:102AD0000A4C2070FFF731FFFFF798FF6070FFF797
:102AE0002CFFFFF719FF207861780002401880B2B0
:102AF00010BD00002000004800040000000100207C
:102B00001FB50121480400F004FE15216846017339
:102B1000002444730121817303A800F055FEE248AC
:102B20007D21C900006802F09EFA01906846048089
:102B300004814480DD4C6946204601F001F9012101
:102B4000204601F07AFC01221146204601F064FC87
:102B50000121204601F065F91FBD024610B5D44899
:102B6000130002F062FB05040A141A200F00012969
:102B700001D0082104E0082106E0012903D0042146
:102B800000F0F5FB10BD042100F0F3FB10BD01299E
:102B900001D04021F4E74021F6E7012901D01021BE
:102BA000EEE71021F0E7012901D02021E8E72021FC
:102BB000EAE71CB57C2000900120694608710020DE
:102BC0008871C8710320BA4C4871204600F06FFB31
:102BD0000821204600F0CBFB0421204600F0C7FB73
:102BE0004021204600F0C3FB1021204600F0BFFB2F
:102BF0002021204600F0BBFB1CBD7CB50124240332
:102C0000012069460094087100208871C871032072
:102C100009254871ED06284600F049FB2146284663
:102C200000F0A7FB7CBD7CB50324A402012069460B
:102C30000094087100208871C87103209C4D487170
:102C4000284600F034FB2146284600F092FB7CBD6C
:102C50001CB50120C00300900021684601710121CC
:102C6000C1716946924800F022FB1CBD1CB53020A2
:102C700000900021684601710121C1710321417159
:102C800069468B4800F013FB1CBD7CB50124E403AE
:102C9000012069460094087100228A71C8710320DE
:102CA00009254871ED06284600F001FB214628461B
:102CB00000F05DFB7CBD1CB5FF20013000900020C2
:102CC000694608710920C00600F0F1FA1CBD1CB568
:102CD000012040030090002069460871744800F00C
:102CE000E6FA1CBD1CB50120009000206946087161
:102CF0000920C00600F0DBFA1CBDF0B585B0074620
:102D00001421684602F0ADF900253220FFF76FFC70
:102D100000246E469020FFF7C1FE610070524019FA
:102D200085B20520FFF74CFC641CE4B20A2CF1D3F9
:102D30000A21284602F097F9388005B0F0BDF0B5B9
:102D4000012193B0480400F0DBFC0121880400F06D
:102D5000D7FC022603216846069601770024C47733
:102D6000092006A9C00600F0A2FA012706A95048CA
:102D7000069700F09CFA0121480200F0CAFC0121EC
:102D8000084600F0BDFC4B4D284601F043FF4A4881
:102D900001F018FC474809A940300890474851C144
:102DA000802046000D90C0000F90202010900C94C1
:102DB000000211900E9608A912943F4801F034FCCD
:102DC00001213D4801F059FC0221284602F001F89A
:102DD0000121284601F0F3FF684601F03CFF6846F8
:102DE00000940771042005900294694604942846D3
:102DF00001F01EFF07220221284601F099FF072259
:102E00003146284601F094FF284601F0B4FF012125
:102E1000284601F028FF2A4C2846214601F0E9FF08
:102E20000028F9D0284601F0C2FF13B0F0BD10B55C
:102E300023200121400400F063FCFFF753FFFFF75C
:102E40003AFFFFF744FFFFF711FFFFF71EFFFFF701
:102E5000D4FEFFF7AEFEFFF7E6FEFFF7F9FEFFF741
:102E60006EFFFFF7FFFD10BD10B509200121C00660
:102E700000F06BFA10BD01207047704701207047C9
:102E800070470120704770471CB50121880400F08D
:102E900037FC01200022694600900A71C87104487D
:102EA00000F005FA1CBD00000000002000440140B5
:102EB00000040048002401400800024002010020F4
:102EC00001000001F0B58DB0A1480690A149684607
:102ED000818200248483A04FC48205A9384600F073
:102EE0002FFF05A99D4800F02BFF05A99C4800F085
:102EF00027FF05A99B4800F023FF05A99A4800F089
:102F00001FFFBD1568468584C48404854485012659
:102F1000868508A9914800F08EFF08A9914800F025
:102F20008AFF08A9904800F086FF6021684601806A
:102F3000468002948481C481058244826946384671
:102F400000F09FFF0821384601F0E2F86946844806
:102F500000F097FF0821824801F0DAF869467F48BF
:102F600000F08FFF08217D4801F0D2F869467D48C6
:102F700001F029F808217B4801F0DDF869467A481C
:102F800000F07FFF0821784801F0C2F8012138469F
:102F900000F02EFF0121724800F02AFF01216F4846
:102FA00000F026FF01216F4800F022FF01216E484A
:102FB00000F01EFF0121384600F033FF0121684870
:102FC00000F02FFF0121654800F02BFF012165482B
:102FD00000F027FF0121644800F023FF0DB0F0BD91
:102FE00010B500F059F8FFF76DFF10BD70B516462B
:102FF0000546574A481E88B0904239D8642E37D8C3
:10300000501C02F030F8401E0690524968468182FA
:1030100000248483C48206986421401C704302F01B
:1030200022F8014660226846028001224280029115
:103030008481012D0BD0022D0CD0032D1AD0042D2C
:103040001BD0052D14D1C48105A9474C05E005A965
:10305000414C02E0C481414C05A9204600F070FEBD
:103060006946204600F00DFF0821204601F050F887
:1030700008B070BD05A93A4CEFE7C481394C05A9E9
:10308000204600F05DFE6946204600F09CFF0821C6
:10309000204601F050F8EBE7FEB523200121400463
:1030A00000F02EFB0121022000F03CFB01218804EE
:1030B00000F02FFB0121080200F034FB0121CC02BB
:1030C000204600F026FB0121080400F022FB022527
:1030D00069460D7100208871C87103204871092666
:1030E000F60601220621304600F04DF940200090FE
:1030F0006946304600F0DBF805220721304600F033
:1031000042F9802000906946304600F0D0F8174F11
:1031100000220121384600F036F96946384600950C
:1031200000F0C5F802220B21304600F02CF9694668
:103130003046009400F0BBF801220E21384600F022
:1031400022F9E00000906946384600F0B0F8FEBD74
:103150007FBB0000E703000000040040004801407E
:1031600000200040002C01400040014000040048C5
:103170002B4D2C4C0026666061680C204143481999
:103180004279012A09D1C3888268D21823689A42F9
:1031900003D28660C680685880476068401C6060C3
:1031A0000F28E9D3E7E730B50C2314461C4D5C43E8
:1031B000631959711A7128510020D880986030BD68
:1031C0000E2805D80C225043154A01218018417160
:1031D00070470E2805D80C225043114A0021801850
:1031E0004171704710B50E280ED80E4A13680C2294
:1031F00050430B4A84187D20C00048437D21C900FC
:10320000A36001F030FFE08010BD06480168491C52
:103210000160704710B5FFF773FC10BD70470000E8
:10322000B4090020080100200748804707480047EC
:10323000FEE7FEE7FEE7FEE7FEE7FEE70448054996
:10324000054A064B70470000F1010008C100000864
:10325000C80A0020C8100020C80C0020C80C00209C
:10326000092110B5C906884202D101214C0404E0AD
:103270004D49884209D101210402204600F05BFA41
:103280000021204600F057FA10BD4849884202D17B
:1032900001210402F1E74649884202D101210C05CF
:1032A000EBE744498842EFD101218C05E5E7F0B511
:1032B0000022012423460D6893401D409D422AD1DF
:1032C0000D79012D01D0022D12D1876855000326FA
:1032D000AE40B74387604E79AE4085682E43866026
:1032E00085889D43858085888B7993401D438580A3
:1032F000066855000323AB409E4306600E790768BD
:10330000AE403E430660C6689E43C660CB79AB4084
:10331000C5682B43C360521C102ACBD3F0BD26498D
:10332000016000210171022242718171C1717047F7
:10333000012208B512040A430092C261C1610099DA
:10334000C161C169C069009008BD0246128A0020AF
:103350000A4200D001207047008A70470246928AD4
:1033600000200A4200D001207047808A70478161A6
:10337000704701857047002A01D08161704701853F
:103380007047818270474B07DB0E9A40C90810B521
:1033900089000818016A0F249C40A1430162016A58
:1033A0001143016210BD00000004004800080048FD
:1033B000000C004800140048FFFF0000F7480168B7
:1033C0000122114301604168F54A114041600168E2
:1033D000F44A1140016001680122920491430160A6
:1033E00041683F22120491434160C16A0909090101
:1033F000C162016BFF22543291430163416B490862
:1034000049004163002181607047E44900228A70CD
:103410008870704703460020E0495A090CD0012A01
:103420000CD0022A0CD0496BDA06D20E012393404D
:103430000B4200D0012070470968F5E7096AF3E7FD
:10344000496AF1E718B500200524240200901120F4
:10345000FFF7E0FF0099491C0091A14201D000282C
:10346000F5D01120FFF7D6FF002800D0012018BDAD
:10347000CA4A1168F8239943C00008431060704796
:10348000C6490028086802D00122104301E0400824
:10349000400008607047C14A516BF8239943C0004F
:1034A000084350637047BD490028486B02D0012291
:1034B000104301E04008400048637047B7490422C8
:1034C0000028486B01D0904300E0104348637047E8
:1034D000B2490A6A520852000A620A6A04239A43ED
:1034E0000A620A6A02430A627047AC490A6A1823F0
:1034F0009A430A620A6A02430A627047A74900288F
:10350000486A02D00122104301E0400840004862AE
:10351000704710B5A14A53683D242404A343536067
:10352000536808430343536010BD01229B491206B0
:103530000028086801D0104300E0904308607047FD
:10354000964AD16A090909010143D16270470122F3
:103550009249D2040028086801D0104300E090434B
:10356000086070478D49C87170478C4A5168890856
:103570008900014351607047884840680C21084029
:103580007047864A5168F023994301435160704760
:10359000824A516807231B029943014351607047D7
:1035A0007E494A6801239B039A434A604A6883B272
:1035B0001A434A600A6B8B159A430A630A6B000C24
:1035C00002430A63704775490A6B40239A430A63B2
:1035D0000A6B02430A63704770490A6B10239A43CF
:1035E0000A630A6B02430A6370476C490A6B9208CC
:1035F00092000A630A6B02430A637047F8B5674D8D
:10360000044668680C21684E084003D0042801D0A5
:10361000082801D0266012E06968686801228902E2
:1036200012040F0F1040BF1C00281CD0E86A0107CD
:10363000090F3046491C01F016FD78432060686888
:103640005A4B0006000F1A5C20680146D1406160A9
:103650006A685205520F9A5CD140A1602A6BD2056C
:1036600005D4534A09E0534847432760E7E76A68AF
:10367000520401D44A0800E08A08E2602A6B53062B
:103680004D4A03D44C4B1233236100E022612B6B73
:10369000DB0601D4666100E060612B6B9B070FD0F5
:1036A000296B8907890F01290CD0286B8007800FAF
:1036B000022809D0286BC043800700D1A661F8BD5D
:1036C000A161F8BDA061F8BDA261F8BD33490A6AE5
:1036D00002430A62704731490028374A086A01D01C
:1036E000104300E090430862704701222B49120406
:1036F0000028086A01D0104300E090430862704738
:10370000264A0029516901D0014300E081435161FB
:103710007047224A0029916901D0014300E08143AA
:10372000916170471D4A0029D16901D0014300E031
:103730008143D1617047194A0029916A01D0014340
:1037400000E0814391627047144A0029D16801D09A
:10375000014300E08143D1607047104A002911699C
:1037600001D0014300E08143116170470B4A0029F9
:10377000517A01D0014300E08143517270470748FC
:10378000416A01221206114341627047034A014611
:10379000926800200A4200D00120704700100240C9
:1037A0000CB8FFF8FFFFF6FE00127A0010010020AF
:1037B000809FD50000093D0000800000014988720B
:1037C000EBE700000010024030B583780121027859
:1037D000002B15D09408174BA400E4182368920717
:1037E000D50EFF22AA40934342789207120EAA40B8
:1037F0001A4322600078C006C00E81400E4804E0E3
:10380000D006C00E81400C488030016030BD0B4AAC
:103810000029116901D0014300E081431161704723
:10382000042207490428086902D0904308617047C0
:103830001043FBE700E400E000E100E000ED00E001
:1038400000E000E0F74910B5884209D101218C035E
:103850002046FFF779FF00212046FFF775FF10BDD6
:10386000F1498842FBD101214C042046FFF775FF46
:1038700000212046FFF771FF10BD70B504460068B7
:1038800088B00D46400840002060616803200003B6
:103890008143A868084360602168E448EA68014001
:1038A000686810432A690A4310432060A068032116
:1038B0000902884369690143A1606846FFF79EFEDB
:1038C000D848844201D1069800E002982168090492
:1038D000296801D5490000E089001922504301F010
:1038E000C2FB0546642101F0BEFB060130096421DC
:1038F00048432168281A090407D5C00064213230E2
:1039000001F0B1FB4007400F06E0000164213230B6
:1039100001F0A9FB0007000F3043A08108B070BD83
:103920004B21C90101600021416081600C22C1600E
:1039300002614161704710B542680F231B029A4330
:1039400018C923430C6849680C432343134343605D
:1039500010BD0021016041608160C1607047002995
:10396000016802D00122114301E0490849000160C9
:103970007047002A026801D00A4300E08A430260CF
:1039800070470122D2030029016801D0114300E0F1
:103990009143016070470122D2020029816801D061
:1039A000114300E09143816070470122D204002955
:1039B000416801D0114300E091434160704701220A
:1039C00092040029416801D0114300E09143416015
:1039D0007047002A426801D00A4300E08A434260EF
:1039E00070470122D2030029416801D0114300E051
:1039F0009143416070470122D2050029416801D0FE
:103A0000114300E09143416070474269120E120673
:103A1000426142690A4342617047028A120A1202F5
:103A20000282028A0A430282704702220029016848
:103A300001D0114300E09143016070478268032385
:103A40001B059A43826082680A43826070470122A4
:103A500012050029416801D0114300E09143416003
:103A60007047426803235B059A43426042680A43F9
:103A700042607047C1690122D2039143C16170471E
:103A8000C905C90D01857047808CC005C00D704700
:103A900042681202120A4260426809060A43426002
:103AA0007047012252030029016801D0114300E050
:103AB00091430160704702680123DB029A43026070
:103AC00002680A4302607047426810239A434260CA
:103AD00042680A4342607047426820239A4342602A
:103AE00042680A43426070470122920300294168FC
:103AF00001D0114300E09143416070470822002942
:103B0000816801D0114300E0914381607047028ACF
:103B1000D2B20282028A09020A430282704720223C
:103B20000029816801D0114300E091438160704712
:103B300010220029816801D0114300E09143816087
:103B40007047826807235B049A4382608268490455
:103B50000A438260704742691202120A4261426956
:103B600009060A4342617047826804239A438260CF
:103B700082680A438260704702220029816801D06E
:103B8000114300E0914381607047012292030029B4
:103B9000816801D0114300E09143816070478268E1
:103BA0000123DB039A43826082680A438260704784
:103BB00002681F235B059A430260026849050A43B5
:103BC0000260704702681F231B049A430260026868
:103BD00009040A4302607047002A826801D00A4340
:103BE00000E08A4382607047826801235B039A4346
:103BF000826082680A438260704710B50B041C0E15
:103C000001238B40022C02D0032C02D002E0001DC5
:103C100000E008300168002A01D0194300E0994310
:103C2000016010BD0038014000440040F3E9FFFF8F
:103C3000002A028B01D00A4300E08A4302837047C6
:103C4000826801231B039A43826082680A43826070
:103C500070470246D26900200A4200D00120704716
:103C60000162704730B50A04130E01221446002584
:103C70008C40012B0ED0022B0ED08368090C234000
:103C8000C0698A401040002B02D0002800D00125D6
:103C9000284630BD0368F1E74368EFE70A0C0121CD
:103CA0009140016270470000F84910B5884202D186
:103CB0000121C41430E001218907884206D1012185
:103CC0000846FFF74AFD0021012008E0F04988423C
:103CD00008D101210220FFF740FD00210220FFF75B
:103CE0003CFD10BDEB49884206D101211020FFF7B1
:103CF00034FD00211020F2E7E749884207D18415FE
:103D000001212046FFF729FD00212046E7E7E3498E
:103D1000884209D101210C042046FFF715FD00213E
:103D20002046FFF711FD10BDDD49884202D1012177
:103D30004C04F1E7DB498842F5D101218C04EBE723
:103D400010B50288D14B984206D00124A407A042A6
:103D500002D0CF4CA04203D17024A2434C8822430E
:103D6000CC4CA04203D0D04C22400C89224302808C
:103D70004A68C2620A880285984208D0C74A9042BF
:103D800005D0C74A904202D0C64A904201D1897AF2
:103D900001860121818210BD0021C94341600021BB
:103DA0000180018141808172704701858282704764
:103DB000028870239A430A43028070474162704729
:103DC000C1627047406A7047008D70470222002927
:103DD000018801D0114300E0914301807047042223
:103DE0000029018801D0114300E091430180704710
:103DF00080220029018801D0114300E09143018015
:103E00007047028808239A43028002880A4302808E
:103E100070470288A44B1A40028002880A4302803D
:103E200070470029018802D00122114301E04908AE
:103E300049000180704710B50A884B88CC881A4326
:103E40008B8823431A430B891A434B8989891A4368
:103E50000A434030828010BD002101804180818072
:103E6000C180018141818181704740300029818872
:103E700003D00122D203114301E04904490C81809F
:103E8000704730B5028C520852000284038C82883D
:103E9000048B7025AC43A4080D88A400254302249C
:103EA000A3438C891C434B882343784CA04208D001
:103EB0007A4CA04205D07A4CA04202D0794CA04264
:103EC0000DD10824A343CC891C4304239C438B8835
:103ED0002343754C22400C8A14434A8A2243828031
:103EE000058389684163038430BD70B5028C10235B
:103EF0009A430284048C8288038B6C4D2B400D788E
:103F00002D062D0C1D4320239C438B891B051E0C65
:103F10004B8826431B051B0C5C4C3343A04215D138
:103F20008024A343CC892405240C1C4340239C43B8
:103F30008B881B051B0C23435D4C22400C8AA40478
:103F4000240C14434A8A9204120C22438280058373
:103F500089688163038470BD30B5028C554B1A406B
:103F60000284038C8288848B7025AC43A4080D885E
:103F7000A4002543504C23400C7B2406240C1C43F6
:103F80008B781B061B0C2343404CA04215D14B4C95
:103F900023408C7B2406240C1C43494B1C400B798A
:103FA0001B061B0C2343474C22400C8A2405240C7F
:103FB00014434A8A1205120C224382808583896841
:103FC000C163038430BD30B5028C3F4B1A4002847C
:103FD000048C8388828B354D2A400D782D062D0C5C
:103FE00015433A4A14400A7B1207120C22438C787C
:103FF0002407240C1443254A904205D1344A134027
:104000000A8A9205120C13438380858389680164B0
:10401000048430BD002101804180818081608181E4
:10402000C18101824182704730B5034618330124B3
:10403000058C8C40A5430584002910D008290ED09A
:10404000091F0804400CC018016807231B0399438B
:10405000016001681206120C1143016030BD48086E
:10406000C01801687023994301600168F4E7416357
:10407000704781637047C163704701647047028B6A
:1040800070239A430A43028370470000002C0140CA
:1040900000040040001000400020004000400140AB
:1040A0000044014000480140FFFC0000FF8C00007C
:1040B000FFF30000FFFE0000FFFD0000FFF700001F
:1040C000FFFB0000FFCF0000FFEF0000FFDF00005C
:1040D000FFBF0000028BF64B09021A401143018317
:1040E000D2E7828B70239A430A438283CCE7828B88
:1040F000EF4B09021A4011438183C5E700298188EB
:1041000002D00122114301E0490849008180BBE748
:10411000028B08239A430A430283B5E7028BE54BDF
:1041200009021A4011430183AEE7828B08239A43A8
:104130000A438283A8E7828BDE4B09021A401143AF
:104140008183A1E7028B04239A430A4302839BE7FE
:10415000028BD94B09021A401143018394E7828BE9
:1041600004239A430A4382838EE7828BD24B09024F
:104170001A401143818387E7028B80239A430A43C5
:10418000028381E7028B5204520C0902114301831E
:104190007AE7828B80239A430A43828374E7828B77
:1041A0005204520C0902114381836DE7028C0223F1
:1041B0009A430A43028467E7028C08239A430A431E
:1041C000028461E7028C20239A4309011143018490
:1041D0005AE7028C80239A4309011143018453E773
:1041E000028CB64B09021A40114301844CE7028C41
:1041F000B04B09021A401143018445E7028CB04BD1
:1042000009031A40114301843EE7028908239A43B7
:10421000028102890A43028136E710B50123048C2A
:104220008B409C430484038C8A401343038410BD59
:1042300010B50423048C8B409C430484038C8A4077
:104240001343038410BD04220029818801D0114347
:1042500000E09143818017E7828B9A4B1A4082835A
:10426000828B09020A4382830EE7828B0C239A43D6
:104270008283828B0A43828306E7028B914B1A402A
:104280000283028B09020A430283FDE6F0B5048C27
:104290001026B4430484058B048C8B4F1B03090147
:1042A0003D402B4312021A43A0239C430C4334434A
:1042B00002830484F0BD028B0C239A430283028B99
:1042C0000A430283E0E670B5048C64086400048449
:1042D000058B048C1B011343F3260A22B543944338
:1042E0002B430C4301210C430383048470BDF8B5B8
:1042F000044608884E888A880B890D4600281DD000
:10430000042824D00828208C2AD070490840208412
:10431000A08B278C31036C4E1202304002431803ED
:1043200010436B4AA08317400F43012109030F4339
:104330002784E9882046FFF78FFFF8BD31462046E5
:10434000FFF7C1FFE9882046FFF7B5FFF8BD31460A
:104350002046FFF79BFFE9882046FFF78EFFF8BD58
:104360005C4908402084A18B208C3702F3261B0176
:10437000B14313430B435849A3830840FF213843FB
:10438000013108432084E9882046FFF76EFFF8BD1D
:1043900000210180418001228280C180018173E679
:1043A000F8B50C464988002601250746002900D1AA
:1043B0000226A288012A00D102252088238900280C
:1043C000384610D0FFF762FFE1883846FFF755FF07
:1043D00023892A4631463846FFF775FFE18838467B
:1043E000FFF769FFF8BDFFF76EFFE1883846FFF77A
:1043F00062FF23892A4631463846FFF747FFE188A6
:104400003846FFF73AFFF8BD406B3DE6806B3BE670
:10441000C06B39E6006C37E6002A828901D00A4376
:1044200000E08A4382812FE681822DE60246128ACD
:1044300000200A4200D0012026E6C943018223E67B
:104440000246138A002092890B400A40002B02D0BA
:10445000002A00D0012017E6C943018214E6114367
:104460004030018110E6002A828901D00A4300E031
:104470008A43828108E608220029818801D01143FD
:1044800000E091438180FFE50189C908C9000181ED
:10449000FAE5028970239A430A430281F4E510B5D4
:1044A0000446FFF7F6FF208907210843208110BD4D
:1044B000FF8F0000FFF70000FFFB0000FFFD000082
:1044C000FFDF0000FFF30000FF0C0000FFEF000023
:1044D000FF5F0000FFFE0000FFF5000070B516460C
:1044E0000D46044660290CD001223146FFF7EBFE51
:1044F00029462046FFF7CDFF208907210843208168
:1045000070BD01223146FFF7C1FEF1E710B5048905
:104510001B021343E4B20B432343038110BD10B5C8
:104520000446FFF7F3FF2089C108C90007200143B3
:10453000702081430143218110BD10B50446FFF76F
:10454000E5FF2089012189030843208110BD82886D
:1045500070239A43828082880A43828094E502898C
:10456000D208D200028102890A4302818CE50289C5
:1045700080239A43028102890A43028184E570B54F
:104580000689048B058CF608F6000E430C4906815B
:104590000C40FF2102310C43AA218D431901114324
:1045A00029430483018470BD80220029818801D0C1
:1045B000114300E09143818066E54030018263E56C
:1045C000FCFC00000168454A1140016000210160C7
:1045D00041608160C1604249414A0839904202D13C
:1045E00048680F2205E03E4A1432904204D14868E0
:1045F000F022104348607047394A2832904203D174
:1046000048680F221202F4E7354A3C32904203D147
:1046100048680F221203ECE7314A50329042EAD147
:1046200048680F221204E4E730B503682D4A0C6A8B
:1046300013408A684D6922430C692C4322438C69DC
:104640002243CC6922434C6A22438C6A22431A4398
:104650000260CA6842600A6882604968C16030BD11
:104660000021016041608160C1600161416181613F
:10467000C16101624162816270470029016802D014
:104680000122114301E0154A114001607047416069
:104690007047406880B27047002A026801D00A4320
:1046A00000E08A430260704701460D4A0020083A44
:1046B00012680A4200D00120704709490839486051
:1046C00070470146064A0020083A12680A4200D0A4
:1046D000012070470249083948607047FEFF00001A
:1046E000080002400F80FFFF10B501210C07204693
:1046F000FFF733F800212046FFF72FF810BD3049AF
:104700008A150028086801D0104300E09043086033
:1047100070472B4A1168E0239943014311607047A9
:10472000274910220028086801D0104300E0904378
:1047300008607047224A0029516801D0014300E017
:104740008143516070471F490A6904239A430A61F3
:10475000012801D020BF704730BF7047184B1A683E
:104760009208920002431A60164803690422134318
:104770000361012904D020BF0169914301617047A1
:1047800030BFF9E70E48026804210A43026002685C
:1047900002231A4302600B4802690A43026130BFD8
:1047A0007047074A0146526800200A4200D00120A3
:1047B000704703490A68800002430A60704700009E
:1047C0000070004000ED00E0FE4A11684908490011
:1047D000014311607047FB4910220028086801D08E
:1047E000104300E0904308607047F64900200968D4
:1047F000890600D501207047F2480169090603D5F2
:10480000F1494160F14941607047EE4801698022F9
:10481000114301617047EB490420CA68D20701D0F7
:1048200001207047CA68D20601D502207047C968C6
:104830004907FBD50320704700B50346FFF7EBFFA0
:1048400002E0FFF7E8FF5B1E012803D0002B00D138
:10485000052000BD002BF4D1FAE7F0B50B27064682
:104860003F043846FFF7E8FF04280FD1D54C2069F4
:1048700002252843206166612069402108432061A8
:104880003846FFF7D9FF2169A9432161F0BD70B512
:104890000B252D042846FFF7CFFF04280ED1C94C65
:1048A00020690426304320612069402108432061AB
:1048B0002846FFF7C1FF2169B143216170BDF8B5FA
:1048C000064600200B273F0400900D463846FFF7B0
:1048D000B3FF042815D1BB4C206901210843206196
:1048E00035803846FFF7A8FF042806D1B61C280CEF
:1048F000009630803846FFF79FFF2169490849003C
:104900002161F8BDF0B50B2706463F040D46384639
:10491000FFF792FF04280CD1AA4C2069012108431B
:10492000206135803846FFF787FF21694908490033
:104930002161F0BDA3480169890503D4A2498160C2
:10494000A249816070479F48016942159143016106
:1049500070479C480169012252031143016170476D
:1049600098490020C9694907890F00D00120704784
:10497000F0B5AA25FFF7F4FF002800D000250B278B
:104980003F043846FFF758FF042813D18D4C2069A7
:1049900020263043206120694021084320613846A9
:1049A000FFF74AFF1021042805D0052802D022690C
:1049B0008A432261F0BD2069B043206120690E4620
:1049C00030432061824805803846FFF735FF0528CF
:1049D000F0D02169B1432161F0BDF0B5C043C6B24A
:1049E0000004050E0B200004FFF726FF04281BD14E
:1049F000744C2169102211432161754FFF2E06D09E
:104A00003E810B200004FFF717FF042806D1FF2D7D
:104A100006D07D810B200004FFF70EFF052803D090
:104A2000226910218A432261F0BDF0B50B260746AA
:104A300036043046FFF700FF04281ED1614C206980
:104A40002025284320612069402108432061304609
:104A5000FFF7F2FE04280BD12069A84320612069EA
:104A60001025284320615A4807803046FFF7E4FEAE
:104A7000052802D02169A9432161F0BDF0B50546A2
:104A80000B2094460F460004FFF7D6FE042814D1ED
:104A90004C4C20691026304320613D43604605435D
:104AA000F82005434A4845800B200004FFF7C4FE68
:104AB000052802D02169B1432161F0BDF0B50B2773
:104AC00005463F043846FFF7B7FE042810D13D4C99
:104AD0002069102630432061EF2005433C48458083
:104AE0003846FFF7A9FE052802D02169B1432161AC
:104AF000F0BDF0B50B2705463F043846FFF79CFE96
:104B0000042810D12F4C2069102630432061DF206B
:104B100005432F4845803846FFF78EFE052802D012
:104B20002169B1432161F0BDF0B50B2705463F0473
:104B30003846FFF781FE042810D1224C2069102648
:104B400030432061BF200543214845803846FFF7A8
:104B500073FE052802D02169B1432161F0BDF0B593
:104B60000B2705463F043846FFF766FE042810D1A0
:104B7000144C2069102630432061882005431448D6
:104B800045803846FFF758FE052802D02169B14319
:104B90002161F0BDF0B507460B200E460004FFF77B
:104BA0004BFE042817D1074C2069102528432061AB
:104BB0003E800B200004FFF73FFE05280BD0216943
:104BC000A94307E00020024023016745AB89EFCDF0
:104BD00000F8FF1F2161F0BD0D48C0690004000E00
:104BE00070470B48006A7047094A0029116901D0D3
:104BF000014300E0814311617047054A0146D268D4
:104C000000200A4200D0012070470149C860704767
:104C100000200240854910B5884208D14415012181
:104C20002046FEF791FD00212046FEF78DFD10BDC8
:104C300030B5C3687E4A8C6813400A680D792243F8
:104C4000CC686D032C4322430C69496922430A4313
:104C50001A43C26030BD0021016001718160C160F2
:104C60000161416170470029816801D0012200E0A3
:104C70000222114381607047002A026901D00A4371
:104C800000E08A43026170470122D2030029C16813
:104C900001D0114300E09143C160704701229203AB
:104CA0000029C16801D0114300E09143C160704701
:104CB0000122D2050029C16801D0114300E09143CF
:104CC000C16070470904114301627047C2681F2325
:104CD0009B069A430A43C26070470122920500294D
:104CE000C16801D0114300E09143C16070470122C7
:104CF0005049D2050028886801D0104300E0904355
:104D00008860704701224B4992050028886801D0CD
:104D1000104300E090438860704701224549120625
:104D20000028886801D0104300E0904388607047F5
:104D3000836A0B4383624261704701225203002958
:104D4000C16801D0114300E09143C1607047012266
:104D500012040029C16801D0114300E09143C160F1
:104D60007047012212030029C16801D0114300E0FD
:104D70009143C1607047826800210123DB071A4319
:104D800082600F231B038268491CD20FD20799420D
:104D900001D0002AF7D18168002901DB006C70473F
:104DA000002070478168102211438160704781683C
:104DB0000422114381607047006C80B27047002963
:104DC000C16802D00122114301E049084900C160D5
:104DD0007047C26802239A43C260C2680A43C26035
:104DE0007047002A426801D00A4300E08A434260CB
:104DF000704702460020CB0104D5926801231B06B0
:104E00009A4300E012680A4200D001207047016016
:104E1000704702465368002012680B400A4202D0D5
:104E2000002B00D001207047016070470024014032
:104E300003D2FFFF002701403248314901600021C1
:104E400041608160C16030494161704710B583792C
:104E50002C490268002B26D00B6893430B604A68EC
:104E600003689A434A60027952181368046823431E
:104E700013608A6803689A438A60CA6803689A4321
:104E8000CA604279102A05D051180A6800680243A6
:104E90000A6010BD8A6803681A438A60CA6800689D
:104EA0000243CA6010BD0079401801689143016057
:104EB00010BD0021016001710C22427181717047A7
:104EC00010490A6902430A6170470E4A0146526955
:104ED00000200A4200D0012070470A49486170470B
:104EE000084A01461368002052690B400A4202D06A
:104EF000002B00D001207047024948617047000034
:104F00000000940F00040140FFFF6B00244801687B
:104F10008907890F016000218160C16001614161E1
:104F2000816982151143816170471D4A11688908A2
:104F30008900014311607047194A0029116801D0A6
:104F4000014300E0814311607047154A0029116850
:104F500001D0014300E08143116070478A07130FBD
:104F600010B50F229A408C080D49A40061188C6876
:104F700094438C608A68984002438A6010BD084957
:104F80008A6902438A617047054900208969C90519
:104F900000D50120704702498A6902438A6170473F
:104FA00000000140F8B5042A2CD3830712D00B78F7
:104FB000491C0370401C521E83070BD00B78491C00
:104FC0000370401C521E830704D00B78491C0370E9
:104FD000401C521E8B079B0F05D0C91ADF002023EF
:104FE000DE1B08C90AE0FBF7BDF8F8BD1D4608C97D
:104FF000FD401C46B4402C4310C0121F042AF5D2B9
:10500000F308C91A521EF0D40B78491C0370401CD7
:10501000521EEAD40B78491C0370401C012AE4D4C8
:1050200009780170F8BD01E004C0091F0429FBD212
:105030008B0701D50280801CC90700D00270704721
:1050400000290BD0C30702D00270401C491E022960
:1050500004D3830702D50280801C891EE3E7002267
:10506000EEE70022DFE7002203098B422CD3030A7C
:105070008B4211D300239C464EE003460B433CD4A5
:10508000002243088B4231D303098B421CD3030A0D
:105090008B4201D394463FE0C3098B4201D3CB013D
:1050A000C01A524183098B4201D38B01C01A52416D
:1050B00043098B4201D34B01C01A524103098B4271
:1050C00001D30B01C01A5241C3088B4201D3CB005C
:1050D000C01A524183088B4201D38B00C01A52413F
:1050E00043088B4201D34B00C01A5241411A00D2EF
:1050F00001465241104670475DE0CA0F00D0494258
:10510000031000D34042534000229C4603098B42C7
:105110002DD3030A8B4212D3FC22890112BA030A4F
:105120008B420CD3890192118B4208D389019211D1
:105130008B4204D389013AD0921100E08909C30956
:105140008B4201D3CB01C01A524183098B4201D358
:105150008B01C01A524143098B4201D34B01C01A43
:10516000524103098B4201D30B01C01A5241C308BB
:105170008B4201D3CB00C01A524183088B4201D32A
:105180008B00C01A5241D9D243088B4201D34B0045
:10519000C01A5241411A00D20146634652415B1087
:1051A000104601D34042002B00D549427047634668
:1051B0005B1000D3404201B50020C046C04602BD8E
:1051C000704770477047754600F024F8AE460500FA
:1051D00069465346C008C000854618B020B5FEF7A2
:1051E0002DF860BC00274908B6460026C0C5C0C5DA
:1051F000C0C5C0C5C0C5C0C5C0C5C0C5403D4900CB
:105200008D46704710B50446C046C0462046FAF7A2
:10521000A2FF10BD00487047680A0020014918200D
:10522000ABBEFEE726000200704730B47446641E31
:105230002578641CAB4200D21D46635D5B00E31819
:1052400030BC1847C8021101643206010104120182
:1052500064320601010413016432060101041401E1
:10526000643C060101041501643C060101041601B9
:10527000643C06010104210164320601010422019B
:105280006432060101042301643206010104240191
:10529000643C060101042501643C06010104260169
:1052A000643C0601010431280164280A010002322D
:1052B0003C01642D0A01000233500164320A0100EE
:1052C0000234640164370A010002358C01643C0A2F
:1052D00001000236A00164410A0100021101644686
:1052E0000A010102120164460A0101021301644627
:1052F0000A010102140164500A01010215016450FF
:105300000A010102160164500A01010221016446EA
:105310000A010102220164460A01010223016446D6
:105320000A010102240164500A01010225016450AE
:105330000A010102260164500A01010231320164AE
:105340002D0A01010232410164320A010102335582
:105350000164370A010102346901643C0A01010257
:1053600035910164410A01010236A50164410A0137
:105370000102110164500A010103120164500A0183
:105380000103130164500A0101031401645A0A0164
:1053900001031501645A0A0101031601645A0A0146
:1053A0000103210164500A010103220164500A0132
:1053B0000103230164500A0101032401645A0A0114
:1053C00001032501645A0A0101032601645A0A01F6
:1053D000010331320164500A010103324401645077
:1053E0000A01010333580164500A010103346E01BC
:1053F000645A0A010103359601645A0A0101033611
:10540000AA01645A0A010103364500002C54000821
:105410000000002020010000040100084C55000895
:1054200020010020A80F000020010008006CDC0211
:105430000000000000000000010203040607080944
:105440000000000000010101010101010101010151
:105450000100010001000000000000000000000049
:10546000000000000000000000000000000000013B
:10547000000000000000000000000000000000002C
:10548000000000000000000000000000000000001C
:105490000000000000000000000000000500050002
:1054A000F401F40105000500F401F401000000001E
:1054B00000000000000000000000000000000000EC
:1054C00000000000000000000000000000000000DC
:1054D00000000000000000000000000000000000CC
:1054E00000000000000000000000000000000000BC
:1054F00000000000000000000000000000000000AC
:10550000000000000000000000000000000000009B
:10551000000000000000000000000000000000008B
:105520000301000100000000000000000000000076
:10553000000000000000000000000000000000006B
:0C5540000102030401020304060708092D
:040000050800322994
:00000001FF
