:020000040800F2
:1000000020190020013C0008A9010008AB010008EC
:1000100000000000000000000000000000000000E0
:10002000000000000000000000000000AD0100081A
:100030000000000000000000AF010008B10100084E
:10004000133C0008133C0008133C0008133C000854
:10005000133C0008771E0008133C0008BB1E000874
:10006000133C0008133C0008133C0008133C000834
:10007000133C0008133C0008133C0008133C000824
:10008000133C0008133C000800000000133C00086B
:10009000133C0008B3010008133C0008133C00089F
:1000A000133C0008133C0008133C0008133C0008F4
:1000B000133C000800000000133C00080000000092
:1000C00000F002F800F030F80CA030C8083824180E
:1000D0002D18A246671EAB4654465D46AC4201D180
:1000E00000F022F87E460F3E0FCCB6460126334282
:1000F00000D0FB1AA246AB4633431847B865000050
:10010000D86500000023002400250026103A01D302
:1001100078C1FBD8520700D330C100D50B607047BF
:100120001FB51FBD10B510BD06F06CF91146FFF7E5
:10013000F7FF00F025F806F084F903B4FFF7F2FFAB
:1001400003BC06F08BF9000070B505460C46164658
:1001500002E00FCC0FC5103E102EFAD2082E02D3AB
:1001600003CC03C5083E042E07D301CC01C5361FBE
:1001700003E021782970641C6D1C761EF9D270BDD5
:1001800010B502F07BFE03F031FD02F01DF901F025
:1001900078FF00220121034803F0F1FC03F0D4FCB6
:1001A000002010BD110300087047FEE7704770473C
:1001B000704710B5064C0121204604F02DFE0028A2
:1001C00005D003F00EFD0121204604F031FE10BDE4
:1001D0000044014010B54748016801221143016005
:1001E0004168454A114041600168444A114001603C
:1001F0000168012292049143016041683F22120488
:1002000091434160C16A09090901C162016BFF2282
:10021000543291430163416B490849004163002115
:10022000816000F02EF810BD70B5324D69680C2069
:1002300001403348334C03D0042901D0082901D0B0
:10024000206014E06A686968012392021B04160F9B
:100250001940B61C002907D0E96A0907090F491C93
:1002600006F020F87043EBE72748464326606868AD
:1002700024490006000F091D085C2168C140216067
:1002800070BD38B500201B4C009020680121090486
:10029000884320601D4801681022114301600168F5
:1002A000012211430160606860606068606060689E
:1002B0003F2109048843606060680521C904084340
:1002C0006060052003F03AFE20680121090608431A
:1002D000206020688001FCD5606880088000606034
:1002E000606802210843606060680007800F022890
:1002F000FAD138BD001002400CB8FFF8FFFFF6FE3F
:1003000000127A000000002000093D000020024099
:1003100010B503F0FCF903F0EAFAFF220532314987
:10032000314802F0F3FD4821304802F08BFE2F489F
:10033000583802F03EFE092201212D4803F01FFC2F
:100340000A2201212B4803F01AFC032201212A482A
:1003500003F015FC05220121284803F010FC0722B8
:100360000121274803F00BFC0C220121254803F052
:1003700006FC06220121244803F001FC022201218F
:10038000224803F0FCFB08220121214803F0F7FB7F
:10039000042201211F4803F0F2FB0B2201211E4819
:1003A00003F0EDFB002003F000FC10BD1B4910B56D
:1003B000081F03F065FB194CA41F207800280CD0FF
:1003C0006078002809D002F02FF802F00FF8002022
:1003D00060700121022003F032F83221012003F085
:1003E000EDFB10BD2F070020940400204C040020DA
:1003F0003F0700087B1C000807250008D90E0008ED
:10040000A11A0008FF0F00082B190008EF170008B9
:10041000D115000873100008171200081A000020F8
:10042000FB49012008707047F949002008707047A7
:10043000F748012141718171C1710172417281726C
:10044000002141758175C175C1870176417681763C
:10045000C176017741777047ED480021417581757C
:100460007047EB49002380318B62CB6201228039D7
:100470004A718A714A758A750B764B76032807D0C4
:10048000062808D0092802D10320C87608777047CB
:10049000CA760A7770470220F7E770B5DD4C06464A
:1004A00001218902204603F04EFC0121C9022046A9
:1004B00003F049FC0021084602F0C1FF00210120A1
:1004C00002F0BDFFD248007D012804D0022805D0EB
:1004D000032806D009E00021022004E000210320C7
:1004E00001E00021042002F0AAFFFF25F53528468F
:1004F00002F0BDFC00241FE00121022002F09FFF5A
:100500000121032002F09BFF0121042002F097FF4C
:10051000284602F0ACFC0021022002F090FF0021EE
:10052000032002F08CFF0021042002F088FF2846FF
:1005300002F09DFC641CE4B2B442DDD370BD70B522
:1005400000226421012003F0D8F900226421022056
:1005500003F0D3F900226421032003F0CEF9002236
:100560006421042003F0C9F97D267601002231467A
:10057000052003F0C2F90021084602F060FF0024C4
:10058000F5100121022002F05AFF0121032002F0A0
:1005900056FF0121042002F052FF3222314605208D
:1005A00003F0ABF9284602F092FC0021022002F091
:1005B00046FF0021032002F042FF0021042002F048
:1005C0003EFF00223146052003F097F9284602F04D
:1005D0007EFC641CE4B2032CD3D370BD70B58D4C8B
:1005E000064601218902204603F0ADFB0121C90224
:1005F000204603F0A8FB0021084602F020FF8448B3
:10060000007D012804D0022805D0032806D009E087
:100610000021022004E00021032001E00021042049
:1006200002F00DFFFF25F535284602F020FC0024DE
:100630000FE00121084602F002FF284602F017FCF5
:100640000021012002F0FBFE284602F010FC641C91
:10065000E4B2B442EDD370BD10B50022437801215D
:1006600004E0445CA218491C92B289B29942F8D3C2
:10067000110AC154C018427010BDF8B5664D6748E4
:1006800002F0B2FC624C002786B2203453E063488B
:1006900002F0A0FCE17A002942D0217B00292FD072
:1006A000617B6854607B401C6073A07B401E000629
:1006B000000EA0733DD100226978012003E02B5C7D
:1006C0009A1892B2401C8842F9DB685C03026818F1
:1006D0004078181890420BD1FF224F495F3288189A
:1006E00005F076FD4E4802F04AFB022002F0EFFBD7
:1006F000E772FF2127735F31474805F0D1FD18E00D
:10070000FF22411E5D32914208D2434A617B505420
:10071000A07301202073491C61730AE0E77208E0AE
:10072000FF2806D13C4908700121E17227736173EB
:10073000A773761EB6B2002EA9D10120F8BD10B560
:10074000FF24CCB02D342146684605F0A9FD35487C
:10075000007800280AD1314822466946A03002F0CC
:100760000BFC010002D0684602F0E5FC1C210920C8
:1007700003F024FA4CB010BD2549012088730020F5
:100780008031886170472249012000230A46487160
:10079000803293628871D362C871136308725363A5
:1007A00048729363887253620874D360C87213618D
:1007B000087313624873D36188739361C87353617C
:1007C000704770B5124A0B00803205F079FE0F13A6
:1007D000090E2F33383D134213474C51565B13001B
:1007E0000B49491D9160A33103E00949891D9160BE
:1007F000A631D16393680C491D7800240968012D46
:1008000045D00E1801258E4245D2002848D04CE034
:10081000200000200004004838010020F4030020DC
:1008200096020020F900002020010020FE4991607E
:10083000A931DEE7FC49491C9160AC31D9E7FA499E
:10084000891C9160AF31D4E7F749C91C91609A3196
:10085000CFE7F549093191607C31CAE7F249091DBA
:1008600091608531C5E7F049491D91609431D163AC
:10087000ED49891D91608F31D163EB49C91D9160AC
:100880008A31D163E849083191608531B1E7D06B95
:1008900001601C7009E0D66B3668891B814204D365
:1008A0001D70D06B0460012070BD002070BDDE4A59
:1008B000D21F11464031032806D0012811D1507FA4
:1008C00004280ED10C200BE0507F002805D0012811
:1008D00005D0022805D1092002E0032000E006200F
:1008E00008807047F3B58DB000200A900320069071
:1008F0000420039000200990052008900620029013
:10090000072007900E46C8480D9908250224793023
:10091000012904D0022909D003290ED114E0C249CB
:100920000E310164C91C4164C91C05E0BE490F3188
:100930000164C91C4164C91C8164BB487930006CE6
:100940000078012817D041E002210A910421069184
:10095000052103910621099107210891082102919F
:1009600009210791B0490A2510310164C91C0324EB
:100970004164C91CE0E7AC4F3078FF1F797F401E0F
:10098000884217DA00226421012002F0B6FF00221B
:100990006421022002F0B1FF00226421032002F052
:1009A000ACFF07207875B875F8750020F8763877B1
:1009B00078770BE0387800280FD0002264210320DC
:1009C00002F09BFF0020B877FFF732FD96487930A0
:1009D000006C0078022811D035E0934F06997937E2
:1009E000B86C491C007868438019425C611C415C0A
:1009F0000D9802F082FF396C022008700D980328D0
:100A000028D0894F7937B86C0078684381190398EA
:100A1000401C085C7D21C90048430D99FFF7D1FEB9
:100A2000002810D0796C0878401C0870396C0520BB
:100A30000870B86C0022007868438119601C095C5A
:100A40000D9802F05AFF784F7937386C00780428F7
:100A50005FD06EE0902002F091FC734F7937B96C53
:100A60000B91097869438A190A990492491C535CCD
:100A700079686E4A8C464B430021515E5A18824277
:100A800036D86246B4235A435118814212D9396C80
:100A9000032008700B99097869438A19611C515C1D
:100AA000002202F02AFF394601208039C871002057
:100AB0003863C8E7396C04200870002264210120E3
:100AC00002F01BFF00226421022002F016FF002228
:100AD0006421032002F011FF554F0121890238469D
:100AE00003F031F90121C902384603F02CF9AAE7D5
:100AF00003980499401C085C7D21C90048430D9966
:100B0000FFF75FFE00289ED0786C0178491C0170C9
:100B10008CE745490020C91F8877FFF789FC16201C
:100B200001F09FFC0520FFF7B8FC01F04DFC01F03F
:100B3000A8FA3D483C4F7930006C393700780328DB
:100B400049D138464030806C007868438119099853
:100B5000401C085C7D21C90048430D99FFF731FE18
:100B600000280CD03888401C388038464030416C12
:100B70000A78521C0A70006C0521017021E0902057
:100B800002F0FCFB2849B422793149680023514323
:100B9000264AD35EC91888421DD3234904207931DF
:100BA000096C002208706421012002F0A6FE0022D8
:100BB0006421022002F0A1FE00226421032002F041
:100BC0009CFE012189021A4803F0BDF80121C902E7
:100BD000174803F0B8F814487930006C00780528FD
:100BE00039D111487930416C806C0A7800786843BB
:100BF00081190898401C085C82422DD10D99032967
:100C000022D1094919318872FFF751FE388803282B
:100C100005D0062803D0092801D00C2814D10022C1
:100C20006421012006E000002700002014010020BC
:100C30000004004802F061FE00226421022002F05C
:100C40005CFE3888FFF708FCFE480621026C117034
:100C5000406C0021017049E00D980328029818D0DB
:100C6000401C085C7D21C90048430D99FFF7A9FD90
:100C700000283BD0F34F0699B86C491C0078641CDF
:100C800068438019425C015D0D9802F036FE022037
:100C900099E0401C085C7D21C90048430D99FFF78D
:100CA00090FD002818D03888042803D0072801D0E8
:100CB0000A2801D1FFF7D5FBE249002080390870EE
:100CC000E14F01218902384603F03FF80121C902B2
:100CD000384603F03AF8CDE701218902DA4803F0FB
:100CE00032F80121C902D84803F02DF8D548016C2B
:100CF0000978062969D10D9903292ED0398803294D
:100D00004ED006294CD009294AD00C2948D0074694
:100D1000806C0078684381190798401C085C7D212D
:100D2000C90048430D99FFF74CFD00284DD0C54937
:100D30000820803988770020796C641C0870B86CB2
:100D40000022007868438019015D0D9802F0D5FDFE
:100D5000B96C0878401C087034E0BA48806C0078A0
:100D6000684381190798401C085C7D21C9004843ED
:100D70000D99FFF726FD002827D0B24F0020803FB5
:100D8000387001218902B04802F0DFFF0121C90259
:100D9000AD4802F0DAFF0820B87700208037CBE7B3
:100DA000A84A0821803A91770746406C00210170DB
:100DB000B86C641C0078002268438019015D0D98AE
:100DC00002F09BFD0120396C08700FB0F0BD10B52A
:100DD00000229E4BFF21D9319C5C8454521C8A42D4
:100DE000FADB014676229A4801F06DFC10BD0278CC
:100DF0000021521EFF2A38D20022491C89B2431812
:100E00009B78491C89B2012B2FD80B46603B3C2BA9
:100E100005D99C3B3C2B02D99C3B3C2B01D8491C5F
:100E200089B243189B78491C89B2002B1DD0431806
:100E30009B785B1F602B18D2491C89B243189B78A2
:100E4000491C89B2002B10D00B46603B3C2B05D9C6
:100E50009C3B3C2B02D99C3B3C2B01D8491C89B2C2
:100E600043189B785B1EFA2B00D3B0E7C91C521CB9
:100E700089B2362AC1DB7047F7B5002001990124F9
:100E8000491C844603468E46012A04D0022A02D019
:100E9000032A02D002E0082000E00A2005465D4354
:100EA0007146695C012910D1002108E0019E761885
:100EB000AF5D009E3755641C491CE4B2C9B2814243
:100EC000F4D36146491CC9B28C465B1C062BDBDBA4
:100ED000009960460870FEBDF8B55A4C0121603C8F
:100EE00022782546C903584800260127203D002ABC
:100EF00043D002F016FF00284AD1E07B052872D0CB
:100F0000401CE0730AE0207C052805D1E97F002918
:100F100002D1E178002969D0401C207414210520F9
:100F200002F04CFEF8BD02202875002102F087FA7D
:100F30000121032013E0022802D0032811D107E089
:100F400003202875002102F07AFA0121042006E02E
:100F50002F750021042002F072FA0121022002F014
:100F60006EFAFFF765FAAE7700226421012002F0E5
:100F7000C4FC0022642102201DE0364BA2781B78BD
:100F80001A43EB7F1A43C9D102F0CBFE002804D0EC
:100F9000E673687C0128B6D0C0E70E212E48FFF723
:100FA00010FC0028A9D0EF772771FFF741FAAE7740
:100FB00000226421012002F0A0FC00226421022012
:100FC00002F09BFC00226421032002F096FC002228
:100FD0006421042002F091FC00226421052002F02B
:100FE0008CFC9BE7FFE76F74E67397E71548EF7398
:100FF000466126746E74287D01289CD193E7F8B56C
:1010000016480078002833D00E4D803D28780128FE
:101010002AD186020C4C3146204602F094FE77001D
:101020003946204602F08FFE7D2008214001FFF75F
:10103000C8FB002818D03146204602F086FE39460B
:1010400020460DE0A000002000040048DA640008FB
:1010500000780008F900002088130000FA00002042
:1010600002F073FE0020287032210C2002F0A6FD51
:10107000F8BDF8B5FD4E042730780125FC4C00285A
:1010800035D100226421012002F037FC00226421C6
:10109000022002F032FC00226421032002F02DFC29
:1010A00000226421042002F028FC7D210022490155
:1010B000052002F022FC322001F009FF0920012165
:1010C000C00602F02EFE012801D0357012E0377004
:1010D0006570E848A570017800291CD10570E649C3
:1010E00000200870E24920398877FFF7A1F93078AD
:1010F000012803D101F068F900F0C3FF307802281D
:1011000003D101F061F900F0BCFF6078012802D042
:1011100004282DD030E00926F6062021304602F0C2
:1011200000FE002805D11021304602F0FAFD01280A
:1011300006D02021304602F0F4FD012803D008E05B
:10114000022060701BE01021304602F0EAFD00280A
:1011500006D02021304602F0E4FD012803D006E04D
:101160000320607047E01021304602F0DAFD67701E
:1011700001F02AF900F085FF6078022838D10021BB
:10118000012002F05CF90021022002F058F9002150
:10119000032002F054F90021042002F050F9617C90
:1011A0007D20C000002919D00C21FFF70AFB002880
:1011B0001ED00121002002F042F9002009256074B0
:1011C000ED062021284602F0ACFD012810D11021A7
:1011D000284602F0A6FD0028C2D009E00C21FFF746
:1011E000F0FA002804D00021084602F028F96574BE
:1011F0006078032803D10121002002F020F9142196
:10120000042002F0DBFCF8BD884201D9401A00E05E
:10121000081A80B27047F8B5954C01252079974F90
:10122000002601282FD120462038C17800790143BB
:1012300059D1022002F003F90021032002F0FFF847
:101240000021042002F0FBF800226421012002F0BA
:1012500054FB00226421022002F04FFB0022642193
:10126000032002F04AFB00226421042002F045FB27
:101270007D2100224901052002F03FFB607D0A2804
:1012800007D0401C60752079022810D0032823D095
:1012900029E002206675207141026571384602F02E
:1012A00052FD0121C902384602F04DFDEBE7E57021
:1012B000E07D14217D2241435201914217D1012149
:1012C000E6758902384602F040FD0121C902384620
:1012D00002F03BFD0320207104202071462264218E
:1012E000032002F00AFBE078012802D031E0401C24
:1012F000E0756079012808D1A07D282809D0401C1C
:10130000A0750121022002F09AF86079022805D028
:101310000DE00220A67560710021F3E7A07D28286A
:1013200009D0401CA0750121032002F088F86079E3
:10133000032805D00DE00320A67560710021F3E7B6
:10134000A07D28280BD0401CA0750121042002F0AC
:1013500076F8474D20792035042804D033E0A6756F
:1013600065710021F2E7688B14217D2241439201CF
:10137000914208D100226421032002F0BEFA052028
:1013800020716E8322E0401C80B26883052803D15F
:10139000902001F0F3FFE883688B0146FF39903914
:1013A00011D1902001F0EAFF2884E98BFFF72CFF90
:1013B000962808D200226421032002F09EFA07201A
:1013C00020716E8382E02079052839D1A88B142101
:1013D0002B4A414391420DD10121AE838902384607
:1013E00002F0B1FC0121C902384602F0ACFC062033
:1013F000207128E0401C80B2A883012803D19020EE
:1014000001F0BCFF6884A88B1E49884218D1902047
:1014100001F0B4FFA8840146688CFFF7F5FEFF21B8
:101420002D3188420CD9072020710121AE83890219
:10143000384602F088FC0121C902384602F083FCDC
:10144000207906282ED1E07D14210F4A4143914294
:101450001CD101218902384602F077FC0121C90222
:10146000384602F072FCE6751CE00000F80000202F
:1014700040000020FA000020F9000020000400488D
:1014800030750000D205000088130000401CC0B277
:10149000E075012803D1902001F070FFE884E07D21
:1014A000C82803D02079072810D04FE0902001F001
:1014B00065FF28850146E88CFFF7A6FE642823D245
:1014C000182000F0CEFF07202071E6750021E6709D
:1014D000084601F0B4FF0021012001F0B0FF617E59
:1014E000052917D0A07E142203465343FF222D3234
:1014F00093422FD1E07E14234343934212D1491CDF
:101500006176A676E67621E0172000F0AAFF082093
:1015100020712FE0F9486676C67700F055FF00F09D
:10152000B0FD13E0401CE0760121022001F087FFAE
:101530000121032001F083FF0121042001F07FFF3E
:1015400050227D214901052002F0D7F92079082891
:1015500010D038E0401CA0760021022001F06FFF7F
:101560000021032001F06BFF0021042001F067FF40
:101570000022E6E7E670207F1421E14A41439142D0
:1015800013D1DE480021C6772677022001F057FFED
:101590000021032001F053FF0021042001F04FFF40
:1015A00000F012FF00F06DFD0DE0401C20770121DE
:1015B000022001F044FF0121032001F040FF01213E
:1015C000042001F03CFF14210B2002F0F7FAF8BDD3
:1015D000F8B5CA4CC94D2034A0792E4640360028B3
:1015E00038D1E878297908437ED0308B042835D06B
:1015F000401C308300226421012002F07EF9002289
:101600006421022002F079F900226421032002F013
:1016100074F900226421042002F06FF97D277F0114
:1016200000223946052002F068F9002239460520DB
:1016300002F063F90021084601F001FF00210220B9
:1016400001F0FDFE0021032001F0F9FE002104203D
:1016500001F0F5FEA07901281ED04EE00020308375
:10166000207A022815D00121022001F0E8FE012194
:10167000032001F0E4FE0121042001F0E0FE012737
:101680007D21A77132224901052002F036F9E77168
:10169000E0E701210020F0E7207A012802D00228AB
:1016A0000AD104E095484630E867001F03E09348FC
:1016B0004E30E867001F6867E86F0A210088FFF76F
:1016C00080F8002819D0207A022813D000210220A7
:1016D00001F0B5FE0021032001F0B1FE002104203D
:1016E00001F0ADFE022000E02BE0A071B08A401CAA
:1016F000B08205E000210846F2E7A079022820D157
:10170000686FB18A0088884203D10020B08203202C
:1017100016E0E86F0A210088FFF753F8002810D080
:10172000207A022813D00121022001F088FE012135
:10173000032001F084FE0121042001F080FE01203D
:10174000A0716E4FE0798037012803D025E0012198
:101750000020F2E7207A012802D002280AD104E012
:10176000664848303860001F03E0644850303860F5
:10177000001FA86738680B210088FFF722F80028AF
:101780000BD07D2100224901052002F0B6F802208D
:10179000E071F08A401CF08202E0E079022817D163
:1017A000A86FF18A0088884203D10020F0820320CC
:1017B0000DE038680B210088FFF703F8002807D0F8
:1017C0007D2132224901052002F097F80120E071C5
:1017D000A079032806D1E079032803D100F0F4FDB5
:1017E00000F04FFC3221082002F0E8F9F8BDF8B50E
:1017F0004448424C0188408820340090A07800285A
:101800002CD14148002500783C4E012700282AD0E1
:10181000207E2246603214284DD0401C2076D06CA9
:101820004018D06439490098884217D2A07C01281A
:1018300056D000226421012002F05FF800226421CA
:10184000022002F05AF800226421032002F055F829
:101850007575B575F575A07C401CA0743221022009
:1018600002F0ACF9F8BD2A48814233D2B5700022AB
:101870006421012002F041F800226421022002F0DC
:101880003CF800226421032002F037F80022642192
:10189000042002F032F87D2100224901052002F0E7
:1018A0002CF80520FEF79AFE1A48077000F08CFD10
:1018B00000F0E7FBB6E7114814218030C06C04F05B
:1018C000F1FC0E498031C864114980B2893925760E
:1018D000884201D3B770A5E7152000F0C2FDC5E727
:1018E000192000F0BEFDA5740520FEF7D6FD0948BD
:1018F000077000F069FD00F0C4FBAFE72000002096
:101900008813000010010020FA000020B603000038
:1019100055090000F90000200021E0480122C166BD
:1019200001678274C17441707047F8B5DC48007873
:10193000002877D0D94E00252036B078D74C002823
:1019400001D0E56669E0D7480078002866D1707A52
:10195000012700285AD0A07C002817D0E07C00285E
:1019600014D0F07C192824D050226421012001F0E9
:10197000C4FF50226421022001F0BFFF50226421E5
:10198000022001F0BAFFF07C401CF07401214903F1
:10199000C54802F0C6F900281ED0E566206F142164
:1019A000C24A4143914243D12567E07F002824D0B9
:1019B00034E0F574A57400226421012001F09DFF3C
:1019C00000226421022001F098FF002264210320FC
:1019D00001F093FF3770D9E7E06E14217D22414377
:1019E0001201914206D1E5662567AE486770057021
:1019F000E77413E0401CE06610E06570142000F00E
:101A000030FDE770A7483772077007E001214903EE
:101A1000A54802F086F9012805D025671421062083
:101A200002F0CCF8F8BD206F14214143C82902D040
:101A3000401C2067F2E7002264210120256701F0A5
:101A40005CFF00226421022001F057FF0022642184
:101A5000032001F052FF01218902934802F073F93B
:101A60000121C902904802F06EF93570A577FEF7A2
:101A7000DFFC7772D2E770B5884D002480358C4E3C
:101A800001E00A2C09D0304600F044FF641C686075
:101A90000A38E4B25B28F4D270BD1420686070BDCF
:101AA000F0B57E4DF7B02035287801285CD1A878B4
:101AB0000028FBD1794CE07F0028F7D1207800285E
:101AC000F4D1A07F784F002823D17626B100684654
:101AD00004F0E6FB32466946764800F01DFFB2008E
:101AE00069467548FEF730FB7348FFF780F906201A
:101AF000A077FFF7C0FF01218902384602F023F9E1
:101B00000121C902384602F01EF900206872FFF771
:101B100003FFA07F684E06281AD170787D21C90086
:101B200048430621FEF74DFE002811D030780121F0
:101B3000401E28750720A0778902384602F005F973
:101B40000121C902384602F000F95C4801F045FD68
:101B5000A07F02287ED00127012806D007280BD0BD
:101B6000042841D008285ED074E0287D002819D0D0
:101B70000721A177401E28753D21514804F090FBB4
:101B80004F483D213D3004F089FB4D483D217A30DE
:101B900004F084FB207D012809D002280BD0032803
:101BA0000FD137E00220A0773078287552E09C22D0
:101BB000B11C684603E040499C229E31684604F00F
:101BC00007FB012269463E48FFF756F93C480222CE
:101BD0003D300CA9FFF750F9394803227A3018A993
:101BE000FFF74AF90420A077902001F0C7FB2B49AA
:101BF000002340314882403149688A0089182F4AC1
:101C0000D35EC91881420AD30820A0776775A775EB
:101C1000E77511E02A499C229E396846CFE7277074
:101C20000420A07716E0607D072805D1A07D072855
:101C300002D1E07D072813D021490120FEF752FE92
:101C40001F4902203D31FEF74DFE1D4903207A3128
:101C5000FEF748FE0A21072001F0B0FF77B0F0BD83
:101C6000A777FEF7E5FB287D0028F3D1122000F0CE
:101C7000F8FB277102202872ECE710B509480078BC
:101C8000002805D10C48AC3801F0B5F9FEF7F5FC99
:101C900064210A2001F092FF10BD00002000002006
:101CA000FA000020F900002000040048204E000047
:101CB0000068000800780008A0040020140100203B
:101CC00078060020F0B5232085B00121400402F001
:101CD00003FA0121480402F011FA0121084602F03A
:101CE00004FAFF2601360025684602960573C5737F
:101CF00002274773092002A9C00601F0C4FF01248E
:101D0000092002A9C006029401F0BDFF08210020AD
:101D100003F010FE6846009605710C214171847134
:101D200003F080FD0021084603F004FE1021684600
:101D30000094417103F076FD0721684601744474F4
:101D4000847404A802F02CFA6846477405210174D3
:101D500004A802F025FA05B0F0BD70B50926F60614
:101D60000121304601F0DDFF012806D00121304677
:101D700001F0D7FF00283ED079E000226421012045
:101D800001F0BBFD00226421022001F0B6FD00221B
:101D90006421032001F0B1FD00226421042001F040
:101DA000ACFD00226421052001F0A7FD00210220E6
:101DB00001F045FB0021032001F041FB002104203C
:101DC00001F03DFB0021084601F039FB00252C46BF
:101DD000052001F07CF80121304601F0A2FF012826
:101DE00001D16D1CEDB2641CE4B2052CF0D3052DBD
:101DF0003DD1002070BD00226421012001F07DFD55
:101E000000226421022001F078FD002264210320D9
:101E100001F073FD00226421042001F06EFD002218
:101E20006421052001F069FD0021022001F007FB7B
:101E30000021032001F003FB0021042001F0FFFA40
:101E40000021084601F0FBFA00252C46052001F090
:101E50003EF80121304601F064FF002801D16D1CDD
:101E6000EDB2641CE4B2052CF0D3052D01D00320A3
:101E700070BD022070BD70B5FE48007801281BD0EF
:101E8000012003F019FD002813D00925ED060121DA
:101E9000284601F046FFF84C012806D001212846CB
:101EA00001F03FFF002802D003E0002000E0022004
:101EB0002070012003F0FDFC70BD10B5ED480078E6
:101EC000012815D0FF240134204603F0F5FC00283A
:101ED0000BD0E9490878032805D1E84800780028A4
:101EE00001D10220C87000200871204603F0E1FCF7
:101EF00010BD70B5E24800240470E248012504805A
:101F0000E1480570FEF73FFCFEF792FADF48E14931
:101F10000470DF480470D84884704570C5700C7038
:101F200003210170D3480470DB480470DB4804705F
:101F3000DB480470DB480470DB480460DB48046065
:101F4000DB480570DB480570DB480570DB48057031
:101F5000DB480570DB480480DB480480DB480480F4
:101F6000DB480570DB480470DB480460DB48046034
:101F7000DB480460DB480460DB480460DB48046045
:101F8000DB480460DB480460DB480460DB48046035
:101F9000DB480460DB480570DB480460DB480480F4
:101FA000DB480470DB480470B4480470DA480470FD
:101FB000DA480470DA480470DA480470DA480470C9
:101FC000DA480470DA480470DA480470DA480470B9
:101FD000DA480470DA480470DA480470DA480470A9
:101FE000DA480470DA480470DA480470DA480460A9
:101FF000DA480480DA480480DA480480DA48048049
:10200000DA480480DA480480DA480470DA48047058
:10201000DA480470DA48047070BDF8B5002108464B
:1020200001F00DFA0021012001F009FA002102203F
:1020300001F005FA0021032001F001FA002104203B
:1020400001F0FDF90126CF4DB6023146284601F0D8
:102050007AFE7100284601F076FE00247D27FF00FD
:10206000384600F034FF641CE4B2022CF8D3314649
:10207000284601F06AFE0121C902284601F065FEEA
:10208000F8BD10B5C0490020086000F0F7FE01F06F
:10209000ADFDFEF79FF8FEF73BF910BDF0B523202C
:1020A000A3B00121400402F017F87C200090032522
:1020B000684645710126067100248471C67169461F
:1020C000B04801F0E0FD7C21AE4801F03CFE022763
:1020D00018A81C970575C47509201CA9C00601F035
:1020E000D2FD18A81E960477C4771EA9A54801F052
:1020F000CAFD0021A54802F0ACFF0021A44803F06E
:102100004AFB0021A24803F09AFAA048002150306F
:1021100002F09FFF9D4800213C3002F09AFF002111
:102120009C4802F008F90C200E9008A84577047727
:10213000C77709200EA9C00601F0A5FD680202902C
:102140006846457306738473C673092002A9C006E6
:1021500001F099FD09206902C00601F0F4FD300389
:1021600004906846457506758475C675092004A9EE
:10217000C00601F088FD09203103C00601F0E3FD2F
:10218000F00306906846457706778477C77709207D
:1021900006A9C00601F077FD0920F103C00601F091
:1021A000D4FD23208001089008A845710671847130
:1021B000C77101460920C00601F065FD23210920F1
:1021C0008901C00601F0C1FD7348109010A8457147
:1021D0000471C77101466B4801F055FD6E496948AD
:1021E00001F0B3FD30200A9008A845730473C4734E
:1021F00009200AA9C00601F046FD20A820964571D5
:10220000047108A8C773092020A9C00601F03BFD8E
:10221000A802129010A845730473C77312A95948F5
:1022200001F031FD30020C9008A8457506758475E3
:10223000C67509200CA9C00601F025FD0920310250
:10224000C00601F080FD05204003149010A84575DC
:102250000475C47514A94B4801F015FD2720C00171
:10226000169010A845770477C77716A9454801F05E
:102270000AFD93E020000020F80000203F0000202D
:102280004A00002060000020490000203E0000209D
:102290002A00002041000020210000202200002010
:1022A00023000020240000208C000020900000204B
:1022B0002B0000202C0000202D0000202E000020EC
:1022C00030000020740000207600002078000020FC
:1022D0003200002033000020AC000020B0000020BD
:1022E000B8000020BC000020C0000020C400002076
:1022F000C8000020CC000020D0000020D400002026
:10230000D80000202F000020B4000020F0000020A2
:10231000F200002040000020F6000020F70000201E
:102320004200002048000020460000204700002016
:102330004400002045000020430000203100002020
:1023400055000020560000207A0000207C0000206C
:102350005700002058000020EC0000207E000020E4
:1023600080000020820000208400002086000020E1
:1023700088000020590000205A0000205B00002047
:102380005C000020000400482001002008000240FA
:1023900000240140004400400240000007204003A8
:1023A000189018A845710471C77101469F4801F043
:1023B0006AFC18A81A9545730473C7731AA99C4838
:1023C00001F061FC23B0F0BD10B5FFF792FDFFF7FF
:1023D00079FC00F0A9FFFFF761FE0121080701F079
:1023E0008DFE0121084602F0A5FE10BD70B5914D8D
:1023F000914C2868A04216D002F0EAFE352003F086
:10240000F0F8284602F015FF2146284602F043FF67
:102410002146281D02F03FFF86480021083002F0C7
:102420003AFF02F0DEFE70BDFEB50020814C009048
:102430000190029003226946204600F06DFA2514AF
:10244000A6142946FF227D4803F003FF05E032462B
:102450007A49204600F0F2FA64190198A042F6D2B7
:10246000FEBDF0B585B007460020029003900490B1
:10247000032202A96F4800F04FFA7148039C84427E
:1024800040D28614B5002946FF226C4803F0E1FED5
:1024900032466A49204600F03FFA01A9684601F039
:1024A000EFFA6846C0780004C11968464078000613
:1024B0000818049909064A0D6049885068468378CF
:1024C0008079511800061B18684640790704684651
:1024D000007900023818181848600498401C0490CD
:1024E0000006000E04D1544802900398401903904E
:1024F000032202A94F4800F0A1FA32464F49204674
:1025000000F09CFA27E470B54E4C207800287DD06E
:1025100004287BD0E0780125022832D1C1010920AE
:10252000C00601F0FEFB0021002804D06171A078F4
:1025300000281BD025E06079322802D0401C607151
:102540001FE06171A078002808D000223E48A270E8
:10255000002A05D061700422E27003E00122F5E751
:102560006570E1700170FDF763FF0AE020780028D4
:1025700007D0BFF34F8F36493448C860BFF34F8F41
:10258000FEE7E078042802D0002820D048E0314857
:102590000078002844D01120FFF763FF01210020BC
:1025A00000F04DFF2C480078012804D0022805D007
:1025B000032806D009E00121022004E001210320C4
:1025C00001E00121042000F03AFFE57028E000223C
:1025D0006421012001F091F900226421022001F020
:1025E0008CF900226421032001F087F90022642184
:1025F000012001F082F900226421022001F07DF91E
:1026000000226421032001F078F900E00CE013209F
:10261000FFF727FFFFF701FDFFF7D6FEFFF731FDBC
:102620001421032001F0CAFA70BD00000008004820
:102630000014004800880008009000080C0A0020E0
:1026400000000208F80000203E0000200400FA0507
:1026500000ED00E0220000203400002000B5D9B0D9
:10266000FF2269460A7008224A7000228A700322FB
:10267000CA700871020A4A71020C8A71000EC87190
:102680006846FDF7E9FF69464A78FA48921C00F06F
:1026900053FC59B000BDF8B5FF270546D937394678
:1026A000F54803F0FBFDF54E0020F34C3080394631
:1026B000204603F0F3FD2879207068796070217856
:1026C00008183080F8BDF8B516460F4600240546B8
:1026D00002F07EFD352002F084FF284602F0A9FDBD
:1026E000FF2E12D913E0A000395CC0194278120203
:1026F00089188278C0781204000610180918284634
:1027000002F0C9FD641CA4B22D1DB442EBD302F04B
:1027100068FD2046F8BDF0B5FF269B36D64DD74C58
:1027200091B0112936D0122949D013295DD0212921
:1027300075D022296FD023296ED031296DD032294E
:102740006CD0332924D1071DA8190F903C2168466D
:1027500003F0A6FD00206A46397811542388401CF6
:10276000C9187F1C21803C28F6DB3C2269460F9863
:1027700003F02EFD2088A919020A20310A77487734
:102780007622BD49BE48FFF79EFFBE490120087072
:1027900011B0F0BD061D30216846AD1C03F080FD70
:1027A00000216846327842542388491CD218761C8E
:1027B00022803029F6DB01463022284612E0AE4E58
:1027C000051D32363021684603F06AFD0021684657
:1027D0002A7842542388491CD2186D1C2280302943
:1027E000F6DB7DE003F0F4FCD2E7A34E051D623674
:1027F0003C21684603F054FD002168462A78425483
:102800002388491CD2186D1C22803C29F6DB3EE04F
:10281000014651E003E015E027E03AE04EE0964E35
:10282000051D9E363021684603F03AFD00216846BA
:102830002A7842542388491CD2186D1C22803029E2
:10284000F6DB4DE08C4E051DCE363021684603F098
:1028500027FD002168462A7842542388491CD21853
:102860006D1C22803029F6DB3AE0834E051DFE36D2
:102870003C21684603F014FD002168462A78425442
:102880002388491CD2186D1C22803C29F6DB3C228F
:10289000BEE7051D7C4E3021684603F001FD002196
:1028A0006A46287850542388491CC0186D1C208023
:1028B0003029F6DB30226946304693E7724E051D1B
:1028C00030363021684603F0EBFC002168462A7858
:1028D00042542388491CD2186D1C22803029F6DB13
:1028E000302295E77CB5FF216846017005214170D3
:1028F000002484700821634DC17029780171FDF7AF
:10290000ABFE6846427869465A48921C00F014FBB8
:102910002C707CBD0068704730B50023002907D0BB
:1029200004E09D0010C85B1C4C519BB29342F8D34D
:1029300030BD30B5FFB07624D0B0A500294658A8E8
:1029400003F0AEFC224658A94D48FFF7E5FF2A46A2
:1029500058A9494803F03CFC4748FEF748FAFF20D5
:1029600069460870A2204870002088700920C8704D
:10297000414802780A7142784A7102216A46801CF5
:1029800003785418401C491C23719E29F8DB10461B
:10299000FDF762FE6846427869463648921C00F0B0
:1029A000CBFA7FB050B030BD30B5D9B0FF2168460A
:1029B0000170A0214170002181700A21C17032494B
:1029C0009E209C39FF236A463B3314180D78A03CA7
:1029D000401C491CA5719842F7DB1046FDF73CFEF0
:1029E0006846427869462348921C00F0A5FA59B01F
:1029F00030BD30B5D9B0FF2168460170A0214170CB
:102A0000002181700B21C170FF201F493B30FF2343
:102A10006A46D73314180D78FF3C413C401C491CD2
:102A2000A5729842F6DB1046FDF716FE684642781E
:102A300069461048921C00F07FFAD8E7F8B51646B0
:102A40000F460546002402F0C3FB352002F0C9FD05
:102A5000284602F0EEFB07E0A0003958284602F0B5
:102A60001AFC641CA4B22D1DB442F5D302F0B9FBCC
:102A70002046F8BD9404002033080020F400002014
:102A800000780008FE0000206D09002000787047E3
:102A9000F7B56946C8884E880A790D78801B511BA6
:102AA00000D54942002800DA404203F005FC84B218
:102AB00069464889097A801B491B00D5494200288C
:102AC00000DA404203F0F8FB80B220184008FEBD57
:102AD000F0B58FB0FF21684601730F2343730021C7
:102AE0008173D74F6021C1733E780670FC1C228829
:102AF00042807D7805716188C180BF780772A488A3
:102B000044810674160A46748274C5740A0A0275F2
:102B100041758775210AC1750476CA4802A90088E3
:102B200003315854010A02A80230195403A8FDF7D2
:102B300093FD6846427B03A9C348921C00F0FCF950
:102B40006B4607CBFFF7A4FF0E9001220EA9BF48EA
:102B5000FFF7B9FD0FB0F0BD10B5B94AD41C01297B
:102B60000CD0022911D0032907D100799070902050
:102B700000F004FCA080FFF7ABFF10BD00791070DF
:102B8000902000F0FBFB208010BD00795070902059
:102B900000F0F4FB608010BD1CB5FF216846017099
:102BA00005214170002181706621C17001210171F0
:102BB000FDF752FD684642786946A348921C00F032
:102BC000BBF91CBD0EB500200090019002900322BD
:102BD00069469F48FFF7A0FE02980EBD0EB5FF2084
:102BE0006946087008204870002088706920C87005
:102BF000FFF7E8FF020E69460A71020C4A71020AE9
:102C00008A71C8716846FDF727FD69464A788E4883
:102C1000921C00F091F90EBD30B5BFB00546FF2300
:102C200068460370AB1E4370002484707123C37028
:102C3000130A0371427106206A4605E00B781354AB
:102C4000641C401CA4B2491C53785B1E8342F5DA15
:102C50001046FDF701FD6846427869467A48921CA5
:102C600000F06AF92946684603F01AFB20463FB097
:102C700030BD10B5092103F015FB002901D0401C1F
:102C800080B210BDF0B50446724985B000200860DE
:102C9000FFF798FFC117090E09180A02090A09026D
:102CA000401A150C80B21E2103F0FCFA0090E800D7
:102CB00028180E4601210F25C902ED010190A042FE
:102CC00023D3654EFF22304603F0C3FA2046FFF7B8
:102CD000D0FFC1025E480122081852023146FFF7B8
:102CE0001BFE0921204603F0DDFA002909D0204609
:102CF000FFF7BFFFC1004018201AF0214843801998
:102D000021E07119224688202DE0534FFF223846DA
:102D100003F09FFA2046FFF7ACFFC1024C480122A6
:102D2000081852023946FFF7F7FD0099019840183C
:102D3000A04220460AD3FFF79CFFC1004018201A8A
:102D4000F0214843C0194119F8200BE0FFF791FF2B
:102D5000C1004018201AF0214843C0194119F00061
:102D60000830C0B22246FFF757FF05B0F0BD00287B
:102D700004D0017940790902081880B2704710B573
:102D8000C178232933D015DC112930D009DC091F83
:102D90000B0003F095FB092932352F282828283805
:102DA0002800122923D0132921D021291FD022291C
:102DB00019D11CE0512929D009DC312917D0322939
:102DC00015D0332913D050290DD1012121E05229EA
:102DD0001ED0652920D068292FD0702903D1FFF794
:102DE000C6FFFFF74FFF10BDFFF755FC10BDFFF703
:102DF00092FC10BDFFF776FD10BDFFF79AFD10BDE8
:102E0000FFF7D2FD10BDFFF7F4FD10BD022100E079
:102E10000321FFF7A1FE10BD00F067FE0028FAD0E5
:102E20000C4900200860FFF7FFFAFFF7DFFA2020C7
:102E3000FFF717FBFFF7B0FE10BDFFF7CFFE10BD89
:102E4000FF00002014010020940400200068000806
:102E500000880008900000200C0A00200649088025
:102E60000028FDD1704710B500F01AF810BD10B55C
:102E700000B200F02CF810BD0801002010B50420AD
:102E8000C04301F0B9F91E481C49006803F00AFA72
:102E90001C4940B27D220870D2005043488010BDCA
:102EA000184900228A5618495043486100228A6115
:102EB00008690123184308610869C30701D0C003EA
:102EC000FAD508694008400008618A6170470D49D9
:102ED00002228A5E0C495043486100228A610869D7
:102EE0000123184308610869C30701D0C003FAD55C
:102EF00008694008400008618A61704700127A0042
:102F0000000000200A01002000E000E081600021B4
:102F10008180C28041800180704700218180418092
:102F2000018070478188C088814201D301207047A9
:102F30000020704780887047F0B5C4888388A41A41
:102F4000A34201DD0020F0BD00231D460DE00488F2
:102F5000C688B44200D3058007888668CC5CF455E7
:102F60000488641C5B1C04809BB29342EFD381886D
:102F7000891881800120F0BD70B58388934200D804
:102F80001A4600231D460DE04488C688B44200D38B
:102F9000458046888468A45DCC544488641C5B1CCE
:102FA00044809BB29342EFD38188891A8180104676
:102FB00070BD0022C2648264482142650165704789
:102FC000826C8154816C491C8164482901D10021A3
:102FD00081647047C16C425C491CC164482901D1BD
:102FE0000021C16410467047C26C816C881A9142FE
:102FF00000DA4830704770B5044600F0A8F8216D3B
:10300000814201DB0D1A01E00D1A483500232065CD
:103010000EE0C118482903DB01191846103002E000
:10302000011918465830095C2046FFF7C9FF5B1CA0
:10303000606DAB42EDDB40196065482801DB483824
:10304000606570BDF3B501214C0493B0204601F0DA
:1030500043F80121084601F03FF80121204601F024
:103060004DF80926F60601220321304600F077FECE
:1030700001220221304600F072FE0C250220694632
:10308000009508710320487100248C710120C871DB
:10309000304600F0F8FDE1204002304F12940D90D0
:1030A0000E940F9410940DA91195384601F0D1F8A3
:1030B0002B4801F073FF294880252830029010200A
:1030C0000994460203940594069407950490089485
:1030D0000A9402A90B960C94214801F091FF204814
:1030E000143001F05BFF1D4805A9243002901398AD
:1030F00003901498049431C120200A901848089431
:10310000099402A90B960C94143001F079FF012266
:10311000C021384601F04CFA11480121143001F069
:1031200098FF01210E4801F094FF0121384601F07B
:1031300002F915B0F0BD0A4A13685B085B00136022
:10314000D060516010680121084310607047044846
:1031500010B5143001F089FF10BD0000004400409C
:10316000440002401CB50121480400F0B5FF0320D3
:103170004002009001206946087188710022CA71DE
:1031800048710920C00600F07EFD1CBD1CB5012061
:103190008002009001206946087188710020C87182
:1031A000032048710920C00600F06DFD1CBD1CB550
:1031B00001208002009000206946087101228A7176
:1031C000C871032048710920C00600F05CFD1CBDD9
:1031D00070B5FFF7DBFF0125AD020920C006856150
:1031E0006C1084610520FFF73EFE7A4E3581052084
:1031F000FFF739FE348170BD70B501247548A40213
:10320000048160100925ED06A8610520FFF72BFE5B
:10321000AC610520FFF727FE70BD70B5FFF7B6FF64
:1032200001206C4C8002208145100920C006856178
:103230000520FFF718FE25810520FFF714FE70BD5D
:1032400010B5FFF7A3FF012189020920C0068161A3
:103250004C1084610520FFF706FE5E4804810520BE
:10326000FFF701FE10BD70B5012000258002092482
:10327000E406A0610520FFF7F6FD01267602A661AF
:103280000520FFF7F0FDFFF792FF1420FFF7EBFD9D
:10329000208AFFF77BFF0520FFF7E5FD4D480681FB
:1032A0001920FFF7E0FD284670BDF8B50927002476
:1032B000FF060126054676022806474801D5B86173
:1032C00001E0444908816806050E0520FFF7CBFDA3
:1032D000BE610520FFF7C7FD3E4806810520FFF7C8
:1032E000C2FD641CE4B2082CE6D3F8BDF8B5002496
:1032F000FFF75DFF0126002576020927FF06BE6164
:103300000520FFF7B0FD6006398A000E4905CC0F95
:103310000443304806810520FFF7A5FD6D1CEDB282
:10332000082DECD32046F8BD10B5FFF71BFFFFF7C3
:103330004FFF0020FFF7B9FFFFF795FF0620FFF7CB
:10334000B4FF10BD10B5FFF70DFFFFF741FF902050
:10335000FFF7ABFFFFF787FF0120FFF7A6FFFFF79F
:1033600082FFBE20FFF7A1FFFFF77DFF8320FFF75D
:103370009CFFFFF778FFFFF73FFF10BD10B5044635
:10338000FFF726FF2046FFF790FFFFF76CFF0020B6
:10339000FFF78BFFFFF767FFFFF72EFFFFF718FF21
:1033A000641CE0B2FFF781FFFFF75DFFFFF79EFFB0
:1033B0000A4C2070FFF731FFFFF798FF6070FFF7AE
:1033C0002CFFFFF719FF207861780002401880B2C7
:1033D00010BD000020000048000400000E01002085
:1033E0001FB50121480400F080FE152168460173D5
:1033F000002444730121817303A800F0D1FEE34847
:103400007D21C900006802F04DFF401E0190684612
:103410000480048144808472DD4C6946204601F0BA
:103420007BF90121204601F0F4FC012211462046DF
:1034300001F0DEFC0121204601F0DFF91FBD02464C
:1034400010B5D448130003F03BF805040A141A2001
:103450000F00012901D0082104E0082106E001291C
:1034600003D0042100F06FFC10BD042100F06DFCBE
:1034700010BD012901D04021F4E74021F6E70129E0
:1034800001D02021EEE72021F0E7012901D0102111
:10349000E8E71021EAE71CB57C200090012069468E
:1034A000087100208871C8710320BA4C4871204609
:1034B00000F0E9FB0821204600F045FC04212046ED
:1034C00000F041FC4021204600F03DFC2021204638
:1034D00000F039FC1021204600F035FC1CBD7CB505
:1034E000012424030120694600940871002088719A
:1034F000C871032009254871ED06284600F0C3FB7A
:103500002146284600F021FC7CBD7CB50324A402A2
:10351000012069460094087100208871C871032059
:103520009C4D4871284600F0AEFB2146284600F02D
:103530000CFC7CBD1CB50120C00300900021684636
:1035400001710121C1716946924800F09CFB1CBDCC
:103550001CB530200090002069460871C871032016
:1035600048718C4800F08FFB1CBD7CB50124E4033E
:10357000012069460094087100228A71C8710320F5
:1035800009254871ED06284600F07DFB21462846B6
:1035900000F0D9FB7CBD1CB5FF200130009000205D
:1035A000694608710920C00600F06DFB1CBD1CB502
:1035B000012040030090002069460871754800F022
:1035C00062FB1CBD1CB501200090002069460871FB
:1035D0000920C00600F057FB1CBDF0B585B00746BA
:1035E0001421684602F05CFE00253220FFF76FFCD4
:1035F00000246E469020FFF7C1FE61007052401912
:1036000085B20520FFF74CFC641CE4B20A2CF1D310
:103610000A21284602F046FE388005B0F0BDF0B51C
:10362000012193B0480400F057FD0121880400F007
:1036300053FD022603216846069601770024C477CD
:10364000092006A9C00600F01EFB012706A9514863
:10365000069700F018FB0121480200F046FD012109
:10366000084600F039FD4C4D284601F0BFFF4B489D
:1036700001F094FC484809A940300890484851C1DD
:10368000802046000D90C0000F90202010900C94D8
:10369000000211900E9608A91294404801F0B0FC67
:1036A00001213E4801F0D5FC0221284602F07DF8B8
:1036B0000121284602F06FF8684601F0B8FF68461D
:1036C00000940771042005900294694604942846EA
:1036D00001F09AFF07220221284602F015F807227E
:1036E0003146284602F010F8284602F030F8012151
:1036F000284601F0A4FF2B4C2846214602F065F82D
:103700000028F9D0284602F03EF813B0F0BD10B5FD
:1037100023200121400400F0DFFCFFF753FFFFF7F7
:103720003AFFFFF744FFFFF713FFFFF71EFFFFF716
:10373000D6FEFFF7B0FEFFF7E8FEFFF7FBFEFFF750
:103740006EFFFFF7FFFDFEF751FE10BD10B509201B
:103750000121C00600F0E5FA10BD01207047704756
:103760000120704770470120704770471CB5012148
:10377000880400F0B1FC01200022694600900A7123
:10378000C871044800F07FFA1CBD00000000002052
:1037900000440140000400480024014008000240A9
:1037A0001001002001000001F0B5AD4F8DB00021E7
:1037B000384601F022F80021AA4801F01EF8002145
:1037C000A94801F01AF80021A84801F016F80021D4
:1037D000A74801F012F8A7480190A7496846018060
:1037E00000240481448084726946384600F094FFC6
:1037F00069469D4800F090FF69469A4800F08CFFAA
:1038000069469A4800F088FF6946994800F084FFAD
:10381000BD1568468584C484048544850126868553
:1038200008A9914800F0F3FF08A9904800F0EFFFC5
:1038300008A98F4800F0EBFF602168468181C681AE
:103840000594048344838583C48303A9384601F027
:1038500004F80821384601F047F903A9814800F02F
:10386000FCFF08217F4801F03FF903A97E4800F0E2
:10387000F4FF08217C4801F037F903A97B4801F0E7
:103880008EF80821794801F042F903A9784800F040
:10389000E4FF0821764801F027F90121384600F0BD
:1038A00093FF01216F4800F08FFF01216E4800F067
:1038B0008BFF01216D4800F087FF01216C4800F06B
:1038C00083FF0121384600F098FF0121654800F090
:1038D00094FF0121644800F090FF0121634800F04B
:1038E0008CFF0121624800F088FF0DB0F0BD10B5DB
:1038F00000F05AF8FFF758FF10BD70B516460546A0
:103900005C4A481E88B090423AD8642E38D8501C81
:1039100002F0C8FC401E0690574968468182002488
:103920008483C482847706986421401C704302F02B
:10393000B9FC014660226846028001224280029161
:103940008481012D0BD0022D0CD0032D1AD0042D13
:103950001BD0052D14D1C48105A9454C05E005A94E
:103960003F4C02E0C481404C05A9204600F0D4FE43
:103970006946204600F071FF0821204601F0B4F8A6
:1039800008B070BD05A9374CEFE7C481374C05A9D5
:10399000204600F0C1FE6946204601F000F80821EB
:1039A000204601F0B4F8EBE7FEB503200121400406
:1039B00000F092FB0121022000F0A0FB012188040D
:1039C00000F093FB0121080200F098FB0121CC02DA
:1039D000204600F08AFB0121080400F086FB022546
:1039E00069460D7100208871C8710320487109264D
:1039F000F60601220621304600F0B1F94020009081
:103A00006946304600F03FF905220721304600F0B4
:103A1000A6F9802000906946304600F034F9174F2F
:103A200000220121384600F09AF96946384600958F
:103A300000F029F902220B21304600F090F9694686
:103A40003046009400F01FF901220E21384600F0A4
:103A500086F9E00000906946384600F014F9FEBD92
:103A6000000400400020004000480140002C0140BC
:103A7000004001407FBB0000E70300000004004855
:103A800010B50446002002F091F82146002002F013
:103A900001F910BD0A2805D00B2805D00C2800D14B
:103AA00012207047102070471120704710B5012177
:103AB000080700F023FB012001F00DFB012000F0BE
:103AC000F3F9212000F092F90028FAD0FF2001300C
:103AD00000F0E8FA1B48FF2141607F2101600120CE
:103AE00000F0E5FA01F04AFF10BD10B5044686B0BB
:103AF000012001F0F0FAFFF7D9FF002000901148F3
:103B0000416802910068019061796846C173A179AA
:103B10004173E1798173617A0174A17A4174E17A28
:103B2000817401F097FF00280AD004A9002001F059
:103B3000F0FF03A9002002F060F8012006B010BDDC
:103B4000FEE70000180100202B4D2C4C002666607B
:103B500061680C20414348194279012A09D1C38880
:103B60008268D21823689A4203D88660C680685853
:103B700080476068401C60600F28E9D3E7E730B5F4
:103B80000C2314461C4D5C43631959711A7128515A
:103B90000020D880986030BD0E2805D80C225043F4
:103BA000154A01218018417170470E2805D80C2252
:103BB0005043114A002180184171704710B50E28FA
:103BC0000ED80E4A13680C2250430B4A84187D20ED
:103BD000C00048437D21C900A36002F063FBE08080
:103BE00010BD06480168491C0160704710B5FFF719
:103BF000F7FB10BD704700000C12002020010020D0
:103C00000748804707480047FEE7FEE7FEE7FEE774
:103C1000FEE7FEE704480549054A064B70470000E9
:103C2000D5010008C1000008201300202019002041
:103C30002015002020150020092110B5C906884252
:103C400002D101214C0404E04D49884209D10121EF
:103C50000402204600F05BFA0021204600F057FAEB
:103C600010BD4849884202D101210402F1E74649CA
:103C7000884202D101210C05EBE744498842EFD18B
:103C800001218C05E5E7F0B50022012423460D68EB
:103C900093401D409D422AD10D79012D01D0022D66
:103CA00012D1876855000326AE40B74387604E792E
:103CB000AE4085682E43866085889D4385808588D3
:103CC0008B7993401D438580066855000323AB40E4
:103CD0009E4306600E790768AE403E430660C668A4
:103CE0009E43C660CB79AB40C5682B43C360521C72
:103CF000102ACBD3F0BD26490160002101710222B8
:103D000042718171C1717047012208B512040A43E2
:103D10000092C261C1610099C161C169C06900902E
:103D200008BD0246128A00200A4200D001207047D6
:103D3000008A70470246928A00200A4200D0012081
:103D40007047808A70478161704701857047002AFB
:103D500001D08161704701857047818270474B07B0
:103D6000DB0E9A40C90810B589000818016A0F24B3
:103D70009C40A1430162016A1143016210BD000031
:103D80000004004800080048000C004800140048E7
:103D9000FFFF0000F74801680122114301604168FC
:103DA000F54A114041600168F44A11400160016820
:103DB000012292049143016041683F221204914321
:103DC0004160C16A09090901C162016BFF225432D5
:103DD00091430163416B49084900416300218160BF
:103DE0007047E44900228A708870704703460020BB
:103DF000E0495A090CD0012A0CD0022A0CD0496B98
:103E0000DA06D20E012393400B4200D00120704706
:103E10000968F5E7096AF3E7496AF1E718B5002090
:103E20000524240200901120FFF7E0FF0099491CAF
:103E30000091A14201D00028F5D01120FFF7D6FF54
:103E4000002800D0012018BDCA4A1168F823994300
:103E5000C000084310607047C6490028086802D0B7
:103E60000122104301E04008400008607047C14A49
:103E7000516BF8239943C000084350637047BD4914
:103E80000028486B02D00122104301E040084000A6
:103E900048637047B74904220028486B01D090431B
:103EA00000E0104348637047B2490A6A5208520062
:103EB0000A620A6A04239A430A620A6A02430A628D
:103EC0007047AC490A6A18239A430A620A6A024395
:103ED0000A627047A7490028486A02D001221043AD
:103EE00001E0400840004862704710B5A14A53689D
:103EF0003D242404A34353605368084303435360A1
:103F000010BD01229B4912060028086801D0104309
:103F100000E0904308607047964AD16A0909090198
:103F20000143D162704701229249D20400280868F7
:103F300001D0104300E09043086070478D49C8717C
:103F400070478C4A51688908890001435160704765
:103F5000884840680C2108407047864A5168F02321
:103F60009943014351607047824A516807231B02FD
:103F700099430143516070477E494A6801239B037E
:103F80009A434A604A6883B21A434A600A6B8B15A7
:103F90009A430A630A6B000C02430A63704775492F
:103FA0000A6B40239A430A630A6B02430A63704711
:103FB00070490A6B10239A430A630A6B02430A632F
:103FC00070476C490A6B920892000A630A6B0243BD
:103FD0000A637047F8B5674D044668680C21684E5F
:103FE000084003D0042801D0082801D0266012E040
:103FF000696868680122890212040F0F1040BF1C13
:1040000000281CD0E86A0107090F3046491C02F05D
:1040100049F97843206068685A4B0006000F1A5C23
:1040200020680146D14061606A685205520F9A5C6F
:10403000D140A1602A6BD20505D4534A09E0534808
:1040400047432760E7E76A68520401D44A0800E062
:104050008A08E2602A6B53064D4A03D44C4B123354
:10406000236100E022612B6BDB0601D4666100E076
:1040700060612B6B9B070FD0296B8907890F012982
:104080000CD0286B8007800F022809D0286BC04312
:10409000800700D1A661F8BDA161F8BDA061F8BD9F
:1040A000A261F8BD33490A6A02430A627047314986
:1040B0000028374A086A01D0104300E090430862A4
:1040C000704701222B4912040028086A01D01043CE
:1040D00000E0904308627047264A0029516901D0E8
:1040E000014300E0814351617047224A00299169F0
:1040F00001D0014300E08143916170471D4A0029CE
:10410000D16901D0014300E08143D1617047194A70
:104110000029916A01D0014300E081439162704718
:10412000144A0029D16801D0014300E08143D160E5
:104130007047104A0029116901D0014300E0814312
:10414000116170470B4A0029517A01D0014300E008
:104150008143517270470748416A01221206114398
:1041600041627047034A0146926800200A4200D02B
:1041700001207047001002400CB8FFF8FFFFF6FE68
:1041800000127A0028010020809FD50000093D0020
:104190000080000001498872EBE700000010024037
:1041A00030B5837801210278002B15D09408174B85
:1041B000A400E41823689207D50EFF22AA40934377
:1041C00042789207120EAA401A4322600078C00675
:1041D000C00E81400E4804E0D006C00E81400C485D
:1041E0008030016030BD0B4A0029116901D00143C4
:1041F00000E08143116170470422074904280869DF
:1042000002D09043086170471043FBE700E400E0F0
:1042100000E100E000ED00E000E000E0F74910B54B
:10422000884209D101218C032046FFF779FF002144
:104230002046FFF775FF10BDF1498842FBD10121EF
:104240004C042046FFF775FF00212046FFF771FF61
:1042500010BD70B50446006888B00D4640084000A7
:1042600020606168032000038143A8680843606000
:104270002168E448EA680140686810432A690A43F3
:1042800010432060A0680321090288436969014343
:10429000A1606846FFF79EFED848844201D1069887
:1042A00000E0029821680904296801D5490000E06E
:1042B00089001922504301F0F5FF0546642101F001
:1042C000F1FF06013009642148432168281A0904D6
:1042D00007D5C0006421323001F0E4FF4007400FF1
:1042E00006E000016421323001F0DCFF0007000F1E
:1042F0003043A08108B070BD4B21C901016000218D
:10430000416081600C22C16002614161704710B55B
:1043100042680F231B029A4318C923430C6849685B
:104320000C4323431343436010BD002101604160EF
:104330008160C16070470029016802D001221143E9
:1043400001E04908490001607047002A026801D075
:104350000A4300E08A43026070470122D203002929
:10436000016801D0114300E09143016070470122D0
:10437000D2020029816801D0114300E0914381609D
:1043800070470122D2040029416801D0114300E0A6
:10439000914341607047012292040029416801D095
:1043A000114300E0914341607047002A426801D008
:1043B0000A4300E08A43426070470122D203002989
:1043C000416801D0114300E09143416070470122F0
:1043D000D2050029416801D0114300E091434160BA
:1043E00070474269120E1206426142690A434261F5
:1043F0007047028A120A12020282028A0A43028269
:10440000704702220029016801D0114300E0914366
:1044100001607047826803231B059A4382608268AB
:104420000A4382607047012212050029416801D0C9
:10443000114300E0914341607047426803235B05EC
:104440009A43426042680A4342607047C169012250
:10445000D2039143C1617047C905C90D01857047F9
:10446000808CC005C00D704742681202120A42607B
:10447000426809060A43426070470122520300293C
:10448000016801D0114300E0914301607047026868
:104490000123DB029A43026002680A43026070470C
:1044A000426810239A43426042680A434260704760
:1044B000426820239A43426042680A434260704740
:1044C000012292030029416801D0114300E0914389
:1044D0004160704708220029816801D0114300E043
:1044E000914381607047028AD2B20282028A090235
:1044F0000A430282704720220029816801D01143BB
:1045000000E091438160704710220029816801D04A
:10451000114300E0914381607047826807235B0488
:104520009A438260826849040A4382607047426904
:104530001202120A4261426909060A434261704747
:10454000826804239A43826082680A4382607047CB
:1045500002220029816801D0114300E0914381606B
:104560007047012292030029816801D0114300E0C5
:1045700091438160704782680123DB039A43826024
:1045800082680A438260704702681F235B059A4372
:104590000260026849050A430260704702681F23EF
:1045A0001B049A430260026809040A4302607047D0
:1045B000002A826801D00A4300E08A438260704783
:1045C000826801235B039A43826082680A438260A7
:1045D000704710B50B041C0E01238B40022C02D037
:1045E000032C02D002E0001D00E008300168002A20
:1045F00001D0194300E09943016010BD003801402B
:1046000000440040F3E9FFFF002A028B01D00A4377
:1046100000E08A4302837047826801231B039A43A8
:10462000826082680A43826070470246D269002035
:104630000A4200D0012070470162704730B50A0479
:10464000130E0122144600258C40012B0ED0022BA4
:104650000ED08368090C2340C0698A401040002BAB
:1046600002D0002800D00125284630BD0368F1E7BC
:104670004368EFE70A0C0121914001627047000096
:10468000F84910B5884202D10121C41430E001215B
:104690008907884206D101210846FFF74AFD00211B
:1046A000012008E0F049884208D101210220FFF7EB
:1046B00040FD00210220FFF73CFD10BDEB49884280
:1046C00006D101211020FFF734FD00211020F2E770
:1046D000E749884207D1841501212046FFF729FDCB
:1046E00000212046E7E7E349884209D101210C0473
:1046F0002046FFF715FD00212046FFF711FD10BDF4
:10470000DD49884202D101214C04F1E7DB498842AE
:10471000F5D101218C04EBE710B50288D14B98420A
:1047200006D00124A407A04202D0CF4CA04203D15E
:104730007024A2434C882243CC4CA04203D0D04CDE
:1047400022400C89224302804A68C2620A8802859C
:10475000984208D0C74A904205D0C74A904202D03A
:10476000C64A904201D1897A01860121818210BD19
:104770000021C94341600021018001814180817293
:104780007047018582827047028870239A430A43EA
:104790000280704741627047C1627047406A70474B
:1047A000008D704702220029018801D0114300E0EA
:1047B00091430180704704220029018801D01143F0
:1047C00000E091430180704780220029018801D0D8
:1047D000114300E0914301807047028808239A4307
:1047E000028002880A43028070470288A44B1A4064
:1047F000028002880A43028070470029018802D0A3
:104800000122114301E0490849000180704710B5B9
:104810000A884B88CC881A438B8823431A430B8918
:104820001A434B8989891A430A434030828010BD5C
:104830000021018041808180C1800181418181818D
:10484000704740300029818803D00122D2031143F0
:1048500001E04904490C8180704730B5028C520850
:1048600052000284038C8288048B7025AC43A40818
:104870000D88A40025430224A3438C891C434B8844
:104880002343784CA04208D07A4CA04205D07A4C01
:10489000A04202D0794CA0420DD10824A343CC8978
:1048A0001C4304239C438B882343754C22400C8A71
:1048B00014434A8A224382800583896841630384C2
:1048C00030BD70B5028C10239A430284048C828818
:1048D000038B6C4D2B400D782D062D0C1D43202392
:1048E0009C438B891B051E0C4B8826431B051B0C08
:1048F0005C4C3343A04215D18024A343CC892405CA
:10490000240C1C4340239C438B881B051B0C234316
:104910005D4C22400C8AA404240C14434A8A92045D
:10492000120C22438280058389688163038470BDF1
:1049300030B5028C554B1A400284038C8288848BDC
:104940007025AC43A4080D88A4002543504C234097
:104950000C7B2406240C1C438B781B061B0C234366
:10496000404CA04215D14B4C23408C7B2406240C98
:104970001C43494B1C400B791B061B0C2343474C23
:1049800022400C8A2405240C14434A8A1205120C76
:104990002243828085838968C163038430BD30B53A
:1049A000028C3F4B1A400284048C8388828B354DE5
:1049B0002A400D782D062D0C15433A4A14400A7BE7
:1049C0001207120C22438C782407240C1443254A26
:1049D000904205D1344A13400A8A9205120C1343BF
:1049E0008380858389680164048430BD002101804F
:1049F0004180818081608181C181018241827047D3
:104A000030B5034618330124058C8C40A54305843A
:104A1000002910D008290ED0091F0804400CC01826
:104A2000016807231B039943016001681206120CF9
:104A30001143016030BD4808C018016870239943D4
:104A400001600168F4E74163704781637047C163A7
:104A5000704701647047028B70239A430A430283B4
:104A600070470000002C014000040040001000408E
:104A70000020004000400140004401400048014047
:104A8000FFFC0000FF8C0000FFF30000FFFE0000B1
:104A9000FFFD0000FFF70000FFFB0000FFCF00005C
:104AA000FFEF0000FFDF0000FFBF0000028BF64BAE
:104AB00009021A4011430183D2E7828B70239A4383
:104AC0000A438283CCE7828BEF4B09021A401143E1
:104AD0008183C5E70029818802D00122114301E0CA
:104AE000490849008180BBE7028B08239A430A43A7
:104AF0000283B5E7028BE54B09021A40114301839B
:104B0000AEE7828B08239A430A438283A8E7828B0D
:104B1000DE4B09021A4011438183A1E7028B042373
:104B20009A430A4302839BE7028BD94B09021A403E
:104B30001143018394E7828B04239A430A438283BF
:104B40008EE7828BD24B09021A401143818387E79B
:104B5000028B80239A430A43028381E7028B52042B
:104B6000520C0902114301837AE7828B80239A4316
:104B70000A43828374E7828B5204520C0902114368
:104B800081836DE7028C02239A430A43028467E71C
:104B9000028C08239A430A43028461E7028C202393
:104BA0009A430901114301845AE7028C80239A43F6
:104BB00009011143018453E7028CB64B09021A40E4
:104BC000114301844CE7028CB04B09021A40114397
:104BD000018445E7028CB04B09031A40114301845C
:104BE0003EE7028908239A43028102890A4302812F
:104BF00036E710B50123048C8B409C430484038C5E
:104C00008A401343038410BD10B50423048C8B40E9
:104C10009C430484038C8A401343038410BD042204
:104C20000029818801D0114300E09143818017E77A
:104C3000828B9A4B1A408283828B09020A438283B9
:104C40000EE7828B0C239A438283828B0A438283F2
:104C500006E7028B914B1A400283028B09020A433A
:104C60000283FDE6F0B5048C1026B4430484058B62
:104C7000048C8B4F1B0309013D402B4312021A4346
:104C8000A0239C430C43344302830484F0BD028B75
:104C90000C239A430283028B0A430283E0E670B539
:104CA000048C640864000484058B048C1B0113438A
:104CB000F3260A22B54394432B430C4301210C43B2
:104CC0000383048470BDF8B5044608884E888A883A
:104CD0000B890D4600281DD0042824D00828208CDC
:104CE0002AD0704908402084A08B278C31036C4E59
:104CF000120230400243180310436B4AA08317404E
:104D00000F43012109030F432784E9882046FFF759
:104D10008FFFF8BD31462046FFF7C1FFE9882046E6
:104D2000FFF7B5FFF8BD31462046FFF79BFFE98846
:104D30002046FFF78EFFF8BD5C4908402084A18B18
:104D4000208C3702F3261B01B14313430B43584910
:104D5000A3830840FF213843013108432084E988B8
:104D60002046FFF76EFFF8BD00210180418001223F
:104D70008280C180018173E6F8B50C46498800261F
:104D800001250746002900D10226A288012A00D168
:104D90000225208823890028384610D0FFF762FFBB
:104DA000E1883846FFF755FF23892A4631463846C1
:104DB000FFF775FFE1883846FFF769FFF8BDFFF799
:104DC0006EFFE1883846FFF762FF23892A463146A5
:104DD0003846FFF747FFE1883846FFF73AFFF8BD4E
:104DE000406B3DE6806B3BE6C06B39E6006C37E616
:104DF000002A828901D00A4300E08A4382812FE69B
:104E000081822DE60246128A00200A4200D001204B
:104E100026E6C943018223E60246138A00209289CE
:104E20000B400A40002B02D0002A00D0012017E6D8
:104E3000C943018214E611434030018110E6002A83
:104E4000828901D00A4300E08A43828108E6082271
:104E50000029818801D0114300E091438180FFE562
:104E60000189C908C9000181FAE5028970239A43C2
:104E70000A430281F4E510B50446FFF7F6FF2089E6
:104E800007210843208110BDFF8F0000FFF70000BD
:104E9000FFFB0000FFFD0000FFDF0000FFF300004C
:104EA000FF0C0000FFEF0000FF5F0000FFFE0000AE
:104EB000FFF5000070B516460D46044660290CD07B
:104EC00001223146FFF7EBFE29462046FFF7CDFFD2
:104ED000208907210843208170BD01223146FFF758
:104EE000C1FEF1E710B504891B021343E4B20B4382
:104EF0002343038110BD10B50446FFF7F3FF20895B
:104F0000C108C9000720014370208143014321816A
:104F100010BD10B50446FFF7E5FF20890121890384
:104F20000843208110BD828870239A438280828842
:104F30000A43828094E50289D208D2000281028964
:104F40000A4302818CE5028980239A430281028907
:104F50000A43028184E570B50689048B058CF60846
:104F6000F6000E430C4906810C40FF2102310C4330
:104F7000AA218D431901114329430483018470BD83
:104F800080220029818801D0114300E09143818073
:104F900066E54030018263E5FCFC00000168454A9B
:104FA000114001600021016041608160C16042499F
:104FB000414A0839904202D148680F2205E03E4A32
:104FC0001432904204D14868F02210434860704780
:104FD000394A2832904203D148680F221202F4E77E
:104FE000354A3C32904203D148680F221203ECE765
:104FF000314A50329042EAD148680F221204E4E765
:1050000030B503682D4A0C6A13408A684D69224303
:105010000C692C4322438C692243CC6922434C6A9D
:1050200022438C6A22431A430260CA6842600A68BB
:1050300082604968C16030BD0021016041608160CB
:10504000C160016141618161C1610162416281624E
:1050500070470029016802D00122114301E0154A7E
:1050600011400160704741607047406880B27047EE
:10507000002A026801D00A4300E08A4302607047B8
:1050800001460D4A0020083A12680A4200D0012069
:10509000704709490839486070470146064A0020B0
:1050A000083A12680A4200D00120704702490839C4
:1050B00048607047FEFF0000080002400F80FFFFBD
:1050C00010B501210C072046FFF733F800212046D8
:1050D000FFF72FF810BD30498A150028086801D065
:1050E000104300E09043086070472B4A1168E023AA
:1050F000994301431160704727491022002808682E
:1051000001D0104300E0904308607047224A002914
:10511000516801D0014300E08143516070471F494D
:105120000A6904239A430A61012801D020BF70470D
:1051300030BF7047184B1A689208920002431A60F9
:1051400016480369042213430361012904D020BFD8
:10515000016991430161704730BFF9E70E48026869
:1051600004210A430260026802231A4302600B48CA
:1051700002690A43026130BF7047074A014652681C
:1051800000200A4200D00120704703490A688000CD
:1051900002430A60704700000070004000ED00E02C
:1051A000FE4A116849084900014311607047FB49F4
:1051B00010220028086801D0104300E090430860E6
:1051C0007047F64900200968890600D5012070471C
:1051D000F2480169090603D5F1494160F14941608E
:1051E0007047EE4801698022114301617047EB4925
:1051F0000420CA68D20701D001207047CA68D206CD
:1052000001D502207047C9684907FBD503207047C4
:1052100000B50346FFF7EBFF02E0FFF7E8FF5B1E78
:10522000012803D0002B00D1052000BD002BF4D1B4
:10523000FAE7F0B50B2706463F043846FFF7E8FFCC
:1052400004280FD1D54C20690225284320616661CE
:1052500020694021084320613846FFF7D9FF2169C2
:10526000A9432161F0BD70B50B252D042846FFF739
:10527000CFFF04280ED1C94C206904263043206199
:1052800020694021084320612846FFF7C1FF2169BA
:10529000B143216170BDF8B5064600200B273F04DD
:1052A00000900D463846FFF7B3FF042815D1BB4CDC
:1052B000206901210843206135803846FFF7A8FFA7
:1052C000042806D1B61C280C009630803846FFF71B
:1052D0009FFF2169490849002161F8BDF0B50B27FE
:1052E00006463F040D463846FFF792FF04280CD1CE
:1052F000AA4C206901210843206135803846FFF718
:1053000087FF2169490849002161F0BDA34801696F
:10531000890503D4A2498160A249816070479F48F2
:10532000016942159143016170479C48016901225E
:10533000520311430161704798490020C969490728
:10534000890F00D001207047F0B5AA25FFF7F4FFC0
:10535000002800D000250B273F043846FFF758FFF0
:10536000042813D18D4C2069202630432061206908
:105370004021084320613846FFF74AFF10210428E6
:1053800005D0052802D022698A432261F0BD206938
:10539000B043206120690E46304320618248058079
:1053A0003846FFF735FF0528F0D02169B143216168
:1053B000F0BDF0B5C043C6B20004050E0B200004DA
:1053C000FFF726FF04281BD1744C216910221143DA
:1053D0002161754FFF2E06D03E810B200004FFF7A0
:1053E00017FF042806D1FF2D06D07D810B20000475
:1053F000FFF70EFF052803D0226910218A4322619E
:10540000F0BDF0B50B26074636043046FFF700FF27
:1054100004281ED1614C2069202528432061206981
:105420004021084320613046FFF7F2FE04280BD1EB
:105430002069A843206120691025284320615A482B
:1054400007803046FFF7E4FE052802D02169A94312
:105450002161F0BDF0B505460B2094460F460004CF
:10546000FFF7D6FE042814D14C4C20691026304397
:1054700020613D4360460543F82005434A48458086
:105480000B200004FFF7C4FE052802D02169B143B8
:105490002161F0BDF0B50B2705463F043846FFF704
:1054A000B7FE042810D13D4C2069102630432061FE
:1054B000EF2005433C4845803846FFF7A9FE052804
:1054C00002D02169B1432161F0BDF0B50B2705463B
:1054D0003F043846FFF79CFE042810D12F4C20696A
:1054E000102630432061DF2005432F484580384691
:1054F000FFF78EFE052802D02169B1432161F0BD7E
:10550000F0B50B2705463F043846FFF781FE042817
:1055100010D1224C2069102630432061BF20054362
:10552000214845803846FFF773FE052802D02169DF
:10553000B1432161F0BDF0B50B2705463F04384665
:10554000FFF766FE042810D1144C20691026304362
:10555000206188200543144845803846FFF758FEEF
:10556000052802D02169B1432161F0BDF0B507469D
:105570000B200E460004FFF74BFE042817D1074C02
:1055800020691025284320613E800B200004FFF78E
:105590003FFE05280BD02169A94307E00020024007
:1055A00023016745AB89EFCD00F8FF1F2161F0BDF6
:1055B0000D48C0690004000E70470B48006A704730
:1055C000094A0029116901D0014300E081431161BA
:1055D0007047054A0146D26800200A4200D00120E7
:1055E00070470149C860704700200240854910B5E6
:1055F000884208D1441501212046FEF791FD002183
:105600002046FEF78DFD10BD30B5C3687E4A8C681C
:1056100013400A680D792243CC686D032C43224362
:105620000C69496922430A431A43C26030BD002114
:10563000016001718160C1600161416170470029B1
:10564000816801D0012200E002221143816070478D
:10565000002A026901D00A4300E08A4302617047D0
:105660000122D2030029C16801D0114300E0914317
:10567000C1607047012292030029C16801D0114323
:1056800000E09143C16070470122D2050029C16842
:1056900001D0114300E09143C160704709041143F8
:1056A00001627047C2681F239B069A430A43C26087
:1056B0007047012292050029C16801D0114300E022
:1056C0009143C160704701225049D2050028886883
:1056D00001D0104300E090438860704701224B499D
:1056E00092050028886801D0104300E0904388604C
:1056F00070470122454912060028886801D01043EE
:1057000000E0904388607047836A0B438362426184
:105710007047012252030029C16801D0114300E003
:105720009143C1607047012212040029C16801D071
:10573000114300E09143C160704701221203002928
:10574000C16801D0114300E09143C1607047826895
:1057500000210123DB071A4382600F231B038268A9
:10576000491CD20FD207994201D0002AF7D1816893
:10577000002901DB006C704700207047816810220F
:105780001143816070478168042211438160704732
:10579000006C80B270470029C16802D00122114319
:1057A00001E049084900C1607047C26802239A437A
:1057B000C260C2680A43C2607047002A426801D0D2
:1057C0000A4300E08A434260704702460020CB0152
:1057D00004D5926801231B069A4300E012680A422E
:1057E00000D00120704701607047024653680020D6
:1057F00012680B400A4202D0002B00D001207047F3
:10580000016070470024014003D2FFFF00270140E0
:10581000324831490160002141608160C1603049F6
:105820004161704710B583792C490268002B26D05E
:105830000B6893430B604A6803689A434A60027995
:10584000521813680468234313608A6803689A43F4
:105850008A60CA6803689A43CA604279102A05D0F0
:1058600051180A68006802430A6010BD8A6803681C
:105870001A438A60CA6800680243CA6010BD007992
:10588000401801689143016010BD00210160017161
:105890000C2242718171704710490A6902430A6102
:1058A00070470E4A0146526900200A4200D001208A
:1058B00070470A4948617047084A0146136800204A
:1058C00052690B400A4202D0002B00D001207047E1
:1058D00002494861704700000000940F0004014035
:1058E000FFFF6B00244801688907890F01600021D0
:1058F0008160C160016141618169821511438161EB
:1059000070471D4A1168890889000143116070477A
:10591000194A0029116801D0014300E08143116058
:105920007047154A0029116801D0014300E0814306
:10593000116070478A07130F10B50F229A408C0828
:105940000D49A40061188C6894438C608A68984063
:1059500002438A6010BD08498A6902438A61704720
:10596000054900208969C90500D501207047024911
:105970008A6902438A6170470000014018B500201F
:10598000FB4900908868800601D5012018BDCA2017
:10599000486253204862C868A0229043C860202211
:1059A0009302C868009C1040641C00949C4201D083
:1059B0000028F6D0C868800601D5012000E000204C
:1059C000FF224A6218BD18B500200090E848C1685F
:1059D000490612D40021C943C16040220314C168A2
:1059E000009C1140641C00949C4201D00029F6D018
:1059F000C068400601D4002018BD012018BD78B54C
:105A00000024DB4DCA200094264668625320686259
:105A1000FFF7D9FF002813D02C60D6486860A8682B
:105A2000AC60D5482861EC61EC62EC63D048403052
:105A30004460EC600460FFF7A1FF002800D001265D
:105A4000FF206862304678BDC948C1688022914312
:105A5000C160704770B505460026C54CCA2060621B
:105A600053206062FFF7AFFF002811D0A0684021EB
:105A70008843A060A06829680843A060A8682061E6
:105A80002069A988090408432061FFF7DDFF01268A
:105A9000FF206062304670BD002101607F214160BF
:105AA000FF2181607047B249002801D0FF2002E049
:105AB000CA20486253204862704770B506460025E8
:105AC000AB4CCA20606253206062FFF77CFF002865
:105AD0000AD01020A168002E01D0014300E08143CC
