:020000040800F2
:10000000201900203D3B0008A9010008AB010008B1
:1000100000000000000000000000000000000000E0
:10002000000000000000000000000000AD0100081A
:100030000000000000000000AF010008B10100084E
:100040004F3B00084F3B00084F3B00084F3B000868
:100050004F3B0008DF1D00084F3B0008231E00082F
:100060004F3B00084F3B00084F3B00084F3B000848
:100070004F3B00084F3B00084F3B00084F3B000838
:100080004F3B00084F3B0008000000004F3B0008BA
:100090004F3B0008B30100084F3B00084F3B0008EE
:1000A0004F3B00084F3B00084F3B00084F3B000808
:1000B0004F3B0008000000004F3B0008000000001C
:1000C00000F002F800F030F80CA030C8083824180E
:1000D0002D18A246671EAB4654465D46AC4201D180
:1000E00000F022F87E460F3E0FCCB6460126334282
:1000F00000D0FB1AA246AB4633431847F864000011
:10010000186500000023002400250026103A01D3C2
:1001100078C1FBD8520700D330C100D50B607047BF
:100120001FB51FBD10B510BD06F00CF91146FFF745
:10013000F7FF00F025F806F024F903B4FFF7F2FF0B
:1001400003BC06F02BF9000070B505460C461646B8
:1001500002E00FCC0FC5103E102EFAD2082E02D3AB
:1001600003CC03C5083E042E07D301CC01C5361FBE
:1001700003E021782970641C6D1C761EF9D270BDD5
:1001800010B502F021FE03F0CFFC02F0C5F801F03B
:100190001EFF00220121034803F08FFC03F072FCD4
:1001A000002010BD110300087047FEE7704770473C
:1001B000704710B5064C0121204604F0CBFD002805
:1001C00005D003F0ACFC0121204604F0CFFD10BDAA
:1001D0000044014010B54748016801221143016005
:1001E0004168454A114041600168444A114001603C
:1001F0000168012292049143016041683F22120488
:1002000091434160C16A09090901C162016BFF2282
:10021000543291430163416B490849004163002115
:10022000816000F02EF810BD70B5324D69680C2069
:1002300001403348334C03D0042901D0082901D0B0
:10024000206014E06A686968012392021B04160F9B
:100250001940B61C002907D0E96A0907090F491C93
:1002600005F0C0FF7043EBE7274846432660686807
:1002700024490006000F091D085C2168C140216067
:1002800070BD38B500201B4C009020680121090486
:10029000884320601D4801681022114301600168F5
:1002A000012211430160606860606068606060689E
:1002B0003F2109048843606060680521C904084340
:1002C0006060052003F0D8FD20680121090608437D
:1002D000206020688001FCD5606880088000606034
:1002E000606802210843606060680007800F022890
:1002F000FAD138BD001002400CB8FFF8FFFFF6FE3F
:1003000000127A000000002000093D000020024099
:1003100010B503F0A2F903F087FAFF220532314944
:10032000314802F099FD4821304802F031FE2F4853
:10033000583802F0E4FD092201212D4803F0BDFBED
:100340000A2201212B4803F0B8FB032201212A488D
:1003500003F0B3FB05220121284803F0AEFB07227E
:100360000121274803F0A9FB0C220121254803F0B5
:10037000A4FB06220121244803F09FFB0222012155
:10038000224803F09AFB08220121214803F095FB43
:10039000042201211F4803F090FB0B2201211E487B
:1003A00003F08BFB002003F09EFB10BD1B4910B532
:1003B000081F03F003FB194CA41F207800280CD061
:1003C0006078002809D001F0D7FF01F0B7FF0020C6
:1003D00060700121022002F0D8FF3221012003F0D9
:1003E0008BFB10BD2F070020940400204C0400203C
:1003F00053070008E71B000857240008A10E000857
:10040000291A0008C70F0008EB180008AF170008EA
:100410009115000803100008F11100081A000020CF
:1004200070B501218902FE4C4D00002809D0012839
:1004300006D1204603F025FC2946204603F021FC86
:1004400070BD204603F01FFC2946204603F01BFC2C
:1004500070BDF449012008707047F249002008700F
:100460007047F048012141718171C171017241727F
:100470008172002141758175C175C1870176417610
:100480008176C176017741777047E6480021417552
:1004900081757047E349002380318B62CB62012272
:1004A00080394A718A714A758A750B764B760328B2
:1004B00007D0062808D0092802D10320C87608777B
:1004C0007047CA760A7770470220F7E770B506468C
:1004D0000020FFF7A5FF0021084602F056FF00218B
:1004E000012002F052FFCF48007D012804D00228ED
:1004F00005D0032806D009E00021022004E00021F5
:10050000032001E00021042002F03FFFFF25F53524
:10051000284602F052FC00241FE00121022002F0D4
:1005200034FF0121032002F030FF0121042002F0FA
:100530002CFF284602F041FC0021022002F025FF9A
:100540000021032002F021FF0021042002F01DFF02
:10055000284602F032FC641CE4B2B442DDD370BD24
:1005600070B500226421012003F064F900226421A7
:10057000022003F05FF900226421032003F05AF9FE
:1005800000226421042003F055F97D267601002223
:100590003146052003F04EF90021084602F0F5FE31
:1005A0000024F5100121022002F0EFFE01210320BA
:1005B00002F0EBFE0121042002F0E7FE3222314678
:1005C000052003F037F9284602F027FC002102201D
:1005D00002F0DBFE0021032002F0D7FE0021042000
:1005E00002F0D3FE00223146052003F023F928460D
:1005F00002F013FC641CE4B2032CD3D370BD70B5BD
:1006000006460020FFF70CFF0021084602F0BDFE61
:100610008448007D012804D0022805D0032806D094
:1006200009E00021022004E00021032001E0002174
:10063000042002F0AAFEFF25F535284602F0BDFB96
:1006400000240FE00121084602F09FFE284602F038
:10065000B4FB0021012002F098FE284602F0ADFB19
:10066000641CE4B2B442EDD370BD10B500224378EF
:10067000012104E0445CA218491C92B289B299425B
:10068000F8D3110AC154C018427010BDF8B5664DB8
:10069000664802F04FFC634C002786B2203454E0D9
:1006A000624802F03DFCE17A002943D0217B002919
:1006B0002FD0617B6854607B401C6073A07B401E20
:1006C0000006000EA0733ED100226978012003E0ED
:1006D0002B5C9A1892B2401C8842F9DB685C69185E
:1006E00049780002401890420BD1FF224E495F32F8
:1006F000881805F00DFD4E4802F0E7FA022002F0DE
:100700008CFBE772FF2127735F31474805F068FDD6
:1007100019E0FF22411E5D32914208D2424A617BBC
:100720005054A07301202073491C61730BE0E772E1
:10073000277308E0FF2806D13B4908700120E072CA
:1007400027736073A773761EB6B2002EA8D101205E
:10075000F8BD10B5FF24CCB02D342146684605F015
:100760003FFD3448007800280AD1304822466946C7
:10077000A03002F0A7FB010002D0684602F081FC25
:100780001C21092003F0B8F94CB010BD2549012007
:10079000887300208031886170472249012000233E
:1007A0000A464871803293628871D362C8711363BC
:1007B0000872536348729363887253620874D360FB
:1007C000C8721361087313624873D36188739361AD
:1007D000C8735361704770B5124A0B00803205F040
:1007E0000FFE0F13090E3034393E134313484D5298
:1007F000575C13000B49491D9160A33103E009497F
:10080000891D9160A631D16393680B491D7800243E
:100810000968012D46D00E1801258E4246D20DE002
:10082000000400482000002038010020F4030020CC
:1008300096020020F90000202001002000283AD074
:100840003EE0FE499160A931DDE7FC49491C916019
:10085000AC31D8E7F949891C9160AF31D3E7F7494A
:10086000C91C91609A31CEE7F449093191607C311D
:10087000C9E7F249091D91608531C4E7EF49491D77
:1008800091609431D163ED49891D91608F31D163BD
:10089000EA49C91D91608A31D163E8490831916004
:1008A0008531B0E7D06B01601C7009E0D66B36680B
:1008B000891B814204D31D70D06B0460012070BD80
:1008C000002070BDDD4AD21F11464031032806D0FA
:1008D000012811D1507F04280ED10C200BE0507F4D
:1008E000002805D0012805D0022805D1092002E002
:1008F000032000E0062008807047F3B58DB000208B
:100900000A900320069004200390002009900520FF
:10091000089006200290072007900E46C7480D99C0
:10092000082502247930012904D0022909D003299D
:100930000ED114E0C1490E310164C91C4164C91CC7
:1009400005E0BE490F310164C91C4164C91C8164C2
:10095000BA487930006C0078012817D041E00221B4
:100960000A9104210691052103910621099107218D
:1009700008910821029109210791B0490A251031F7
:100980000164C91C03244164C91CE0E7AB4F307803
:10099000FF1F797F401E884217DA00226421012060
:1009A00002F048FF00226421022002F043FF0022EF
:1009B0006421032002F03EFF07207875B875F875B2
:1009C0000020F876387778770BE0387800280FD059
:1009D00000226421032002F02DFF0020B877FFF7EA
:1009E00040FD96487930006C0078022811D035E03F
:1009F000924F06997937B86C491C00786843801982
:100A0000425C611C415C0D9802F014FF396C0220BD
:100A100008700D98032828D0884F7937B86C007873
:100A2000684381190398401C085C7D21C900484334
:100A30000D99FFF7D0FE002810D0796C0878401C83
:100A40000870396C05200870B86C00220078684383
:100A50008119601C095C0D9802F0ECFE774F793724
:100A6000386C0078042857D066E0902002F02CFC07
:100A7000724F7937B96C0B91097869438A190A99D1
:100A80000492491C535C79686D4A8C464B430021A3
:100A9000515E5A1882422ED86246B4235A435118E6
:100AA000814212D9396C032008700B990978694387
:100AB0008A19611C515C002202F0BCFE39460120FB
:100AC0008039C87100203863C8E7396C0420087089
:100AD00000226421012002F0ADFE002264210220E8
:100AE00002F0A8FE00226421032002F0A3FE0020F1
:100AF000FFF796FCB2E703980499401C085C7D213F
:100B0000C90048430D99FFF766FE0028A6D0786C0F
:100B10000178491C017094E748490020C91F887773
:100B2000FFF79FFC162001F044FC0520FFF7CEFCE8
:100B300001F0F2FB01F04BFA4048404F7930006C75
:100B400039370078032842D138464030806C00782D
:100B5000684381190998401C085C7D21C9004843FD
:100B60000D99FFF738FE00280CD03888401C3880DB
:100B700038464030426C1178491C1170006C0521D8
:100B8000017021E0902002F09FFB2C49B4227931C2
:100B90004968002351432A4AD35EC918884216D3B4
:100BA000264904207931096C002208706421012053
:100BB00002F040FE00226421022002F03BFE0022EF
:100BC0006421032002F036FE0020FFF729FC1B48B9
:100BD0007930006C0078052873D118487930416C61
:100BE000806C0A780078684381190898401C085C7A
:100BF00082422BD10D9903291AD1104919318872DB
:100C0000FFF760FE3888032805D0062803D009289E
:100C100001D00C280CD100226421012002F00AFE30
:100C200000226421022002F005FE3888FFF72DFC27
:100C3000024806217930026C117003E02700002081
:100C400014010020406C002101703AE00D98032847
:100C5000029818D0401C085C7D21C90048430D99BA
:100C6000FFF7B9FD00282CD0FD4F0699B86C491C40
:100C70000078641C68438019425C015D0D9802F0A5
:100C8000D9FD022083E0401C085C7D21C900484357
:100C90000D99FFF7A0FD002810D03888042803D054
:100CA000072801D00A2801D1FFF7F4FBEC49002006
:100CB000803908700120FFF7B3FBD5E70020FFF76C
:100CC000AFFBE748016C0978062962D10D99032929
:100CD0002ED03988032947D0062945D0092943D089
:100CE0000C2941D00746806C007868438119079829
:100CF000401C085C7D21C90048430D99FFF76BFD3E
:100D0000002846D0D6490820803988770020796CA1
:100D1000641C0870B86C0022007868438019015D7B
:100D20000D9802F087FDB96C0878401C08702DE022
:100D3000CB48806C0078684381190798401C085C98
:100D40007D21C90048430D99FFF745FD002820D0BB
:100D5000C34F0020803F38700120FFF761FB08205F
:100D6000B87700208037D2E7BD4A0821803A9177D2
:100D70000746406C00210170B86C641C00780022AA
:100D800068438019015D0D9802F054FD0120396C13
:100D900008700FB0F0BD10B50022B24BFF21D93161
:100DA0009C5C8454521C8A42FADB01467622AE488F
:100DB00001F02FFC10BD02780021521EFF2A38D20C
:100DC0000022491C89B243189B78491C89B2012B27
:100DD0002FD80B46603B3C2B05D99C3B3C2B02D9C2
:100DE0009C3B3C2B01D8491C89B243189B78491C79
:100DF00089B2002B1DD043189B785B1F602B18D243
:100E0000491C89B243189B78491C89B2002B10D029
:100E10000B46603B3C2B05D99C3B3C2B02D99C3BB1
:100E20003C2B01D8491C89B243189B785B1EFA2BD6
:100E300000D3B0E7C91C521C89B2362AC1DB704707
:100E4000F7B5002001990124491C844603468E46CB
:100E5000012A04D0022A02D0032A02D002E008208C
:100E600000E00A2005465D437146695C012910D106
:100E7000002108E0019E7618AF5D009E3755641C86
:100E8000491CE4B2C9B28142F4D36146491CC9B2DB
:100E90008C465B1C062BDBDB009960460870FEBDB0
:100EA000F8B56F4C0121603C22782546C9036F4894
:100EB00000260127203D002A43D002F0D0FE002862
:100EC0004AD1E07B052872D0401CE0730AE0207C08
:100ED000052805D1E97F002902D1E178002969D0F0
:100EE000401C20741421052002F006FEF8BD0220EB
:100EF0002875002102F049FA0121032013E002289D
:100F000002D0032811D107E003202875002102F048
:100F10003CFA0121042006E02F750021042002F094
:100F200034FA0121022002F030FAFFF79AFAAE7784
:100F300000226421012002F07DFC002264210220B5
:100F40001DE04B4BA2781B781A43EB7F1A43C9D1A3
:100F500002F085FE002804D0E673687C0128B6D034
:100F6000C0E70E214348FFF736FC0028A9D0EF77F1
:100F70002771FFF776FAAE7700226421012002F094
:100F800059FC00226421022002F054FC002264215A
:100F9000032002F04FFC00226421042002F04AFCEE
:100FA00000226421052002F045FC9BE7FFE76F74F7
:100FB000E67397E72A48EF73466126746E74287DBE
:100FC00001289CD193E710B52B480078002817D052
:100FD000234C803C207801280ED10020FFF720FA16
:100FE0007D2008214001FFF7F6FB002804D00120F6
:100FF000FFF716FA0020207032210C2002F07CFD51
:1010000010BDF8B51D4E164C307804270125603C04
:10101000002844D100226421012002F00BFC0022B0
:101020006421022002F006FC00226421032002F069
:1010300001FC00226421042002F0FCFB7D2100223F
:101040004901052002F0F6FB322001F0E6FE0920FE
:101050000121C00602F003FE012811D0357021E005
:10106000A00000201A64000800780008000400486E
:10107000F900002088130000FA000020F80000208A
:1010800037706570FE48A570017800291BD1057086
:10109000FC4900200870FC498877FFF7E2F93078B6
:1010A000012803D101F038F900F091FF30780228CF
:1010B00003D101F031F900F08AFF6078012802D0F5
:1010C00004282DD030E00926F6062021304602F013
:1010D000C6FD002805D11021304602F0C0FD0128D0
:1010E00006D02021304602F0BAFD012803D008E0E6
:1010F000022060701BE01021304602F0B0FD002895
:1011000006D02021304602F0AAFD012803D006E0D7
:101110000320607047E01021304602F0A0FD6770A8
:1011200001F0FAF800F053FF6078022838D100216E
:10113000012002F02AF90021022002F026F9002104
:10114000032002F022F90021042002F01EF9617C44
:101150007D20C000002919D00C21FFF73CFB00289E
:101160001ED00121002002F010F900200925607432
:10117000ED062021284602F072FD012810D1102131
:10118000284602F06CFD0028C2D009E00C21FFF7D0
:1011900022FB002804D00021084602F0F6F865740E
:1011A0006078032803D10121002002F0EEF8142119
:1011B000042002F0A1FCF8BD884201D9401A00E0E9
:1011C000081A80B2704770B5AF4D00248035AF4E1D
:1011D00001E00A2C09D0304601F042FB641C686033
:1011E0000A38E4B25B28F4D270BD1420686070BD88
:1011F000F8B5A54C022720342079012500260128C6
:101200002ED1A148C1780079014350D1022002F0CB
:10121000BCF80021032002F0B8F80021042002F0FD
:10122000B4F800226421012002F004FB00226421B2
:10123000022002F0FFFA00226421032002F0FAFAF1
:1012400000226421042002F0F5FA7D2100224901E8
:10125000052002F0EFFA607D0A2807D0401C607577
:101260002079022809D0032815D020E0667527715F
:1012700065710020FFF7D4F8F2E7E570E07D1421F6
:101280007D2241435201914215D1E6750120FFF7BD
:10129000C7F803202071FFF796FF7D4802F043F95D
:1012A0000420207146226421032002F0C3FAE07872
:1012B000012802D030E0401CE0756079012808D197
:1012C000A07D282809D0401CA0750121022002F031
:1012D0005CF86079022804D00CE0A67567710021E3
:1012E000F4E7A07D282809D0401CA0750121032027
:1012F00002F04BF86079032805D00DE00320A675B5
:1013000060710021F3E7A07D28280CD0401CA07557
:101310000121042002F039F85B4D20790727403580
:10132000042804D03BE0A67565710021F1E7902008
:1013300001F0CAFF5449B12280314968002351436A
:10134000534AD35EC918814218D86E8300226421A3
:10135000032002F06FFA902001F0B6FF2884E98B99
:10136000FFF72AFF48490A228031496851438842E1
:1013700001D2277179E00520207113E0688B1421D8
:10138000444A4143914201D16E83F2E7401C80B24E
:101390006883052803D1902001F096FFE883207927
:1013A000052830D1A88B14213A4A4143914206D1F5
:1013B000AE830020FFF734F80620207126E0401CA1
:1013C00080B2A883142148433349884203D1902036
:1013D00001F07AFF6884A88B3049884213D19020AD
:1013E00001F072FFA8840146688CFFF7E5FE2649EC
:1013F0000622803149685143884204D92771AE835F
:101400000020FFF70DF82079062816D1E07D142181
:10141000214A4143914204D10120FFF701F8E675CA
:101420000BE0401CC0B2E075012803D1902001F010
:101430004BFFE884E07DC82803D02079072814D02A
:1014400064E0902001F040FF28850146E88CFFF71A
:10145000B3FE0D490A22803149685143884233D294
:10146000182000F0A6FF2771E6750021E6700846F7
:1014700001F08BFF0021012001F087FF617E0FE06A
:10148000FA000020F9000020200000200068000879
:10149000140100203075000088130000D205000000
:1014A000052917D0A07E142203465343FF222D3274
:1014B00093422FD1E07E14234343934212D1491C1F
:1014C0006176A676E67621E0172000F072FF08200C
:1014D00020712FE0F9486676C67700F01DFF00F016
:1014E00076FD13E0401CE0760121022001F04DFF63
:1014F0000121032001F049FF0121042001F045FFF3
:1015000050227D214901052002F094F92079082814
:1015100010D038E0401CA0760021022001F035FFF9
:101520000021032001F031FF0021042001F02DFFF4
:101530000022E6E7E670207F1421E14A4143914210
:1015400013D1DE480021C6772677022001F01DFF67
:101550000021032001F019FF0021042001F015FFF4
:1015600000F0DAFE00F033FD0DE0401C2077012191
:10157000022001F00AFF0121032001F006FF0121F2
:10158000042001F002FF14210B2002F0B5FAF8BD8F
:10159000F8B5CA4CC94D2034A0792E4640360028F3
:1015A00038D1E878297908437ED0308B042835D0AB
:1015B000401C308300226421012002F03BF900220C
:1015C0006421022002F036F900226421032002F097
:1015D00031F900226421042002F02CF97D277F01DB
:1015E00000223946052002F025F90022394605205F
:1015F00002F020F90021084601F0C7FE0021022078
:1016000001F0C3FE0021032001F0BFFE00210420F1
:1016100001F0BBFEA07901281ED04EE000203083EF
:10162000207A022815D00121022001F0AEFE01210E
:10163000032001F0AAFE0121042001F0A6FE0127EB
:101640007D21A77132224901052002F0F3F8E771EC
:10165000E0E701210020F0E7207A012802D00228EB
:101660000AD104E095484630E867001F03E093483C
:101670004E30E867001F6867E86F0A210088FFF7AF
:10168000AAF8002819D0207A022813D000210220BD
:1016900001F07BFE0021032001F077FE00210420F1
:1016A00001F073FE022000E02BE0A071B08A401C24
:1016B000B08205E000210846F2E7A079022820D197
:1016C000686FB18A0088884203D10020B08203206D
:1016D00016E0E86F0A210088FFF77DF8002810D097
:1016E000207A022813D00121022001F04EFE0121B0
:1016F000032001F04AFE0121042001F046FE0120F2
:10170000A0716E4FE0798037012803D025E00121D8
:101710000020F2E7207A012802D002280AD104E052
:10172000664848303860001F03E064485030386035
:10173000001FA86738680B210088FFF74CF80028C5
:101740000BD07D2100224901052002F073F8022010
:10175000E071F08A401CF08202E0E079022817D1A3
:10176000A86FF18A0088884203D10020F08203200C
:101770000DE038680B210088FFF72DF8002807D00E
:101780007D2132224901052002F054F80120E07148
:10179000A079032806D1E079032803D100F0BCFD2D
:1017A00000F015FC3221082002F0A6F9F8BDF8B5CA
:1017B0004448424C0188408820340090A07800289A
:1017C0002CD14148002500783C4E012700282AD022
:1017D000207E2246603214284DD0401C2076D06CEA
:1017E0004018D06439490098884217D2A07C01285B
:1017F00056D000226421012002F01CF8002264214E
:10180000022002F017F800226421032002F012F8EF
:101810007575B575F575A07C401CA0743221022049
:1018200002F06AF9F8BD2A48814233D2B57000222D
:101830006421012001F0FEFF00226421022001F05A
:10184000F9FF00226421032001F0F4FF002264214B
:10185000042001F0EFFF7D2100224901052001F065
:10186000E9FF0520FEF7CBFE1A48077000F054FD93
:1018700000F0ADFBB6E7114814218030C06C04F0D5
:10188000B1FC0E498031C864114980B2893925768E
:10189000884201D3B770A5E7152000F08AFDC5E79F
:1018A000192000F086FDA5740520FEF70FFE0948FB
:1018B000077000F031FD00F08AFBAFE72000002048
:1018C0008813000010010020FA000020B603000079
:1018D00055090000F90000200021CB480122C16613
:1018E00001678274C17441707047F8B5C7480078C9
:1018F000002877D0C44E00252036B078C24C00288E
:1019000001D0E56669E0C2480078002866D1707AA7
:10191000012700285AD0A07C002817D0E07C00289E
:1019200014D0F07C192824D050226421012001F029
:1019300081FF50226421022001F07CFF50226421AB
:10194000022001F077FFF07C401CF0740121490374
:10195000B04802F084F900281ED0E566206F1421FB
:10196000AD4A4143914243D12567E07F002824D00E
:1019700034E0F574A57400226421012001F05AFFBF
:1019800000226421022001F055FF0022642103207F
:1019900001F050FF3770D9E7E06E14217D224143FA
:1019A0001201914206D1E566256799486770057076
:1019B000E77413E0401CE06610E06570142000F04E
:1019C000F8FCE77092483772077007E0012149037D
:1019D000904802F044F9012805D02567142106201B
:1019E00002F08AF8F8BD206F14214143C82902D0C3
:1019F000401C2067F2E7002264210120256701F0E6
:101A000019FF00226421022001F014FF002264214A
:101A1000032001F00FFF0020FEF702FD3570A577CF
:101A2000FEF71FFD7772D9E7F0B5774DF7B0203597
:101A3000287801284ED1A8780028FBD1724CE07F8D
:101A40000028F7D120780028F4D1A07F00281DD1EC
:101A50007626B7003946684604F0C2FB324669462E
:101A60006E4800F0FFFE3A4669466D48FEF76CFB93
:101A70006B48FFF7A0F90620A077FFF7A4FB002032
:101A8000FEF7CEFC00206872FFF726FFA07F644FB0
:101A9000062813D178787D21C90048430621FEF736
:101AA0009AFE00280AD03878401E28750720A077B3
:101AB0000120FEF7B5FC5B4801F035FDA07F022850
:101AC0007ED00126012806D007280BD0042841D05B
:101AD00008285ED074E0287D002819D00721A1775E
:101AE000401E28753D21504804F07AFB4E483D21A8
:101AF0003D3004F073FB4C483D217A3004F06EFB1E
:101B0000207D012809D002280BD003280FD137E00F
:101B10000220A0773878287552E09C22B91C6846CC
:101B200003E03F499C229E31684604F0F1FA01220D
:101B300069463D48FFF784F93B4802223D300CA935
:101B4000FFF77EF9384803227A3018A9FFF778F9B1
:101B50000420A077902001F0B7FB2B4900234031EF
:101B60004882403149688A0089182E4AD35EC918D4
:101B700081420AD30820A0776675A675E67511E044
:101B800029499C229E396846CFE726700420A07719
:101B900016E0607D072805D1A07D072802D1E07DF1
:101BA000072813D020490120FEF7A7FE1E49022076
:101BB0003D31FEF7A2FE1C4903207A31FEF79DFE5F
:101BC0000A21072001F098FF77B0F0BDA677FEF755
:101BD00048FC287D0028F3D1122000F0EAFB267192
:101BE00002202872ECE710B509480078002805D1DA
:101BF0000B48AC3801F0A5F9FEF748FD64210A2036
:101C000001F07AFF10BD000020000020FA00002043
:101C1000F900002000040048204E00000078000871
:101C2000A00400201401002078060020F0B5232035
:101C300085B00121400402F0EDF90121480402F0D1
:101C4000FBF90121084602F0EEF9FF2601360025D6
:101C5000684602960573C57302274773092002A9D7
:101C6000C00601F0AEFF0124092002A9C0060294BB
:101C700001F0A7FF0821002003F0FAFD6846009656
:101C800005710C214171847103F06AFD0021084641
:101C900003F0EEFD102168460094417103F060FDF1
:101CA0000721684601744474847404A802F016FA8B
:101CB000684647740521017404A802F00FFA05B0C4
:101CC000F0BD70B50926F6060121304601F0C7FFC8
:101CD000012806D00121304601F0C1FF00283ED086
:101CE00079E000226421012001F0A4FD002264219A
:101CF000022001F09FFD00226421032001F09AFDE3
:101D000000226421042001F095FD002264210520B9
:101D100001F090FD0021022001F037FB002103209B
:101D200001F033FB0021042001F02FFB00210846C5
:101D300001F02BFB00252C46052001F06EF8012157
:101D4000304601F08CFF012801D16D1CEDB2641CFE
:101D5000E4B2052CF0D3052D3DD1002070BD00224A
:101D60006421012001F066FD00226421022001F0BF
:101D700061FD00226421032001F05CFD002264214A
:101D8000042001F057FD00226421052001F052FDDE
:101D90000021022001F0F9FA0021032001F0F5FAF8
:101DA0000021042001F0F1FA0021084601F0EDFACB
:101DB00000252C46052001F030F80121304601F0C5
:101DC0004EFF002801D16D1CEDB2641CE4B2052C5D
:101DD000F0D3052D01D0032070BD022070BD70B579
:101DE000FE48007801281BD0012003F003FD0028E5
:101DF00013D00925ED060121284601F030FFF84CEB
:101E0000012806D00121284601F029FF002802D030
:101E100003E0002000E002202070012003F0E7FC36
:101E200070BD10B5ED480078012815D0FF240134AD
:101E3000204603F0DFFC00280BD0E949087803288E
:101E400005D1E8480078002801D10220C8700020A0
:101E50000871204603F0CBFC10BD70B5E2480024A9
:101E60000470E24801250480E1480570FEF795FC06
:101E7000FEF7F7FADF48E1490470DF480470D848FC
:101E800084704570C5700C7003210170D3480470D4
:101E9000DB480470DB480470DB480470DB480470E6
:101EA000DB480460DB480460DB480570DB480570F4
:101EB000DB480570DB480570DB480570DB480480B3
:101EC000DB480480DB480480DB480570DB48047095
:101ED000DB480460DB480460DB480460DB480460E6
:101EE000DB480460DB480460DB480460DB480460D6
:101EF000DB480460DB480460DB480460DB480570B5
:101F0000DB480460DB480480DB48EC490470DB48B4
:101F10000470B4480470DA480470DA480470DA488F
:101F20000470DA480470DA480470DA480470DA4859
:101F30000470DA480470DA480470DA480470DA4849
:101F40000470DA480470DA480470DA4804700C70DF
:101F5000DB49D9480C600470DA480480DA48048010
:101F6000DA480480DA480480DA480480DA480480D9
:101F7000DA480470DA480470DA480470DA48047009
:101F800070BD70B50021084601F0FFF90021012065
:101F900001F0FBF90021022001F0F7F900210320F4
:101FA00001F0F3F90021042001F0EFF90020FEF721
:101FB00037FA00247D25ED00284600F02EFF641C32
:101FC000E4B2022CF8D30120FEF72AFA70BD10B556
:101FD000C6490020086000F0F7FE01F0A5FDFEF7FD
:101FE000F9F8FEF795F910BDF0B52320A3B0012153
:101FF000400402F00FF87C200090032568464571EC
:102000000126067100248471C6716946B84801F042
:10201000D8FD7C21B64801F034FE022718A81C9791
:102020000575C47509201CA9C00601F0CAFD18A8D1
:102030001E960477C4771EA9AD4801F0C2FD0021A9
:10204000AC4802F0A4FF0021AB4803F042FB0021A2
:10205000A94803F092FAA7480021503002F097FFF8
:10206000A44800213C3002F092FF0021A34802F076
:1020700000F90C200E9008A845770477C77709204F
:102080000EA9C00601F09DFD6802029068464573E6
:1020900006738473C673092002A9C00601F091FD7E
:1020A00009206902C00601F0ECFD30030490684687
:1020B000457506758475C675092004A9C00601F02A
:1020C00080FD09203103C00601F0DBFDF00306901E
:1020D0006846457706778477C777092006A9C00642
:1020E00001F06FFD0920F103C00601F0CCFD2320B3
:1020F0008001089008A8457106718471C771014676
:102100000920C00601F05DFD232109208901C006D8
:1021100001F0B9FD7A48109010A845710471C7719B
:102120000146734801F04DFD7549714801F0ABFD62
:1021300030200A9008A845730473C47309200AA9C3
:10214000C00601F03EFD20A820964571047108A844
:10215000C773092020A9C00601F033FDA802129020
:1021600010A845730473C77312A9614801F029FDD3
:1021700030020C9008A8457506758475C67509204F
:102180000CA9C00601F01DFD09203102C00601F0B6
:1021900078FD05204003149010A845750475C4759A
:1021A00014A9534801F00DFD2720C001169010A876
:1021B00045770477C77716A94D4801F002FD07203F
:1021C0004003189018A845710471C77101464D4825
:1021D00001F0F7FC18A81A95457395E0200000203F
:1021E000F80000203F0000204A000020600000208E
:1021F000490000203E0000202A000020410000206D
:1022000021000020220000202300002024000020C4
:102210008C000020900000202B0000202C000020CB
:102220002D0000202E00002030000020740000202F
:1022300076000020780000203200002033000020CB
:10224000AC000020B0000020B8000020BC0000203E
:10225000C0000020C4000020C8000020CC000020E6
:10226000D0000020D4000020D80000202F00002043
:10227000B4000020F0000020F20000204000002008
:10228000F6000020F7000020420000204800002057
:1022900046000020470000204400002045000020A8
:1022A000430000203100002055000020560000208F
:1022B0007A0000207C0000205700002058000020F9
:1022C000EC0000207E000020800000208200002022
:1022D0008400002086000020880000205900002093
:1022E0005A0000205B0000205C000020200100203C
:1022F000000400480800024000240140004400405F
:1023000002400000000800480473C7731AA99B48E4
:1023100001F057FC23B0F0BD10B5FFF79EFDFFF7AD
:1023200085FC00F0A7FFFFF75FFE0121080701F021
:1023300083FE0121084602F09BFE10BD70B5904D52
:10234000904C2868A04216D002F0E0FE352003F041
:10235000E6F8284602F00BFF2146284602F039FF36
:102360002146281D02F035FF85480021083002F083
:1023700030FF02F0D4FE70BDFEB50020804C00900E
:102380000190029003226946204600F06BFA251462
:10239000A6142946FF227C4803F0FBFE05E03246E6
:1023A0007949204600F0F0FA64190198A042F6D26B
:1023B000FEBDF0B585B00746002002900390049062
:1023C000032202A96E4800F04DFA7048039C844233
:1023D00040D28614B5002946FF226B4803F0D9FE8F
:1023E00032466949204600F03DFA01A9684601F0ED
:1023F000E5FA6846C0780004C119684640780006CE
:102400000818049909064A0D5F4988506846837880
:102410008079511800061B18684640790704684601
:10242000007900023818181848600498401C04907D
:102430000006000E04D153480290039840190390FF
:10244000032202A94E4800F09FFA32464E49204628
:1024500000F09AFA33E470B54D4C207800287DD016
:1024600004287BD0E0780125022832D1C10109205F
:10247000C00601F0F4FB0021002804D06171A078AF
:1024800000281BD025E06079322802D0401C607102
:102490001FE06171A078002808D000223D48A2709A
:1024A000002A05D061700422E27003E00122F5E702
:1024B0006570E1700170FDF7D4FF0AE02078002814
:1024C00007D0BFF34F8F35493348C860BFF34F8FF4
:1024D000FEE7E078042802D0002820D048E0304809
:1024E0000078002844D01120FFF763FF012100206D
:1024F00000F04BFF2B480078012804D0022805D0BB
:10250000032806D009E00121022004E00121032074
:1025100001E00121042000F038FFE57028E00022EE
:102520006421012001F086F900226421022001F0DB
:1025300081F900226421032001F07CF9002264214A
:10254000012001F077F900226421022001F072F9E4
:1025500000226421032001F06DF900E00CE013205B
:10256000FFF727FFFFF70DFDFFF7D6FEFFF72FFD63
:102570001421032001F0C0FA70BD000000140048CF
:1025800000880008009000080C0A002000000208E3
:10259000F80000203E0000200400FA0500ED00E0F5
:1025A000220000203400002000B5D9B0FF22694687
:1025B0000A7008224A7000228A700322CA700871C9
:1025C000020A4A71020C8A71000EC8716846FEF751
:1025D0004CF869464A78FA48921C00F053FC59B00E
:1025E00000BDF8B5FF270546D9373946F54803F051
:1025F000F5FDF54E0020F34C30803946204603F0BF
:10260000EDFD287920706879607021780818308095
:10261000F8BDF8B516460F460024054602F076FDD3
:10262000352002F07CFF284602F0A1FDFF2E12D9D2
:1026300013E0A000395CC019427812028918827830
:10264000C0781204000610180918284602F0C1FDCF
:10265000641CA4B22D1DB442EBD302F060FD2046F1
:10266000F8BDF0B5FF269B36D64DD74C91B0112959
:1026700036D0122949D013295DD0212975D02229BD
:102680006FD023296ED031296DD032296CD03329F7
:1026900024D1071DA8190F903C21684603F0A0FD26
:1026A00000206A46397811542388401CC9187F1CC1
:1026B00021803C28F6DB3C2269460F9803F028FD78
:1026C0002088A919020A20310A7748777622BD4965
:1026D000BE48FFF79EFFBE490120087011B0F0BD53
:1026E000061D30216846AD1C03F07AFD00216846C6
:1026F000327842542388491CD218761C2280302913
:10270000F6DB01463022284612E0AE4E051D323679
:102710003021684603F064FD002168462A7842545F
:102720002388491CD2186D1C22803029F6DB7DE0FD
:1027300003F0EEFCD2E7A34E051D62363C2168464D
:1027400003F04EFD002168462A7842542388491C34
:10275000D2186D1C22803C29F6DB3EE0014651E098
:1027600003E015E027E03AE04EE0964E051D9E3668
:102770003021684603F034FD002168462A7842542F
:102780002388491CD2186D1C22803029F6DB4DE0CD
:102790008C4E051DCE363021684603F021FD002108
:1027A00068462A7842542388491CD2186D1C22801E
:1027B0003029F6DB3AE0834E051DFE363C216846A3
:1027C00003F00EFD002168462A7842542388491CF4
:1027D000D2186D1C22803C29F6DB3C22BEE7051D89
:1027E0007C4E3021684603F0FBFC00216A462878C5
:1027F00050542388491CC0186D1C20803029F6DBFA
:1028000030226946304693E7724E051D303630213E
:10281000684603F0E5FC002168462A784254238884
:10282000491CD2186D1C22803029F6DB302295E736
:102830007CB5FF2168460170052141700024847039
:102840000821634DC17029780171FDF70EFF6846BC
:10285000427869465A48921C00F014FB2C707CBDEB
:102860000068704730B50023002907D004E09D00C0
:1028700010C85B1C4C519BB29342F8D330BD30B5AD
:10288000FFB07624D0B0A500294658A803F0A8FCD4
:10289000224658A94D48FFF7E5FF2A4658A949485E
:1028A00003F036FC4748FEF786FAFF2069460870B9
:1028B000A2204870002088700920C8704148027822
:1028C0000A7142784A7102216A46801C03785418C2
:1028D000401C491C23719E29F8DB1046FDF7C5FEFC
:1028E0006846427869463648921C00F0CBFA7FB0C1
:1028F00050B030BD30B5D9B0FF2168460170A0217D
:102900004170002181700A21C17032499E209C399A
:10291000FF236A463B3314180D78A03C401C491C29
:10292000A5719842F7DB1046FDF79FFE6846427896
:1029300069462348921C00F0A5FA59B030BD30B565
:10294000D9B0FF2168460170A0214170002181703B
:102950000B21C170FF201F493B30FF236A46D7334C
:1029600014180D78FF3C413C401C491CA57298424C
:10297000F6DB1046FDF779FE684642786946104856
:10298000921C00F07FFAD8E7F8B516460F460546C8
:10299000002402F0BBFB352002F0C1FD284602F006
:1029A000E6FB07E0A0003958284602F012FC641C40
:1029B000A4B22D1DB442F5D302F0B1FB2046F8BD00
:1029C0009404002033080020F40000200078000860
:1029D000FE0000206D09002000787047F7B56946B9
:1029E000C8884E880A790D78801B511B00D5494252
:1029F000002800DA404203F0FFFB84B269464889B0
:102A0000097A801B491B00D54942002800DA404260
:102A100003F0F2FB80B220184008FEBDF0B58FB085
:102A2000FF21684601730F23437300218173D74F41
:102A30006021C1733E780670FC1C228842807D783C
:102A400005716188C180BF780772A48844810674CB
:102A5000160A46748274C5740A0A02754175877530
:102A6000210AC1750476CA4802A900880331585466
:102A7000010A02A80230195403A8FDF7F6FD6846C2
:102A8000427B03A9C348921C00F0FCF96B4607CBBC
:102A9000FFF7A4FF0E9001220EA9BF48FFF7B9FD72
:102AA0000FB0F0BD10B5B94AD41C01290CD00229D1
:102AB00011D0032907D100799070902000F004FC18
:102AC000A080FFF7ABFF10BD00791070902000F0E0
:102AD000FBFB208010BD00795070902000F0F4FBCB
:102AE000608010BD1CB5FF21684601700521417052
:102AF000002181706621C17001210171FDF7B5FDD2
:102B0000684642786946A348921C00F0BBF91CBD98
:102B10000EB50020009001900290032269469F4864
:102B2000FFF7A0FE02980EBD0EB5FF2069460870A3
:102B300008204870002088706920C870FFF7E8FFFF
:102B4000020E69460A71020C4A71020A8A71C87142
:102B50006846FDF78AFD69464A788E48921C00F067
:102B600091F90EBD30B5BFB00546FF23684603702E
:102B7000AB1E4370002484707123C370130A037169
:102B8000427106206A4605E00B781354641C401C11
:102B9000A4B2491C53785B1E8342F5DA1046FDF758
:102BA00064FD6846427869467A48921C00F06AF9EA
:102BB0002946684603F014FB20463FB030BD10B5EF
:102BC000092103F00FFB002901D0401C80B210BD89
:102BD000F0B50446724985B000200860FFF798FF01
:102BE000C117090E09180A02090A0902401A150C30
:102BF00080B21E2103F0F6FA0090E80028180E4675
:102C000001210F25C902ED010190A04223D3654E99
:102C1000FF22304603F0BDFA2046FFF7D0FFC10285
:102C20005E480122081852023146FFF71BFE0921B7
:102C3000204603F0D7FA002909D02046FFF7BFFF4E
:102C4000C1004018201AF0214843801921E0711971
:102C5000224688202DE0534FFF22384603F099FA90
:102C60002046FFF7ACFFC1024C480122081852026F
:102C70003946FFF7F7FD009901984018A042204619
:102C80000AD3FFF79CFFC1004018201AF0214843E7
:102C9000C0194119F8200BE0FFF791FFC10040185F
:102CA000201AF0214843C0194119F0000830C0B281
:102CB0002246FFF757FF05B0F0BD002804D0017988
:102CC00040790902081880B2704710B5C1782329ED
:102CD00033D015DC112930D009DC091F0B0003F0BB
:102CE0008FFB092932352F28282828382800122957
:102CF00023D0132921D021291FD0222919D11CE04A
:102D0000512929D009DC312917D0322915D033298E
:102D100013D050290DD1012121E052291ED065295F
:102D200020D068292FD0702903D1FFF7C6FFFFF705
:102D30004FFF10BDFFF755FC10BDFFF792FC10BD13
:102D4000FFF776FD10BDFFF79AFD10BDFFF7D2FD2E
:102D500010BDFFF7F4FD10BD022100E00321FFF7D5
:102D6000A1FE10BD00F05FFE0028FAD00C49002043
:102D70000860FFF701FBFFF7E1FA2020FFF719FBDE
:102D8000FFF7B0FE10BDFFF7CFFE10BDFF00002023
:102D90001401002094040020006800080088000846
:102DA000900000200C0A0020064908800028FDD170
:102DB000704710B500F01AF810BD10B500B200F061
:102DC0002CF810BD0801002010B50420C04301F00C
:102DD000B1F91E481C49006803F004FA1C4940B2CE
:102DE0007D220870D2005043488010BD184900224F
:102DF0008A5618495043486100228A6108690123B4
:102E0000184308610869C30701D0C003FAD50869EF
:102E10004008400008618A6170470D4902228A5EBD
:102E20000C495043486100228A6108690123184314
:102E300008610869C30701D0C003FAD508694008D2
:102E4000400008618A61704700127A00000000208B
:102E50000A01002000E000E0816000218180C28042
:102E6000418001807047002181804180018070474E
:102E70008188C088814201D30120704700207047BB
:102E800080887047F0B5C4888388A41AA34201DD06
:102E90000020F0BD00231D460DE00488C688B44222
:102EA00000D3058007888668CC5CF4550488641CD0
:102EB0005B1C04809BB29342EFD381888918818088
:102EC0000120F0BD70B58388934200D81A460023D4
:102ED0001D460DE04488C688B44200D3458046882C
:102EE0008468A45DCC544488641C5B1C44809BB201
:102EF0009342EFD38188891A8180104670BD0022E9
:102F0000C26482644821426501657047826C8154C5
:102F1000816C491C8164482901D10021816470477A
:102F2000C16C425C491CC164482901D10021C164C3
:102F300010467047C26C816C881A914200DA4830A2
:102F4000704770B5044600F0A8F8216D814201DB9E
:102F50000D1A01E00D1A4835002320650EE0C11856
:102F6000482903DB01191846103002E00119184600
:102F70005830095C2046FFF7C9FF5B1C606DAB420F
:102F8000EDDB40196065482801DB4838606570BD9D
:102F9000F3B501214C0493B0204601F03BF8012128
:102FA000084601F037F80121204601F045F80926CE
:102FB000F60601220321304600F06FFE01220221B5
:102FC000304600F06AFE0C25022069460095087123
:102FD0000320487100248C710120C871304600F034
:102FE000F0FDE1204002304F12940D900E940F94AA
:102FF00010940DA91195384601F0C9F82B4801F03D
:103000006BFF294880252830029010200994460241
:103010000394059406940795049008940A9402A9D1
:103020000B960C94214801F089FF2048143001F0E0
:1030300053FF1D4805A9243002901398039014985B
:10304000049431C120200A9018480894099402A9D8
:103050000B960C94143001F071FF0122C021384608
:1030600001F044FA11480121143001F090FF0121D0
:103070000E4801F08CFF0121384601F0FAF815B036
:10308000F0BD0A4A13685B085B001360D0605160B2
:1030900010680121084310607047044810B51430CF
:1030A00001F081FF10BD00000044004044000240D8
:1030B0001CB50121480400F0ADFF03204002009040
:1030C00001206946087188710022CA71487109207F
:1030D000C00600F076FD1CBD1CB5012080020090EA
:1030E00001206946087188710020C8710320487169
:1030F0000920C00600F065FD1CBD1CB50120800242
:10310000009000206946087101228A71C87103206D
:1031100048710920C00600F054FD1CBD70B5FFF7D2
:10312000DBFF0125AD020920C00685616C108461BA
:103130000520FFF73EFE7A4E35810520FFF739FE68
:10314000348170BD70B501247548A40204816010FB
:103150000925ED06A8610520FFF72BFEAC610520CF
:10316000FFF727FE70BD70B5FFF7B6FF01206C4C6E
:103170008002208145100920C00685610520FFF7E7
:1031800018FE25810520FFF714FE70BD10B5FFF76E
:10319000A3FF012189020920C00681614C108461CE
:1031A0000520FFF706FE5E4804810520FFF701FEBB
:1031B00010BD70B50120002580020924E406A0613D
:1031C0000520FFF7F6FD01267602A6610520FFF730
:1031D000F0FDFFF792FF1420FFF7EBFD208AFFF7C9
:1031E0007BFF0520FFF7E5FD4D4806811920FFF71D
:1031F000E0FD284670BDF8B509270024FF0601262A
:10320000054676022806474801D5B86101E04449E1
:1032100008816806050E0520FFF7CBFDBE6105207D
:10322000FFF7C7FD3E4806810520FFF7C2FD641C7D
:10323000E4B2082CE6D3F8BDF8B50024FFF75DFF33
:103240000126002576020927FF06BE610520FFF74B
:10325000B0FD6006398A000E4905CC0F04433048A2
:1032600006810520FFF7A5FD6D1CEDB2082DECD3FE
:103270002046F8BD10B5FFF71BFFFFF74FFF0020FA
:10328000FFF7B9FFFFF795FF0620FFF7B4FF10BD6A
:1032900010B5FFF70DFFFFF741FF9020FFF7ABFFE1
:1032A000FFF787FF0120FFF7A6FFFFF782FFBE2091
:1032B000FFF7A1FFFFF77DFF8320FFF79CFFFFF7DC
:1032C00078FFFFF73FFF10BD10B50446FFF726FF5C
:1032D0002046FFF790FFFFF76CFF0020FFF78BFF02
:1032E000FFF767FFFFF72EFFFFF718FF641CE0B240
:1032F000FFF781FFFFF75DFFFFF79EFF0A4C20708D
:10330000FFF731FFFFF798FF6070FFF72CFFFFF723
:1033100019FF207861780002401880B210BD0000CB
:1033200020000048000400000E0100201FB501210C
:10333000480400F078FE15216846017300244473A8
:103340000121817303A800F0C9FEE3487D21C90073
:10335000006802F047FF401E019068460480048127
:1033600044808472DD4C6946204601F073F90121E6
:10337000204601F0ECFC01221146204601F0D6FC6B
:103380000121204601F0D7F91FBD024610B5D448EF
:10339000130003F035F805040A141A200F00012960
:1033A00001D0082104E0082106E0012903D004210E
:1033B00000F067FC10BD042100F065FC10BD012980
:1033C00001D04021F4E74021F6E7012901D0202176
:1033D000EEE72021F0E7012901D01021E8E71021D4
:1033E000EAE71CB57C2000900120694608710020A6
:1033F0008871C8710320BA4C4871204600F0E1FB87
:103400000821204600F03DFC0421204600F039FC54
:103410004021204600F035FC2021204600F031FC00
:103420001021204600F02DFC1CBD7CB50124240396
:10343000012069460094087100208871C87103203A
:1034400009254871ED06284600F0BBFB21462846B9
:1034500000F019FC7CBD7CB50324A4020120694660
:103460000094087100208871C87103209C4D487138
:10347000284600F0A6FB2146284600F004FC7CBD4F
:103480001CB50120C0030090002168460171012194
:10349000C1716946924800F094FB1CBD1CB53020F8
:1034A0000090002069460871C871032048718C485B
:1034B00000F087FB1CBD7CB50124E40301206946B4
:1034C0000094087100228A71C8710320092548718F
:1034D000ED06284600F075FB2146284600F0D1FB9A
:1034E0007CBD1CB5FF2001300090002069460871AA
:1034F0000920C00600F065FB1CBD1CB5012040037F
:103500000090002069460871754800F05AFB1CBD08
:103510001CB5012000900020694608710920C006F2
:1035200000F04FFB1CBDF0B585B00746142168467E
:1035300002F056FE00253220FFF76FFC00246E4695
:103540009020FFF7C1FE61007052401985B205203E
:10355000FFF74CFC641CE4B20A2CF1D30A21284684
:1035600002F040FE388005B0F0BDF0B5012193B007
:10357000480400F04FFD0121880400F04BFD0226B5
:1035800003216846069601770024C477092006A91E
:10359000C00600F016FB012706A95148069700F067
:1035A00010FB0121480200F03EFD0121084600F019
:1035B00031FD4C4D284601F0B7FF4B4801F08CFC23
:1035C000484809A940300890484851C18020460029
:1035D0000D90C0000F90202010900C9400021190CC
:1035E0000E9608A91294404801F0A8FC01213E481B
:1035F00001F0CDFC0221284602F075F80121284691
:1036000002F067F8684601F0B0FF68460094077161
:1036100004200590029469460494284601F092FF24
:1036200007220221284602F00DF8072231462846DB
:1036300002F008F8284602F028F80121284601F097
:103640009CFF2B4C2846214602F05DF80028F9D05B
:10365000284602F036F813B0F0BD10B52320012142
:10366000400400F0D7FCFFF753FFFFF73AFFFFF7E6
:1036700044FFFFF713FFFFF71EFFFFF7D6FEFFF72C
:10368000B0FEFFF7E8FEFFF7FBFEFFF76EFFFFF768
:10369000FFFDFEF753FE10BD10B509200121C00645
:1036A00000F0DDFA10BD012070477047012070471F
:1036B00070470120704770471CB50121880400F055
:1036C000A9FC01200022694600900A71C8710448D3
:1036D00000F077FA1CBD000000000020004401400B
:1036E00000040048002401400800024010010020AE
:1036F00001000001F0B5A94D89B00021284601F074
:103700001AF8A74E0021304601F015F8A54F002108
:10371000384601F010F80021A34801F00CF8002110
:10372000A24801F008F8A2480690A24968468182A2
:1037300000248483C482847705A9284600F08AFF88
:1037400005A9384600F086FF05A9304600F082FF43
:1037500005A9954800F07EFF05A9944800F07AFF7E
:10376000602168460180012141800421818002940A
:1037700084810821C1814901018244826946284629
:1037800001F009F80821284601F04CF96946304655
:1037900001F001F80821304601F044F96946384645
:1037A00000F0F9FF0821384601F03CF969467E48EF
:1037B00001F093F808217C4801F047F969467B48FD
:1037C00000F0E9FF0821794801F02CF90121284691
:1037D00000F098FF0121304600F094FF01213846A7
:1037E00000F090FF0121704800F08CFF01216F482C
:1037F00000F088FF0121284600F09DFF012130469E
:1038000000F099FF0121384600F095FF012166483C
:1038100000F091FF0121654800F08DFF012138463D
:1038200000F0ADFF09B0F0BD10B500F05AF8FFF799
:1038300061FF10BD70B5164605465D4A481E88B04A
:1038400090423AD8642E38D8501C02F0CBFC401E6F
:10385000069058496846818200248483C482847714
:1038600006986421401C704302F0BCFC01466022B3
:10387000684602800122428002918481012D0BD092
:10388000022D0CD0032D1AD0042D1BD0052D14D1E0
:10389000C48105A9454C05E005A9404C02E0C4815E
:1038A000404C05A9204600F0D5FE6946204600F0B0
:1038B00072FF0821204601F0B5F808B070BD05A9D7
:1038C000374CEFE7C481384C05A9204600F0C2FE12
:1038D0006946204601F001F80821204601F0B5F8BC
:1038E000EBE7FEB503200121400400F093FB01212A
:1038F000022000F0A1FB0121880400F094FB0121CB
:10390000080200F099FB0121CC02204600F08BFB5D
:103910000121080400F087FB022569460D71002093
:103920008871C871032048710926F6060122062114
:10393000304600F0B2F9402000906946304600F071
:1039400040F905220721304600F0A7F980200090B9
:103950006946304600F035F9174F002201213846FC
:1039600000F09BF969463846009500F02AF90222DA
:103970000B21304600F091F969463046009400F082
:1039800020F901220E21384600F087F9E00000906E
:103990006946384600F015F9FEBD000000040040FD
:1039A0000020004000480140002C01400040014040
:1039B0007FBB0000E70300000004004810B5044688
:1039C000002002F091F82146002002F001F910BD1C
:1039D0000A2805D00B2805D00C2800D112207047EA
:1039E000102070471120704710B50121080700F022
:1039F00023FB012001F00DFB012000F0F3F9212051
:103A000000F092F90028FAD0FF20013000F0E8FA27
:103A10001B48FF2141607F210160012000F0E5FA91
:103A200001F04AFF10BD10B5044686B0012001F038
:103A3000F0FAFFF7D9FF0020009011484168029189
:103A40000068019061796846C173A1794173E17999
:103A50008173617A0174A17A4174E17A817401F011
:103A600097FF00280AD004A9002001F0F0FF03A965
:103A7000002002F060F8012006B010BDFEE7000053
:103A8000180100202B4D2C4C0026666061680C202C
:103A9000414348194279012A09D1C3888268D21862
:103AA00023689A4203D88660C68068588047606859
:103AB000401C60600F28E9D3E7E730B50C231446BB
:103AC0001C4D5C43631959711A7128510020D8802C
:103AD000986030BD0E2805D80C225043154A0121AC
:103AE0008018417170470E2805D80C225043114AA6
:103AF000002180184171704710B50E280ED80E4A6B
:103B000013680C2250430B4A84187D20C0004843A0
:103B10007D21C900A36002F065FBE08010BD06486E
:103B20000168491C0160704710B5FFF7FFFB10BD2D
:103B3000704700000C120020200100200748804739
:103B400007480047FEE7FEE7FEE7FEE7FEE7FEE781
:103B500004480549054A064B70470000D501000896
:103B6000C10000082013002020190020201500208B
:103B700020150020092110B5C906884202D1012173
:103B80004C0404E04D49884209D101210402204639
:103B900000F05BFA0021204600F057FA10BD4849BA
:103BA000884202D101210402F1E74649884202D14C
:103BB00001210C05EBE744498842EFD101218C0536
:103BC000E5E7F0B50022012423460D6893401D402F
:103BD0009D422AD10D79012D01D0022D12D1876885
:103BE00055000326AE40B74387604E79AE408568E6
:103BF0002E43866085889D43858085888B79934098
:103C00001D438580066855000323AB409E43066034
:103C10000E790768AE403E430660C6689E43C660A4
:103C2000CB79AB40C5682B43C360521C102ACBD361
:103C3000F0BD2649016000210171022242718171AB
:103C4000C1717047012208B512040A430092C26193
:103C5000C1610099C161C169C069009008BD024697
:103C6000128A00200A4200D001207047008A704763
:103C70000246928A00200A4200D001207047808AC2
:103C800070478161704701857047002A01D08161CA
:103C9000704701857047818270474B07DB0E9A4061
:103CA000C90810B589000818016A0F249C40A14377
:103CB0000162016A1143016210BD00000004004866
:103CC00000080048000C004800140048FFFF0000F6
:103CD000F74801680122114301604168F54A11402B
:103CE00041600168F44A11400160016801229204B8
:103CF0009143016041683F22120491434160C16ACF
:103D000009090901C162016BFF2254329143016329
:103D1000416B490849004163002181607047E449D3
:103D200000228A708870704703460020E0495A09D3
:103D30000CD0012A0CD0022A0CD0496BDA06D20E24
:103D4000012393400B4200D0012070470968F5E73A
:103D5000096AF3E7496AF1E718B50020052424024F
:103D600000901120FFF7E0FF0099491C0091A1424B
:103D700001D00028F5D01120FFF7D6FF002800D091
:103D8000012018BDCA4A1168F8239943C0000843AE
:103D900010607047C6490028086802D0012210430D
:103DA00001E04008400008607047C14A516BF823A9
:103DB0009943C000084350637047BD490028486BD1
:103DC00002D00122104301E04008400048637047E0
:103DD000B74904220028486B01D0904300E010430B
:103DE00048637047B2490A6A520852000A620A6A76
:103DF00004239A430A620A6A02430A627047AC4982
:103E00000A6A18239A430A620A6A02430A627047DE
:103E1000A7490028486A02D00122104301E0400867
:103E200040004862704710B5A14A53683D242404FD
:103E3000A3435360536808430343536010BD0122FA
:103E40009B4912060028086801D0104300E0904307
:103E500008607047964AD16A090909010143D16295
:103E6000704701229249D2040028086801D010430B
:103E700000E09043086070478D49C87170478C4AD4
:103E8000516889088900014351607047884840683B
:103E90000C2108407047864A5168F023994301433A
:103EA00051607047824A516807231B0299430143BE
:103EB000516070477E494A6801239B039A434A60D8
:103EC0004A6883B21A434A600A6B8B159A430A63A5
:103ED0000A6B000C02430A63704775490A6B402362
:103EE0009A430A630A6B02430A63704770490A6B7C
:103EF00010239A430A630A6B02430A6370476C49B2
:103F00000A6B920892000A630A6B02430A637047C5
:103F1000F8B5674D044668680C21684E084003D028
:103F2000042801D0082801D0266012E0696868687A
:103F30000122890212040F0F1040BF1C00281CD060
:103F4000E86A0107090F3046491C02F04BF9784333
:103F5000206068685A4B0006000F1A5C2068014612
:103F6000D14061606A685205520F9A5CD140A160ED
:103F70002A6BD20505D4534A09E0534847432760CA
:103F8000E7E76A68520401D44A0800E08A08E26060
:103F90002A6B53064D4A03D44C4B1233236100E085
:103FA00022612B6BDB0601D4666100E060612B6B44
:103FB0009B070FD0296B8907890F01290CD0286B2B
:103FC0008007800F022809D0286BC043800700D1EA
:103FD000A661F8BDA161F8BDA061F8BDA261F8BD00
:103FE00033490A6A02430A62704731490028374A56
:103FF000086A01D0104300E0904308627047012234
:104000002B4912040028086A01D0104300E09043B5
:1040100008627047264A0029516901D0014300E037
:10402000814351617047224A0029916901D00143BF
:1040300000E08143916170471D4A0029D16901D098
:10404000014300E08143D1617047194A0029916A18
:1040500001D0014300E0814391627047144A002976
:10406000D16801D0014300E08143D1607047104A1C
:104070000029116901D0014300E0814311617047BB
:104080000B4A0029517A01D0014300E0814351726B
:1040900070470748416A0122120611434162704786
:1040A000034A0146926800200A4200D0012070476E
:1040B000001002400CB8FFF8FFFFF6FE00127A0075
:1040C00028010020809FD50000093D0000800000ED
:1040D00001498872EBE700000010024030B5837898
:1040E00001210278002B15D09408174BA400E41886
:1040F00023689207D50EFF22AA4093434278920785
:10410000120EAA401A4322600078C006C00E8140F9
:104110000E4804E0D006C00E81400C48803001609B
:1041200030BD0B4A0029116901D0014300E08143F1
:1041300011617047042207490428086902D090439E
:10414000086170471043FBE700E400E000E100E095
:1041500000ED00E000E000E0F74910B5884209D129
:1041600001218C032046FFF779FF00212046FFF74D
:1041700075FF10BDF1498842FBD101214C04204656
:10418000FFF775FF00212046FFF771FF10BD70B5E6
:104190000446006888B00D46400840002060616811
:1041A000032000038143A868084360602168E44855
:1041B000EA680140686810432A690A431043206096
:1041C000A06803210902884369690143A160684628
:1041D000FFF79EFED848844201D1069800E002987D
:1041E00021680904296801D5490000E089001922E5
:1041F000504301F0F7FF0546642101F0F3FF06018B
:104200003009642148432168281A090407D5C000F1
:104210006421323001F0E6FF4007400F06E0000164
:104220006421323001F0DEFF0007000F3043A0812F
:1042300008B070BD4B21C90101600021416081605F
:104240000C22C16002614161704710B542680F23C2
:104250001B029A4318C923430C6849680C43234343
:104260001343436010BD0021016041608160C16063
:1042700070470029016802D00122114301E049087A
:10428000490001607047002A026801D00A4300E03B
:104290008A43026070470122D2030029016801D0DD
:1042A000114300E09143016070470122D2020029CE
:1042B000816801D0114300E0914381607047012281
:1042C000D2040029416801D0114300E091434160CC
:1042D0007047012292040029416801D0114300E097
:1042E000914341607047002A426801D00A4300E0D0
:1042F0008A43426070470122D2030029416801D0FD
:10430000114300E09143416070470122D20500292A
:10431000416801D0114300E0914341607047426918
:10432000120E1206426142690A4342617047028AD4
:10433000120A12020282028A0A4302827047022291
:104340000029016801D0114300E0914301607047EA
:10435000826803231B059A43826082680A43826055
:104360007047012212050029416801D0114300E085
:10437000914341607047426803235B059A43426062
:1043800042680A4342607047C1690122D2039143E7
:10439000C1617047C905C90D01857047808CC00592
:1043A000C00D704742681202120A42604268090654
:1043B0000A4342607047012252030029016801D07C
:1043C000114300E091430160704702680123DB0262
:1043D0009A43026002680A430260704742681023F1
:1043E0009A43426042680A43426070474268202311
:1043F0009A43426042680A43426070470122920336
:104400000029416801D0114300E0914341607047A9
:1044100008220029816801D0114300E091438160A6
:104420007047028AD2B20282028A09020A430282D9
:10443000704720220029816801D0114300E0914398
:104440008160704710220029816801D0114300E08B
:10445000914381607047826807235B049A438260BE
:10446000826849040A438260704742691202120A54
:104470004261426909060A43426170478268042327
:104480009A43826082680A43826070470222002950
:10449000816801D0114300E091438160704701229F
:1044A00092030029816801D0114300E091438160AB
:1044B000704782680123DB039A43826082680A4363
:1044C0008260704702681F235B059A43026002689E
:1044D00049050A430260704702681F231B049A4380
:1044E0000260026809040A4302607047002A826879
:1044F00001D00A4300E08A4382607047826801234A
:104500005B039A43826082680A438260704710B5F9
:104510000B041C0E01238B40022C02D0032C02D072
:1045200002E0001D00E008300168002A01D01943B4
:1045300000E09943016010BD003801400044004094
:10454000F3E9FFFF002A028B01D00A4300E08A430F
:1045500002837047826801231B039A43826082684A
:104560000A43826070470246D26900200A4200D0A6
:10457000012070470162704730B50A04130E012212
:10458000144600258C40012B0ED0022B0ED08368E0
:10459000090C2340C0698A401040002B02D000283B
:1045A00000D00125284630BD0368F1E74368EFE7F6
:1045B0000A0C01219140016270470000F84910B5D2
:1045C000884202D10121C41430E0012189078842C8
:1045D00006D101210846FFF74AFD0021012008E02D
:1045E000F049884208D101210220FFF740FD002157
:1045F0000220FFF73CFD10BDEB49884206D10121A6
:104600001020FFF734FD00211020F2E7E74988422F
:1046100007D1841501212046FFF729FD00212046FE
:10462000E7E7E349884209D101210C042046FFF75E
:1046300015FD00212046FFF711FD10BDDD49884220
:1046400002D101214C04F1E7DB498842F5D1012177
:104650008C04EBE710B50288D14B984206D00124B8
:10466000A407A04202D0CF4CA04203D17024A243A1
:104670004C882243CC4CA04203D0D04C22400C8921
:10468000224302804A68C2620A880285984208D0A2
:10469000C74A904205D0C74A904202D0C64A9042CB
:1046A00001D1897A01860121818210BD0021C9438F
:1046B0004160002101800181418081727047018544
:1046C00082827047028870239A430A4302807047AF
:1046D00041627047C1627047406A7047008D704701
:1046E00002220029018801D0114300E0914301809A
:1046F000704704220029018801D0114300E0914352
:104700000180704780220029018801D0114300E018
:10471000914301807047028808239A4302800288EF
:104720000A43028070470288A44B1A400280028824
:104730000A43028070470029018802D001221143F8
:1047400001E0490849000180704710B50A884B888C
:10475000CC881A438B8823431A430B891A434B890D
:1047600089891A430A434030828010BD00210180AC
:1047700041808180C18001814181818170474030C9
:104780000029818803D00122D203114301E04904AA
:10479000490C8180704730B5028C52085200028467
:1047A000038C8288048B7025AC43A4080D88A40078
:1047B00025430224A3438C891C434B882343784C14
:1047C000A04208D07A4CA04205D07A4CA04202D038
:1047D000794CA0420DD10824A343CC891C43042367
:1047E0009C438B882343754C22400C8A14434A8A8D
:1047F00022438280058389684163038430BD70B59C
:10480000028C10239A430284048C8288038B6C4DA3
:104810002B400D782D062D0C1D4320239C438B89A6
:104820001B051E0C4B8826431B051B0C5C4C33439D
:10483000A04215D18024A343CC892405240C1C4319
:1048400040239C438B881B051B0C23435D4C22405B
:104850000C8AA404240C14434A8A9204120C2243A6
:104860008280058389688163038470BD30B5028CC2
:10487000554B1A400284038C8288848B7025AC438C
:10488000A4080D88A4002543504C23400C7B24062B
:10489000240C1C438B781B061B0C2343404CA0426A
:1048A00015D14B4C23408C7B2406240C1C43494BD4
:1048B0001C400B791B061B0C2343474C22400C8ADF
:1048C0002405240C14434A8A1205120C22438280C8
:1048D00085838968C163038430BD30B5028C3F4B4A
:1048E0001A400284048C8388828B354D2A400D78CF
:1048F0002D062D0C15433A4A14400A7B1207120C60
:1049000022438C782407240C1443254A904205D175
:10491000344A13400A8A9205120C1343838085831C
:1049200089680164048430BD002101804180818058
:1049300081608181C18101824182704730B5034627
:1049400018330124058C8C40A5430584002910D020
:1049500008290ED0091F0804400CC018016807235D
:104960001B039943016001681206120C1143016098
:1049700030BD4808C0180168702399430160016880
:10498000F4E74163704781637047C1637047016416
:104990007047028B70239A430A43028370470000DA
:1049A000002C0140000400400010004000200040A6
:1049B000004001400044014000480140FFFC00006D
:1049C000FF8C0000FFF30000FFFE0000FFFD000071
:1049D000FFF70000FFFB0000FFCF0000FFEF00002B
:1049E000FFDF0000FFBF0000028BF64B09021A40F8
:1049F00011430183D2E7828B70239A430A43828357
:104A0000CCE7828BEF4B09021A4011438183C5E743
:104A10000029818802D00122114301E049084900A0
:104A20008180BBE7028B08239A430A430283B5E7E0
:104A3000028BE54B09021A4011430183AEE7828BDA
:104A400008239A430A438283A8E7828BDE4B09023C
:104A50001A4011438183A1E7028B04239A430A433E
:104A600002839BE7028BD94B09021A401143018351
:104A700094E7828B04239A430A4382838EE7828BD6
:104A8000D24B09021A401143818387E7028B8023AE
:104A90009A430A43028381E7028B5204520C0902B3
:104AA000114301837AE7828B80239A430A438283EE
:104AB00074E7828B5204520C0902114381836DE723
:104AC000028C02239A430A43028467E7028C08237C
:104AD0009A430A43028461E7028C20239A43090126
:104AE000114301845AE7028C80239A430901114340
:104AF000018453E7028CB64B09021A40114301842A
:104B00004CE7028CB04B09021A401143018445E77F
:104B1000028CB04B09031A40114301843EE702891D
:104B200008239A43028102890A43028136E710B5BD
:104B30000123048C8B409C430484038C8A401343E0
:104B4000038410BD10B50423048C8B409C43048463
:104B5000038C8A401343038410BD042200298188FA
:104B600001D0114300E09143818017E7828B9A4B7B
:104B70001A408283828B09020A4382830EE7828B6A
:104B80000C239A438283828B0A43828306E7028B3B
:104B9000914B1A400283028B09020A430283FDE60D
:104BA000F0B5048C1026B4430484058B048C8B4F21
:104BB0001B0309013D402B4312021A43A0239C43CF
:104BC0000C43344302830484F0BD028B0C239A43CC
:104BD0000283028B0A430283E0E670B5048C64080A
:104BE00064000484058B048C1B011343F3260A2202
:104BF000B54394432B430C4301210C4303830484AA
:104C000070BDF8B5044608884E888A880B890D4621
:104C100000281DD0042824D00828208C2AD07049D0
:104C200008402084A08B278C31036C4E1202304048
:104C30000243180310436B4AA08317400F4301211E
:104C400009030F432784E9882046FFF78FFFF8BD4B
:104C500031462046FFF7C1FFE9882046FFF7B5FF40
:104C6000F8BD31462046FFF79BFFE9882046FFF755
:104C70008EFFF8BD5C4908402084A18B208C370250
:104C8000F3261B01B14313430B435849A383084048
:104C9000FF213843013108432084E9882046FFF78B
:104CA0006EFFF8BD00210180418001228280C18019
:104CB000018173E6F8B50C464988002601250746B0
:104CC000002900D10226A288012A00D102252088CD
:104CD00023890028384610D0FFF762FFE188384664
:104CE000FFF755FF23892A4631463846FFF775FFFF
:104CF000E1883846FFF769FFF8BDFFF76EFFE188EE
:104D00003846FFF762FF23892A4631463846FFF7C7
:104D100047FFE1883846FFF73AFFF8BD406B3DE6B4
:104D2000806B3BE6C06B39E6006C37E6002A82896F
:104D300001D00A4300E08A4382812FE681822DE67A
:104D40000246128A00200A4200D0012026E6C9430A
:104D5000018223E60246138A002092890B400A4012
:104D6000002B02D0002A00D0012017E6C94301829F
:104D700014E611434030018110E6002A828901D0F7
:104D80000A4300E08A43828108E6082200298188DC
:104D900001D0114300E091438180FFE50189C908FA
:104DA000C9000181FAE5028970239A430A4302810E
:104DB000F4E510B50446FFF7F6FF20890721084304
:104DC000208110BDFF8F0000FFF70000FFFB0000F7
:104DD000FFFD0000FFDF0000FFF30000FF0C0000FC
:104DE000FFEF0000FF5F0000FFFE0000FFF5000086
:104DF00070B516460D46044660290CD00122314696
:104E0000FFF7EBFE29462046FFF7CDFF208907215B
:104E10000843208170BD01223146FFF7C1FEF1E752
:104E200010B504891B021343E4B20B4323430381EF
:104E300010BD10B50446FFF7F3FF2089C108C90073
:104E400007200143702081430143218110BD10B52B
:104E50000446FFF7E5FF20890121890308432081EB
:104E600010BD828870239A43828082880A438280A0
:104E700094E50289D208D200028102890A430281A4
:104E80008CE5028980239A43028102890A430281C8
:104E900084E570B50689048B058CF608F6000E4390
:104EA0000C4906810C40FF2102310C43AA218D439D
:104EB0001901114329430483018470BD8022002914
:104EC000818801D0114300E09143818066E5403044
:104ED000018263E5FCFC00000168454A1140016065
:104EE0000021016041608160C1604249414A083946
:104EF000904202D148680F2205E03E4A14329042A7
:104F000004D14868F022104348607047394A28327B
:104F1000904203D148680F221202F4E7354A3C322E
:104F2000904203D148680F221203ECE7314A503215
:104F30009042EAD148680F221204E4E730B50368D2
:104F40002D4A0C6A13408A684D6922430C692C4330
:104F500022438C692243CC6922434C6A22438C6AE7
:104F600022431A430260CA6842600A688260496844
:104F7000C16030BD0021016041608160C16001619C
:104F800041618161C16101624162816270470029B2
:104F9000016802D00122114301E0154A114001606D
:104FA000704741607047406880B27047002A0268CD
:104FB00001D00A4300E08A430260704701460D4A6F
:104FC0000020083A12680A4200D0012070470949BF
:104FD0000839486070470146064A0020083A1268BE
:104FE0000A4200D0012070470249083948607047E2
:104FF000FEFF0000080002400F80FFFF10B50121F6
:105000000C072046FFF733F800212046FFF72FF862
:1050100010BD30498A150028086801D0104300E00F
:105020009043086070472B4A1168E023994301437D
:1050300011607047274910220028086801D01043EA
:1050400000E0904308607047224A0029516801D06F
:10505000014300E08143516070471F490A690423FE
:105060009A430A61012801D020BF704730BF7047C2
:10507000184B1A689208920002431A601648036996
:10508000042213430361012904D020BF0169914325
:105090000161704730BFF9E70E48026804210A43F6
:1050A0000260026802231A4302600B4802690A4345
:1050B000026130BF7047074A0146526800200A4229
:1050C00000D00120704703490A68800002430A604B
:1050D000704700000070004000ED00E0FE4A1168DB
:1050E00049084900014311607047FB49102200281C
:1050F000086801D0104300E0904308607047F6490B
:1051000000200968890600D501207047F24801692E
:10511000090603D5F1494160F14941607047EE4805
:1051200001698022114301617047EB490420CA687C
:10513000D20701D001207047CA68D20601D50220EB
:105140007047C9684907FBD50320704700B503467F
:10515000FFF7EBFF02E0FFF7E8FF5B1E012803D03B
:10516000002B00D1052000BD002BF4D1FAE7F0B5EB
:105170000B2706463F043846FFF7E8FF04280FD107
:10518000D54C2069022528432061666120694021B1
:10519000084320613846FFF7D9FF2169A9432161FF
:1051A000F0BD70B50B252D042846FFF7CFFF04286E
:1051B0000ED1C94C2069042630432061206940216A
:1051C000084320612846FFF7C1FF2169B1432161EF
:1051D00070BDF8B5064600200B273F0400900D4631
:1051E0003846FFF7B3FF042815D1BB4C20690121D5
:1051F0000843206135803846FFF7A8FF042806D110
:10520000B61C280C009630803846FFF79FFF2169B6
:10521000490849002161F8BDF0B50B2706463F0457
:105220000D463846FFF792FF04280CD1AA4C20699E
:1052300001210843206135803846FFF787FF216947
:10524000490849002161F0BDA3480169890503D4DB
:10525000A2498160A249816070479F480169421557
:105260009143016170479C48016901225203114337
:105270000161704798490020C9694907890F00D02A
:1052800001207047F0B5AA25FFF7F4FF002800D0F1
:1052900000250B273F043846FFF758FF042813D199
:1052A0008D4C20692026304320612069402108432D
:1052B00020613846FFF74AFF1021042805D0052851
:1052C00002D022698A432261F0BD2069B043206187
:1052D00020690E4630432061824805803846FFF73A
:1052E00035FF0528F0D02169B1432161F0BDF0B54B
:1052F000C043C6B20004050E0B200004FFF726FFD2
:1053000004281BD1744C2169102211432161754F6F
:10531000FF2E06D03E810B200004FFF717FF042864
:1053200006D1FF2D06D07D810B200004FFF70EFF74
:10533000052803D0226910218A432261F0BDF0B50F
:105340000B26074636043046FFF700FF04281ED11F
:10535000614C2069202528432061206940210843B1
:1053600020613046FFF7F2FE04280BD12069A843E4
:10537000206120691025284320615A480780304663
:10538000FFF7E4FE052802D02169A9432161F0BDA1
:10539000F0B505460B2094460F460004FFF7D6FEF5
:1053A000042814D14C4C20691026304320613D4321
:1053B00060460543F82005434A4845800B20000419
:1053C000FFF7C4FE052802D02169B1432161F0BD79
:1053D000F0B50B2705463F043846FFF7B7FE042813
:1053E00010D13D4C2069102630432061EF20054349
:1053F0003C4845803846FFF7A9FE052802D02169C0
:10540000B1432161F0BDF0B50B2705463F04384696
:10541000FFF79CFE042810D12F4C20691026304342
:105420002061DF2005432F4845803846FFF78EFE78
:10543000052802D02169B1432161F0BDF0B50B27E9
:1054400005463F043846FFF781FE042810D1224C60
:105450002069102630432061BF2005432148458044
:105460003846FFF773FE052802D02169B143216158
:10547000F0BDF0B50B2705463F043846FFF766FE42
:10548000042810D1144C2069102630432061882054
:105490000543144845803846FFF758FE052802D0DA
:1054A0002169B1432161F0BDF0B507460B200E46DE
:1054B0000004FFF74BFE042817D1074C2069102584
:1054C000284320613E800B200004FFF73FFE0528A3
:1054D0000BD02169A94307E0002002402301674562
:1054E000AB89EFCD00F8FF1F2161F0BD0D48C06909
:1054F0000004000E70470B48006A7047094A0029F3
:10550000116901D0014300E0814311617047054AF0
:105510000146D26800200A4200D0012070470149AC
:10552000C860704700200240854910B5884208D104
:10553000441501212046FEF791FD00212046FEF78B
:105540008DFD10BD30B5C3687E4A8C6813400A6873
:105550000D792243CC686D032C4322430C694969C1
:1055600022430A431A43C26030BD00210160017129
:105570008160C1600161416170470029816801D08B
:10558000012200E00222114381607047002A026973
:1055900001D00A4300E08A43026170470122D2032E
:1055A0000029C16801D0114300E09143C1607047F8
:1055B000012292030029C16801D0114300E0914308
:1055C000C16070470122D2050029C16801D0114392
:1055D00000E09143C16070470904114301627047C4
:1055E000C2681F239B069A430A43C2607047012288
:1055F00092050029C16801D0114300E09143C160C8
:10560000704701225049D2050028886801D0104314
:1056100000E090438860704701224B4992050028C2
:10562000886801D0104300E09043886070470122F1
:10563000454912060028886801D0104300E09043D5
:1056400088607047836A0B4383624261704701221E
:1056500052030029C16801D0114300E09143C160A9
:105660007047012212040029C16801D0114300E0F3
:105670009143C1607047012212030029C16801D023
:10568000114300E09143C16070478268002101230B
:10569000DB071A4382600F231B038268491CD20F69
:1056A000D207994201D0002AF7D18168002901DB95
:1056B000006C7047002070478168102211438160A0
:1056C000704781680422114381607047006C80B28A
:1056D00070470029C16802D00122114301E0490846
:1056E0004900C1607047C26802239A43C260C26821
:1056F0000A43C2607047002A426801D00A4300E0B2
:105700008A434260704702460020CB0104D592686C
:1057100001231B069A4300E012680A4200D00120D0
:1057200070470160704702465368002012680B40C2
:105730000A4202D0002B00D0012070470160704760
:105740000024014003D2FFFF0027014032483149C5
:105750000160002141608160C16030494161704752
:1057600010B583792C490268002B26D00B6893432F
:105770000B604A6803689A434A60027952181368BA
:105780000468234313608A6803689A438A60CA687E
:1057900003689A43CA604279102A05D051180A68F2
:1057A000006802430A6010BD8A6803681A438A6071
:1057B000CA6800680243CA6010BD007940180168D9
:1057C0009143016010BD0021016001710C22427102
:1057D0008171704710490A6902430A6170470E4A95
:1057E0000146526900200A4200D0012070470A4950
:1057F00048617047084A01461368002052690B400F
:105800000A4202D0002B00D00120704702494861B3
:10581000704700000000940F00040140FFFF6B0080
:10582000244801688907890F016000218160C160F7
:1058300001614161816982151143816170471D4A8F
:10584000116889088900014311607047194A0029CD
:10585000116801D0014300E0814311607047154A8F
:105860000029116801D0014300E0814311607047B5
:105870008A07130F10B50F229A408C080D49A40017
:1058800061188C6894438C608A68984002438A60EF
:1058900010BD08498A6902438A61704705490020A2
:1058A0008969C90500D50120704702498A69024308
:1058B0008A6170470000014018B50020F749009048
:1058C0008868800601D5012018BDCA20486253208F
:1058D0004862C868A0229043C86020229302C8682A
:1058E000009C1040641C00949C4201D00028F6D01B
:1058F000C868800601D5012000E00020FF224A622E
:1059000018BD18B500200090E448C168490612D4BB
:105910000021C943C16040220314C168009C1140AA
:10592000641C00949C4201D00029F6D0C068400657
:1059300001D4002018BD012018BD78B50024D74D32
:10594000CA2000942646686253206862FFF7D9FF98
:10595000002813D02C60D2486860A868AC60D14899
:105960002861EC61EC62EC63CC4840304460EC6050
:105970000460FFF7A1FF002800D00126FF20686225
:10598000304678BDC548C16880229143C1607047E8
:1059900070B505460026C14CCA2060625320606283
:1059A000FFF7AFFF002811D0A06840218843A06016
:1059B000A06829680843A060A86820612069A988B8
:1059C000090408432061FFF7DDFF0126FF20606224
:1059D000304670BD002101607F214160FF21816060
:1059E0007047AE49002801D0FF2002E0CA2048627B
:1059F00053204862704770B506460025A74CCA2060
:105A0000606253206062FFF77CFF00280AD01020FC
:105A1000A168002E01D0014300E08143A160FFF79F
:105A2000B1FF0125FF206062284670BD9B49CA2254
:105A30004A6253224A620028886802D0202210431A
:105A400001E0DF2210408860FF2048627047F8B50F
:105A500002460027914D0C46002A0978AA6838466C
:105A600005D052062FD5084600F047FB2CE0520621
:105A700000D4E070084600F034FB0604607800F0C3
:105A800030FB00020643A07800F02BFB0643E078D1
:105A900000040643CA20686253206862FFF731FFA2
:105AA00000280CD0804806402E60FFF76BFFA868E6
:105AB000800603D4FFF700FF002800D00127FF2055
:105AC00068623846F8BDE0702078A6780004064386
:105AD0006078E178000209040843DAE70021C17028
